:100000000000012079030000610300009126000038
:1000100065030000670300006903000000000000A2
:100020000000000000000000000000006B03000062
:100030006D030000000000006F030000710300006A
:100040005961000073030000F9610000696100005C
:100050008D6100007303000075580000C96A00003C
:10006000196F0000316F0000496F00000D6A000039
:100070007303000045680000730300007303000071
:10008000E56F00002115000031640000D56100001B
:1000900061150000B96D0000C56D0000D16D000054
:1000A000DD6D0000E96D0000616F0000796F0000F8
:1000B0004D630000255E000000000000000000000D
:1000C00073030000656300007D630000B161000000
:1000D000216A0000C95B00007303000000000000FB
:1000E0000000000000000000000000000000000010
:1000F0000000000000000000000000000000000000
:1001000000000000000000000000000000000000EF
:1001100000000000000000000000000000000000DF
:1001200000000000000000000000000000000000CF
:1001300000000000000000000000000000000000BF
:1001400000000000000000000000000000000000AF
:10015000000000000000000000000000000000009F
:10016000000000000000000000000000000000008F
:10017000000000000000000000000000000000007F
:10018000000000000000000000000000000000006F
:10019000000000000000000000000000000000005F
:1001A000000000000000000000000000000000004F
:1001B000000000000000000000000000000000003F
:1001C000000000000000000000000000000000002F
:1001D000000000000000000000000000000000001F
:1001E000000000000000000000000000000000000F
:1001F00000000000000000000000000000000000FF
:10020000364937480A1A02D0072291438D463549AC
:1002100035480A1A06D00722914381F30988022241
:1002200082F3148831483249324A00F045F83248A6
:100230003249334A00F040F832483349334A00F03B
:100240003BF833483349344A00F036F833483449F0
:10025000344A00F031F834483449354A00F02CF87B
:1002600034483549354A00F027F8354835490022E9
:1002700000F02DF834483549002200F028F83448C1
:100280003449091A082903DB0022026004300160A6
:10029000314A90471F482049884205D002680430FF
:1002A00003B4904703BCF7E700208646EC460020E5
:1002B00000212A4A9047FEE7884207D0521A05D00B
:1002C000037801300B700131013AF9D1704788424F
:1002D00002D002700130FAE77047000000000120F0
:1002E00000E000200000012000000120ACC9000057
:1002F0003400002090000020D8030000D803000044
:10030000388E0000ACC9000034000020340000200A
:10031000CC8E0000CC8E0000CC8E0000CC8E000075
:10032000CC8E0000CC8E0000CC8E0000CC8E000065
:10033000ACC9000008CA0000900000209000002016
:100340009000002058150020581500205815002056
:100350005815002058350020A1030000CD71000081
:10036000FEE7FEE7FEE7FEE7FEE7FEE7FEE7FEE765
:10037000FEE7FEE7704700BF1048804710484FF087
:100380000701884385460F4880470F48016841F4BC
:1003900070010160BFF34F8FBFF36F8FFFF730BF66
:1003A0000A480B490B4A884207D0521A05D00378F5
:1003B00001300B700131013AF9D17047750300002B
:1003C000000001205186000088ED00E0988E0000BA
:0803D0000000002034000020B1
:1003D80000B583B00021002006F038FE0190019B93
:1003E800184603B05DF804FB00B583B006F098FE2C
:1003F8000190019B184603B05DF804FB84B001909E
:10040800019B13F1360F0CD0002B03D013F1380FDA
:1004180003D00AE0002303930BE048F2115303933F
:1004280007E048F21453039303E048F2165303938A
:1004380000BF039B184604B0704700B585B0039011
:10044800029101920199029805F02AF800231846B2
:1004580005B05DF804FB000000B589B00390029177
:10046800039B04330793002004F09CFF0690069B2F
:10047800002B01D0069B10E0079807F0A7FE002389
:100488000093002300220749079807F0E4FE05902F
:100498000598FFF7B3FF0690069B184609B05DF86C
:1004A80004FB00BF4304000000B585B00190019B28
:1004B80004330393039807F0E3FE04F0A5FF002339
:1004C800184605B05DF804FB00B583B00190019BA8
:1004D8001B681F2B04D905494FF4E87002F03AF95C
:1004E8004FF0A043184603B05DF804FBCC8E000023
:1004F80000B585B00190084611461A4603468DF8A6
:1005080003300B468DF8023013468DF8013001ABED
:100518001846FFF7D9FF03909DF803209DF8023095
:100528005B001A439DF801309B001A439DF8183070
:100538001B0242EA03019DF81C301B04019A19436F
:10054800039B02F5E07243F8221000BF05B05DF886
:1005580004FB00B585B003900023019300230093AA
:100568000023012201210398FFF7C2FF00BF05B055
:100578005DF804FB00B585B003900B468DF80B3091
:100588009DF80B20002301930023009313460022BB
:1005980000210398FFF7ACFF00BF05B05DF804FB2E
:1005A80000B585B0019001AB1846FFF78DFF0390A9
:1005B800019B012202FA03F31946039800F02AF876
:1005C80000BF05B05DF804FB00B585B0019001AB34
:1005D8001846FFF779FF0390019B012202FA03F303
:1005E8001946039800F020F800BF05B05DF804FB39
:1005F80000B583B001900091009B002B03D10198B6
:10060800FFF7E2FF02E00198FFF7CAFF00BF03B05F
:100618005DF804FB82B001900091019B009AC3F839
:10062800082500BF02B0704782B001900091019B7D
:10063800009AC3F80C2500BF02B0704700B583B01C
:100648000190019B032B03D90749412002F082F84E
:10065800064A019B13441B7800211846FFF7C8FF80
:1006680000BF03B05DF804FBFC8E0000648F00003F
:1006780000B583B00190019B032B03D9074947209C
:1006880002F068F8064A019B13441B7801211846BA
:10069800FFF7AEFF00BF03B05DF804FBFC8E00005F
:1006A800648F000000B583B00023019305E0019832
:1006B800FFF7DEFF019B01330193019B032BF6D962
:1006C80000BF03B05DF804FB00B583B000230193BD
:1006D80009E0094A019B13441B781846FFF739FFC4
:1006E800019B01330193019B032BF2D9FFF7DAFF3A
:1006F80000BF03B05DF804FB648F000000B583B051
:10070800002301930AE0094A019B13441B78032143
:100718001846FFF72FFF019B01330193019B032B21
:10072800F1D900BF03B05DF804FB00BF688F00007B
:1007380000B583B00190019B03F00103002B01D0A9
:10074800FFF7C2FF019B03F00203002B01D0FFF764
:10075800D5FF00BF03B05DF804FB82B00190019B98
:100768009B68D3F83C31C3F34003DBB2002B14BFC2
:1007780001230023DBB2184602B07047024B1B6806
:100788001B0ADBB21846704790ED00E082B001907A
:10079800019B03F47C130193019BB3F5C02F38D060
:1007A800B3F5C02F15D8B3F5003F30D0B3F5003FEF
:1007B80005D8002B27D0B3F5803F26D02DE0B3F520
:1007C800802F20D0B3F5A02F1FD0B3F5403F1ED007
:1007D80023E0B3F5402F1CD0B3F5402F09D8B3F56B
:1007E800002F14D0B3F5302F11D0B3F5E02F10D06F
:1007F80013E0B3F5801F0ED0B3F5A01F0BD0B3F5EF
:10080800702F06D009E00E4B17E00E4B15E00E4B8B
:1008180013E00E4B11E00E4B0FE0019BDB0C03F0D5
:100828000703032B08D9019B03F48023002B01D075
:10083800064B02E0044B00E0064B184602B0704736
:100848006C8F0000888F00009C8F0000A48F000030
:10085800B88F0000C08F000082B00190019B1B0E72
:1008680003F00703072B21D801A252F823F000BF99
:10087800990800009D080000A1080000A5080000D4
:10088800A9080000AD080000B1080000B108000088
:10089800084B0CE0084B0AE0084B08E0084B06E060
:1008A800084B04E0084B02E0084B00E0084B1846F0
:1008B80002B07047E48F0000EC8F0000F48F000056
:1008C800FC8F0000049000000C90000014900000C1
:1008D8001C90000086B00190019BDB0C03F007031D
:1008E8000593019B5B0C03F001030493019B1B0C14
:1008F80003F001030393019B03F47C130193019B11
:10090800B3F5C02F31D0B3F5C02F15D8B3F5003FDC
:100918002DD0B3F5003F05D8002B26D0B3F5803F86
:1009280023D02AE0B3F5802F1FD0B3F5A02F1CD019
:10093800B3F5403F1DD020E0B3F5402F15D0B3F5F7
:10094800402F09D8B3F5002F0FD0B3F5302F12D0B0
:10095800B3F5E02F09D010E0B3F5801F05D0B3F54B
:10096800A01F02D0B3F5702F07D1104B1BE0104B1E
:1009780019E0104B17E0104B15E0059B032B10D91D
:10098800059B9B0003F00C02049B5B0003F0020331
:100998001A43039B03F001031343084A52F8233018
:1009A80001E000BF064B184606B07047E48F000010
:1009B800249000002C9000003490000034000020A7
:1009C8001C90000000B58DB0059004910392059825
:1009D800FFF7C3FE0346002B05D00022002105982F
:1009E80002F074FD7CE0FFF7C9FE0A903E4B5B689D
:1009F80003F00103002B01D03C4A00E03C4A0A9B6B
:100A0800009313463B4A0821059802F033FC002363
:100A18000B9361E0002000F0BDFD334A0B9B93600F
:100A2800314B1B690993304BDB680893002000F0B9
:100A3800C5FD099B03F00103002B06D10B9B2E4A31
:100A48000821059802F016FC43E00B9B2B4A08216D
:100A5800059802F00FFC099B5B0803F01F030133A4
:100A6800012202FA03F30793089A079B1344013BF8
:100A7800079A01920093089B214A0821059802F0E1
:100A8800F9FB0998FFF7E8FE03461E4A0821059876
:100A980002F0F0FB0998FFF779FE03461A4A08218D
:100AA800059802F0E7FB0998FFF714FF0346174A79
:100AB8000821059802F0DEFB099B03F08053002B08
:100AC80001D0134B00E0134B134A0821059802F09C
:100AD800D1FB0B9B01330B930B9A0A9B9A4299D338
:100AE8000DB05DF804FB00BF90ED00E04090000001
:100AF8004890000054900000849000009C900000F2
:100B0800B4900000E4900000F4900000049100000C
:100B1800189100001C9100002091000000B58BB0D6
:100B2800059004910392FFF729FE08900598FFF7B6
:100B380014FE0346002B05D000220021059802F080
:100B4800C5FC36E01C4B1B681C4A0821059802F0BE
:100B580091FB194B5B681A4A0821059802F08AFB39
:100B68000023099321E0002000F014FD124A099B9C
:100B78009360114B1B6907930F4BDB6806930020AA
:100B880000F01CFD069B0093099B0E4A082105985E
:100B980002F070FB079B0093099B0B4A08210598FC
:100BA80002F068FB099B01330993099A089B9A4252
:100BB800D9D30BB05DF804FB90ED00E03491000050
:100BC800489100005C9100007891000000B587B062
:100BD800059004910392049B012B05D00598FFF71B
:100BE800BCFD0346002B05D000220021059802F029
:100BF8006DFC0BE0039B1A68039B04331B6800938E
:100C08001346044A0221059802F034FB07B05DF848
:100C180004FB00BF9091000086B0039002910192FE
:100C280001238DF817309DF817301F4A039B136076
:100C38001D4A029B53601C4A019B9360039B44F22C
:100C48000102934212D044F20202934221D1019B45
:100C5800154AD360144BDB681B881A46124B9A61FD
:100C6800114BDB685B68104AD36112E0019B0E4AA6
:100C780013610D4B1B699B680B4A53610A4B1B6937
:100C88001B68094A9361084B1B695B68064AD36174
:100C980000BF72B600BF9DF81730DBB2002BFAD147
:100CA80062B600BF06B070479000002000B587B05C
:100CB80003900291019272B6039B44F2010293429F
:100CC80007D044F20202934200D005E0019B05934D
:100CD80002E0019B049300BF074B1B6803F001036C
:100CE800002B00D000BE019A02990398FFF794FFE9
:100CF80000BF07B05DF804FBF0ED00E082B00346EA
:100D08008DF807309DF8073003F01F0205499DF95B
:100D180007305B09012000FA02F241F8232000BFE6
:100D280002B0704700E100E082B003468DF807305A
:100D38009DF8073003F01F0206499DF907305B094B
:100D4800012000FA02F2203341F8232000BF02B04C
:100D5800704700BF00E100E082B003468DF807301D
:100D68009DF8073003F01F0206499DF907305B091B
:100D7800012000FA02F2403341F8232000BF02B0FC
:100D8800704700BF00E100E082B003468DF80730ED
:100D98009DF8073003F01F0206499DF907305B09EB
:100DA800012000FA02F2603341F8232000BF02B0AC
:100DB800704700BF00E100E000B585B00190019BDD
:100DC800002B0AD0074B43F001030393019B9B01BF
:100DD8000293039B0298984700E000BF05B05DF8B6
:100DE80004FB00BFC092000008B50D4B4FF48032E1
:100DF800C3F844230A4B4FF48032C3F8042311206C
:100E0800FFF7C2FF1120FFF779FF054B01221A6097
:100E18002F20FFF7D1FF034B01221A7000BF08BD36
:100E280000100140CE01002008B51120FFF77CFF1B
:100E38000E4B4FF48032C3F848230C4B4FF48032EA
:100E4800C3F80823094B01225A602F20FFF7B4FF8B
:100E5800064B01229A60064B00221A602F20FFF7EA
:100E6800ABFF044B00221A7000BF08BD0010014000
:100E7800C0010020CE010020024BD3F804351846EB
:100E8800704700BF0010014082B001900091019AA4
:100E9800009BD31A23F07F43184602B07047000026
:100EA80082B00190034A019BC2F8403500BF02B0EE
:100EB800704700BF0010014086B00190284B1B68A6
:100EC800002B03D1264A019B136045E0019B1A6859
:100ED800234B1B681B689A4210D8214B1B68196862
:100EE800019B1A681E4B1B688A1A1A601C4B1A68E9
:100EF800019BDA611A4A019B13602DE0019B1B6874
:100F08000393174B1B680593154B1B68049309E063
:100F1800049B1B68039AD31A0393049B0593049BB1
:100F2800DB690493049B002B04D0049B1B68039A81
:100F38009A42EDD8049B002B05D0049B1A68039BAA
:100F4800D21A049B1A60019B039A1A60019B049AA7
:100F5800DA61059B019ADA6100BF06B0704700BFED
:100F6800BC01002000B587B001902A4B1B68039391
:100F7800284B1B680593059B049308E0049A019B82
:100F88009A4208D0049B0593049BDB690493049B55
:100F9800002BF3D100E000BF049B002B01D10023FC
:100FA80033E0059A049B9A4214D11A4B1B68DB69FB
:100FB800184A1360174B1B68002B0BD1164B0122E4
:100FC8009A60164B00221A60154B01221A702F20C6
:100FD800FFF7F2FE049B1B680293049BDA69059BEA
:100FE800DA61059BDB690493049B002B05D0049B05
:100FF8001A68029B1A44049B1A60064B1B68039AE2
:101008009A4214BF01230023DBB2184607B05DF8EB
:1010180004FB00BFBC01002000100140C0010020FB
:10102800CF01002008B51120FFF796FE00BF08BDCC
:1010380008B51420FFF790FE00BF08BD00B583B0C7
:101048000190019B5B69019A92691046984700BF1D
:1010580003B05DF804FB000000B585B02B4B1B689E
:10106800002B4ED000230193FFF706FF0246284BC2
:101078001B6819461046FFF707FF0290234B1B68B1
:1010880003931DE0039B1B68029A9A421CD3039B9F
:101098001B68029AD31A0293039B1B68019A134494
:1010A8000193039B0093039BDB690393009B1B7CC9
:1010B800002B05D0009B00221A740098FFF7BEFF92
:1010C800039B002BDED100E000BF124B1A78124BB5
:1010D8001B789A420CD1104B1B780133DAB20E4BB5
:1010E8001A700D4B1B78022B02D10B4B00221A7081
:1010F800094B1B781946094A019B42F82130FFF732
:1011080097FF00BF05B05DF804FB00BFBC010020DD
:10111800C0010020CC010020CD010020C401002026
:1011280082B00190184B1A78184B1B789A4223D03A
:10113800154B1B780133DAB2134B1A70124B1B781C
:10114800022B02D1104B00221A700F4B1B781A4643
:101158000F4B53F82220019B1A60019B1A680D4B14
:101168001B6813440B4A13600A4B1B6823F07F4328
:10117800084A1360012303E0019B00221A60002340
:10118800184602B0704700BFCC010020CD010020F6
:10119800C4010020C001002088B003900291019290
:1011A8000023079338E0204B1B680693069B1B68B7
:1011B800039A9A4206D2069B1A68039BD21A069B88
:1011C8001A602DE0069B1B68039AD31A0393069BAB
:1011D8001B68079A13440793069B00221A60124B58
:1011E8001B680593069BDB690F4A1360069BDB6847
:1011F800002B11D0029A079B134423F07F42069BD1
:101208005A60069BDA68069B9A60019B1A68069BDF
:10121800DA61019B059A1A60034B1B68002BC2D147
:1012280000BF08B0704700BFBC01002000B589B0FE
:10123800019000238DF81F30664B1B680593AAE0C8
:10124800019B002B05D0019B0693069BDB6901934C
:1012580061E0614B1B781A4613465B001344DB00C0
:101268005D4A1344043304935B4B1B780133DAB2B1
:10127800594B1A70584B1A78574B9B789A4202D19F
:10128800554B00221A70049B5B680693049B1B78DD
:10129800022B04D0032B1BD0012B1FD01DE0049B75
:1012A8005B681846FFF75EFE0346002B02D0012359
:1012B8008DF81F30069B00221A746CE0454B1B68A2
:1012C8000393039B00221A74039BDB69414A136052
:1012D800404B1B68002BF1D15DE05CE000BF069B32
:1012E8001B7C002B00D056E0049B9A68069B5A6032
:1012F800049BDA68069B9A60049B1A69069BDA606D
:10130800049B5A69069B9A61344B1B78002B02D0C8
:10131800069B00225A60069B5A68314B1B68D31AF9
:1013280023F07F432F4A93420ED8069B5A682C4BD2
:101338001B6819461046FFF7A7FD0246069B9B68E7
:101348001A44069B1A6017E0254B1A68069B5B68CF
:1013580019461046FFF798FD0290069B9B68029A73
:101368009A4206D2069B9A68029BD21A069B1A607A
:1013780002E0069B00221A60069B00225A60069B28
:1013880000229A60069B01221A74069B0022DA61E9
:101398000698FFF791FD019B002B7FF451AF0E4B90
:1013A8001A780D4B5B789A427FF44AAF9DF81F304C
:1013B800002B04D1074B1B68059A9A4201D00123E0
:1013C80000E0002303F00103DBB2184609B05DF822
:1013D80004FB00BFBC010020B0000020CF010020AA
:1013E800C0010020FEFF7F0010B588B00190274B98
:1013F8001B68002B44D0254B1B681B680793FFF71D
:101408003BFD0690224B1B68059305990698FFF74C
:101418003BFD0346033304931E4B1B7883F0010303
:10142800DBB2002B01D0FFF7DFFC049A079B934245
:1014380038BF1346059A13440593059B23F07F4351
:1014480005930598FFF72CFDFFF716FD0390069905
:101458000398FFF719FD0346DC1C06990598FFF76A
:1014680013FD03469C420DD9FFF706FD03461846B7
:10147800FFF716FD2F20FFF79FFCFFF7D3FD01E0D4
:10148800FFF7D2FC00BF08B010BD00BFBC010020B0
:10149800C0010020CE01002000B587B000230193D1
:1014A80000238DF81730194B1B680493184B1B68E1
:1014B80003936B461846FFF733FE03468DF80B304F
:1014C8009DF80B30002B08D0009B01AA0499184600
:1014D800FFF762FE01238DF81730019B1846FFF7CE
:1014E800A5FE0346002B02D001238DF817309DF886
:1014F8001730002B02D00398FFF776FF054B002228
:101508001A7000BF07B05DF804FB00BFC0010020DF
:10151800BC010020CF01002008B50E4B0022C3F803
:1015280040210C4B0022C3F844210A4B0022C3F887
:101538004821084B0022C3F84C21064B0022C3F86F
:101548000021044B0022C3F80421FFF785FD00BFEA
:1015580008BD00BF0010014008B5FFF79DFF00BFA0
:1015680008BD000072B6034B1B680133014A1360C3
:1015780000BF7047D0010020054B1B68013B044A9F
:101588001360034B1B68002B00D162B600BF704785
:10159800D001002000B583B0019000F025F8034683
:1015A800012B03D00449432001F0D4F8FFF7DAFFF8
:1015B80000BF03B05DF804FBC892000000B583B01B
:1015C80003468DF8073000F00FF80346012B03D0CF
:1015D8000449512001F0BEF8FFF7CEFF00BF03B069
:1015E8005DF804FBC892000084B0EFF30583019313
:1015F800019BC3F308030393039B002B0DD1EFF367
:1016080014830093009B0293029B03F00103002BB9
:101618000CBF01230023DBB200E00123184604B00D
:10162800704782B00190019B03F00303002B0CBFAD
:1016380001230023DBB2184602B0704700B585B01D
:101648000190002303930EE00A4A039B52F82330CB
:10165800002B05D0074A039B52F82330019898477E
:10166800039B01330393039B032BEDD900BF05B004
:101678005DF804FBE001002082B001900091019B1D
:101688001B78013B052B61D801A252F823F000BF5B
:10169800B1160000B9160000DF160000111700008F
:1016A800311700004D170000009B00221A704EE011
:1016B800009B01221A70019B1A89009B9A81019B49
:1016C8009A88009BDA81019BDA68009B9A60009BEC
:1016D80000221A743BE0009B02221A70019B1A89AF
:1016E800009B9A81019B9A88009BDA81019BDA68AA
:1016F800009B9A60019B9B7D062B0CBF0123002356
:10170800DAB2009B1A7422E0009B03221A70019B34
:10171800DA88009B9A81019B1A89009BDA81019BD8
:10172800DA68009B9A6012E0009B04221A70019B01
:10173800DA88009B9A81009B0022DA81009B0022B4
:101748009A6004E0009B05221A7000E000BF00BF09
:1017580002B0704784B001900091019B0393039AF3
:10176800009B9A4206D2039B1B68B3F1FF3F01D04E
:10177800012300E0002303F00103DBB2184604B0A4
:10178800704782B00190019B5B8803339B00019AEC
:101798001344184602B0704700B583B00190009119
:1017A8000198FFF7EEFF0246009B934201D2022305
:1017B8000CE0019B9B884FF6FF72934203D0019B7C
:1017C8001B88002B01D1012300E00023184603B039
:1017D8005DF804FB00B583B00190019B002B13D08A
:1017E8000D4BDB681A46019B93420DD30A4B1B69CC
:1017F8001A46019B934207D80198FFF712FF034648
:10180800002B01D0012300E0002303F00103DBB229
:10181800184603B05DF804FB0000002084B0019076
:1018280000910A2303930023ADF80A3027E0BDF89E
:101838000A20174913469B0013449B000B440433AA
:101848001B68009A9A4215D9BDF80A201049134618
:101858009B0013449B000B4404331B6803F580531F
:10186800009A9A4206D200230393019BBDF80A20EE
:101878001A8008E0BDF80A300133ADF80A30BDF827
:101888000A30012BD3D9039B184604B0704700BF18
:101898000002002082B001900091009B9B7D022BEA
:1018A80009D9019B1A89009BDB8813449BB2033337
:1018B8009AB2019B1A81019B5A89009BDB88D31A33
:1018C8009BB2033B9AB2019B5A8100BF02B070479A
:1018D80000B583B0074B1B68194600230093082303
:1018E800054A064802F0F0FF0346184603B05DF8C3
:1018F80004FB00BF28020020B09300000000002075
:1019080000B585B003900399002300930823044A87
:10191800044802F0D9FF0346184605B05DF804FBF9
:10192800B89300000000002000B585B00346009180
:10193800ADF80630BDF80620234913469B00134432
:101948009B000B4404331B6803F580530293009BF0
:101958001B680393039B002B04D00398FFF711FF28
:10196800039024E0BDF80620174913469B00134452
:101978009B000B4404331B680833039317E0029958
:101988000398FFF709FF0346012B09D0022B0CD05F
:10199800002B00D00BE0009B039A1A6001230EE095
:1019A8000398FFF7EEFE039001E0002307E0029999
:1019B8000398FFF7CFFE0346002BE0D1002318461B
:1019C80005B05DF804FB00BF0002002000B585B03B
:1019D80001900091019B5B681846FFF7FBFE0346E8
:1019E800002B19D0019B1A89244B1B899A4213D1C9
:1019F800019B1A68019B5B689B689A420CD1019B0A
:101A08005B6819460098FFF709FF0346002B0CBFD7
:101A180001230023DBB22CE0009B00221A8023E084
:101A28000023029310E0029B0393039B9A68019B97
:101A38001B689A4208D1029A019B5A600F4B1A8977
:101A4800019B1A81012314E0009B1B8802AA1146FE
:101A58001846FFF769FF0346002BE4D1009B1B885B
:101A680001339AB2009B1A80009B1B88012BD7D99F
:101A78000023184605B05DF804FB00BF30020020C3
:101A880000B587B00390029101920093304B1B7808
:101A9800DBB283F00103DBB2002B01D0022353E059
:101AA800019B002B02D0009B002B48D105234BE063
:101AB800009B9B881946274A0B469B000B449B00BA
:101AC80013441B78002B33D124E0009B1B6805933B
:101AD800039B002B06D0059B9A88039B1B889A4280
:101AE80000D017E0029B002B06D0059B1A88029BAA
:101AF8001B889A4200D00DE0059B9A68019B1A60EA
:101B0800009B1A68019B5A60134B1A89019B1A8122
:101B1800002319E0009B9B88009A11461846FFF79E
:101B280003FF0346002BD0D1009B00221A6000E07F
:101B380000BF009B9B8801339AB2009B9A80009B50
:101B48009B88012BB4D90A23184607B05DF804FB1B
:101B5800D4010020000200203002002000B583B02C
:101B68000190054B0199184600F046FE03461846B9
:101B780003B05DF804FB00BFF001002000B583B09E
:101B88000190044B0199184600F04FFE00BF03B0C6
:101B98005DF804FBF001002008B50A4B1B68002B18
:101BA80004D1094940F27A2000F0D4FD012105480A
:101BB80000F04FFE0346002B14BF01230023DBB2C5
:101BC800184608BDDC0100204493000000B587B02A
:101BD80003900291039B02229A750299039B1A1D96
:101BE800002300930423074802F06EFE0590059B2E
:101BF800002B01D1002300E00E23184607B05DF842
:101C080004FB00BF0000002000B587B003900291DC
:101C1800039B1B69002B01D0032200E00122039BD8
:101C28009A75029B08331946039B03F10C020023A3
:101C380000930423064802F047FE0590059B002BFD
:101C480001D1002300E00E23184607B05DF804FB1D
:101C58000000002000B587B003900291039B1B7819
:101C6800032B01D1052200E00622039B9A75029BF3
:101C780004331946039B03F108020023009304234D
:101C8800064802F021FE0590059B002B01D1002398
:101C980000E00E23184607B05DF804FB00000020A2
:101CA80000B587B003900B46ADF80A3003990023BE
:101CB800009304230C4A0D4802F006FE0590059B8C
:101CC800002B01D00E230BE0BDF80A20084913466B
:101CD8009B0013449B000B44103301221A7000230D
:101CE800184607B05DF804FBC09300000000002010
:101CF8000002002000B589B0019002AB00221A60F2
:101D08005A609A60019BDB6802930DF1160202ABE0
:101D180011461846FFF75AFE0346002B12D0039BC4
:101D28000693069B9A88019BDA80069B1A88019B7A
:101D38001A81039BBDF8162011461846FFF7B0FF1D
:101D4800079001E00A230793079B184609B05DF83E
:101D580004FB000000B587B00190019B981D02AA02
:101D68000D4B0021FFF78CFE0590059B002B08D139
:101D7800039A094B9B8819461046FFF791FF059077
:101D880004E008220021044806F0C8FF059B184615
:101D980007B05DF804FB00BF4002002000B587B023
:101DA80003900291039B01229A75029B0C331846FB
:101DB800039B1A69039BDB889900002300930B4659
:101DC8000146074802F080FD0590059B002B01D1D4
:101DD800002300E00E23184607B05DF804FB00BF9F
:101DE8000000002082B0184B1B8901339AB2164BB1
:101DF8001A81154B00225A80134B00221A730023B4
:101E0800ADF8063018E0BDF80620104913469B00CF
:101E180013449B000B441A78BDF80630002A0CBF07
:101E280001220022D1B2084A13440A469A72BDF828
:101E380006300133ADF80630BDF80630012BE2D983
:101E480000BF02B0704700BF30020020000200202F
:101E580084B0019000238DF80F300023ADF80C30CA
:101E680031E0BDF80C301C4A13449B7A002B25D076
:101E7800BDF80C30184A134400229A72BDF80C20A1
:101E8800164913469B0013449B000B440C331B68F4
:101E9800002B13D1BDF80C20104913469B001344A6
:101EA8009B000B4410331B78002B07D0019BBDF817
:101EB8000C201A8001238DF80F3008E0BDF80C3093
:101EC8000133ADF80C30BDF80C30012BC9D99DF8A1
:101ED8000F30184604B0704730020020000200207E
:101EE80008B5084B05221A70074B02229A80064B48
:101EF8001B68194600230122044802F036FD0346F8
:101F0800184608BD300200202802002000000020EA
:101F180000B583B0164B5B88ADF80230BDF80220DF
:101F2800144913469B0013449B000B440C331B6855
:101F3800002B14D10E4B04221A70BDF802200D4953
:101F480013469B0013449B000B4404331B6819463B
:101F580000230122084802F008FD019002E0FFF783
:101F6800BFFF0190019B184603B05DF804FB00BF5A
:101F780030020020000200200000002000B587B0D9
:101F8800114B5B680593114B1A68104B9B889B009B
:101F980013440493059B5B880333ADF80E300A4B5A
:101FA80003221A700499084B5A68BDF80E3098003D
:101FB800002300930346064802F086FC03461846B1
:101FC80007B05DF804FB00BF3002002028020020A3
:101FD8000000002000B583B00A4B5B880A49184608
:101FE800FFF7A2FC0346002B03D0FFF7C7FF0190C1
:101FF80002E0FFF78DFF0190019B184603B05DF8E2
:1020080004FB00BF300200203402002008B50A4B50
:1020180006221A70084B5B881946084A0B469B0033
:102028000B449B00134404331B681846FFF768FCF5
:102038000346184608BD00BF3002002000020020F9
:1020480008B5054B07221A70034B00225A60FFF7A8
:102058003FFC0346184608BD3002002008B50D486D
:10206800FFF7F6FE034683F00103DBB2002B0BD02B
:10207800094B00221A70084B00225A80064B002296
:102088005A6041F61D5302E0FFF7A4FF03461846C5
:1020980008BD00BF320200203002002082B0094B88
:1020A8005B680193019B5B880333ADF80230064BF4
:1020B8009A88BDF8023013449AB2034B9A8000BF45
:1020C80002B07047300200202802002082B0184B6E
:1020D8001B680193174B5B881946174A0B469B00F0
:1020E8000B449B00134404331B68114A1360114BC3
:1020F8005B881946104A0B469B000B449B0013440F
:102108000433019A1A600B4B5B881946084B988870
:10211800094A0B469B000B449B00134408330246B4
:102128001A80034B02229A8000BF02B0704700BF9A
:1021380028020020300200200002002008B51A4BB7
:102148001B78072B2CD801A252F823F07521000028
:10215800A9210000A9210000812100008D21000093
:102168009921000099210000A1210000FFF73AFE03
:102178000D4B01221A7014E0FFF790FF0A4B022260
:102188001A700EE0FFF7A2FF074B06221A7008E04C
:10219800054B07221A7004E0034B01221A7000E075
:1021A80000BF00BF08BD00BF3002002000B587B0E7
:1021B800019000910F230593019B002B04D0624BE3
:1021C80000225A600123BBE0009B1B79032B00F21D
:1021D800AB8001A252F823F0F1210000FF2100009A
:1021E8008D220000AD220000009B01221A71FFF72A
:1021F8006FFB05909BE000238DF813300023ADF8AA
:1022080010302BE0BDF81020504913469B001344B2
:102218009B000B441B78022B1BD1BDF810204B49A7
:1022280013469B0013449B000B4400221A700123A1
:102238008DF81330BDF81020444913469B00134411
:102248009B000B4404331B681846FFF759FB0590A5
:1022580008E0BDF810300133ADF81030BDF810308B
:10226800012BCFD99DF8133083F00103DBB2002B8B
:102278005CD0354B01221A70334B00225A6041F66C
:102288001D535DE0009B00221A71314B02229A8097
:102298002F4B1B681946002301222E4802F065FBCC
:1022A800059044E0009B00221A71294B1B681846D0
:1022B800FFF726FB0590284B5B88ADF80E30244BC2
:1022C8001B680293BDF80E20204913469B00134457
:1022D8009B000B4404331B681D4A1360BDF80E2095
:1022E8001A4913469B0013449B000B440433029A7B
:1022F8001A60BDF80E20164B9888144913469B00A7
:1023080013449B000B44083302461A80104B0222E8
:102318009A80BDF80E200D4913469B0013449B007C
:102328000B4400221A7002E000BF00E000BF059BCA
:10233800002B04D0044B00225A600E2300E0002337
:10234800184607B05DF804FBD40100200002002005
:1023580028020020000000203002002000B587B0CD
:1023680001900091009B9B8A1A4613469B001344D8
:102378009B003A4A13440493019B002B05D0009913
:102388000498FFF787FA012363E0049B5A68049BCB
:102398001B899B0013440393009B9B7D062B4DD800
:1023A80001A252F823F000BFF32300001724000015
:1023B800FF2300000B240000CD230000232400008D
:1023C8003D240000264B00225A60009B9B69244A4A
:1023D800136024492248FFF7F9FA034683F0010302
:1023E800DBB2002B01D00A2333E003990098FFF7F2
:1023F800EDFB059025E003990098FFF705FC059093
:102408001FE003990098FFF7C9FC059019E00399AC
:102418000098FFF71FFC059013E0009B06229A75B1
:102428000F4B5A680F4B1B8819461046FFF738FCAC
:10243800059006E041F61D53059302E00F2305932E
:1024480000BF059B002B03D000990498FFF722FAE0
:10245800059B184607B05DF804FB00BF000200208A
:10246800480200205402002000B585B00190009178
:10247800019B002B01D0012323E0009B1B79012B3A
:102488000BD0022B14D0002B16D1009B02221A71FC
:102498000098FFF72FFC039012E00098FFF75AFC12
:1024A8000390039B0A2B0AD141F61D53039306E0C0
:1024B80041F61D53039303E00F23039300E000BF8D
:1024C800039B184605B05DF804FB000000B585B015
:1024D8000190019B002B01D001233BE01F4B1B7B8C
:1024E800002B03D01D4B00221A7301E0FFF726FED4
:1024F8001A4B1B78013B062B28D801A252F823F06F
:10250800252500002D250000352500003D2500006B
:1025180055250000452500004D250000FFF79EFDCC
:10252800039016E0FFF756FD039012E0FFF726FD33
:1025380003900EE0FFF7ECFC03900AE0FFF766FD5E
:10254800039006E0FFF77CFD039002E00F2303935E
:1025580000BF039B184605B05DF804FB300200205D
:1025680000B589B001903F4B1B68002B05D13E4850
:10257800FFF7F4FA02463B4B1A603A4B1B68002BF4
:1025880004D13A4940F2825000F0E4F8354B1B6818
:102598001B78013B052B2CD801A252F823F000BF71
:1025A800C1250000D1250000D1250000E12500004B
:1025B800E1250000F12500002A4B1B681946019807
:1025C800FFF7F4FD019017E0264B1B6819460198A8
:1025D800FFF7C4FE01900FE0224B1B6819460198D3
:1025E800FFF742FF019007E00198FFF76FFF0190A6
:1025F80002E00F23019300BF019B002B2BD003ABFC
:1026080000221A605A609A60DA601A61019B41F6EA
:102618001D52934201D0019B00E000230493114B0B
:102628001B6803AA11461846FFF726F803AB18469D
:10263800FFF704F80B4B00221A60002301930A48A5
:10264800FFF79CFAFFF7A8FA034683F00103DBB211
:10265800002B02D187E700BF00E000BF00BF09B030
:102668005DF804FB580200205C020020449300003F
:1026780000B583B00190019B5B681846FFF770FFB7
:1026880000BF03B05DF804FB1EF0040F1CBFEFF39E
:1026980009800AE0EFF308800549064A884201D814
:1026A800904202D88D464FF00000034B18470000B7
:1026B8000000012000E000200127000000BF00BF4B
:1026C800BFF34F8F054BDB6803F4E0620349044B0B
:1026D8001343CB60BFF34F8F00BFFDE700ED00E071
:1026E8000400FA0500B583B00190FFF7E9FF00BFC9
:1026F80003B05DF804FB000000B587B00190019BB2
:102708000493124B9B6A0393104BDB6A00230593D7
:102718000AE00122059B02FA03F31A46039B1340C1
:10272800002B059B01330593059B192BF1D9084B09
:102738001B6803F00103002B00D000BE0198FFF7CF
:10274800D1FF00BF07B05DF804FB00BF00ED00E05B
:10275800F0ED00E000B585B003460091ADF8063015
:10276800BDF80630ADF80830009B039302AB1A465B
:10277800002144F20200FEF799FA00BF05B05DF8A7
:1027880004FB86B001900091019B53E8021F1FFAD9
:10279800A1F2D888824202BFBFF32F8F00230DE039
:1027A800D88902449889824228BF121AC1EA024293
:1027B80043E802200028E8D14FF001038DF80F30DC
:1027C800059002910492029A009B1A609DF80F30BE
:1027D800DBB2184606B0704784B00190019951E801
:1027E800023FC3EA234341E80232002AF7D10392A9
:1027F800029300BF04B0704700B585B00190009106
:10280800009B19460198FFF7BCFF0346002B07D031
:10281800019B1B68009A528813440393039B00E0B2
:102828000023184605B05DF804FB00B583B001909D
:102838000091009B1A88009B5B889A4204D10198FA
:10284800FFF7CAFF012300E00023184603B05DF834
:1028580004FB10B487B001900091019B009A53E8E3
:10286800004FA4EB020043E8000191F0000FF6D1FD
:10287800059404900391049B184607B05DF8044B37
:102888007047000000B583B00190019B002B04D174
:10289800054940F24510FFF75DFF019B1B681B7956
:1028A800184603B05DF804FBC493000000B583B07C
:1028B8000190019B002B04D1084940F25510FFF705
:1028C80049FF019B9B681A46019B1B681B68D31A2A
:1028D800DBB2184603B05DF804FB00BFC4930000E8
:1028E80082B00190019B9B68D3F83C31C3F340034D
:1028F800DBB2002B14BF01230023DBB2184602B061
:102908007047000000B597B00B900A9109920B9898
:10291800FFF7E6FF0346002B05D0002200210B98A5
:1029280000F0D4FD62E00A9B012B05D9314A02214F
:102938000B9800F09FFC59E02F4A304BD31A304ACD
:10294800A2FB03231B091493002315934AE0159A4D
:1029580013465B001344DB001A46284B13441393B9
:10296800139B9B8A1293139B9B8A1A46129BD31A1A
:102978001193139B9B681A46139B5B68D31A109399
:102988001398FFF77FFF03460F931398FFF78EFF07
:1029980003460E93139B1B690D930E9B642202FB47
:1029A80003F2109BB2FBF3F30F9A642101FB02F1CF
:1029B800109AB1FBF2F2109907910F9906910592BE
:1029C800109A04920E9A03920293119B0193129B00
:1029D80000930D9B0B4A08210B9800F04BFC159BAC
:1029E80001331593159A149B9A42B0D317B05DF82A
:1029F80004FB00BF38940000508E0000508E000089
:102A0800ABAAAAAA4C94000082B00190019B9B68D3
:102A1800D3F83C31C3F34003DBB2002B14BF0123CE
:102A28000023DBB2184602B07047000000B585B03D
:102A38000190019B002B0AD0074B43F0010303933D
:102A4800019B9B010293039B0298984700E000BFFB
:102A580005B05DF804FB00BF609C000000B583B0C2
:102A68000190019B1B69184601F00EFB00BF03B0E3
:102A78005DF804FB82B00190019B9A6892F83C31A2
:102A880043F0080382F83C3100BF02B0704782B0BF
:102A98000190019B9A6892F83C316FF3C30382F866
:102AA8003C3100BF02B0704782B00190019B9B6827
:102AB800D3F83C31C3F3C003DBB2184602B0704709
:102AC80000B583B00190019B002B04D0019806F05B
:102AD8007FF9034600E00023184603B05DF804FBC5
:102AE80010B588B00390029101920093039B002BCC
:102AF80002D0029B002B03D12C49E820FFF72AFEC5
:102B0800039B5B681B68002B03D12849E920FFF76A
:102B180021FE002307933DE0039B5B681B68DC688C
:102B2800039B5868029A079BD11805AB019AA047E6
:102B38000690069B002B03D01C49F320FFF70AFEE2
:102B4800059B019A9A4203D21849F420FFF702FE26
:102B5800059B079A13440793059B019AD31A01937F
:102B6800059B002B16D1039B9B681B78032B11D068
:102B780000BF039B9B68D3F83C31C3F34013DBB21F
:102B8800002BF6D0039B9A6892F83C316FF34513FB
:102B980082F83C31019B002BBED1009B002B02D058
:102BA800059A009B1A6000BF08B010BDDC950000B4
:102BB80000B583B001900B468DF80330019B1B696B
:102BC8009DF803200349184601F080FA00BF03B0BE
:102BD8005DF804FB4C96000010B586B00390029196
:102BE80001920093039B002B02D0029B002B04D17F
:102BF8000D4940F21710FFF7ADFD039B5B68002BF2
:102C080004D109494FF48C70FFF7A4FD039B5B685E
:102C18001B681C69039B5868009B019A0299A0478E
:102C2800059000BF06B010BDDC95000000B589B066
:102C38000390029101920093009B002B04D13B4921
:102C48004FF49670FFF786FD0A9B002B04D1374995
:102C580040F22D10FFF77EFD029B002B34D1344A41
:102C6800344BD31ADB08019A9A4229D200230693DF
:102C7800314B0593002307931BE0079BDB002D4A8C
:102C880013440693019B9B00059A13441A68069BFC
:102C98005B681B681946104606F073F80346002B5C
:102CA80004D1069B5A68009B1A603CE0079B0133DD
:102CB80007931F4A1F4BD31ADB08079A9A42DCD3A3
:102CC800009B00221A602EE0039B002B03D1009B7F
:102CD80000221A6027E0039B1B78002B10D0039B6F
:102CE8005B680A99019898470A9B1B68002B03D1D7
:102CF800009B00221A6016E0009B0A9A1A6012E0F4
:102D0800039B5A68019B1B0113441B68002B07D0C7
:102D1800039B5A68019B1B011A44009B1A6002E03E
:102D2800009B00221A6009B05DF804FBDC950000E6
:102D3800988E0000588E00001400002000B583B063
:102D48000190019B002B04D10C494FF4ED70FFF763
:102D580001FD019B1B69002B04D108494FF4ED705C
:102D6800FFF7F8FC019B1B69054A0649184601F064
:102D7800ADF900BF03B05DF804FB00BFDC950000AF
:102D88004C9C00005096000000B583B001900B46A3
:102D98008DF803309DF80330002B07D0019B1B6989
:102DA8009DF803200349184601F090F900BF03B0CD
:102DB8005DF804FB5496000000B583B001900B4603
:102DC8008DF803309DF80330002B07D0019B1B6959
:102DD8009DF803200349184601F078F900BF03B0B5
:102DE8005DF804FB5C96000000B583B001900B46CB
:102DF8008DF803309DF80330002B07D0019B1B6929
:102E08009DF803200349184601F060F900BF03B09C
:102E18005DF804FB6496000000B583B001900B4692
:102E28008DF803309DF80330002B07D0019B1B69F8
:102E38009DF803200349184601F048F900BF03B084
:102E48005DF804FB6C96000000B587B00190002384
:102E5800ADF816300023ADF8143000238DF80B3090
:102E680000238DF81330019B9B6894338022002146
:102E7800184605F053FF019B1B697749184601F076
:102E880025F90198FFF7EAFD0023ADF81030D7E0E7
:102E980003AB0DF10B0101220198FFF79DFE039B87
:102EA800002B04D140F2E730FFF7C0FDBFE09DF8EA
:102EB8000B301B2B06D0019B9B6893F894301B2B7F
:102EC80040F0B4809DF80B30522B40F09580019B68
:102ED8009A689DF813301344002283F89420019BCC
:102EE8009B6893F895305B2B06D0019B9B6800226A
:102EF80083F894200B23AAE002238DF813301CE0FA
:102F0800BDF814301A46920013445B009AB2019B34
:102F180099689DF81330581C8DF813000B4493F8EA
:102F280094309BB213449BB2303BADF814309DF9FA
:102F38001330002B01DA0C2389E0019B9A689DF875
:102F48001330134493F894303B2BD9D19DF81330A8
:102F580001338DF813309DF91330002B1EDA0C2342
:102F680075E0BDF816301A46920013445B009AB219
:102F7800019B99689DF81330581C8DF813000B4479
:102F880093F894309BB213449BB2303BADF81630A3
:102F98009DF91330002B01DA0C2358E0019B9A6845
:102FA8009DF81330134493F89430002BD9D1BDF811
:102FB8001630FA2B04D9019B9B68FA221A7205E095
:102FC800019B9B68BDF81620D2B21A72BDF8143066
:102FD800FA2B04D9019B9B68FA229A7205E0019B9F
:102FE8009B68BDF81420D2B29A72019B9B6800229C
:102FF80083F8942000232AE0019B9A689DF81330F7
:103008009DF80B1013440A4683F894209DF813305A
:1030180001338DF813309DF81330092B07D9019B24
:103028009B68002283F89420042310E000BF039BD0
:10303800002B7FF42DAFBDF810300133ADF8103000
:10304800BDF81030B3F57A7FFFF422AF0D23184690
:1030580007B05DF804FB00BF509C000000B587B0C6
:10306800039002910192029B002B04D12A4940F25D
:103078003D30FFF76FFB019B002B04D1264940F23E
:103088003E30FFF767FB0398FFF7DEFE0346002B91
:1030980018D1039B9B681B7AADF81630039B9B687D
:1030A8009B7AADF81430FA210398FFF785FEFA21D0
:1030B8000398FFF7B1FE0398FFF7C6FE0346002BFF
:1030C80024D101E0062322E0039B9B681A7A029B25
:1030D8001A70039B9B689A7A019B1A70029B1A7854
:1030E800BDF81630DBB2D31ADBB219460398FFF7E6
:1030F8004BFE019B1A78BDF81430DBB2D31ADBB251
:1031080019460398FFF770FE002300E006231846CF
:1031180007B05DF804FB00BFDC95000000B585B082
:1031280001900B468DF803309DF80330002B2ED00C
:10313800019B9B68DB7B9DF803209A4234D01B23BC
:103148008DF808305B238DF8093031238DF80A306B
:103158003B238DF80B3033238DF80C309DF803306A
:103168002F33DBB28DF80D306D238DF80E30002330
:103178008DF80F30019B9B689DF80320DA73019B43
:103188001B6902AA0A49184600F0A0FF0DE0019B3E
:103198009B689DF80320DA73019B1B69054A044963
:1031A800184600F093FF00E000BF05B05DF804FB8F
:1031B80050960000689C000000B585B001900B4651
:1031C8008DF803309DF80330002B29D0019B9B68B4
:1031D8001B7C9DF803209A4221D01B238DF80830D0
:1031E8005B238DF8093034238DF80A309DF80330BD
:1031F8002F33DBB28DF80B306D238DF80C300023A4
:103208008DF80D30019B9B689DF803201A74019B73
:103218001B6902AA0449184600F058FF00E000BFE5
:1032280005B05DF804FB00BF5096000000B583B000
:1032380001900091019B9B680F3302221946009868
:1032480005F043FD00BF03B05DF804FB00B583B093
:1032580001900091009B1B7819460198FFF75EFFCB
:10326800009B5B7819460198FFF7A6FF00BF03B0E3
:103278005DF804FB0CB400B585B001900B468DF8E1
:103288000330069B002B04D12B4940F64930FFF749
:1032980061FA019B002B04D1274940F64A30FFF719
:1032A80059FA019B9B68002B07D0019B5B68002B98
:1032B80003D0019B1B68002B04D11F4940F64B30FB
:1032C800FFF748FA0023039307AB0393019B9B681E
:1032D800D3F83C31C3F38003DBB2002B1ED0019B33
:1032E8009B68DB7B9DF803209A4217D002AB1946F6
:1032F8000198FFF79BFF9DF8033019460198FFF7E7
:103308000DFF019B1B6903AA0699184601F0BEF838
:1033180002AB19460198FFF799FF06E0019B1B696C
:1033280003AA0699184601F0B1F800BF05B05DF888
:1033380004EB02B0704700BFDC95000000B589B00F
:103348000390029101928DF80330029B002B00F04C
:10335800B8809DF80330002B05D0019BDBB21946DD
:103368000398FFF729FD0023069302E0069B01332B
:103378000693029A069B13441B78184605F0A0FC96
:103388000346002BF2D1002305930298FFF798FB20
:103398000246069BD31A0793039B9B685B7B1A46DE
:1033A800019BD31A079A9A4238D80023059324E040
:1033B800069A059B1344029A13441B780A2B19D1C9
:1033C8000398FFF74BFB029A069BD1180023059A36
:1033D8000398FFF785FB059A069B13440133069370
:1033E8000398FFF7ABFC019BDBB219460398FFF784
:1033F800E3FC06E0059B01330593059A079B9A4277
:10340800D6D3039B1869029A069B1344194600F009
:103418005DFE00BF0398FFF791FC53E0039B9B6898
:103428005B7B1A46019BD31A0793069A059B1344A4
:10343800029A13441B78184605F042FC0346002BF9
:1034480009D0059B0793069A059B1344029A1344D7
:103458001B780A2B0BD0059A019B1344039A926898
:10346800527B934205D2059B01330593DDE700BFEC
:1034780000E000BF0398FFF7F1FA029A069BD11803
:103488000023079A0398FFF72BFB069A079B134420
:10349800069302E0069B01330693029A069B1344A7
:1034A8001B78184605F00CFC0346002BF2D1039854
:1034B800FFF744FC019BDBB219460398FFF77CFC3D
:1034C80061E700BF09B05DF804FB000030B591B0BA
:1034D800059004910392059B002B04D1B54940F651
:1034E800CA30FFF737F9059B9B68002B07D0059B6F
:1034F8005B68002B03D0059B1B68002B04D1AD49EA
:1035080040F6CB30FFF726F90023ADF83E30AA4845
:10351800FFF7D6FA03469CB2A848FFF7D1FA03464C
:103528009BB2E31AADF83C30059B9B685B681A6850
:10353800A34B00931346A34A08210598FFF79AFE68
:10354800059B9B685B681B681846FFF7B9FA03463A
:103558009CB29B48FFF7B4FA03469BB22344ADF8EC
:103568003E30059B9B685B685968BDF83E20002388
:103578000598FFF7E3FE944A08210598FFF77AFEBD
:10358800039B002B4AD0049B002B47D000230E93AB
:1035980040E00E9A13465B0013449B001A46049BB6
:1035A80013445B681846FFF78BFA04460E9A1346D5
:1035B8005B0013449B001A46049B13441B6818467F
:1035C800FFF77EFA0346E218BDF83C309A421ED94E
:1035D8000E9A13465B0013449B001A46049B13443F
:1035E8005B681846FFF76CFA03469CB20E9A1346BE
:1035F8005B0013449B001A46049B13441B6818463F
:10360800FFF75EFA03469BB22344ADF83C300E9BAD
:1036180001330E930E9A039B9A42BAD36748FFF779
:103628004FFA0246694B1B7813449AB2BDF83C30F6
:103638001344ADF83C30BDF83C205F4B0093134673
:10364800634A08210598FFF715FE604B1B789AB26C
:10365800BDF83C3013449BB20133ADF83E30BDF8A1
:103668003E2000235B490598FFF768FE049B002B6A
:1036780000F0018100230D93F8E00D9A13465B00DA
:1036880013449B001A46049B13445B68002B69D0C3
:103698000D9A13465B0013449B001A46049B13447F
:1036A8001B68002B5ED00D9A13465B0013449B00E9
:1036B8001A46049B134459680D9A13465B00134439
:1036C8009B001A46049B13441B6801933B4B0093D1
:1036D8000B46414A08210598FFF7CCFD3B4B1B7868
:1036E8009AB2BDF83C301344ADF83E30BDF83E30D8
:1036F800DCB20D9A13465B0013449B001A46049BE8
:1037080013445B681846FFF7DBF90346DDB20D9AF0
:1037180013465B0013449B001A46049B13441B6822
:103728001846FFF7CDF90346DBB22B44DAB2274B34
:103738001B781344DDB22148FFF7C2F90346DBB218
:103748002B44DBB2E31ADBB219460598FFF734FBCA
:103758003A210598FFF72CFABDF83E300133ADF851
:103768003E3062E00D9A13465B0013449B001A46F4
:10377800049B13445B68002B30D0BDF83C100D9AB5
:1037880013465B0013449B001A46049B13445B6872
:1037980000930B460E4A08210598FFF76BFD0B4B6B
:1037A8001B789AB2BDF83C3013449BB20133ADF894
:1037B8003E303AE0DC9500006C9C0000789C0000EC
:1037C8007C9C00001897000020970000809C000057
:1037D8002C97000034970000489700000D9A134674
:1037E8005B0013449B001A46049B13441B68002B80
:1037F8001BD0BDF83C100D9A13465B0013449B0088
:103808001A46049B13441B6800930B465C4A082124
:103818000598FFF72FFD5B4B1B789AB2BDF83C303B
:1038280013449BB20133ADF83E300D9A13465B004A
:1038380013449B001A46049B13449B68002B0FD02B
:103848000D9A13465B0013449B001A46049B1344CD
:103858009968BDF83E2000230598FFF76FFD02E048
:103868000598FFF76BFA0D9B01330D930D9A039B97
:103878009A42FFF402AF059B9B685B689B68002B2C
:1038880076D0059B9B685B689B680B930023069327
:103898000023ADF83E300023ADF83C3000230C93F4
:1038A8000C9A531C0C9306A907AB00930B460121F5
:1038B8000B98FFF7BBF9069B002B12D0069B1B68E1
:1038C8001846FFF7FDF80246BDF83C309A42E7D9A2
:1038D800069B1B681846FFF7F3F80346ADF83C3023
:1038E800DEE700BF0C9B012B44D0274A082105982E
:1038F800FFF7C0FC00230C930C9A531C0C9306A9E9
:1039080007AB00930B4601210B98FFF78FF9069B35
:10391800002B31D01B4B1B789AB2BDF83C301344B6
:10392800ADF83E30BDF83E20069B1B680093134659
:10393800134A08210598FFF79DFC124B1B789AB291
:10394800BDF83E3013449BB20133ADF83E30069BC0
:103958005B68002B08D0069B5968BDF83E20002301
:103968000598FFF7EBFCC7E70598FFF7E7F9C3E70A
:1039780000BF02E000BF00E000BF11B030BD00BFD3
:103988002C970000809C00005497000000B585B07B
:103998000390019200930B468DF80B300398FFF7C4
:1039A80033F80346002B06D0009A01990398FFF7D5
:1039B8008DFD01230FE09DF80B30002B0AD0039BEF
:1039C8009B685B681B68064A02210398FFF752FC54
:1039D800012300E00023184605B05DF804FB00BF92
:1039E8006497000000B585B0039002910192039B93
:1039F800002B04D12B4940F64D50FEF7ABFE039B3C
:103A08009B68002B07D0039B5B68002B03D0039BAC
:103A18001B68002B04D1234940F64E50FEF79AFE4E
:103A2800029B022B0BD10398FEF7EEFF0346002BF7
:103A380005D0002200210398FFF748FD2FE0039BE3
:103A4800002B04D1174940F65650FEF783FE039B1E
:103A58001B69002B04D1134940F65650FEF77AFE35
:103A6800039B1B69104A1149184600F02FFB039B62
:103A7800002B04D10B4940F65750FEF76BFE039B11
:103A88001B69002B04D1074940F65750FEF762FE28
:103A9800039B1B69064A0549184600F017FB05B049
:103AA8005DF804FBDC950000849C00005096000043
:103AB800889C000000B585B0039002910192039B99
:103AC800002B04D1174940F65C50FEF743FE039BD8
:103AD8009B68002B07D0039B5B68002B03D0039BDC
:103AE8001B68002B04D10F4940F65D50FEF732FEEB
:103AF800029B012B08D0029B022B0BD10398FEF7E7
:103B080083FF0346002B05D0002200210398FFF70E
:103B1800DDFC04E0044A02210398FFF7ABFB05B083
:103B28005DF804FBDC950000F496000000B585B054
:103B3800039002910192029B012B14BF01230023E1
:103B4800D9B2002300220398FFF720FF0346002B79
:103B580008D1039B9A6892F83C316FF3820382F88C
:103B68003C3100E000BF05B05DF804FB00B585B04E
:103B7800039002910192029B012B14BF01230023A1
:103B8800D9B2002300220398FFF700FF0346002B59
:103B980008D1039B9A6892F83C3143F0040382F8F9
:103BA8003C3100E000BF05B05DF804FB00B587B00C
:103BB800059004910392059B002B04D11F4940F600
:103BC8007D50FEF7C7FD059B9B68002B07D0059B22
:103BD8005B68002B03D0059B1B68002B04D1174999
:103BE80040F67E50FEF7B6FD049B012B05D100225E
:103BF80000210598FFF76AFC1DE0049B022B14BF07
:103C080001230023D9B2002300220598FFF7BEFE46
:103C18000346002B0ED1039B1A68039B04331B68D1
:103C28000193074B00931346064A02210598FFF7B4
:103C380021FB00E000BF07B05DF804FBDC95000045
:103C48008C9700008097000000B587B0059004911C
:103C58000392049B022B8CBF01230023D9B20023BB
:103C680000220598FFF792FE0346002B20D1049B03
:103C7800022B0ED1039B1A68039B04331B68019324
:103C88000D4B009313460D4A02210598FFF7F2FAEF
:103C98000FE00598FEF708FF0346002B01D0084BFC
:103CA80000E0084B084A08210598FFF7E3FA00E00E
:103CB80000BF07B05DF804FB8C97000080970000F8
:103CC800A4970000A8970000AC97000000B585B045
:103CD800039002910192029B012B14BF0123002340
:103CE800D9B2002300220398FFF750FE0346002BA9
:103CF80003D10398FEF7CBFE00E000BF05B05DF8E6
:103D080004FB00B585B0039002910192029B012B40
:103D180014BF01230023D9B2002300220398FFF720
:103D280035FE0346002B03D10398FEF7A3FE00E0FF
:103D380000BF05B05DF804FB00B58DB00590049197
:103D48000392059B002B04D12D4940F6C350FEF782
:103D580001FD059B9B68002B07D0059B5B68002B2A
:103D680003D0059B1B68002B04D1254940F6C4509D
:103D7800FEF7F0FC049B012B14BF01230023D9B2EA
:103D8800002300220598FFF701FE0346002B33D1DC
:103D980000230B93059B9B68D3F834310A930A9B45
:103DA800002B23D00B9B072B20D807A9002309221F
:103DB8000A9800F0DFFE059B9B6803F194019DF8CB
:103DC800243001331A4609230A9800F0D3FE089BD1
:103DD8000A930B9B5A1C0B92059A92689432009294
:103DE800084A08210598FFF745FAD8E7059B9B681C
:103DF800002283F8942000E000BF0DB05DF804FBBA
:103E0800DC950000C097000000B587B005900491CC
:103E18000392049B012B05D1002200210598FFF78E
:103E280055FB1CE0049B022B0ED1039B1A68039BD5
:103E380004331B6801930B4B009313460A4A022173
:103E48000598FFF717FA0AE0049B022B8CBF0123A1
:103E58000023D9B2002300220598FFF797FD07B089
:103E68005DF804FB8C9700008097000000B58BB0CC
:103E7800079006910592069B012B14BF012300238E
:103E8800D9B2002300220798FFF780FD0346002BD4
:103E980029D1079BDB685B681B680993099801F0C7
:103EA800FFF803468DF823309DF82330642202FB87
:103EB80003F2099B9B68B2FBF3F38DF82230079B52
:103EC8009B68D3F82C019DF822309DF8232009998E
:103ED80089680291019200930346054A08210798D0
:103EE800FFF7C8F900E000BF0BB05DF804FB00BFA6
:103EF800CC97000000B585B0039002910192029B17
:103F0800012B14BF01230023D9B2002300220398F8
:103F1800FFF73CFD0346002B0CD1039B9B68002256
:103F2800C3F82C21039BDB685B681B68184601F00B
:103F3800CBF800E000BF05B05DF804FB00B585B024
:103F4800039002910192029B012B14BF01230023CD
:103F5800D9B2002300220398FFF718FD0346002B6F
:103F680020D1039B002B04D1104940F62460FEF7B2
:103F7800F1FB039B1B69002B04D10C4940F624601C
:103F8800FEF7E8FB039B1B69094A0A49184600F03B
:103F98009DF8039B9B6850225A73039B9B681822C9
:103FA8001A7300E000BF05B05DF804FBDC95000063
:103FB800909C00005096000000B587B005900491D1
:103FC8000392059B002B04D12B4940F62B60FEF78A
:103FD800C1FB059B9B68002B07D0059B5B68002BEA
:103FE80003D0059B1B68002B04D1234940F62C60A5
:103FF800FEF7B0FB049B012B1BD1059B9B6803F1CB
:104008000D01059B9B680C331A460598FFF726F8A7
:104018000346002B2AD0059B9B6850225A73059BA8
:104028009B6818221A73154A04210598FFF722F98C
:104038001CE0049B022B8CBF01230023D9B2002370
:1040480000220598FFF7A2FC0346002B10D1039B22
:104058001A68039B04331B680193094B00931346AA
:10406800084A02210598FFF705F902E000BF00E0C1
:1040780000BF07B05DF804FBDC950000089800005D
:104088008C9700008097000000B583B00190019BD9
:10409800002B03D10C493120FEF75CFB019B9B6888
:1040A800002B0CD0019B5B69019A1069019A116879
:1040B800019A92689847019B00229A6000E000BF2D
:1040C80003B05DF804FB00BF989C00000EB400B577
:1040D80084B00190019B002B03D118494220FEF7C0
:1040E80039FB019B5B69002B03D114494320FEF780
:1040F80031FB019B1B68002B03D110494420FEF7BC
:1041080029FB019B5B68002B03D10C494520FEF776
:1041180021FB059B002B0AD00023039306AB0393D6
:1041280003AB1A460599019800F0B0F900E000BF0A
:1041380004B05DF804EB03B0704700BF989C000022
:1041480000B583B001900B468DF80330019B1A68C7
:10415800019B9B68581C0199886013449DF80320B3
:104168001A70019B9A68019B5B689A4202D3019876
:10417800FFF78AFF00BF03B05DF804FB00B587B006
:10418800039002910192009300230593009B03F092
:104198000103002B24D00BE0029B01330293059B03
:1041A800013305939DF8133019460398FFF7C8FFAC
:1041B800029B1B788DF813309DF81330002BEBD140
:1041C80006E0019B013B019320210398FFF7B8FF0C
:1041D800019A059B9A422ED9019B002BF1D12AE026
:1041E800029B002B0BD0029804F0F2FD059006E02C
:1041F800019B013B019320210398FFF7A1FF019A3E
:10420800059B9A420FD9019B002BF1D10BE0029B31
:1042180001330293059B013305939DF8133019462A
:104228000398FFF78DFF029B1B788DF813309DF8DC
:104238001330002BEBD100BF07B05DF804FB000082
:1042480000B589B00390029101920093029B0793F5
:104258000123069307E0079A019BB2FBF3F3079348
:10426800069B01330693079A019B9A42F3D2009A60
:10427800069B9A4201D9009B06930B9B03F001030E
:10428800002B22D10A9B002B1FD00B9B03F00203AB
:10429800002B06D0009B002B03D130238DF817305C
:1042A80002E020238DF8173008E00A9B013B0A93AF
:1042B8009DF8173019460398FFF742FF0A9B002B19
:1042C80003D0069A0A9B9A42EFD301230793009BD7
:1042D800012B03D9009B013B009309E0029A079B3D
:1042E800B2FBF3F30493049A019B9A4200D205E0CF
:1042F800079B019A02FB03F30793E8E7029A079BDF
:10430800B2FBF3F30493049B079A02FB03F3029AAC
:10431800D31A0293154A049B13441B781946039831
:10432800FFF70EFF079A019BB2FBF3F30793079B76
:10433800002BE3D10B9B03F00103002B11D00A9B48
:10434800002B0ED006E00A9B013B0A93202103981C
:10435800FFF7F6FE0A9B002B03D0069A0A9B9A42A7
:10436800F1D300BF09B05DF804FB00BF789D0000E1
:1043780000B589B00590049103920293049B002B29
:10438800B8BF5B4206930123079307E0039B069A95
:1043980092FBF3F30693079B01330793039B069A5B
:1043A8009A42F3DA029A079B9A4201D9029B079331
:1043B8000A9B002B0AD0049B002B04DB0B9B03F009
:1043C8000403002B02D00A9B013B0A930B9B03F0CA
:1043D8000203002B02D0029B002B16D00B9B03F08C
:1043E8000103002B11D10A9B002B0ED006E00A9B7B
:1043F800013B0A9320210598FFF7A2FE0A9B002B98
:1044080003D0079A0A9B9A42F1D3049B002B07DA40
:10441800049B5B4204932D210598FFF791FE08E069
:104428000B9B03F00403002B03D02B210598FFF707
:1044380087FE0B9B03F00203002B19D00B9B03F0A4
:104448000103002B14D1029B002B11D10A9B002BD6
:104458000ED006E00A9B013B0A9330210598FFF72E
:104468006FFE0A9B002B03D0079A0A9B9A42F1D34E
:1044780004990B9B01930A9B0093029B039A05984E
:10448800FFF7DEFE00BF09B05DF804FB00B58FB092
:10449800059004910392059B002B04D1C8494FF461
:1044A8009F70FEF757F9059B5B69002B04D1C4493F
:1044B8004FF4A070FEF74EF9059B1B68002B04D142
:1044C800BF4940F24110FEF745F9059B5B68002B98
:1044D80004D1BB494FF4A170FEF73CF9049B002BB3
:1044E80000F0ED81049B1B788DF83730049B013375
:1044F80004939DF83730002B00F0D8819DF83730B1
:10450800252B40F0C78100230A9301230C93049BB9
:104518001B788DF837309DF837302D2B04D0302B91
:104528000AD02B2B10D017E00A9B43F001030A9303
:10453800049B0133049312E00A9B43F002030A939D
:10454800049B013304930AE00A9B43F004030A9393
:10455800049B0133049302E000230C9300BF0C9BDF
:10456800002BD4D1002309939DF837302A2B0CD186
:10457800039B1B68191D039A11601B68099A134451
:104588000993049B013304931AE0049B1B788DF86C
:1045980037309DF837302F2B12D99DF83730392B0B
:1045A8000ED8049B01330493099A13469B001344C5
:1045B8005B001A469DF837301344303B0993D3E724
:1045C80000230B93049B1B788DF837309DF8373008
:1045D8002E2B1DD1049B01330493049B1B788DF86B
:1045E80037309DF837302F2B12D99DF83730392BBB
:1045F8000ED8049B013304930B9A13469B00134473
:104608005B001A469DF837301344303B0B93E4E7C0
:10461800049B1B788DF837309DF837306C2B03D00E
:104628009DF83730682B07D1049B01330493049B12
:104638001B788DF83730EFE79DF83730253B532B43
:1046480000F2238101A252F823F000BF894800003C
:1046580093480000934800009348000093480000E6
:1046680093480000934800009348000093480000D6
:1046780093480000934800009348000093480000C6
:1046880093480000934800009348000093480000B6
:1046980093480000934800009348000093480000A6
:1046A8009348000093480000934800009348000096
:1046B8009348000093480000934800009348000086
:1046C8009348000093480000934800009348000076
:1046D8009348000093480000934800009348000066
:1046E8009348000093480000934800009348000056
:1046F8009348000093480000934800009348000046
:104708009348000093480000934800009348000035
:1047180093480000934800001548000093480000A3
:104728009348000093480000934800009348000015
:104738009348000093480000934800009348000005
:1047480093480000A5470000CD47000093480000AB
:10475800934800009348000093480000CD470000AC
:1047680093480000934800009348000093480000D5
:104778009348000093480000554800009348000003
:10478800934800003948000093480000F1470000B2
:10479800934800009348000015480000039B1B68DD
:1047A800191D039A11601B680C930C9B8DF81F3020
:1047B8009DF81F3019460598FFF7C2FC66E000BF58
:1047C800049D0000039B1B68191D039A11601B6858
:1047D8000C930A9B0193099B00930B9B0A220C994B
:1047E8000598FFF7C5FD51E0039B1B68191D039A47
:1047F80011601B680C930C990A9B0193099B009309
:104808000B9B0A220598FFF71BFD3FE0039B1B68E3
:10481800191D039A11601B680C930C990A9B01934C
:10482800099B00930B9B10220598FFF709FD2DE0CB
:10483800039B1B68191D039A11601B6808930A9B48
:10484800099A08990598FFF799FC1FE0039B1B68D4
:10485800191D039A11601B680C9330210598FFF706
:104868006FFC78210598FFF76BFC0C9900230193E6
:1048780008230093082310220598FFF7E1FC05E0C0
:1048880025210598FFF75CFC00E000BF049B01337D
:10489800049305E09DF8373019460598FFF750FC5A
:1048A800049B1B78002B7FF41DAE00E000BF059B26
:1048B8001B7B002B04D00598FFF7E6FB00E000BF48
:1048C8000FB05DF804FB00BF10B586B005900491E9
:1048D80003920293059B002B01D10E2342E0039B18
:1048E800002B01D10E233DE0059B1B68002B01D155
:1048F800082337E0029B002B01D1092332E0059BF6
:104908005B685A68029BB3FBF2F102FB01F29B1A47
:10491800002B01D0092325E0049800F07BF803461A
:10492800002B01D110231DE0039B184600F072F8FC
:104938000346002B01D1102314E0029A049905982C
:1049480000F04EF80346002B01D110230AE0059B26
:104958001B68DC68089B0093029B039A04990598DE
:10496800A0470346184606B010BD10B584B00390A2
:10497800029101920093039B002B01D10E232CE09E
:10498800039B1B68002B01D1082326E0019B002B09
:1049980001D1092321E00299039800F048F8034661
:1049A800002B01D1102318E0039B5B681B68019A58
:1049B80002FB03F31A460299039800F011F8034624
:1049C800002B01D1102308E0039B1B681C69009B86
:1049D800019A02990398A0470346184604B010BDEF
:1049E80084B0039002910192039BDB68029A9A4279
:1049F80009D3029A019B13445A1E039B1B699A42CE
:104A080001D8012300E0002303F00103DBB21846BC
:104A180004B0704782B00190019B03F00303002BA0
:104A28000CBF01230023DBB2184602B0704782B0E6
:104A380001900091019B5B681B685A1E009B134004
:104A4800002B0CBF01230023DBB2184602B07047CD
:104A580000B591B00390029101920093039B002B43
:104A680003D14349B620FDF775FE039B0993039BC9
:104A78000F93099BDB881A46099B5B7903FB02F3BA
:104A8800043B0893009A089B9A4203D33849C420F0
:104A9800FDF760FE099BDB880793009B1A1D079BA7
:104AA800B2FBF3F30E93009B0433079AB3FBF2F2C5
:104AB800079901FB02F29B1A0D93019B1A68009B50
:104AC8001344089A9A4203D2089A009BD31A01E029
:104AD800019B1B680C93019B0C9A1A6005E00F9BC5
:104AE8001B680F930E9B013B0E930E9B002BF6D178
:104AF80000230B93079A0D9BD31A0A930A9A0C9BCF
:104B0800934228BF13460A932AE0029A0B9B134448
:104B180006930F9A0D9B1344043305939DF8483070
:104B2800002B05D00A9A0599069804F0CEF804E0FF
:104B38000A9A0699059804F0C8F800230D930F9B6C
:104B48001B680F930C9A0A9BD31A0C930B9A0A9B17
:104B580013440B93079A0C9B934228BF13460A935E
:104B68000C9B002BD1D100BF11B05DF804FB00BF36
:104B7800889D000000B589B00590049103920293C6
:104B8800039B079307AA01230093029B04990598A6
:104B9800FFF75EFF079B039A9A4204D004494FF43B
:104BA8008070FDF7D7FD00BF09B05DF804FB00BFBA
:104BB800889D000082B00190019B9B68D3F83C312E
:104BC800C3F34003DBB2002B14BF01230023DBB285
:104BD800184602B07047000000B595B00B900A91D6
:104BE80009920B98FFF7E6FF0346002B05D0002239
:104BF80000210B98FEF76AFC5CE00A9B012B05D9A3
:104C08002E4A02210B98FEF735FB53E02C4A2D4B18
:104C1800D31A2D4AA2FB03231B09129300231393D3
:104C280044E0139A13465B001344DB001A46254BF5
:104C380013441193119BDB681093119B9B680F938E
:104C4800119800F02DFA0E90119800F00DFA0D90C1
:104C5800119B5B690C930D9B642202FB03F20F9B73
:104C6800B2FBF3F30E9A642101FB02F10F9AB1FB38
:104C7800F2F21199097C002901D1144900E0144984
:104C880007910F9906910E99059104920F9A039234
:104C98000D9A02920193109B00930C9B0D4A0821D8
:104CA8000B98FEF7E7FA139B01331393139A129BA1
:104CB8009A42B6D315B05DF804FB00BFFC9D000016
:104CC800508E0000388E0000ABAAAAAA109E0000E1
:104CD8001C9E0000289E000000B583B00190009142
:104CE800019B002B03D108497720FDF733FD019B79
:104CF8009B68009A9A4202D2009B013300E000238D
:104D0800184603B05DF804FBF89E000084B00190DB
:104D1800019B1B681B680393019B1B685B680293DC
:104D2800029A039B9A4203D3029A039BD31A06E082
:104D3800019B9A68039BD21A029B134401331846BD
:104D480004B0704700B585B00190019B002B03D1DA
:104D58000D498A20FDF7FEFC019B1B681B68039325
:104D6800019B1B685B68029302990198FFF7B4FFE7
:104D78000246039B93420CBF01230023DBB2184673
:104D880005B05DF804FB00BFF89E000010B586B0C2
:104D98000190009100230593019B002B03D15249F8
:104DA8009520FDF7D7FC009B002B03D14E49962098
:104DB800FDF7D0FC0020FCF7EDFB0198FFF7C2FFE0
:104DC80003468DF813309DF8133083F00103DBB2EE
:104DD800002B03D1019B1B7C002B7AD1019B1B6804
:104DE8005B680393019B1B685A68019B1C6811460A
:104DF8000198FFF771FF034663609DF81330002B9D
:104E08000AD0019B1B681A68019B1C68114601980F
:104E1800FFF762FF03462360019BDB68013B072B1A
:104E280037D801A252F823F0514E0000614E00001D
:104E38009B4E0000734E00009B4E00009B4E0000EE
:104E48009B4E0000854E0000019B5A68039B13444B
:104E5800009A12781A702DE0019B5A68039B5B0038
:104E68001344009A12881A8024E0019B5A68039B15
:104E78009B001344009A12681A601BE0019B5A6851
:104E8800039BDB001A44009BD3E90034C2E90034D9
:104E980010E0019B5B681946019BDB68039A02FBE3
:104EA80003F30B441846019BDB681A46009903F08C
:104EB8000CFF00BF0198FFF729FF0290019B1B68B8
:104EC8009B68029A9A4207D9019B1B68029A9A60CA
:104ED80002E00423059300E000BF0020FCF76EFB0E
:104EE800059B184606B010BDF89E000000B58BB0B3
:104EF800039002910192039B1B681B680993039B13
:104F08001B685B680893099A089B9A4203D8089A19
:104F1800099BD31A04E0039B9A68099BD31A0133AF
:104F28000793039B5B681946039BDB68099A02FB9E
:104F380003F30B440693019A079B9A4219D8039BE3
:104F4800DB68019A02FB03F31A460699029803F0FC
:104F5800BCFE099A019B1A44039B9B689A4203D89A
:104F6800099A019B134400E00023039A1268136016
:104F780020E0039BDA68079B02FB03F30593059A7D
:104F88000699029803F0A1FE019A079BD31A04938D
:104F9800029A059B13441846039B5968039BDB68D8
:104FA800049A02FB03F31A4603F08FFE039B1B6867
:104FB800049A1A6000BF0BB05DF804FB00B587B017
:104FC80003900291019200230593039B002B04D1C7
:104FD800154940F2B710FDF7BDFB029B002B04D129
:104FE80011494FF4DC70FDF7B5FB019B002B01D193
:104FF800002315E00020FCF7CDFA0398FFF786FEA2
:105008000246019B934205D8019A02990398FFF73B
:105018006DFF01E0052305930020FCF7CFFA059BFF
:10502800184607B05DF804FBF89E000000B583B091
:105038000190019B002B04D10A4940F2EF10FDF7C3
:1050480089FB0020FCF7A6FA019B1B680C220021B3
:10505800184603F063FE0020FCF7B0FA00BF03B067
:105068005DF804FBF89E000000B585B00190019B37
:10507800002B04D1094940F2FD10FDF76BFB00201D
:10508800FCF788FA0198FFF741FE03900020FCF72F
:1050980095FA039B184605B05DF804FBF89E0000DE
:1050A80000B583B00190019B002B04D105494FF452
:1050B8000670FDF74FFB019B1B689B68184603B001
:1050C8005DF804FBF89E000000B583B00190019BD9
:1050D800002B04D1064940F21E20FDF73BFB019B43
:1050E8001B6800229A6000BF03B05DF804FB00BF94
:1050F800F89E000000B587B003468DF807309DF88C
:105108000730FF2B08D19DF80730012B04D921491E
:105118004FF4E470FDF71EFB9DF807201E49134667
:105128005B0013449B000B441B68002B04D11949F6
:1051380040F2C910FDF70EFB9DF807305A1C1346C4
:105148009B0013441B02154A134403939DF8072040
:1051580013469B0013441B0203F580730F4A134444
:1051680004934FF48063059309E0049B1A1D04928D
:105178001B680B4A934207D1059B043B0593049A8D
:10518800039B9A42F1D300E000BF059B184607B085
:105198005DF804FBA49F000000120020000300201B
:1051A8000ED0ADDE00B58DB00790069105920023B4
:1051B8008DF82F30B7E000230A930020FCF7EAF9B6
:1051C8009DF82F205C4913465B0013449B000B4459
:1051D8001B68002B18D09DF82F20574913465B00F9
:1051E80013449B000B4404331B68002B0AD09DF822
:1051F8002F20514913465B0013449B000B44043392
:105208001B6800E04D4B0A930020FCF7D7F90A9B76
:10521800002B00F083809DF82F301846FFF76AFFB7
:1052280009909DF82F30464A08210798FEF722F882
:105238000A9B444A08210798FEF71CF8099B002B93
:1052480027D09DF82F2013469B0013441B0203F51B
:1052580080733D4A134418469DF82F305A1C134654
:105268009B0013441B02384A1344013B099A6421EA
:1052780001FB02F2920A4FF48061039109990291AD
:10528800019200930346314A08210798FDF7F2FF7F
:105298001BE09DF82F2013469B0013441B0203F5C7
:1052A8008073294A134419469DF82F305A1C134617
:1052B8009B0013441B02244A1344013B00930B46F2
:1052C800234A08210798FDF7D5FF224B1B789DF844
:1052D8002F209A420DD09DF82F304FF00042DA402F
:1052E8001D4B1B681340002B01D01C4B02E01C4BCC
:1052F80000E01C4B1C4A08210798FDF7BBFF9DF8EE
:105308002F200D4913465B0013449B000B440833C0
:105318001B68164A08210798FDF7ACFF9DF82F3047
:1053280001338DF82F309DF82F30022B7FF643AFD5
:1053380000BF0DB05DF804FB0012002030A0000093
:1053480038A0000044A000000003002054A0000082
:1053580090A000002812002024120020A8A000001D
:10536800B4A00000C0A00000C8A00000D8A00000A1
:1053780000B583B003468DF807300DF107031946D1
:105388000748FFF703FD0648FFF7DCFC0346002B40
:1053980001D001F021FA00BF03B05DF804FB00BFA3
:1053A800388E000000B585B0019000230393124B9E
:1053B8001B78002B01D0852319E0019B002B01D11C
:1053C8000E4B01930C4B019A013312881A800C4939
:1053D8000C4801F0A9F90390039B002B01D0039B13
:1053E80005E001F0DFF9044B01221A70039B18460F
:1053F80005B05DF804FB00BF2C120020E4A10000FA
:10540800795300002D12002008B50A4B1B78012B98
:1054180003D009499020FDF79DF901F0DDF901F06D
:10542800F1F90648FFF702FE024B00221A7000BF8E
:1054380008BD00BF2C12002070A10000388E0000AB
:1054480000B585B001900B468DF803300023039317
:10545800104B1B78012B03D00F49B720FDF77AF9C1
:105468009DF803301A4601990C48FFF7A7FD0390F1
:1054780001F098F9039B002B06D0039B052B03D062
:105488000549D120FDF766F9039B184605B05DF87C
:1054980004FB00BF2C12002070A10000388E000011
:1054A80000B585B001900091134B1B78012B1BD0E0
:1054B8001249E020FDF74EF916E0009B402B28BF6B
:1054C80040230393039BDBB219460198FFF7B8FF0B
:1054D8000290029B002BF5D1009A039BD31A0093EC
:1054E800019A039B13440193009B002BE5D100BF55
:1054F80005B05DF804FB00BF2C12002070A100006D
:1055080082B001904FF08042019BC2F8083300BF7F
:1055180002B0704784B00346ADF80630BDF80630D7
:1055280003F1804300221A60BDF8063003F180437E
:105538001B680393039B00BF04B0704782B0034607
:10554800ADF80630BDF8063003F180431B68002B28
:1055580014BF01230023DBB2184602B070470000D5
:1055680008B54FF48070FFF7E9FF0346002B14D00D
:105578004FF48070FFF7CEFF0120FFF7C1FF114BFA
:105588005B7983F00103DBB2002B06D00D4B0122BF
:105598005A710C4B1B68002098474FF48270FFF734
:1055A800CDFF0346002B0AD04FF48270FFF7B2FFFD
:1055B8000220FFF7A5FF034B1B680120984700BF97
:1055C80008BD00BF8012002000B583B00346ADF8C7
:1055D8000630BDF80630184600F026F803461B686A
:1055E800012B0CBF01230023DBB2184603B05DF882
:1055F80004FB00B585B00346ADF80630BDF80630AB
:10560800184600F011F803461A4600231360BDF847
:105618000630184600F008F803461B680393039BFE
:1056280000BF05B05DF804FB82B00346ADF8063054
:10563800BDF8063003F1804303F5C043184602B0B5
:105648007047000082B00190034BD3F80423019BFC
:105658001340184602B070470060004082B00190C5
:10566800054A019B03F5A27352F823301B0A03F085
:105678001F03184602B070470060004082B00190D6
:10568800064A019B03F5A27352F823301B0C03F062
:105698000303DBB2184602B0704700BF0060004049
:1056A80000B583B00190019B1B681F2B04D90549E5
:1056B8004FF4E870FDF74EF84FF0A043184603B0DA
:1056C8005DF804FB18A2000000B585B001900B46F8
:1056D8008DF8033001AB1846FFF7E2FF0390019AFB
:1056E800039B02F5E07253F82230019A23F440310B
:1056F800039B02F5E07243F82210019A039B02F51E
:10570800E07253F822309DF8032012041146019AE2
:105718001943039B02F5E07243F8221000BF05B05D
:105728005DF804FB00B585B0019001AB1846FFF7A2
:10573800B7FF0390019A039B02F5E07253F82230F9
:105748001B0C03F00303DBB2184605B05DF804FB3D
:1057580082B00190019BD3F81035184602B070470B
:1057680000B587B00390029101924FF0A0430493D3
:10577800039A029B1344012B04D9124940F2F120E9
:10578800FCF7E8FF039B059311E0059B9B0006AA25
:10579800134453F8083C1846FFF7DAFF0246019B0A
:1057A8001A60019B04330193059B01330593039A07
:1057B800029B1344059A9A42E7D300BF07B05DF8ED
:1057C80004FB00BF18A2000084B001900091009B68
:1057D8000393019BDB080293019B03F007030193EA
:1057E8000122019B02FA03F30399029A0A441278F0
:1057F8001340184604B0704784B001900091009B94
:105808000393019BDB080293019B03F007030193B9
:10581800039A029B13441B785AB20121019B01FA97
:1058280003F35BB2134359B2039A029B1344CAB2FF
:105838001A7000BF04B0704782B00190044A019BFF
:105848001344303393F90030184602B0704700BF54
:105858008812002082B00190034A019B52F823303D
:10586800184602B0704700BF8812002000B595B0F6
:1058780000231393002303934FF48073ADF846304D
:10588800012310930023129321E0BDF846301846F7
:10589800FFF79AFE0346002B0ED01098FFF7D2FEB2
:1058A8000346002B08D0BDF846301846FFF7A1FE86
:1058B800139A109B13431393109B5B001093BDF82E
:1058C80046300433ADF84630129B01331293129BD5
:1058D800072BDAD94FF4BE70FFF776FE0346002B8C
:1058E8000DD04FF4BE70FFF784FE139B43F00043C6
:1058F800139303AB1A4601210020FFF731FF139BD6
:10590800DBB2002B29D0012310930023129321E04E
:10591800109A139B1340002B16D01298FFF79EFE87
:105928000D901298FFF7AAFE03468DF833301298AF
:10593800FFF790FF0B900B9B002B05D09DF83320B1
:105948000B9B11460D989847109B5B001093129B78
:1059580001331293129B072BDAD9139B002B80F289
:10596800EE8000238DF83B300023029300230F9331
:105978000AE00F9B9B0014AA13444FF0FF3243F830
:105988004C2C0F9B01330F930F9B002BF1D000235E
:105998008DF83B300023129378E06B4A129B134436
:1059A800503393F900308DF82B309DF82B3023F0CD
:1059B800C0030993644A129B1344503393F900308F
:1059C800B3F1FF3F5FD001AB19460998FFF7FCFE22
:1059D8000346002B57D09DF82B309B098DF82330B8
:1059E8000998FFF729FF03461846FFF733FF07908A
:1059F800079B002B03D19DF82330032B43D19DF83F
:105A08002330032B04D102AB19460998FFF7F4FEA3
:105A18000998FFF787FE03468DF81B3003AB19463C
:105A28000998FFF7D1FE0590059B002B03D09DF840
:105A38001B30022B06D0059B002B24D19DF81B3070
:105A4800032B20D19DF82330032B13D19DF81B3055
:105A5800022B01D1032300E002238DF813309DF8B7
:105A6800133019460998FFF72FFE9DF83B30013394
:105A78008DF83B30079B002B05D09DF82320079B12
:105A8800114609989847129B01331293129B032BD6
:105A980083D99DF83B30002B4CD001238DF83A3048
:105AA8006B461A4601210020FFF75AFE00230F9388
:105AB80014E00F9B9B0014AA134453F8502C0F9B1F
:105AC8009B0014A90B4453F8443C9A4203D000238A
