:020000021000EC
:10B0000000800020D1E9010011EA010013EA0100EB
:10B010000000000000000000000000000000000030
:10B0200000000000000000000000000015EA010020
:10B03000000000000000000017EA010019EA01000A
:10B0400031C101001BEA0100A1CE01001BEA010091
:10B050001BEA0100000000007DC501001BEA0100A1
:10B060001BEA01001BEA01001BEA01001BEA0100C8
:10B070001BEA01001BEA01001BEA01001BEA0100B8
:10B080001BEA0100A1B401001BEA01001BEA010058
:10B090007DB501001BEA0100E5EE01001BEA01009D
:10B0A0001BEA01001BEA0100000000000000000094
:10B0B0000000000000000000000000000000000090
:10B0C00010B5064C2378002B07D1054B002B02D07E
:10B0D000044800E000BF0123237010BD281F00209A
:10B0E0000000000094030200044B10B5002B03D0B5
:10B0F0000349044800E000BF10BDC0460000000046
:10B100002C1F002094030200164B002B00D1144B7F
:10B110009D46402292029A1A924600218B460F4683
:10B120001348144A121A00F065F80F4B002B00D098
:10B1300098470E4B002B00D09847002000210400B8
:10B140000D000D48002802D00C4800E000BF00F0C0
:10B150002DF82000290002F011FD00F011F8C04682
:10B160000000080000800020000000000000000037
:10B17000281F0020D8280020000000000000000048
:10B18000084B10B50400002B02D0002100E000BFE6
:10B19000054B1868836A002B00D09847200000F008
:10B1A00031F8C046000000005000020070B50026D3
:10B1B0000C4D0D4C641BA410A64209D1002604F0CE
:10B1C0003BFF0A4D0A4C641BA410A64205D170BD7A
:10B1D000B300EB5898470136EEE7B300EB589847B9
:10B1E0000136F2E7201F0020201F0020201F002032
:10B1F000241F002003008218934200D17047197069
:10B200000133F9E7FEE7C046F8B54546DE46574646
:10B210004E46E0B5234B19789846002929D0224B99
:10B22000002401259946214F214E03E00134E4B268
:10B230008C421ED23A68E300D0188246D05C2A00C5
:10B24000824033681A42F1D09343336001F08CF9A5
:10B2500053461A782B004946934009680B40010079
:10B2600091408B420BD0434601341978E4B28C42B2
:10B27000E0D33CBC90469946A246AB46F8BD534647
:10B280005B689B46002BEED05146497801390B0094
:10B2900059425941091A484241411000C9B2D847A0
:10B2A000E1E7C046441F00206C1F0020741F0020EF
:10B2B000701F0020F8B5124E0400300000F0F0FCC2
:10B2C000002807D10125A5400E4F3B681D4202D042
:10B2D000AB433B60F8BD200001F046F90A4A136811
:10B2E00000280BD1AB4313603B6800221D43074B82
:10B2F000300019683D6000F073FCEBE72B43F2E788
:10B300004C1F0020701F00206C1F0020481F0020D1
:10B31000F0B5CE46474680B506000D00140083B058
:10B32000042A36D900F0FAFF00282DD01D4B1E4A02
:10B330001E601E4B1D701E4B1C60002313601D4AB7
:10B340006C1E1360E4B2002D25D01B4BE40099461F
:10B35000032300279846341901AD04E02300083B7D
:10B36000A64218D01C0043462B70A3784A462900F9
:10B3700020786F806B7000F0DBFF0028EED003B008
:10B380000CBC90469946F0BD00F094FF0028CDD04B
:10B39000F5E70720F3E70021084A094800F00AFC16
:10B3A000EDE7C046741F00206C1F0020441F0020E2
:10B3B000481F0020701F0020B5B2010009B2010033
:10B3C0005400020070B5094D2B78002B0BD00024DF
:10B3D000074E3268E300985C012101F06DF82B788C
:10B3E0000134A342F5D8002070BDC046441F0020A0
:10B3F000741F0020002300B585B001AA90600021D1
:10B4000003481380536000F005F805B000BDC04646
:10B4100001400000BFF34F8F034B044ADA60BFF3D3
:10B420004F8FC046FDE7C04600ED00E00400FA057E
:10B4300010B500290ED0002A0AD01400531E1C405B
:10B440001A4205D1846001608380C460002010BD71
:10B450000920FCE70E20FAE7030010B59C888068FD
:10B46000DA68121A0420944207D30020DA681440E4
:10B470001A681155DA680132DA6010BD8268C36853
:10B480009A420AD08368828813400268D35C0B70AA
:10B49000836801338360002070470520FCE7C046C5
:10B4A000A021F0B50023C6462B4A490000B55350F1
:10B4B0000431535004315350043153504C395350DC
:10B4C00004315350254B1B68002B36D024490025EE
:10B4D0005458244A00271268234EA41A2402240A2E
:10B4E00003E04346002B19D043461A68A24215D800
:10B4F000A41AAD18DA6990461A7C002AF1D05A696C
:10B5000099691F743368002B1AD0100098470028DF
:10B51000E7D0FFF76FFF4346002BE5D11349144AEC
:10B520000B7812789A420ED0124A9B009D508021CF
:10B530008023114A5B004903D15004BC9046F0BD02
:10B5400008009047CDE70132D3B2022B01D00B7037
:10B55000EAE700230B70E7E700100140981F002086
:10B5600004050000941F0020781F0020911F002078
:10B57000901F0020881F002000E100E0F0B5DE46AB
:10B5800057464E464546E0B5C44BC54A9B46C5495D
:10B590001B688DB0059309781378994200D16DE14D
:10B5A0000133DBB2022B00D166E11370BE4A9B006F
:10B5B0009D585A460126059B5B191B021B0A0093E6
:10B5C0001360BA4B9A461978B94B1B6801935346DE
:10B5D0005B780293994200D13AE253465B68009847
:10B5E000039353469B780B9000200693B14B0027A2
:10B5F0001A78844607920A920A000893019B0490E5
:10B6000050008018C0008146039C0132A046069C71
:10B61000D2B2141B601E8441484664422240039CFF
:10B62000C844205C022800D1EEE0032808D1002B9A
:10B6300006D060461874DB69002BFAD10120049013
:10B6400002988242DCD1002F00D06AE1049A002ADD
:10B6500008D0974A1360019A0193D01A421E904174
:10B66000C2B204920024002E00D00CE10023A446B4
:10B6700098460593634600270198002B2DD063461A
:10B68000DD695C68AC469A68009D8B4E651B2D0297
:10B690002D0AB54251D80124AA181A605F609F6034
:10B6A0001C74DF61002857D004680500944205D35C
:10B6B00060E02E68964200D3C6E03400A946ED69EA
:10B6C0000992121B002DF4D11A604A46DD61D36144
:10B6D000030018006346002BD1D1029B994200D190
:10B6E0001AE14B005B18069A0131C9B28A1A541E3E
:10B6F000A241039EDB00F518F35C52421140012B7E
:10B700003FD16B681E7C002E3BD1AC68B1465C60BB
:10B71000EA689A602E69DE606D699D610125059574
:10B72000079D002DB0D04C460595009D624E651BCF
:10B730002D025C602D0AB542ADD9009D2C1B240260
:10B74000240A94420CD2121B01241A605F609F608D
:10B750001C74DF610028A7D1012218009046B9E7C8
:10B7600001221F605F609F601A74DF610028F3D0C0
:10B7700000220468A21A02600122D86190461800D3
:10B78000A8E7029B9942ACD1534619704346002B5F
:10B7900000D1BBE0464B1860019B984202D1049B4C
:10B7A000002B27D0002800D11EE1444A03684448FA
:10B7B000444C8158009A25788A1A1202120A0332E0
:10B7C000002D00D1B6E0934254D3009AA8249446A9
:10B7D00063443B481B021B0A384DE40003514259A5
:10B7E0005B1A521A1202120A1B0203321B0A9A42F5
:10B7F00000D9C5E00023089A13700DB03CBC9046F8
:10B800009946A246AB46F0BD404640688146002BB3
:10B8100000D115E7834200D1DFE018000400C069C1
:10B82000002800D10CE78145F8D10994A14515D035
:10B830000468C069A046099CE061002800D1FFE6C9
:10B84000046844440460FBE6A619099C361B2E607C
:10B850001A604A46DD61D36103003AE7DB69002BD9
:10B8600000D1A7E048460068012480464846049479
:10B87000C069E5E71300A8E7002396E6059B0025CD
:10B88000002600939DE6019B002B00D1EDE00027F0
:10B8900000220020B84689462BE0C046941F0020B5
:10B8A000901F0020911F0020881F00207C1F002077
:10B8B000981F0020841F0020FEFF7F000405000069
:10B8C00000100140851F00204246D968ED1BC019B9
:10B8D0001A60DF69002907D0DC611C00059A9960B5
:10B8E00012181202120A5A60002F00D16EE03200C4
:10B8F0003B001F68AF42E7D94946002A02D05C4AA4
:10B90000019313607D1B1D600496AFE6049B0198B4
:10B91000002B00D16EE745E7059B002B00D033E7F5
:10B9200034E75C4608980A9A02700B9807922060E8
:10B9300000908BE68025D1266D02B6008551403EF1
:10B940008551C02780264B4DB6027F00EE512E60F8
:10B95000012505604848494F06682F20C046C0466B
:10B96000C046C046C046C046C046C046BE4200D0E3
:10B97000C0460138F2D12570934200D325E779E71C
:10B9800043593E4903513C4B1A682F23C046C046D9
:10B99000C046C046C046C046C046C0468A4200D0E7
:10B9A000C046013BF2D180238021324A5B008902EC
:10B9B000D1501FE70124324B01279C600024012352
:10B9C0000B94013404930A94002331E7284B494631
:10B9D0001F6000230496019348E6DB690990002B61
:10B9E000E8D00124049423E780218023214A89029E
:10B9F000D1508023D2210125214A5B028900535076
:10BA0000403953501C4B556019682F231B4C1E00A6
:10BA1000C046C046C046C046C046C046C046C046F6
:10BA2000A14200D0C046013EF2D195605A46106056
:10BA3000C046C046C046C046C046C046C046C046D6
:10BA4000A14200D0C046013BF2D10E4B1870D1E6A6
:10BA500053465B68039353469B7806930A4B0893BF
:10BA60001B78079300230493FCE51C000496FDE576
:10BA7000981F002000E100E01C1F00200024F400BB
:10BA800000100140851F0020841F0020F0B5DE4615
:10BA900057464E4645460324E0B5070020009B4626
:10BAA0001040224200D068E0002A00D165E08026E4
:10BAB0008025334CB6026651D2238026314D760262
:10BAC0009B00EE50403BEE5001232F4E6B60994699
:10BAD00033682F269C462D4B98463300C046C046FF
:10BAE000C046C046C046C046C046C046C44500D059
:10BAF000C046013BF2D14B46AB60C046C046C04693
:10BB0000C046C046C046C046C046C44500D0C04638
:10BB1000013EF2D15B461E4E30701E4E3360002651
:10BB20001D4B188099705A601C4B802218601C4B6A
:10BB3000C5211E701B4B52031E70C023FF265B00E5
:10BB4000E25089006358B3433F3E33436350A1231F
:10BB5000DB0022600439EF506358134A1A40C023B7
:10BB60001B0213436350114BEA58114B1A603CBC43
:10BB700090469946A246AB46F0BD0720F7E7C0467F
:10BB800000E100E0001001401C1F00200024F40030
:10BB9000851F0020781F00207C1F0020981F002098
:10BBA000901F0020911F0020FF00FFFF04050000F0
:10BBB000941F0020094B5B68002B0AD0002A0AD092
:10BBC000002808D00368187C002802D159745A61F3
:10BBD00070470820FCE70720FAE7C0467C1F0020DA
:10BBE000F0B5C64600B52A4D04006B680E0017007C
:10BBF00082B0002B40D000283ED0042940D94369B0
:10BC0000002B39D0437C012B38D0002398466A465C
:10BC10000023D01DD37100F093F96978A8784A1CED
:10BC2000D2B2801A431E98412B7840420240934280
:10BC300028D04B005B186968DB008C466344002BFE
:10BC400020D001211348197013495C604158DE600F
:10BC5000996041465F6119616B46D8796A7000F05E
:10BC60008FF98023802100200C4A5B004903D150CA
:10BC700002B004BC9046F0BD0820F9E78846C6E74C
:10BC80000720F5E76B46D87900F07AF90420EFE752
:10BC90007C1F0020001001400405000000E100E0CE
:10BCA00030B51F4D04006B6883B0002B30D00028E6
:10BCB0002ED04369002B2BD000236A460374D01D7D
:10BCC000D37100F03DF96978AB784A1CD2B29B1A67
:10BCD000581E83415B421A402B7893421AD04B0086
:10BCE0005B186968DB008C466344002B12D002218C
:10BCF0005C6019706B46D8796A7000F041F9802356
:10BD000080210020074A5B004903D15003B030BDB9
:10BD10000820FBE76B46D87900F032F90420F5E7FC
:10BD20007C1F002000E100E030B5047885B0012CD4
:10BD300005D0022C2ED0002C1DD005B030BD43689C
:10BD4000264D19782800FFF787FB002831D1AA6813
:10BD5000EB689A4205D002AB1870214B02A81B6811
:10BD60009847A968AA88EB685B1A9A422FD20122E9
:10BD70001C4B1A70E1E71C4C1C482100FFF77EFBAE
:10BD800000281ED0032302AA1370154B10001B6855
:10BD90009847D2E702AB1C70C368012214491548CA
:10BDA0000193039300F080FF0D4B02A81B68984796
:10BDB000C3E702AB1C700A4B03901B6802A89847AC
:10BDC000CFE7012221000B4800F0E0FEB5E7012299
:10BDD0000749084800F068FFAFE7C046A01F0020F1
:10BDE0009C1F0020B01F0020C81F0020B41F00208F
:10BDF000C41F0020141F0020F0B51E00264B0500B4
:10BE00000C0089B01A60002943D08A882348096849
:10BE1000FFF70EFB002801D009B0F0BDA289A16890
:10BE20001F48FFF705FB0028F6D169460B001D4AA5
:10BE300091CA91C391CA91C311CA11C36B698B6135
:10BE40002B7C0E775A1E93410B756B7C5A1E9341C7
:10BE50000E225B4213404B756B6800932B68019375
:10BE6000EB680293AB6803930F4C104A200000F07C
:10BE7000E7FD0028D0D10E4B18702B680133CBD0D2
:10BE8000200000F0EFFF012220000A4900F00CFF23
:10BE9000C2E70720C0E7C0469C1F0020A01F00206B
:10BEA000B41F002058000200141F002029BD01000B
:10BEB000B01F0020C41F002070B50B4D01000B48BF
:10BEC0002E78FFF7DBFA0400002E01D1200070BDB0
:10BED00000230122064907482B7000F0E5FE0028E8
:10BEE000F4D0FFF787FAF1E7B01F0020A01F002071
:10BEF000C41F0020141F0020F8B50E4D01002800BB
:10BF0000FFF7AAFA041E01D02000F8BD0A4E300047
:10BF100000F0BCFE0028F7D1084F28003900FFF7D9
:10BF2000ADFA0028F0D101223900300000F02EFED9
:10BF30000400E9E7B41F0020141F0020C81F0020E0
:10BF4000F0B5EFF3108172B60A4B5A68002A0DD192
:10BF500001248025084E5C607459084F3C401C60E9
:10BF600077510270002900D162B6F0BD0123037041
:10BF7000F8E7C046C028002000E100E0FC06FFBC56
:10BF800010B5084B5A68002A0BD0002809D1EFF3EE
:10BF9000108272B604491C680C605860002A00D1F7
:10BFA00062B610BDC028002000E100E070B5161E8A
:10BFB00007DD0C008D1820780134FFF79DFFAC429F
:10BFC000F9D1300070BDC04610B50C002000FFF75D
:10BFD00073FF0528FAD0012010BDC046A022044BF3
:10BFE000D205D358034A125C0120D34098437047CE
:10BFF000040500007C000200044BA0211A5C012310
:10C000009340034AC9058B507047C0467C0002002C
:10C010000C050000044BA0211A5C01239340A122CF
:10C02000C905D2008B5070477C000200A022A123DA
:10C030008021D205DB008903D1508021C903D15072
:10C0400080210904D15080214904D1507047C04655
:10C05000A0228021064BD2058903D1508021C9033B
:10C06000D15080210904D15080214904D15070471A
:10C070000C050000A02210B5074BD205D158074B84
:10C08000185C012383401C00A1208C430B40044911
:10C09000C0001450535010BD040500007C00020085
:10C0A0000C050000A02303220B49DB055A50043184
:10C0B0005A500A495A5004315A50A1228021D200C4
:10C0C000890399508021C90399508021090499500E
:10C0D0008021490499507047540700005C07000014
:10C0E000A022A223D205DB00D358034A125C012010
:10C0F000D34098437047C0467800020011280BD007
:10C1000012280BD013280BD0143843425841042373
:10C1100040421840013870470020FCE70120FAE750
:10C120000220F8E7014B185C7047C0467800020017
:10C1300010B51A4B1A68002A14D0002280211A6008
:10C14000C2220123164CC90592008B506370A3686C
:10C15000002B07D01A6800205B68A2609847A3688C
:10C16000002BF7D10F4B1A68002A15D000221A6055
:10C170008022C22302219B00D205D1500123084C0A
:10C18000A3702369002B07D01A6801205B68226125
:10C1900098472369002BF7D110BDC046000100402D
:10C1A000CC1F00200401004010B500280BD1064C24
:10C1B000A368002B07D01A6800205B68A26098472C
:10C1C000A368002BF7D110BDCC1F002010B582B0A2
:10C1D0006A460023D01DD371FFF7B2FE144C2378BA
:10C1E000002B0AD0E3680133E3600123A3706B46A0
:10C1F000D879FFF7C5FE02B010BD6360A36023616C
:10C20000E3600C4B1B68DB070CD502F00DFE002829
:10C2100005D18022A3230121D205DB00D1500123C7
:10C220002370DFE70321002000F006F8EDE7C046A9
:10C23000CC1F002000E100E0F0B500281EDB1B4B06
:10C2400084089C460323C2B21840FC331F00C0265A
:10C25000C000890187400B408340A4006444B600BD
:10C26000A559BD432B43A3511F23C0211A401E3B98
:10C2700093400E4A490053501360F0BD0C4C032507
:10C28000A4460F23FF240340C2B228402500C0006B
:10C29000890185400C408440083B9B089B00634417
:10C2A000DE69AE433443DC61DEE7C04600E100E016
:10C2B00000ED00E070B54425154C665D002E25D1DB
:10C2C000012301204042C1175B422060616020626F
:10C2D0006162A062E16220636163A063E163236441
:10C2E00003210730A360E36023616361A361E3611D
:10C2F000FFF7A2FF074B80211E60C123064A9B0067
:10C300000906D15001230020635570BD0820FCE7C9
:10C31000E01F00207C610040006000404423034A8D
:10C32000D05C431E9841C0B27047C046E01F002059
:10C33000F0B5CE46474680B55C4C03002518203545
:10C340002E78914608207F2E39D9CE78002E3AD10A
:10C350002269013200D1A0E06269013200D196E089
:10C36000082206209446850067597A1C37D0471C5E
:10C37000674500D381E0BD006259013200D17EE003
:10C38000871C674500D378E0BD006259013200D1B7
:10C3900075E0C71C674500D36FE0BD0062590132EC
:10C3A0006DD0071D674568D2BD006259013266D065
:10C3B0000530604561D2E269042001320DD00CBC29
:10C3C00090469946F0BD226801325AD06268013227
:10C3D00069D0042202209446C5E71C250330E218E8
:10C3E000944620229046C444624647B217704A469B
:10C3F0006251002E02D120183C3003708A78002A46
:10C4000026D0A020C0058446E02502269A0062447A
:10C41000ED005059B0435051CA78002A24D00A7810
:10C420002349BC008C46A2216444C9006058214DB8
:10C430001B022840F8256D012B40C02560501204D6
:10C44000AD0260582A401343034363500020B6E70F
:10C450001A00A0254878C132FF3292008000ED0515
:10C460005051CA78002ADAD1E4190B783C3422788A
:10C470009B01134300202370A1E704209FE73800AD
:10C48000ADE700204A46002728702260B6E7052065
:10C490004A46052728706261ADE704204A46070036
:10C4A00028702261A7E70120042598E7E01F0020FB
:10C4B00000600040FFE0FCFF0023F0B5274C22188D
:10C4C0002032D356032B1DDDE3183C331B789B0928
:10C4D000032B38D0013B5A425341C022920294466A
:10C4E0005B421B046344A022D2059446E0228000F4
:10C4F0006044D20081581A4C2140815081580B432E
:10C500008350F0BDD8B20328FBD8164DA227AC4605
:10C51000012698006044FF00C5593543C5511800F5
:10C52000654600274030800080B247510029E8D09E
:10C53000127852B292001259002AE2D09E40C123D2
:10C540009B00EE50DDE7A022A223D205DB00D258EB
:10C550000123C240134002331B04C4E7E01F002044
:10C56000FFFFFCFF00600040A022A223D205DB00F9
:10C57000D358C340012018407047C046F0B54E461E
:10C58000DE46574645460021E0B5C84A87B00391CC
:10C5900013680026012B00D17DE1C54B1A68012AE2
:10C5A00000D16CE1C34B1A68012A00D15BE1C24B98
:10C5B0001A68012A0DD0C14B1A68012A00D183E103
:10C5C000002E1ED107B03CBC90469946A246AB4611
:10C5D000F0BDC122BA499200895808220A42EAD025
:10C5E00000211960B54B16431A68012A09D1196058
:10C5F000A022A223D205DB00D358039380231B067D
:10C600001E43B04BA22798460323012500249946D8
:10C61000FF0035420ED0AA4AA3009A18D059D1592A
:10C620004246D358002B05D04A46090CC00411409D
:10C63000C00E984701346D00042CEAD1002EC1DAF7
:10C640000023C026072504939E4C013B05934023FD
:10C65000E1564B1C3ED0C9B20800B043C3089C460B
:10C660002A00012367460A40934005AAD25D13427F
:10C6700030D08A09934622182032127852B29200A2
:10C68000A2589146002A00D197E15A46032A00D1C8
:10C6900097E1A027FF05B84682009044E022474674
:10C6A000D200BA5803AF9203910F6246BA5C1342AC
:10C6B0000DD002290ED15B46032B00D1B5E100233A
:10C6C00098464B46002B07D05946C84704E003293B
:10C6D00000D18BE1002398464123E1564B1C38D012
:10C6E000C9B20800B043C3089C462A00012367462C
:10C6F0000A40934005AAD25D13422AD02218203264
:10C700001278890952B29200A25801919146002AEA
:10C7100000D15FE1032900D15FE1A027FF05BA4600
:10C7200082009244E0225746D200BA5803AF9203E7
:10C73000910F6246BA5C134200D10AE1022908D186
:10C74000019B032B00D168E14B46002B01D00199DE
:10C75000C8474223E1564B1C38D0C9B20800B04349
:10C76000C3089C462A00012367460A40934005AA55
:10C77000D25D13422AD0221820321278890952B28F
:10C780009200A25801919146002A00D109E10329A3
:10C7900000D109E1A027FF05BA4682009244E022B9
:10C7A0005746D200BA5803AF9203910F6246BA5C63
:10C7B000134200D1B1E0022908D1019B032B00D123
:10C7C0002FE14B46002B01D00199C8474323E15686
:10C7D0004B1C37D0C9B20800B043C3089C462A009E
:10C7E000012367460A40934005AAD25D134229D02F
:10C7F000221820321278890952B29200A25801916F
:10C800009146002A00D1C0E0032900D1C0E0A02752
:10C81000FF05BA4682009244E0225746D200BA5839
:10C8200003AF9203910F6246BA5C134258D00229BB
:10C8300008D1019B032B00D1FBE04B46002B01D01C
:10C840000199C8474346002B00D1BBE6A022A22392
:10C85000D205DB00D358039A9A4200D1B2E6039383
:10C86000049B0593F3E6C1221549920089580422DE
:10C870000A4200D19BE600211643196097E6C122C7
:10C880000F499200895802220A4200D18AE600210B
:10C890001643196086E6C1201E00094C800020580E
:10C8A0000640034200D178E6116076E60061004060
:10C8B00004610040086100400C6100407C61004060
:10C8C00000600040E01F002000221A60A022A22386
:10C8D000D205DB00D3580393002E00D1B0E68DE6DD
:10C8E0000329AFD1019B032BA7D180239B029C4638
:10C8F000E0235246DB00D25850490A405146CA5004
:10C90000CA5861460A435146CA504B46002B9DD037
:10C9100043460133DBB2984692E7032900D055E73E
:10C92000019B032B00D04CE780239B029C46E02315
:10C930005246DB00D25841490A405146CA50CA58B3
:10C9400061460A435146CA5043460133DBB298461A
:10C9500037E7032900D0FCE6019B032B00D0F3E668
:10C9600080239B029C46E0235246DB00D258334989
:10C970000A405146CA50CA5861460A435146CA50F5
:10C9800043460133DBB29846DEE6032900D059E77F
:10C99000674604AAD75D1F43BA4667465146D1553C
:10C9A00035E7032900D011E7674604AAD75D1F4386
:10C9B000BA4667465146D155ECE65A46032A00D09E
:10C9C00088E6674604AAD75D1F43B84667464146D6
:10C9D000D1555EE6032900D0BBE6674604AAD75DC1
:10C9E0001F43BA4667465146D15596E65B46032B30
:10C9F00000D064E680239B029C46E0234246DB0095
:10CA0000D2580E490A404146CA50CA5861460A43A4
:10CA10004146CA500123984653E6C0239B029C46D8
:10CA2000A1E7C0239B029C4681E7C0239B029C4652
:10CA3000E3E7C0239B029C465AE7C046FFFFFCFF8A
:10CA4000F8B5CE46474680B507794A4DFE00F31B40
:10CA50009B00EB18DB7E04009146002B00D087E0A2
:10CA60000B685A1C0DD001209840A1220300A02081
:10CA7000D200C005835003220B68C133FF339B00F3
:10CA80001A504B685A1C06D0A0200022C133FF3335
:10CA90009B00C0051A5020688A69374BC250087D38
:10CAA0004B7D22680343354813500A682368944637
:10CAB00033484A681A50624632481A500B7D012B9F
:10CAC0002FD04A46F31B9B00E81842600A69EA50DF
:10CAD0004B46002B12D08E22002320685200097F83
:10CAE0008350206828328350C1232068264A9B0047
:10CAF000C2502368180B40B2FFF79EFBA02304210D
:10CB00002268DB00D15000230020F61BB600AD19CF
:10CB10002B76EB820133FF336B830CBC9046994636
:10CB2000F8BD8B685A1C06D0A0200022C133FF3309
:10CB30009B00C0051A50CB685A1C0ED001209840AB
:10CB4000A1220300A020D200C00583500322CB689D
:10CB5000C133FF339B001A50CB688A682068944623
:10CB6000A122D2008350A2236246DB00C250A8E774
:10CB70000820D2E728200020240500006C050000D2
:10CB8000140500000C05000080000200F0B54546C9
:10CB9000DE4657464E46E0B504000079394DC300E5
:10CBA0001B1A9B00EB18987D002828D199608E21D4
:10CBB0009A75012298822368490026795850236883
:10CBC0009A60236858509C46F3009B469B1B9B0031
:10CBD000EB189A686746904640469A8A805C9A8A23
:10CBE000013292B29A82284AB8505A680020002A2C
:10CBF00007D03CBC90469946A246AB46F0BD1120FA
:10CC0000F7E79A7D894694460130FF3019009A8AE9
:10CC1000143162451ED2226802E0998A814203D013
:10CC2000494651580029F8D0998A8142EED0002116
:10CC30004F46D1514746998A795C8A465746998A28
:10CC4000013189B299821049575019009A8A1431DA
:10CC50006245E0D380230A885B009A420FD08E2180
:10CC6000226849005358002BFCD001230020D360D8
:10CC70005B469E1B0023B600AD19AB75B9E70F20CC
:10CC8000F6E7C046282000201C0500000279D300EA
:10CC90009B1A044A9B00D318987D431E9841C0B24A
:10CCA0007047C04628200020F0B5454657464E46FE
:10CCB000DE4690466A4AE0B5944606790300F000E5
:10CCC000851BAD0065446F6883B0002F07D08124B9
:10CCD000A400A446C22562461C68AD006251604AA9
:10CCE000801B944680006044C57D002D20D0057EC9
:10CCF000002D00D0A4E04246016102761D79EA00D1
:10CD00009046574942468C46521B920062445168F5
:10CD1000002929D01A688121C12300209B008900A5
:10CD2000D15003B03CBC90469946A246AB46F0BDFC
:10CD30004246C1604A49C2758C46457605761D79E2
:10CD4000EA009046521B92006244927E002AD8D19B
:10CD5000922118684900425018681C3942501A68DC
:10CD60000839FF391160CCE7A2201C68400021502F
:10CD7000922401902E38FF388246842710006400E8
:10CD8000A34619687F00924419305C460C59A146AD
:10CD9000CC59A446019C0E596446002C1CD1002E8F
:10CDA00043D02F4942468C460021521B92006244D8
:10CDB000D1754A46002A41D10F20002EB1D14246FA
:10CDC000551B274AAD005419A27E1B68002A41D08A
:10CDD000012200201A60A4E74C463443A446E0D167
:10CDE00054462678002E12D06446CC51A324E40089
:10CDF00006780959D468A155544601780131C9B261
:10CE00000170017826788E4206D91968BDE7A32003
:10CE1000CE51C0000958527E114942468C4600212D
:10CE2000521B92006244D175C9E74C46002CACD02D
:10CE300043465D1B0A4BAD005C19E675032070E7A5
:10CE4000002F0BD01A688121C12389009B0011207B
:10CE5000D15066E7012200205A6062E7112060E7A6
:10CE60002820002010B501790C4ACB005B1A9B00EA
:10CE7000D3189B7E002B10D1922104684900635087
:10CE800004681C39635003680839FF391960007958
:10CE9000C3001B1A9B00D218917610BD28200020D9
:10CEA000C12330B55E4A9B00D35885B09B0559D548
:10CEB00092235B00D158002954D00021D150812108
:10CEC000E533FF338900D150564B997E002901D1BB
:10CED00001315160022269460A7090215048C90010
:10CEE0004258425069460392DA7D68460A72DA680F
:10CEF00001920022DA751A760ACB98478E21484AA9
:10CF000049005358002B0FD0464B9C8A9D7DAC4264
:10CF100062D200205050998A9868405C998A013109
:10CF200089B29982404BD050A2233D4A5B00D15830
:10CF3000002915D00021D1503A4B997E002901D00B
:10CF400001211160DA7D002A0AD000226846012101
:10CF5000DA755A7E01700272DA680ACB019298473C
:10CF600005B030BDC1232E4A9B00D3585B07C5D501
:10CF7000842149005358002BC0D02A4BD87D00286B
:10CF800038D000205050A320C000597E1258D868D5
:10CF900042545A7ED87D0132D2B25A765A7E8242AB
:10CFA000ACD11A7E002A2AD19A7E002A02D1012110
:10CFB0001B4A5160C222812019499200800088508A
:10CFC000002268460121DA755A7E01700272DA6821
:10CFD0000ACB0192984791E700205050002DA3D032
:10CFE0006A46107015729A689875019268460ACB65
:10CFF000984799E75050A321C9005258CEE7DA75F7
:10D000001A69D968DA6000226C46587E1A765A7618
:10D0100001322072019168460ACB227098476DE771
:10D0200000200040282000201C05000010B5022030
:10D03000FFF720F810BDC046F8B5CE46474680B58C
:10D0400006000D00FFF75AF80400032805D8012D4B
:10D0500014D0022D2AD0002D03D00CBC9046994646
:10D06000F8BD1D48FEF71CFE1C4B620012199B18F0
:10D070009D781B4B1B5DAB42EFD10EE0174F430079
:10D0800098461B18FD5CFB185B78002B14D14346B7
:10D090001B19FF18BA78124B1A55002DDDD0114B11
:10D0A0001B68002BD9D028009847D6E7400000190C
:10D0B0000A4C24186578F0E70B4B074899460B4B50
:10D0C0004A461B689900C9184900FEF789FD0028E7
:10D0D000DDD14B461E70DAE76C2000208C2000204A
:10D0E000C8200020C020002044200020682000200C
:10D0F00070B5774B1B68DB0700D470BD754E764D5D
:10D1000033782C78002B05D1172CF6D8734AA3005E
:10D11000D3589F4600233370FEF788FFF4E7704D25
:10D120002800FEF7BDFD11231A1BA34200D1B1E078
:10D13000002800D0AEE0012A0BD0C8306421504353
:10D1400001F00EFF674B0022196841432800FEF7EB
:10D1500047FD0220FEF750FFCFE701230120337087
:10D16000FEF788FF5F4B002219685F48FEF738FD25
:10D17000C3E7012301203370FEF77CFF594B0022E7
:10D180001B6859489900C918FEF72AFDB5E7FEF754
:10D190005FFF2C70B1E70020FEF720FF002800D1D0
:10D1A0008BE00020FEF736FFA11E4B4259411523AC
:10D1B0004942994328314B4B00221B684A48594346
:10D1C0002C70FEF70DFD98E70020FEF707FF002802
:10D1D00064D00020FEF71EFF0822032321E0002078
:10D1E000FEF7FCFE002864D00020FEF713FF0523A5
:10D1F0002B703C4B002219683B484900FEF7F0FCBD
:10D200007BE70020FEF736FF06232B70AAE70020FD
:10D21000FEF7E4FE002847D00020FEF7FBFE2822A0
:10D2200004232B702F4B3048196851430022FEF71E
:10D23000D7FC62E7FEF7FAFE12232B705DE7FEF7DC
:10D24000F5FE0020FEF7D8FE0120FEF7D5FE1523DF
:10D250002B7052E70020FEF7CFFE07232B704CE720
:10D26000FEF7F6FE0C232B7047E7FEF7DFFE0023E8
:10D270002B7042E7FEF7DAFE0020FEF7BDFE132317
:10D280002B703AE7FEF7D2FE0120FEF7B5FE14231D
:10D290002B7032E70220FEF7BDFE2EE70020FEF7DE
:10D2A000ABFE02220323BCE70020FEF7A5FE04220A
:10D2B000B6E70020FEF7A0FE99E70020FEF79CFEEF
:10D2C000A11E4B425941012349429943043172E75F
:10D2D000982000209C200020C42000208000020014
:10D2E0004820002068200020A020002010B50078F1
:10D2F000FEF704FF03280BD843001B180548C0188D
:10D300004078002804D0044B1B68002B00D09847BD
:10D3100010BDC0468C200020C020002010B5FEF7B4
:10D32000DFFE10BD70B5884A0123126805001400A5
:10D330001C401A4201D1200070BD844C2378002B80
:10D3400006D1172D00D9FCE0814AAB00D3589F4687
:10D3500000232370FEF76AFEF3E77E4E3000FEF7EF
:10D360009FFC11230400581BAB4200D1CCE0002CE1
:10D3700000D0C9E001280CD0B7336421584301F034
:10D38000EFFD754B0022196841433000FEF728FC81
:10D3900004000220FEF730FECDE7012301202370B8
:10D3A000FEF768FE6C4B002219686C48FEF718FC0B
:10D3B0000400C0E7012301202370FEF75BFE664BEB
:10D3C00000221B6865489900C918FEF709FC040093
:10D3D000B1E7FEF73DFE624B00241D70ABE7002075
:10D3E000FEF7FCFD002800D19BE00020FEF712FEB6
:10D3F000A91E4B4259411523494299432831584BA4
:10D4000000221D70544B55481B685943FEF7E8FB3A
:10D41000040090E70020FEF7E1FD002878D000200E
:10D42000FEF7F8FD05224E4B4C481A704A4B00227D
:10D4300019684900FEF7D4FB04007CE7FEF708FEFC
:10D440000C22474B00241A7075E70020FEF7C6FD3A
:10D45000002861D00020FEF7DDFD08200322404BAC
:10D460001A703D4B0022196841433C48FEF7B8FB57
:10D47000040060E7FEF7DAFD0022394B00241A7041
:10D4800059E7FEF7D3FD1222354B00241A7052E7FC
:10D49000FEF7CCFD0020FEF7AFFD1322304B002439
:10D4A0001A7048E7FEF7C2FD0120FEF7A5FD142221
:10D4B0002B4B00241A703EE7FEF7B8FD0020FEF764
:10D4C0009BFD0120FEF798FD1522254B00241A70C4
:10D4D00031E70020FEF7CEFD0622214B1A7061E7EE
:10D4E0000020FEF789FD07221D4B00241A7022E759
:10D4F0000020FEF773FD00281ED00020FEF78AFDF5
:10D5000028200422164BABE70220FEF783FD12E72A
:10D510000020FEF771FD85E70020FEF76DFD02207B
:10D520009CE70020FEF768FDA91E4B4259410123EC
:10D5300049429943043162E70020FEF75DFD042073
:10D54000DFE70024F7E6C046982000209C2000205A
:10D55000E00002004820002068200020A0200020D9
:10D56000C4200020214B70B51960214B05001860C4
:10D57000204B1A60830713D50E221F4B1F481A70C9
:10D580000132DA7001329A7101325A724A0804216A
:10D59000FDF7BEFE041E16D0EB0723D4200070BD9D
:10D5A000C3070DD40021164A1648FEF703FB041EDC
:10D5B000F4D10121144A1548FEF7FCFA0400EDE706
:10D5C000FEF770FDEEE7FDF7FDFE041EE4D100213D
:10D5D0000F4A1048FEF7EEFA0400EB0702D4002CC5
:10D5E000DCD1DFE7FEF75EFDF9E7C04668200020EA
:10D5F00098200020C02000208C2000204001020044
:10D60000F1D00100680102002DD00100600102008C
:10D61000EDD2010064010200032807D8012A07D0D7
:10D6200001290BD0022916D000290DD00720704700
:10D6300000220129F6D102000E32D2B2430018189E
:10D64000084BC2540020F2E743001B180548C018DD
:10D6500082700020EBE743001B180248C01842709C
:10D660000020E4E78C20002010B5FEF75BFDA0232E
:10D67000DB059C46E02380006044DB00C25805497E
:10D680000A40C250C022C15892020A43C250002030
:10D6900010BDC046FFFFFCFF10B50020FFF7E4FF00
:10D6A000002802D0062800D010BD0120FFF7DCFFC3
:10D6B0000028F9D0831F5A1E93415B421840F3E7BC
:10D6C00010B50388102B08D0112B05D1294A1368F7
:10D6D000013B1360002B07D010BD264C2368002BA4
:10D6E00024D001332360F7E7012202210020FFF755
:10D6F00093FF002807D0072805D01F4B1B68002B7D
:10D70000EAD09847E8E7072202210120FFF784FFCB
:10D71000002801D00728F0D10A2200210020FFF7BD
:10D720007BFF0028D8D00728E7D1D5E701220021C8
:10D730000020FFF771FF002808D0072806D00E4B05
:10D740001B68002B00D098472368CAE707220221F4
:10D750000120FFF761FF002801D00728EFD1042244
:10D7600002210020FFF758FF0028EDD00728E6D15E
:10D77000EAE7C046D0200020CC2000201B4B10B58B
:10D780000C1E186006D00120FFF7C8FD002823D02A
:10D7900002232370164B1B68002B01D0002010BD04
:10D7A000012202210020FFF737FF002801D00728BF
:10D7B000F5D1072202210120FFF72EFF002801D01A
:10D7C0000728ECD10A2200210020FFF725FF0028BE
:10D7D000E4D00728E3D1E1E70020FFF79FFD002810
:10D7E00002D00B232370D5E72070D3E7CC20002094
:10D7F000D02000203CDF704748DF704775DF70475E
:10D8000076DF70477FDF70478ADF70478CDF7047B5
:10D8100064DF704710B50100014801F073F910BDD5
:10D82000DC23002070B50378012B04D0022B02D03A
:10D83000002B04D070BD4068FDF7DCFDFAE70E4C0C
:10D840000E4D20782818FEF737FB22780132D2B22D
:10D85000AB18013B1B7822700A2B01D0132AE9D99F
:10D86000074E00E022782900300092B201F02AFA37
:10D870000028F7D12070DDE7782100206421002006
:10D88000DC23002010B504280FD00A280CD100207A
:10D89000FFF748FD002814D1FFF7FEFE002816D13F
:10D8A000FFF7A8FF002809D110BD0A4B13215888A3
:10D8B000FFF7A6FF082302009A43F5D0FDF79AFD73
:10D8C000F2E7FDF797FDFFF7E7FE0028E8D0FDF748
:10D8D00091FDE5E7DC23002070B50B7805000C0016
:10D8E000022B04D0032B21D0012B0FD070BD0B7A5B
:10D8F0000025002BFAD06368585DFEF7FDFA00287A
:10D90000F9D1237A0135AB42F5D8EFE70A0049880F
:10D910000A3201F0F9F900281ED1280001F0B0F90F
:10D92000002816D10E4801F0B1FBDFE70D4801F0E9
:10D93000ADFB0D48FFF768FF002807D10120FFF776
:10D94000F1FC0028D2D0FDF755FDCFE7FDF752FDE1
:10D95000F4E7FDF74FFDE5E7FDF74CFDDDE7C046D9
:10D960006C01020098010200E0020200F0B5DE4600
:10D9700057464E464546E0B50388040087B03A2B2B
:10D9800009D80F2B11D9103B9BB22A2B0DD8744A02
:10D990009B00D3589F46552B07D11321A088FFF732
:10D9A0002FFF002801D0FDF725FD6E4D2000FFF769
:10D9B00087FE2100280000F0B9FB21006A4801F031
:10D9C00021F907B03CBC90469946A246AB46F0BD53
:10D9D000210080880831FFF711FF0028E5D0E2E739
:10D9E0000720FFF79FFC002800D0A4E05D4DA18830
:10D9F000280000F05BFB0028D8D0FDF7FBFCD5E742
:10DA00000023002285218088FFF7FCFE0028CCD06F
:10DA1000C9E7037A022B00D190E0032BC5D153480C
:10DA200001F034FB4F4DC1E711239846027C0026DC
:10DA30008044D20805AD002A0AD1B6E7191F012992
:10DA400059D9063B012B45D90137F6199642ACD27C
:10DA500043469F5D9B195B78991E0129EED87B0890
:10DA60009A46F1D03300133399460023A1449B46D4
:10DA700007E001239C460133E3449C46E144DA4538
:10DA800036D92A0049460220FFF7C2FE0028F0D10D
:10DA90002B88012BEDD1AB78022BEAD12000344A40
:10DAA00034490830FFF7B2FE002800D07DE700209F
:10DAB000FFF738FC002850D1A07BE37A0290607B0E
:10DAC000A27A0190207B617A00902B4801F0DEFA67
:10DAD000244D6BE7B11C2A0010204144FFF798FE4B
:10DAE000002805D12B88012B02D1AB78022BD5D091
:10DAF000227CD208A8E7BB089A46A5D0330013338E
:10DB000099460023A1449B4607E001239C4603332A
:10DB1000E3449C46E144DA45EAD92A00494602201A
:10DB2000FFF776FE0028F0D12B88012BEDD1AB78E2
:10DB3000022BEAD1B2E7FDF75DFC57E70D48FFF78E
:10DB400063FE002806D10120FFF7ECFB002800D17E
:10DB50002BE728E7FDF74EFCF5E7FDF74BFCABE7BD
:10DB6000F80102007C210020DC230020D801020003
:10DB7000D8020200E0020200A801020070B50023F2
:10DB80008CB003210020444AFDF780FF002861D1BA
:10DB9000424D06AC23002A0043CA43C343CA43C3D1
:10DBA0003F4B404A029380235B000393049205930A
:10DBB00020003D4AFD3B02A9FEF71EF9002867D16F
:10DBC00001203A4A3A49FFF7CDFC00285DD12100F7
:10DBD0000020FFF7D3FD002854D1364800F0E4F9C7
:10DBE00000284CD1AB6948220193029332490023AB
:10DBF00002A801F01FF900283ED1220000210120D7
:10DC000001F088F9002834D1200001F09BF90028A8
:10DC10002CD12A4801F05CF9002824D1284B21009E
:10DC20002848069300F0C4FF002819D1264801F0C7
:10DC30002DFA2648FFF7E8FD00280ED10120FFF756
:10DC400071FB002803D1FFF7D7FD0028FBD0FDF7BB
:10DC5000D1FBF8E7FDF7CEFB9AE7FDF7CBFBEDE74D
:10DC6000FDF7C8FBE2E7FDF7C5FBD7E7FDF7C2FB11
:10DC7000CFE7FDF7BFFBC7E7FDF7BCFBBDE7FDF74F
:10DC8000B9FBAFE7FDF7B6FBA7E7FDF7B3FB9EE7F0
:10DC9000FDF7B0FB94E7C046D4200020BC02020090
:10DCA000EC230020EC24002025D8010085D80100B9
:10DCB000CD0C000015D801001C2100206DD90100F9
:10DCC000D9D80100DC230020A4020200E0020200F7
:10DCD00090DF704792DF704793DF7047F0B5294BB4
:10DCE0009BB0C45CF73BFF3B6343C018264B1C68EA
:10DCF000002C1DD0254B85789E78AE4233D0012C68
:10DD000016D99E79AE4233D0022C11D09E7AAE4203
:10DD100033D0032C0CD09E7BAE420BD0042C07D00A
:10DD20009E7CAE4215D0052C02D09C7DAC4215D015
:10DD30001BB0F0BD9F890688B742EFD1144B1B681A
:10DD4000002BF5D06846428001220191027098476D
:10DD5000EEE71F8A0688B742E5D1EFE79C8A038881
:10DD60009C42E5D1EAE707881E88B742C7D1E5E7BC
:10DD70009F880688B742C7D1E0E71F890688B74267
:10DD8000C7D1DBE75A020000F425002084280020D8
:10DD9000EC250020F0B54546DE4657464E46E0B538
:10DDA000464B83B000920D00C15CF73BFF3B444CF7
:10DDB0004B43A0462468C318002C1ED0414E9F78C8
:10DDC000B278BA4265D0012C17D9B279BA4267D07D
:10DDD000022C12D0B27ABA4200D168E0032C0CD0E7
:10DDE000B27BBA4210D0042C07D0B27CBA4245D0E4
:10DDF000052C02D0B27DBA4246D003B03CBC90465E
:10DE00009946A246AB46F0BDB28991461A88914523
:10DE1000E9D12D4B1B689A46002BEED02B4B1F6887
:10DE20009946052FE9D86C237B439B46284E0193E6
:10DE3000B3445B46009A01375A806422514304334D
:10DE40004118180001F018F969424D41019A6D001E
:10DE50005B46B55452469A664B461F60A742CCD1EA
:10DE60000024B36E3000984743461B6801346C367B
:10DE70009C42F6D300234A461360BEE7328A91469D
:10DE80001A889145B4D1C4E7B68A1B889E42B4D1A2
:10DE9000BFE71A8891463288914500D093E7B8E7EA
:10DEA0001A889146B288914500D091E7B1E732894E
:10DEB00091461A88914500D090E7AAE75A020000DF
:10DEC000F425002084280020EC2500208028002054
:10DED000F8250020F0B54E4657464546DE46E0B5EB
:10DEE00064258C4685B02E490192415C2D4A4D43F4
:10DEF000835C4119DC00E41864000F7964198946D9
:10DF00000A34591C06000419B9423FD0BB4236D22C
:10DF10004846223000901C208246B244791EAA4412
:10DF2000248999421CD0A346DC000098E4186400C0
:10DF3000055B01208046C344AB451AD05B4603A96C
:10DF4000013D0B804D800023624601981370FFF75E
:10DF5000C3FE05B03CBC90469946A246AB46F0BD18
:10DF600048460589AC420FD003A901340C804D808E
:10DF7000E9E754440133DDB2B354AF42D0D80123B2
:10DF8000624600201370E4E70024F3E74A46238941
:10DF900012899342F3D003A901330B804A80D2E760
:10DFA0005A0200005902000000280BD00023012172
:10DFB000054A1360054A1170054A1360054B186045
:10DFC000002070470E20FCE7F4250020F0250020FB
:10DFD00080280020EC250020010070B5002856D0D4
:10DFE0002E4B1B78002B23D02D4D2A68002A50D0B1
:10DFF0002C4B84789878A0421CD0012A23D9987998
:10E00000A0422BD0022A20D0987AA0422BD0032AFB
:10E010001BD0987BA0422BD0042A16D0987CA0421B
:10E020002BD0052A11D09E7D0420A6422AD070BD97
:10E030000820FCE70E8818888642DED11A4804685A
:10E040000020002CF3D1052A26D8541C9000181863
:10E05000042201F011F800202C60E8E79E8808886F
:10E060008642CFD1EAE71E8908888642CFD1E5E70C
:10E070009E8908888642CFD1E0E71E8A08888642BA
:10E08000CFD1DBE79E8A0C88A642D0D1D6E70E20FE
:10E09000CDE70124034BD9E70420C8E7F025002091
:10E0A000F425002084280020EC25002070B5040011
:10E0B0000D00002828D0154B1B78002B20D0144BC6
:10E0C0001B68002B1CD0134E835D002B1AD1124A03
:10E0D000A152124A12491360972292008354114AA6
:10E0E0008354114A8354042200F0C6FF2200012108
:10E0F0002800FFF7EDFD002801D10123A35570BDD5
:10E100000820FCE71120FAE70E20F8E7F0250020B0
:10E11000F42500205B0200005E0200008028002041
:10E12000842800205A02000059020000F0B545463C
:10E13000DE4657464E46E0B50C000500A1B000286B
:10E1400000D17BE0002900D178E06D4B1B78002BDB
:10E1500074D00B88322B00D1E6E000D975E0112B8A
:10E1600000D1C3E0302B69D1664A8B88825A9A422B
:10E1700064D1CB88002B00D0E4E16426624B0422FA
:10E18000C75C0E317E438619300000F075FF210018
:10E190000422B01D123100F06FFF5C4BA088EB5CD5
:10E1A000002B00D1F6E1013BDAB2D3009B186422C8
:10E1B00057435B00DB19EB185B8A01339BB204AA5F
:10E1C0001381338906A95381FFF784FD002835D0D8
:10E1D00000224F4BEA544C4BA188EA5CF73BFF3BD3
:10E1E0005343ED184B4B1B68002B23D04A4FAA78A2
:10E1F000BE78964200D155E3012B1BD9BE799642D9
:10E2000000D156E3022B15D0BE7A964200D165E3C9
:10E21000032B0FD0BE7B964200D166E3042B09D0BE
:10E22000BE7C964200D16EE3052B03D0BB7D9342AA
:10E2300000D120E30322394B1A70598021B03CBC35
:10E2400090469946A246AB46F0BD332BF6D12D4BF6
:10E250008A88C35A9A42F1D12B4BC35C9C462B4B04
:10E26000C35C9846CB88002B00D043E18B89002B00
:10E2700000D13FE14346DB001800674664237B433F
:10E2800040444000C0181A239946281881440A00C7
:10E290004B460021A946224E1D000E3218E0214FA8
:10E2A000BB4200D020E113880383838A002B09D06E
:10E2B000C38A002B06D0038B002B03D02B88002BA6
:10E2C00000D016E1A38901310632994200D310E152
:10E2D0005388B34200D109E100D900E1A427BF016E
:10E2E000BB42DCD11388C382838ADFE7054BC25A65
:10E2F0008B889A42A2D10022054BC2549EE7C046A9
:10E30000F02500205E0200005A02000059020000C1
:10E310005B020000F425002084280020F82500205E
:10E320000229000001290000B44B8A88C35A9A428E
:10E3300000D083E7CB88002B00D0A6E0B04BC35CB5
:10E340001A00029364235A43924682445346019230
:10E3500005221F790B7B9146FB18052B01DCDBB2F4
:10E36000994653464A461A714F4500D3F5E1D3B258
:10E3700064220299994651438C46FB009846DB196A
:10E380005B0063449B46AB445846009121000A3031
:10E390005A3A0E3100F070FE00265B469E82DE8205
:10E3A0001E835E837B1C9B464B4562D2009ADB003A
:10E3B000944603935B445B0063449846A8444046FC
:10E3C00021000A220A30183100F056FE43469E8290
:10E3D000DE821E835E83BB1C9846994500D8B8E157
:10E3E0000099DB008C46039343445B0063449B46E7
:10E3F0002300AB445846223319000A220A3000F0A9
:10E400003BFE5B469E82DE821E835E83FB1C9B4638
:10E41000994500D82BE2009ADB00944603935B44B5
:10E420005B0063449846A844404621000A220A3013
:10E430002C3100F021FE434604379E82DE821E838B
:10E440005E83B94500D884E1009AFB009446984663
:10E45000DB195B0063449B46AB44584621000A220B
:10E460000A30363100F008FE5B469E82DE821E8353
:10E470005E83019B47449C4653467F00EF196744E7
:10E480007A8A1B899A4200D286E000275D4B2800D9
:10E49000EF54984604ABA288D91DFFF71BFD061E5A
:10E4A00000D0B9E004ABDB79002B00D1C6E6A2882E
:10E4B00001212800FFF76EFC97229200AB5CA48834
:10E4C0000133DBB2AB54504A1268934200D2B1E13F
:10E4D00003224E4BEE544E4B1A705C80AEE64D4F0D
:10E4E000BB4201D113882B80838ADFE613888382A5
:10E4F000DCE64D4600266427624604ABDE714346E7
:10E500007A43AA1812790133934232D1012304AA23
:10E51000D371A28801212800FFF73CFC97229200CA
:10E52000AB5CA4880133DBB2AB54374A1268934228
:10E5300000D259E10022354BEA54354B03321A70B0
:10E540005C807BE60021FFF725FC97229200AB5C04
:10E55000A6880133DBB2AB542B4A1468A34200D225
:10E56000A4E00022294BEA54294B03321A705E8042
:10E5700064E6244A2800AB5404ABA288D91DFFF7F7
:10E58000A9FC002800D0ECE004ABDB79002B00D123
:10E5900054E6BEE7F38812E64B46052B00D174E73C
:10E5A0004A46184BEA54A0884B46002A00D16FE136
:10E5B000013BDBB2DA00D318642202995B004A43C4
:10E5C0009B18EB185B8A01339BB204AA1381534654
:10E5D0001B8906A95381FFF77DFB011E00D12DE6A3
:10E5E00000220A4B2800EA54A288FFF777FB032297
:10E5F000074B1A70A2885A8020E6C0465E020000CF
:10E600005A02000059020000F42500205B020000BD
:10E61000F8250020082900006420C24BEF54C24BAB
:10E62000A188EB5C5843C14B2D181B68002B00D10F
:10E6300000E6BF4FAA78B878904200D121E1012BC3
:10E6400000D8F7E5B879904200D124E1022B00D13F
:10E65000F0E5B87A904200D132E1032B00D1E9E530
:10E66000B87B904200D132E1042B00D1E2E5B87CC6
:10E67000904200D140E1052B00D1DBE5BB7D934208
:10E6800000D0D7E5BA8A2B889A4200D0D2E5A94BB0
:10E690001B68002B00D1CDE504AA5181012204A9F9
:10E6A0000A72079606A89847A188C3E500239B46EF
:10E6B0005A46A14B9E4FEA549B4B0432E95C9A4662
:10E6C0000131C9B2E954F73BFF3B99464B439846A9
:10E6D0008900A8447918404600F0CEFC5A464346CB
:10E6E00001211A7130004246FFF7F2FA002800D1EA
:10E6F000A4E55A468B4BEA5453464A46EB5C5A43D0
:10E70000AD18AB78BA789A4200D12EE1012C1BD01B
:10E71000BA799A4200D13BE1022C15D0BA7A9A42DA
:10E7200000D13BE1032C0FD0BA7B9A4200D141E1EA
:10E73000042C09D0BA7C9A4200D135E1052C03D0D3
:10E74000BA7D9A4200D13BE103227C4B1A705E8075
:10E7500074E5039B5F4698468BE6013FFB009846B5
:10E7600087E6704BEE54704BA188EB5C5F436F4BB8
:10E77000ED191B68002B00D15CE56D4FAA78BE78BF
:10E78000964200D1C6E0012B00D853E5BE799642EF
:10E7900000D1D5E0022B00D14CE5BE7A964200D1E3
:10E7A000D5E0032B00D145E5BE7B964200D1D5E0F4
:10E7B000042B00D13EE5BE7C964200D034E53E8A73
:10E7C000B4462E88B44500D02EE55A4B1B68002B6A
:10E7D00000D12FE504AA5181012204A90A720790F1
:10E7E00006A89847A18825E500276426524B0422F5
:10E7F000EF544D4BE95C0131C9B24E43E9544C4BE7
:10E80000AE1989005918300000F036FC01213200A1
:10E8100020003771FFF75CFA011E00D10EE5414B75
:10E82000EF5422002800FFF759FA0322434B1A70D5
:10E830005C8003E5434664273B4AEE54AB5C3C49AD
:10E840000133DBB25F43AB54EF199B00C9180422BC
:10E85000380000F011FC01213A0020003E71FFF762
:10E8600037FA011E00D1E9E42E4BEE54D9E7039BA1
:10E8700047469846FDE5BA8A2B889A4200D0D9E4EB
:10E88000A3E7388884462888844500D0D7E6FEE68A
:10E890005346DB8899E6B88884462888844500D0AA
:10E8A000D4E6F4E62E88B4463E88B44500D0A3E40E
:10E8B0008BE72E88B446BE88B44500D0A2E484E736
:10E8C000388984462888844500D0C6E6DFE6B889C2
:10E8D00084462888844500D0C6E6D8E62E88B4460B
:10E8E0003E89B44500D093E46FE72E88B446BE89D4
:10E8F000B44500D092E468E7388A84462888844585
:10E9000000D0B8E6C3E62E88B4463E8AB44500D0AF
:10E910008AE45AE73E88B4462E88B44500D032E7F0
:10E9200053E7C0465B0200005A020000F4250020B5
:10E9300084280020EC25002059020000F825002042
:10E94000BE88B4462E88B44500D023E73DE73E8913
:10E95000B4462E88B44500D023E736E7BE89B446D6
:10E960002E88B44500D023E72FE739882A889142C2
:10E9700000D0CBE6154B1B68002B00D1E4E604AABF
:10E980005681012204A907900A7206A89847DBE67F
:10E99000B9882A88914200D0BEE6EBE739892A88F7
:10E9A000914200D0BEE6E5E7398A2A88914200D03C
:10E9B000C4E6DFE7B9892A88914200D0B8E6D9E7F2
:10E9C000BA8A2B889A4200D0BEE6D3E7EC25002015
:10E9D00003210A4802680A430260094802680A43A0
:10E9E00002600849084A094B9B1A03DD043BC858DA
:10E9F000D050FBDC00F012F8FCF786FB2405004049
:10EA000054050040A0030200B01E0020281F002073
:10EA1000FEE7FEE7FEE7FEE7FEE7FEE72D4B1B788D
:10EA2000012B00D070472C4B1B681B07FAD12B4AD7
:10EA3000F0231268110019401A4201D0102946D162
:10EA4000274A12681A421FD0F022244B1B68134039
:10EA5000402B29D0F022214B1B681340A02B01D062
:10EA6000D02BDFD1F0231E4A12681A42DAD11D4A98
:10EA70001368012B04D01C4B13601368012BFCD1CD
:10EA8000C0221A4B1A60CDE7194B1A4A1A6080222D
:10EA9000194B12021A600F4B1B78012BC2D10E4B7F
:10EAA0001B681B07D0D0BDE70D4B1B681342D1D1AB
:10EAB0008022C1230121DB00D205D150054B1B78F8
:10EAC000012BAFD1044B1B681B07C3D0AAE7302929
:10EAD000B6D0B9E7E00F00F0E40F00F0E80F00F067
:10EAE000EC0F00F000EC06407593000014EC0640BB
:10EAF00004050040DFFF07C0186C004098DF704736
:10EB000063DF7047F0B5CE4647460C0080B585B050
:10EB10000500102200216846FCF76CFB2378002BCF
:10EB200002D1A388012B04D005B00CBC90469946B5
:10EB3000F0BDA2792B789A42F6D1207A00282CD009
:10EB40006B465B89002799466B469B890026984651
:10EB50006B46DB8900229C4623000E330AE0032922
:10EB600004D119890127894659898846013212330F
:10EB7000824206D219880229F1D1198901268C46D0
:10EB8000F4E7002E02D06B466246DA81002F04D0F3
:10EB90006B464A465A8142469A81EB68002BC3D0A5
:10EBA0006946628828004A8001220A709847BBE7BC
:10EBB000F0B587B0040002A80200114B0D00C2CBD3
:10EBC000C2C21B681360002C17D0002D15D0210085
:10EBD000FFF796FF002801D007B0F0BD6A46237802
:10EBE000937101239380023B63802B68A080208176
:10EBF000E36001A8FFF7F0F9EEE70E20ECE7C0466E
:10EC0000F002020010B584B0002813D0002911D002
:10EC100043881A4A93420FD08A889A420AD10B88B5
:10EC2000112B12D0392B05D18388002B02D08A8971
:10EC30009A4214D004B010BD0A88112A02D0392A91
:10EC4000F8D1F1E78A889A42F4D1C368002BF1D059
:10EC5000032269460A70043A42809847EAE7C3688B
:10EC6000002BE7D06C46022222700A001232019279
:10EC70000A8A694622729847DCE7C046FFFF000017
:10EC800000B5030085B0002818D040880C4A904297
:10EC900012D0DB88002B0FD0694601220A800222A5
:10ECA000CB808023FF328A809B02039101A90293CB
:10ECB000FFF724FF05B000BD0820FBE70E20F9E7B1
:10ECC000FFFF000030B503000C0085B0002817D00E
:10ECD000142A11D840880B4988420FD0812501A9F8
:10ECE0006D000D801B89CA804B8000238C608B8057
:10ECF000FFF704FF05B030BD0720FBE70820F9E768
:10ED00000E20F7E7FFFF000000280CD04180002A0A
:10ED100007D05388C38013888380938803810020A1
:10ED200070470020FCE70E20FAE7C04652DF70472C
:10ED300010DF704760DF704761DF704710B5FCF788
:10ED400069FB10BDF0B54646D6464F46C0B5314BBF
:10ED5000314D1C68984663425C412B7882B0E4B226
:10ED6000002B2DD12D4B01A899462D4EFFF7DEFF2C
:10ED700005283FD0002829D0FCF73CFB002C30D1DF
:10ED800000239A462B78DCB2002B19D14B466A46F9
:10ED900037681B88380001A99380FFF7CDFF05284D
:10EDA0002BD000282DD1434638001B689847534686
:10EDB000002B17D001239A462B78DCB2002BE5D02C
:10EDC00002B01CBC90469946A246F0BD0198FDF7E2
:10EDD000EBF9144B1B68002B01D001989847002CCD
:10EDE000CED001242B78002BEAD101A8FFF79EFF9B
:10EDF0000528BFD1002CDDD0E2E75346002BF0D030
:10EE0000DEE7FCF7F7FA5346002BD3D12B78002B23
:10EE1000EBD0D5E7A0280020A92800209C280020BE
:10EE2000B0280020AC280020014B1878C0B27047F1
:10EE3000A828002070B5002931D08C072FD10125DA
:10EE40001B4C21601B491C4C0A801C4A1360236820
:10EE50001D4208D080231A49E550FFF769FF0028BA
:10EE600006D0256070BD1649FFF762FF0028F9D172
:10EE70000124144B1C70FDF7A9F9C5230E4A9B0011
:10EE8000D3589B0D1C420CD00F4B586800280AD059
:10EE900080221968D2030A4300201A60E2E70720A3
:10EEA000E0E70A48DEE78023DB031360DAE7C046C9
:10EEB000B02800209C28002000E100E0A4280020C9
:10EEC0003DED0100A8280020C028002002200000FD
:10EED000002803D0024B1860002070470E20FCE78A
:10EEE000A028002010B5094B1B68002B06D09847BE
:10EEF000002800D110BDFCF77DFAFBE7044B1B781E
:10EF0000002BF7D0FFF71EFFF4E7C046A42800202F
:10EF1000A828002070B5140005000E00142200215E
:10EF20002000FCF767F9002301222361237B228064
:10EF30009343237326726572002D01D00123A372BF
:10EF4000002070BD00B5054B83B00193019B69465D
:10EF50000093FFF7EFFE019B03B000BDB01E002041
:10EF6000002243088B4274D303098B425FD3030A08
:10EF70008B4244D3030B8B4228D3030C8B420DD31B
:10EF8000FF22090212BA030C8B4202D312120902A9
:10EF900065D0030B8B4219D300E0090AC30B8B42E7
:10EFA00001D3CB03C01A5241830B8B4201D38B0395
:10EFB000C01A5241430B8B4201D34B03C01A52413A
:10EFC000030B8B4201D30B03C01A5241C30A8B427D
:10EFD00001D3CB02C01A5241830A8B4201D38B0268
:10EFE000C01A5241430A8B4201D34B02C01A52410C
:10EFF000030A8B4201D30B02C01A5241CDD2C3097E
:10F000008B4201D3CB01C01A524183098B4201D3F9
:10F010008B01C01A524143098B4201D34B01C01AE4
:10F02000524103098B4201D30B01C01A5241C3085C
:10F030008B4201D3CB00C01A524183088B4201D3CB
:10F040008B00C01A524143088B4201D34B00C01AB7
:10F050005241411A00D20146524110467047FFE723
:10F0600001B5002000F006F802BDC0460029F7D027
:10F0700076E770477047C046002310B59A4200D12A
:10F0800010BDCC5CC4540133F8E700000FB40B4B47
:10F0900013B51C68002C05D0A369002B02D12000F9
:10F0A00000F070F805AB2000049AA168019300F00D
:10F0B00093F916BC08BC04B01847C046B01E002027
:10F0C000002310B5040003604360836081814366C0
:10F0D0001900C28103614361836108225C30FCF73F
:10F0E00089F8054B6362054B2462A362044BE3621B
:10F0F000044B236310BDC04675F901009DF9010062
:10F10000D5F9010001FA010010B5024900F0BAF882
:10F1100010BDC0460DFD010070B568254A1E55435F
:10F120000E002900743100F0D1F8041E08D000212F
:10F130002A00016046600C30A0606832FCF75AF883
:10F14000200070BD10B5024800F0BDF810BDC046EB
:10F15000D028002010B5024800F0B6F810BDC04617
:10F16000D028002010B5024800F0ADF810BDC04610
:10F17000CB28002010B5024800F0A6F810BDC0460C
:10F18000CB28002013B50400FFF7ECFFA369002B88
:10F1900002D0FFF7EFFF13BDA364E3642365134BB5
:10F1A000134A1B68A2620193A34201D10123A36108
:10F1B000200000F01FF86060200000F01BF8A06045
:10F1C000200000F017F800220421E0606068FFF7DB
:10F1D00077FF01220921A068FFF772FF02221221A6
:10F1E000E068FFF76DFF0123A361D2E75000020042
:10F1F00009F10100F8B50700FFF7A4FF1F4B1E68D7
:10F20000B369002B02D13000FFF7BCFF4836B46869
:10F210007368013B04D53368002B22D03668F6E7CB
:10F220000C22A55E002D1AD12000154B5830E3604A
:10F23000656600F047F8FFF78DFF200008222900DF
:10F240002560A560656025616561A5615C30FBF79F
:10F25000D1FF6563A563A564E5642000F8BD68344B
:10F26000D7E704213800FFF757FF041E3060D5D1DF
:10F27000FFF770FF0C233B60EFE7C0465000020031
:10F280000100FFFFF7B50400060000270191483494
:10F290006368A5680093009B013B009304D5246834
:10F2A000002CF5D13800FEBDAB89012B08D90E2208
:10F2B000AB5E013304D029003000019B984707431F
:10F2C0006835E8E77047704770470000F8B50323DA
:10F2D000CD1C9D43083506000C2D1FD20C25A942DC
:10F2E0001ED8300000F0DEFD25490A681400002C0D
:10F2F0001AD1244F3B68002B04D12100300000F0CC
:10F3000027FB38602900300000F022FB431C2BD182
:10F310000C233000336000F0CDFD03E0002DDEDA79
:10F320000C2333600020F8BD23685B1B19D40B2B22
:10F3300003D92360E418256003E06368A2420ED17C
:10F340000B60300000F0B6FD200007220B30231DBB
:10F350009043C21A9842E6D01B1AA350E3E75360C9
:10F36000EFE722006468C2E70323C41C9C43A04269
:10F37000E1D0211A300000F0EBFA431CDBD1C7E7E3
:10F38000B4280020B8280020936810B5013B936092
:10F39000002B04DA9469A34207DB0A2905D013681D
:10F3A000581C10601970080010BD00F02FFB010000
:10F3B000F9E7F8B506000F001400D518AC4201D1EA
:10F3C000002007E021783A003000FFF7DDFF01342C
:10F3D000431CF3D1F8BD0000F0B5A1B006000C004D
:10F3E0001F000392002804D08369002B01D1FFF78E
:10F3F000C9FE8E4B9C421CD17468636EDB0705D43A
:10F40000A3899B0502D4A06DFFF75DFFA3891B07AD
:10F4100002D52369002B1DD12100300000F060FBD4
:10F42000002817D0636EDB070DD50120404221B0C4
:10F43000F0BD7F4B9C4201D1B468DEE77D4B9C421E
:10F44000DBD1F468D9E7A3899B05EED4A06DFFF763
:10F450003BFFEAE7002308AD6B6120336B76103386
:10F46000AB760797039F3B78002B01D0252B4ED11D
:10F47000039BFB1A0593039B9F420DD0059B210024
:10F480003000039AFFF795FF431C00D1B5E06A698D
:10F49000059B944663446B613B78002B00D1ACE044
:10F4A00001227B1C0393002352426A6004A9543258
:10F4B00052182B60EB60AB601370AB65039B0522A9
:10F4C00019785D4800F0E2FC039B5F1C002820D106
:10F4D0002A68D30604D5532304A95B182021197088
:10F4E000130704D5532304A95B182B211970039B20
:10F4F0001B782A2B16D00021EB68039F3A78781CE2
:10F50000303A8446092A4FD9002911D117E0013732
:10F51000A9E7494B2A68C01A0123834013432B6093
:10F520000397CBE7079B191D1B680791002B01DB95
:10F530000B9304E05B42EB60022313432B603B78A8
:10F540002E2B0AD17B782A2B37D1079B02371A1D25
:10F550001B680792002B2DDB09930322397837486B
:10F5600000F094FC002807D0344B2A68C01A4023CE
:10F570008340134301372B6039787B1C06223048C7
:10F580000393297600F082FC002845D02D4B002BF8
:10F5900027D10722079B07339343083307936B69EF
:10F5A000049A9B186B615DE70A214B4367469B18E1
:10F5B0000939A3E701235B42CEE700231A00013794
:10F5C0006B603978781C30398446092903D9002BBF
:10F5D000C3D00992C1E70A235A4367465218093B30
:10F5E000EFE707AB0093220029003000164B00E044
:10F5F00000BF0490049B0133D1D1636EDB0705D4B7
:10F60000A3899B0502D4A06DFFF75EFEA3895B066C
:10F6100000D50AE70D980AE707AB009322002900FE
:10F620003000094B00F082F8E3E7C04620030200F7
:10F6300040030200000302006003020066030200B0
:10F640006A03020000000000B3F30100F7B51500E3
:10F6500001938A680B690C000090934200DA130052
:10F6600022002B6043321278002A01D001332B6034
:10F6700023689B0602D52B6802332B602268062381
:10F6800017001F401A4227D0230043331B785A1E0D
:10F6900093412268920630D4220001990098089E76
:10F6A0004332B047431C25D0062320682A68E1680E
:10F6B00000250340042B03D18D1AEB43DB171D40BB
:10F6C000A3682269934201DD9B1AED180027BD4211
:10F6D00020D1002010E00137E3682A689B1ABB4262
:10F6E000D2DD2200012301990098089E1932B0470B
:10F6F000431CF0D101204042FEBD3020E1184331CF
:10F70000087021005A1C45310978A218433202338F
:10F710001170C1E72200012301990098089E1A3256
:10F72000B047431CE6D00137D1E70000F0B58BB0FD
:10F7300006920A0043320793059004920A7E0C0059
:10F74000109B782A06D8622A08D8002A00D1C0E087
:10F75000582A52D026004236327022E01000633818
:10F760001528F7D800F030FC16001F00F6FFF6FF52
:10F77000F6FFF6FF1F00F6FFF6FFF6FFF6FFA80004
:10F7800036009A00F6FFF6FFB900F6FF3600F6FFE6
:10F79000F6FF9E0026001A684236111D1960136894
:10F7A00033700123A7E0086819680A1D05060BD508
:10F7B0000D681A60002D03DA2D23049A6D42137030
:10F7C000614B0A27039332E00D681A604106F1D5B8
:10F7D0002DB2EFE70D681968081D18602E0601D5D7
:10F7E0000D6803E06D06FBD50D68ADB2564B0A27D8
:10F7F00003936F2A17D1082715E045310A70524A42
:10F8000003921A68216820CA1A60080650D5CB07EF
:10F8100002D52023194321601027002D03D1202376
:10F8200022689A4322602300002243331A706368DF
:10F83000A360002B03DB0422216891432160002D8B
:10F8400002D1049E002B0CD0049E28003900FFF743
:10F850000DFC039B013E5B5C33702B0005009F4257
:10F86000F3D9082F09D12368DB0706D5636822691D
:10F87000934202DC3023013E3370049B9B1B2361C7
:10F88000079B210000930598069B09AAFFF7DEFE5F
:10F89000431C35D1012040420BB0F0BD2022096845
:10F8A0000A4322602200782145321170274AA7E7D7
:10F8B0004806ACD5ADB2AAE71A680D68101D4969B3
:10F8C000186013682E0601D5196002E06D06FBD59D
:10F8D00019800023049E2361D2E71A68111D196064
:10F8E000166800213000626800F0D0FA002801D0CC
:10F8F000801B6060636823610023049A1370BFE774
:10F900002369320006990598079DA847431CC1D07A
:10F9100023689B0715D4099BE0689842BCDA18005D
:10F92000BAE72200012306990598079E1932B047CD
:10F93000431CAFD00135E368099A9B1AAB42F0DC57
:10F94000E9E70025F7E7C0467103020082030200E1
:10F95000002370B5064D040008002B6000F05EFB2C
:10F96000431C03D12B68002B00D0236070BDC04620
:10F97000D428002070B50C000E25495F00F0ECFA89
:10F98000002803DB636D1B18636570BDA389024A01
:10F990001340A381F9E7C046FFEFFFFFF8B51F0052
:10F9A0008B8905000C001600DB0505D50E23C95E0A
:10F9B0000022022300F0EAF9A389054A2800134037
:10F9C000A38132000E23E15E3B0000F075F8F8BD24
:10F9D000FFEFFFFF70B50C000E25495F00F0D6F970
:10F9E000A389421C03D1054A1340A38170BD802224
:10F9F00052011343A3816065F8E7C046FFEFFFFFA4
:10FA000010B50E23C95E00F0E3F810BDF8B505008F
:10FA10000E001400002804D08369002B01D1FFF7E9
:10FA2000B1FB224B9C422ED16C68A369A360A389D1
:10FA30001B0732D52369002B2FD023682269F7B228
:10FA4000981A6369F6B2834205DC2100280000F0B1
:10FA50005DF9002827D1A3680130013BA36023682A
:10FA60005A1C22601F706369834204D0A389DB079C
:10FA700007D50A2E05D12100280000F047F90028FB
:10FA800011D13000F8BD0A4B9C4201D1AC68CCE7E3
:10FA9000084B9C42C9D1EC68C7E72100280000F060
:10FAA0001FF80028C9D001267642EAE720030200A9
:10FAB000400302000003020070B5040008001100BA
:10FAC0001A000023054D2B60FCF770FA431C03D18C
:10FAD0002B68002B00D0236070BDC046D4280020C6
:10FAE000374B70B51D6806000C00002D05D0AB69C2
:10FAF000002B02D12800FFF745FB324B9C420FD16F
:10FB00006C680C23E25E93B211072DD4D90611D490
:10FB100009230120336037331343A381404270BD72
:10FB2000294B9C4201D1AC68EBE7284B9C42E8D1C1
:10FB3000EC68E6E75B0713D5616B002908D023006A
:10FB40004433994202D0300000F0BCF900236363D3
:10FB50002422A3899343A381002363602369236044
:10FB60000823A2891343A3812369002B0BD1A02171
:10FB70008022A389890092000B40934203D0210088
:10FB8000300000F03FF90C22A35E01201A0099B268
:10FB9000024003420FD00022A26062695242A26179
:10FBA000002022698242BAD10A06B8D54022134306
:10FBB000A3810138B3E7880700D46269A260EFE748
:10FBC000B01E0020200302004003020000030200D8
:10FBD000002370B5064D040008002B6000F0FEF90C
:10FBE000431C03D12B68002B00D0236070BDC0469E
:10FBF000D4280020F7B58B8905000C001A075FD4C4
:10FC00004A68002A04DC0A6C002A01DC0020FEBDE0
:10FC1000E76A002FFAD0002280212E682A601A009D
:10FC200049010A400B4234D0606DA3895B0706D5B9
:10FC30006368C01A636B002B01D0236CC01A0200EA
:10FC4000216A00232800E76AB847A189431C06D12E
:10FC50002B681D2B31D82C4ADA40D3072DD5002331
:10FC6000636023692360CB0405D5431C02D12B6854
:10FC7000002B00D16065616B2E600029C6D0230087
:10FC80004433994202D0280000F01CF90020606340
:10FC9000BDE701232800216AB847431CC5D12B6862
:10FCA000002BC2D01D2B01D0162B01D12E60ADE749
:10FCB0004023A2891343A381A9E740230B43FAE71A
:10FCC0000F69002FA2D00A680F60D21B0192002298
:10FCD0009B0700D14A69A260019B002B00DC95E7DD
:10FCE0003A002800019B216AA66AB047002806DC7A
:10FCF00040230120A28940421343A38187E7019B4F
:10FD00003F181B1A0193E7E7010040200B6970B50B
:10FD100005000C00002B02D10025280070BD002832
:10FD200004D08369002B01D1FFF72CFA144B9C42BD
:10FD30001BD16C680C22A35E002BEDD0626ED20743
:10FD400004D49B0502D4A06DFFF7BDFA2800210062
:10FD5000FFF750FF636E0500DB07DED4A3899B0528
:10FD6000DBD4A06DFFF7B0FAD7E7064B9C4201D178
:10FD7000AC68DFE7044B9C42DCD1EC68DAE7C046B4
:10FD800020030200400302000003020070B50400DB
:10FD9000080011001A000023054D2B6000F036F911
:10FDA000431C03D12B68002B00D0236070BDC046DC
:10FDB000D428002070B50E001D000E23C95E14006B
:10FDC00096B0002907DA00232B60B3891B0611D4F3
:10FDD0008023DB000FE06A4600F0D2F80028F2DB57
:10FDE000F02301991B021940054BC9184B42594198
:10FDF0002960EDE740230020236016B070BDC046A7
:10FE000000E0FFFFF7B502268B8905000C003342A6
:10FE100006D0230047332360236101236361F7BDCC
:10FE20006A4601ABFFF7C6FF009907002800FFF7FD
:10FE30004DFA002808D10C22A35E9A05EFD40322C4
:10FE400093431E43A681E4E70F4BAB628023A28954
:10FE500020601343A381009B20616361019B002B01
:10FE60000DD028000E23E15E00F09CF8002806D09B
:10FE70000322A38993431A0001231343A381A0897A
:10FE80000743A781CBE7C04609F10100C9B2821838
:10FE9000904201D10020704703788B42FBD00130A3
:10FEA000F6E7000010B50248FFF70DFA10BDC04696
:10FEB000CC28002010B50248FFF706FA10BDC04656
:10FEC000CC28002070B50500002910D00C1F236835
:10FED000002B00DAE4182800FFF7E4FF1D4A13683E
:10FEE000002B05D1636014602800FFF7E3FF70BDAD
:10FEF000A34208D9216860188342F3D118685B686F
:10FF000041182160EEE71A005B68002B01D0A34284
:10FF1000F9D911685018A0420BD12068091850185F
:10FF200011608342E0D118685B684118116053602A
:10FF3000DAE7A04202D90C232B60D5E721686018CC
:10FF4000834203D118685B68411821606360546084
:10FF5000CAE7C046B428002070B5040008001100AC
:10FF60001A000023054D2B60FCF72EF8431C03D12B
:10FF70002B68002B00D0236070BDC046D428002021
:10FF8000002370B5064D0400080011002B6000F03E
:10FF90002DF8431C03D12B68002B00D0236070BDCB
:10FFA000D4280020002370B5064D040008002B6003
:10FFB00000F024F8431C03D12B68002B00D02360F1
:10FFC00070BDC046D428002003B4714649084000E3
:10FFD0004900095E49008E4403BC70475822012045
:10FFE000014B40421A607047D4280020582201205B
:10FFF000014B40421A607047D42800205822024B1F
:020000022000DC
:1000000000201A607047C046D428002058220120E2
:10001000014B40421A607047D4280020044A030074
:100020001068002802D0C318136070470148FAE72F
:10003000BC280020D8280020F8B5C046F8BC08BC71
:100040009E467047F8B5C046F8BC08BC9E4670474F
:10005000B41E00204C1F0020FFFFFFFFFFFFFFFF2B
:10006000FFFFFFFFFFFFFFFF000000000000000098
:1000700000E0D70103000000111213141516171821
:100080006AD2010096D1010096D10100C8D10100C9
:100090000ED20100DED1010002D2010054D20100D3
:1000A0005AD1010072D101005AD1010072D1010070
:1000B00060D201001ED101001ED101001ED101003D
:1000C0001ED101001ED1010034D2010074D2010002
:1000D00084D201003ED201008ED101008ED10100F8
:1000E00074D40100DED30100DED301004AD4010044
:1000F000F0D4010014D40100D2D40100E0D40100F6
:100100009AD30100B4D301009AD30100B4D3010003
:100110003CD401005AD301005AD301005AD3010044
:100120005AD301005AD3010082D4010090D40100B7
:10013000A4D40100B8D40100D2D30100D2D301006D
:100140001100030039D001001200030039D0010072
:100150001300030039D001001400030039D001005E
:10016000482000206C200020A0200020546865203A
:100170006465766963652068617320746865204EE4
:100180006F726469632055415254205365727669D9
:1001900063650D0A00000000446973636F6E6E654D
:1001A000637465640D0A0000436F6E6E6563746965
:1001B0006E6720746F207461726765742025303219
:1001C0007825303278253032782530327825303233
:1001D00078253032780D0A00436F6E6E656374695E
:1001E0006F6E20526571756573742074696D6564F6
:1001F000206F75742E0D0A00E0D90100AAD9010004
:10020000AAD9010000DA0100AAD90100AAD9010087
:10021000AAD90100AAD90100AAD90100AAD90100CE
:10022000AAD9010012DA0100AAD9010028DA0100D6
:10023000AAD90100D0D90100AAD90100AAD9010088
:10024000AAD90100AAD90100AAD90100AAD901009E
:10025000AAD90100AAD90100AAD90100AAD901008E
:10026000AAD90100AAD90100AAD90100AAD901007E
:10027000AAD90100AAD90100AAD90100AAD901006E
:10028000AAD90100AAD90100AAD90100AAD901005E
:10029000AAD90100AAD90100AAD90100AAD901004E
:1002A0009AD90100556172745F63205363616E20B7
:1002B000737461727465640D0A0000000B00000025
:1002C00009000000080000000A0000000100000012
:1002D00000E0D7010100000710003C000000900181
:1002E0000100000000000000A0005000000000001D
:1002F0009ECADC240EE5A9E093F3A3B50000406E8E
:1003000000000000000000000000000000000000ED
:1003100000000000000000000000000000000000DD
:1003200000000000000000000000000000000000CD
:1003300000000000000000000000000000000000BD
:1003400000000000000000000000000000000000AD
:10035000000000000000000000000000000000009D
:10036000232D302B2000686C4C006566674546479E
:100370000030313233343536373839414243444521
:100380004600303132333435363738396162636490
:0803900065660000000000009A
:0803980070ADFF7F01000000C1
:1003A000B41E0020000000002003020040030200F1
:1003B0000003020000000000000000000000000038
:1003C000000000000000000000000000000000002D
:1003D000000000000000000000000000000000001D
:1003E000000000000000000000000000000000000D
:1003F00000000000000000000000000000000000FD
:100400000000000000200040000000000024F40074
:08041000E9B00100C1B00100D8
:040000031000E9D12F
:00000001FF
