:020000022000DC
:1060000000000120AD810200D5810200D78102008D
:10601000D9810200DB810200DD8102000000000066
:10602000000000000000000000000000DF8102000E
:10603000E181020000000000E3810200E58102002E
:1060400019AD0200E781020005B6020061B6020048
:10605000E7810200E781020019B10200E97C020039
:10606000E7810200E7810200E7810200E781020088
:10607000E7810200E7810200E7810200E781020078
:10608000E78102003D820200E7810200E781020011
:10609000DD820200E78102001D0D0300E78102009E
:1060A000E7810200E7810200E7810200E781020048
:1060B000E7810200E781020000000000000000000C
:1060C000E7810200E7810200E7810200E781020028
:1060D000E7810200E7810200E78102000000000082
:1060E00000000000000000000000000000000000B0
:1060F00000000000000000000000000000000000A0
:10610000000000000000000000000000000000008F
:10611000000000000000000000000000000000007F
:10612000000000000000000000000000000000006F
:10613000000000000000000000000000000000005F
:10614000000000000000000000000000000000004F
:10615000000000000000000000000000000000003F
:10616000000000000000000000000000000000002F
:10617000000000000000000000000000000000001F
:10618000000000000000000000000000000000000F
:1061900000000000000000000000000000000000FF
:1061A00000000000000000000000000000000000EF
:1061B00000000000000000000000000000000000DF
:1061C00000000000000000000000000000000000CF
:1061D00000000000000000000000000000000000BF
:1061E00000000000000000000000000000000000AF
:1061F000000000000000000000000000000000009F
:1062000010B5054C237833B9044B13B10448AFF3F0
:1062100000800123237010BD18230020000000001F
:106220000C18030008B5034B1BB103490348AFF337
:10623000008008BD000000001C2300200C18030093
:10624000154B002B08BF134B9D46A3F5803A002148
:106250008B460F461348144A121A0AF0A5FE0F4B3C
:10626000002B00D098470E4B002B00D09847002001
:10627000002104000D000D48002802D00C48AFF3A7
:1062800000800AF039FE2000290000F0A3FA0AF08D
:106290001FFE00BF000008000000012000000000F9
:1062A0000000000018230020142F00200000000030
:1062B0000000000076DF704777DF704778DF7047B7
:1062C0007ADF70477CDF70478FDF7047B1DF704740
:1062D00033DF7047014B01221A70704734230020CE
:1062E000014B01221A70704735230020014B012217
:1062F0001A70704770260020014B01221A707047F7
:10630000782600200A4B1A7842B14FF0A0424FF491
:106310000071C2F80C1500221A7070474FF0A042AD
:106320004FF40071C2F8081501221A70704700BFBF
:106330003623002001F058BF10B503883B2B82B0F4
:1063400054D04FD8112B59D0212B0AD1002380884B
:10635000ADF8043001A9FFF7B7FF00283ED102B025
:1063600010BD102BFBD14FF0A0434FF40072C3F8C7
:106370000C25404C81884048218007F013FD0028FF
:106380005CD1002320881A461946FFF79FFF00289A
:1063900063D13A4800224FF4803102F0F5F9002829
:1063A00058D1374800224FF4803102F0EDF900282F
:1063B0004DD1344800224FF4803102F0E5F9002835
:1063C00042D1314800224FF4803102F0DDF900283B
:1063D00037D12E4802F02EFA0028C0D001F004FF79
:1063E00002B010BD522B1FD0562BB8D1808813217C
:1063F000FFF760FF0028F1D102B010BD1D4B1F4810
:106400004FF6FF721A8002F015FA78BB1C4802F0B2
:1064100011FA40BB1B4802F00DFA08BB1A4802F003
:1064200009FA00289BD0D9E7124A002310881946A0
:106430001A46FFF74BFF002891D0CFE701F0D4FEBA
:106440009FE701F0D1FEC4E701F0CEFEB9E701F00D
:10645000CBFEAEE701F0C8FEA3E701F0C5FE98E76A
:1064600001F0C2FEDAE701F0BFFED3E701F0BCFEA7
:10647000CCE700BF2422002008260020382300207B
:10648000B02500201426002050260020D025002012
:1064900008B50548032105F0F7FF00B908BDBDE8C0
:1064A000084001F0A1BE00BF5823002010B50446EB
:1064B00008F0C2FE204608F0F5FE23780C2B00D031
:1064C00010BDBDE810400020FFF7E2BF704700BFDD
:1064D00008B5037803B108BD054B3B211888FFF7C9
:1064E000E9FE0028F7D0BDE8084001F07DBE00BFFE
:1064F0002422002001F078BE10B548B1032806D14F
:10650000144800224FF4004102F03EF9F0B910BDEA
:106510004FF0A0434FF48054D3F8342722F4403294
:10652000C3F83427D3F834274FF4806042F4403264
:106530004FF40071C3F83427C3F80845C3F80805C1
:10654000C3F80815FFF7C4FE0028E0D0BDE81040EE
:1065500001F04ABED025002030B50E4B0E481B88F6
:1065600083B040F2052502240DF1060201A9ADF821
:106570000450ADF8064001F059FB132803D0034640
:1065800033F0080301D103B030BD01F02DFE03B09C
:1065900030BD00BF2422002028220020F0B507468D
:1065A00000681A4E85B00422034686FB0351DB17B0
:1065B000541CD3EBA1031546A2B2F6D10028ADF8C6
:1065C00002501ADB2B2405230A220DF10701ADF836
:1065D00004308DF806400AF0B3FC0D4B0D481B88C3
:1065E00001A90DF1020201F021FB1328034602D09C
:1065F00033F0080306D105B0F0BD0AF065FC2D2488
:106600003860E0E701F0F0FD05B0F0BD6766666652
:10661000242200202822002003785BBB2DE9F041D2
:1066200082B0848A0269022C92F800C0557800AFCB
:1066300015D06FF001061444B61A1846023204E071
:1066400094420ED0D64208BF002012F8013B303BE6
:10665000D9B200EB8000092903EB4000F0D94FF0DC
:10666000FF30ACF1030CBCF1030F23D8DFE80CF0D2
:106670005E2F260370474FF0A0434FF48054D3F8A9
:10668000342722F44032C3F83427D3F834274FF4A8
:10669000806042F440324FF40071C3F83427C3F8ED
:1066A0000845C3F80805C3F80815FFF711FE08B13F
:1066B00001F09AFD0837BD46BDE8F081012DF9D102
:1066C000431E622B88BF5A2000F090FDF2E7002D98
:1066D000F0D1324B324D1B8807336E46DB08A6EBF8
:1066E000C3039D46284600F08FFD286800F1630330
:1066F000C62B6C4618D80028DFF8B48047DB98F822
:106700000030A37004220023227063700A22E11C6F
:106710000AF016FC234B214A1B882348214601F02E
:1067200085FA132803462BD1B546C3E7002DC1D106
:106730001E4C238807336E46DB08A6EBC303B81D47
:106740009D4600F0AFFBB7F90600A0F57A739BB247
:1067500042F227329342E7D803238DF800300A2211
:106760000DF102018DF801500AF0EAFB0D4B0E48C5
:106770001B882246694601F059FA13280346D3D0F4
:1067800033F00803D0D001F02FFDB54692E72D235A
:1067900088F800300AF098FB2860B0E74E2200200D
:1067A0007426002024220020282200204C220020D1
:1067B0005C22002008B5064B024693F854100120D5
:1067C000FFF77AFD00B908BDBDE8084001F00CBD37
:1067D000582300202DE98048B5B000AF01F06EFFCE
:1067E000002840F0ED82A74AA748012101F0BAFF36
:1067F000002840F02483A54AA548012101F0B2FFFA
:10680000002840F01983A34AA348012101F0AAFF00
:10681000002840F00E83A14AA148012101F0A2FF07
:10682000002840F003839F4A9F48012101F09AFF0E
:10683000002840F0F8824FF0A04303224FF4805527
:106840004FF480644FF400700C21C3F83027C3F874
:106850002827C3F82427C3F80855C3F80845C3F808
:106860000805C3F8341703F0E1FE002840F0D88291
:106870000AF040F9002840F0D08207F120040023FC
:10688000214601203B620AF093FA002840F0C282C0
:1068900020460AF0E7FA002840F0B9821123834825
:1068A0003B760AF089FB814982B207F11800FFF7B5
:1068B00009FD002840F0A8824FF44070FFF7FEFC6D
:1068C000002840F09E820822002120460AF06CFB3E
:1068D000774B3B6220464FF0C8737B62FFF7F0FCBA
:1068E000002840F08B827349734807F079F900283B
:1068F00040F08182714B72483B6107F1100107F053
:106900003FFA002840F074824022002120460AF01D
:106910004BFB6C49204606F0FDF807F128006A4958
:1069200006F0F8F80123204687F85C3009F0CAFE2B
:10693000002840F05A820021042207F118000AF0D2
:1069400033FB624B6248BB6107F1180101F0FAF8B2
:10695000002840F04782AC22002120460AF024FBA8
:106960005C487863022240F20161012387F820200D
:106970007984594A59483B864FF0280844F25069B7
:106980002146C7E92A8987F89C30C7F8C42005F05A
:10699000F5FC002840F023820121504805F0EAFC74
:1069A0000420FFF707FF4E494E4841F2883247F274
:1069B0003053C1E9002301234FF47A720B738A60CC
:1069C00003F08AFE1C22002120460AF0EDFA002383
:1069D0004FF47020444A3B62FB8587F83030434BCC
:1069E000B8624FF4203503212046C7E90D237D62AC
:1069F00087F82C1005F0C4FE002840F0ED8108F067
:106A0000D9FA002840F0E5810522002120460AF04D
:106A1000CBFA3B6A97F8242003F07C4343F48013BD
:106A200043F4E66322F0030220463B6287F8242009
:106A300008F006FB002840F0C9812D4808F0E4FA70
:106A4000002840F0C08100F009FA2A4B2A4A2B495D
:106A5000DFF8BCA0DFF8BC80DFF8BC90284D1C4EEE
:106A6000192000F03BFA274B0FCB84E80F00264B90
:106A70003B6220460323BB85244C00F0C5FCFFF796
:106A800007FD57E0D5620200B4160300E162020080
:106A9000B8160300F9620200C4160300ED6202009A
:106AA000C016030005630200BC1603008416030031
:106AB00028005000CD640200F0250020356302005C
:106AC000082600208C1603009416030019660200A5
:106AD0002822002020220020F964020058230020F0
:106AE0003826002048260020D1640200F564020008
:106AF000AD640200596502009D650200502200202D
:106B000078260020A41603000F060811CDCCCCCCAB
:106B1000342300202422002035230020C94B1B7879
:106B2000002B45D12B781BB100F078FA00232B7095
:106B300003F092FD9AF80030002B70D199F80030E4
:106B4000002BEBD0C04B1B880733EB46DB08ABEBCD
:106B5000C30307F118009D4600F0A4F9B7F9180027
:106B6000A0F57A739BB242F22732934218D80023E1
:106B700003228DF800208DF801300A220DF1020168
:106B80000AF0DEF9B8F80030AF4A6946304601F045
:106B90004DF81328034603D033F0080340F00D816D
:106BA000002389F80030A74B1B78DD46002BB9D0B5
:106BB000A64BA7481B880733EB46DB08ABEBC303A8
:106BC0009D4600F021FBA24B186800F16302C62A23
:106BD0006B461FD80028C0F2D4809E4A7B60127892
:106BE0009A704FF0040C002183F800C059700A22FB
:106BF000D91C0AF0A5F97B68944A19463046B8F8C2
:106C0000003001F013F81328034603D033F00803D3
:106C100040F0D0808B4A0023DD46137082E700F0FD
:106C20001BFC07F1100000F031FCB7F91000002840
:106C3000ACBF2B222D2200233B83BA760AF044F905
:106C40000A2207F11B010AF07BF9B7F910000AF0DC
:106C50003BF980B20928EB4640F2A88001230246A6
:106C600003F1010CA4FB0010632A19464FEAD0007F
:106C70001FFA8CF3F3D8043189B2B8F80030F981E7
:106C800007F10E0207F11801304600F0CFFF13287C
:106C9000034603D033F0080340F08380B7F91200B5
:106CA0000028ACBF2B222D2201233B83BA760AF0A9
:106CB0000BF90A2207F11B010AF042F9B7F9120099
:106CC0000AF002F980B209286ED90123024603F1C5
:106CD000010CA4FB0010632A19464FEAD0001FFAEA
:106CE0008CF3F3D8043189B2B8F80030F98107F198
:106CF0000E0207F11801304600F098FF13280346F2
:106D000002D033F0080349D1B7F914000028ACBF12
:106D10002B222D2202233B83BA760AF0D5F80A22D1
:106D200007F11B010AF00CF9B7F914000AF0CCF8CE
:106D300080B209283CD90123024603F1010CA4FBCF
:106D40000010632A19464FEAD0001FFA8CF3F3D8DB
:106D5000043189B2B8F80030F98107F10E0207F169
:106D60001801304600F062FF1328034602D033F0CA
:106D7000080310D100F080FB0023DD468AF80030C4
:106D8000DCE67B60334B2D221A700AF09DF8304B05
:106D900018607B6821E701F027FAEBE701F024FA9D
:106DA000B2E701F021FA79E704219DE7042164E7C5
:106DB0000421CFE701F018FA2CE701F015FAEFE60D
:106DC00001F012FA0FE501F00FFA3CE601F00CFABF
:106DD00033E601F009FA17E601F006FA0FE601F0D2
:106DE00003FAD9E501F000FAB5E501F0FDF9A2E5F5
:106DF00001F0FAF988E501F0F7F97BE501F0F4F923
:106E000071E501F0F1F95EE501F0EEF954E501F00C
:106E1000EBF943E501F0E8F93AE501F0E5F92CE595
:106E200001F0E2F924E501F0DFF904E501F0DCF915
:106E3000F9E401F0D9F9EEE401F0D6F9E3E401F068
:106E4000D3F9D8E4702600204C2200204E220020E6
:106E5000742600205C220020704700BF00B50E4958
:106E60000E4885B001F01AF868B90D4B93E8070099
:106E700001AB03C301A900201A7001F05DF828B925
:106E800005B05DF804FB01F0AFF9EEE701F0ACF9F5
:106E900005B05DF804FB00BF596E0200D416030074
:106EA000C816030010B501460446092001F0B0F8E9
:106EB00088B9B4F9003003EB8303C3EB0313DB00A1
:106EC00048BF03F2FF339B1203EB43035B0003F560
:106ED0008773238010BD01F087F9EAE7F0B5414FD1
:106EE000414E424D424C3A6083B03360287021607D
:106EF00000296AD00B684FF0A04203F5E07303202D
:106F000042F82300096801238B40C2F8083503F0DA
:106F100085FF00285ED00021ADF805109DF80630F1
:106F20002068344A43F002038DF806304368022695
:106F30008DF8046003F5E0734FF0A04646F8231087
:106F400001A9406803F074FF002840D12A4B2B4967
:106F50002B4A2C4E0120C3F840051020C3F84405ED
:106F60002020C3F848050420C3F800020020C3F81D
:106F700010052B78C1F840350223C1F80435236889
:106F800021481C68214B224D42EA0422C0F81425F6
:106F9000A1F56C6100F58040C3F810151D4A1E4C28
:106FA000C3F81465083001F58051C3F81855C3F8CB
:106FB0001C45C3F81409C3F82015C3F82425D3F8D9
:106FC000002542F00702C3F8002503B0F0BD01F030
:106FD0000BF9BBE703F0D6FE00289CD001F004F9C2
:106FE00099E700BF7C260020902600208026002004
:106FF0008C260020D17102000090004000A00040CB
:1070000003001100346000400060004000F00140C7
:10701000449100401090004064600040034A044BDB
:10702000012151661B68586803F0E6BF006000400C
:107030008C260020F8B52A4C6378002B3BD0D4ED89
:10704000017AF5EE407AF1EE10FA39D125495A224B
:1070500002FB00F281FB0231D317C3EB6113D4E9C9
:1070600003766569A36001224FF0A04102FA07F799
:1070700002FA06F602FA05F52280C1F80875C1F891
:107080000865C1F80C55984214DC174B1B6803B116
:107090009847D4E90410E46801234FF0A04203FAB2
:1070A00000F003FA01F1A340C2F80805C2F8081580
:1070B000C2F80C35F8BD2378002BFBD0A368E2E7BB
:1070C00007EE100AB8EEC77ADFED086A27EE277AD6
:1070D000C7EE267AFDEEE77A17EE903ABFE700BFDB
:1070E000602200201F85EB51902600200000C8423E
:1070F0002DE9F04F314B324C324F33480021012201
:10710000DA6083B021603A60D4F800E0D0F800A0E3
:10711000CDF804E04FF480708C468946A080394653
:1071200017264FF0A0484FF0020B02E0D1F8405173
:10713000CDB95A64D3F84455172DF7D90198BCF14D
:10714000000F39D02060B0F1807F27DB4FF0FF3097
:107150002060FFF76FFF1D4B1B6853B3184803B047
:10716000BDE8F04F1847C7F84091D8F81005DAF895
:10717000045094F804C084F805B0E84000F001051C
:107180000198B540013E0CF1010C2843751C84F8B0
:1071900004C001904FF0010CCBD1D3E7030244BFF0
:1071A00040F07F402060FFF745FF084B1B68002B35
:1071B000D4D103B0BDE8F08F7046C4E700A0004012
:1071C00084260020009000408C2600207C26002091
:1071D00008B5054B1B6833B1586803F06BFFBDE879
:1071E0000840FFF785BF08BD8C26002007EE900AF7
:1071F000034BF8EE677A0122C3ED017A5A707047AB
:10720000602200204CDF704710B50446FFF7FAFFFC
:1072100050B920680AF098F9054B002209F018FFD0
:107220000AF0FCF9206010BD00F0DEFFF1E700BFBE
:107230000000D03F014B01221A70704794260020B5
:10724000F0B503F1080085B000F4FC7000AFADEBC1
:10725000000D01F07F018DF80010EC467BB3591E44
:1072600007294AD9FF2B48D04FEA930E14460DF157
:10727000010000210131CDB254F8046B40F8046BD9
:10728000AE45F7D803F0FC014C1C8B42E4B216D09B
:107290001519881CC0B215F8015C0CF80450834223
:1072A0000DD314180331C9B214F8014C0CF8004086
:1072B0008B4204D30A4412F8012C0CF80120144C20
:1072C0001448C7F800C001330022DBB239462270EF
:1072D000C7E902227B6004F0FBFA44B24CB90E4BC2
:1072E0004FF4C85043F00103984720461437BD4679
:1072F000F0BD204600F078FFF1E701215418481C4A
:1073000014F8014C0CF80140C1B28B42F6D2D6E71A
:1073100094260020EC160300E016030050B138B5A7
:10732000054D044645F001054FF47A40A847013C5D
:10733000FAD138BD704700BFE01603002DE9F047D1
:1073400086B003F1080500AF1C46013305F4FC7557
:1073500061F07F01DBB2294E3971ADEB050D7B6128
:107360002748C7F810D0012390463D1D002207F1A1
:107370000801C7E90253327004F0AAFA4FFA80FA02
:10738000E946BAF1000F33D11E4B4FF4C85043F019
:10739000010398473CB3631E022B2DD904F0FC0671
:1073A00001364E4409F10101434651F8045B43F8AC
:1073B000045BB142F9D134F0FC0224F0030312D093
:1073C0005A1CA24219F8021008F803100BD2991C9B
:1073D0008C4219F8010008F8020004D9994499F880
:1073E000033008F8013050461837BD46BDE8F08735
:1073F000504600F0F9FEC7E70023E1E7942600209D
:10740000EC160300E016030008B501460C4A0D48CF
:10741000002303F015FC60B90B480C490C4A0D4BD6
:10742000816000214170C260436100F049F818B9E1
:1074300008BD00F0D9FEEFE7BDE8084000F0D4BE7B
:1074400035720200E8160300F02E0020417202009F
:107450003D7302001D73020010B5002000F0AAF970
:107460000446082000F04CF9201800D110BDBDE8FA
:10747000104000F0B9BE00BF08B5032000F09AF933
:1074800000B908BDBDE8084000F0AEBE38B50B4BF2
:107490001B7803B138BD044600F03CF80546A01C3B
:1074A00000F08AF80346201D1D4400F0D7F840196B
:1074B000F0D0BDE8384000F097BE00BFF02E0020AD
:1074C00070B5134C82B0002120608DF806108DF845
:1074D0000710C8B1C568007901230DF10602A8475D
:1074E00023689DF806205A70DE6805460DF10702F4
:1074F00018793E210123B04723689DF807205A716F
:10750000284440B202B070BD6FF07E00FAE700BFC1
:107510009826002030B5264B83B01A680023ADF8BA
:107520000430002A40D0234B1B78012B044606D0A0
:10753000022B28D0ABB14FF0FF3003B030BD022397
:10754000D5681079194601AAA8479DF804309DF91D
:10755000052003F0C00343EA02239B11238003B0FC
:1075600030BD0223D5681079194601AAA8479DF8B5
:1075700004309DF9052003F0F00343EA02231B11B8
:10758000238003B030BDD5681079194601AAA847F9
:107590009DF804309DF9052003F0FC0343EA022323
:1075A0009B10238003B030BD6FF07E00C5E700BFA5
:1075B000982600207822002030B5264B83B01A6828
:1075C0000023ADF80430002A40D0234B1B78012B58
:1075D000044606D0022B28D0ABB14FF0FF3003B0E9
:1075E00030BDD5681079022301AA0421A8479DF86F
:1075F00004309DF9052003F0C00343EA02239B11E8
:10760000238003B030BDD5681079022301AA04217C
:10761000A8479DF804309DF9052003F0F00343EAE4
:1076200002231B11238003B030BDD56810790421DB
:1076300001AAA8479DF804309DF9052003F0FC033A
:1076400043EA02239B10238003B030BD6FF07E001D
:10765000C5E700BF982600207822002030B5264BD1
:1076600083B01A680023ADF80430002A40D0234BC1
:107670001B78012B044606D0022B28D0ABB14FF06B
:10768000FF3003B030BDD5681079022301AA06216E
:10769000A8479DF804309DF9052003F0C00343EA94
:1076A00002239B11238003B030BDD56810790223DB
:1076B00001AA0621A8479DF804309DF9052003F092
:1076C000F00343EA02231B11238003B030BDD568C9
:1076D0001079062101AAA8479DF804309DF90520DC
:1076E00003F0FC0343EA02239B10238003B030BD68
:1076F0006FF07E00C5E700BF9826002078220020AA
:1077000070B52B4D82B02B6800228DF80720002B1E
:1077100048D05A78FB2A0446A0F108022FD0D2B2F2
:10772000072A3CD8A0F10902D2B2072ADE681879EC
:107730000DF107024FF001034FF0100128BF08249C
:10774000B0479DF80730296823F01F031C43064605
:107750008DF8074049B38C6808790DF107020123C1
:107760001021A0472B681A78044622B9E3B2981971
:1077700040B202B070BD5B6901209847F6E7062A67
:107780000DD8A0F10902052ADE6818790DF107026B
:107790004FF001034FF0100188BF0824D0E76FF0CD
:1077A0000100E6E76FF07E00E3E78123DFE700BF3B
:1077B000982600202DE9F0418E4E82B031680023DA
:1077C0008DF805308DF806308DF80730002900F06F
:1077D000FB80CC6805460DF10502087901231121D3
:1077E000A04733688046DC6818790DF10602122143
:1077F0000123A04732685179404441F00C01052D26
:107800005FFA80F88DF8071000F2D1806B1E042B10
:1078100000F2EB80DFE803F05B6F606903004FF478
:10782000827353806FF07F0440239DF806109768A1
:10783000107921F0400213438DF806300DF1060255
:1078400001231221B84733681A7807461AB15B69D9
:107850000120984733685A69012008EB0703DFB21B
:10786000904731680B78012B4BD0042B49D09DF801
:10787000053003F01F031C438DF805408C68087920
:10788000012311210DF10502A04731680B78044650
:10789000002B72D1C3B24A693B440120DCB290474D
:1078A0003268002A00F093809768107901230DF167
:1078B00007023E21B847326813780746002B62D191
:1078C000C0B2204440B2157002B0BDE8F08102237E
:1078D000538040240023A8E7D3789B0103F04003A2
:1078E00001215BB2917020249FE74FF48173402403
:1078F0005380234699E7042353806FF07F040023CD
:1079000093E7002DB3D19DF80530D1F808800879B0
:1079100003F01F0363F07F038DF80530112101236D
:107920000DF10502C04731680B788046002B3AD034
:107930004B69012098473168B8445FFA88F80029FC
:1079400047D08F6808790DF107023E210123B8471F
:1079500031680A780746E2B14B69012098479DF8E3
:107960000520316802F01F0247441443FFB28DF82E
:107970000540002982D181238DE74B69012098477A
:107980003168E3B287E75369012098473268F8B25B
:1079900097E79DF8053003F01F0347441C43FFB2EF
:1079A0008DF805406AE7B8445FFA88F8C9E7D178EE
:1079B00094788901A8F1020301F0400164015FFAA3
:1079C00083F864B24BB230E76FF07E007CE7812031
:1079D00077E79DF8053003F01F031C43A8F17F07EC
:1079E000FFB28DF80540812355E700231C465380E4
:1079F0001BE700BF98260020A8DF7047ADDF704767
:107A0000AEDF704762DF7047002958D070B504467A
:107A10008AB038B10388502B0D4651D0572B38D03F
:107A2000102B01D00AB070BD81886869002601AAB8
:107A3000019600F031F93146082202A809F0B4FAA3
:107A40000223298AA088CDF80CD002AA0293FFF75E
:107A5000D5FF0028E6D1AB69002BE3D0039805F0F1
:107A600055F80028DED0019B0BB101221A701822B4
:107A7000002104A809F098FAA388019AADF81830FB
:107A800002210595AB698DF8101004A8079298475C
:107A9000C8E78188686902AA00F0FEF80028C1D111
:107AA000029B1B78002BBDD00146182204A809F0C8
:107AB0007BFAA388029AADF818300121E1E77047FC
:107AC0008188686902AA00F0E7F81822002104A85A
:107AD00009F06AFAE3882989A088029A05959942F3
:107AE000ADF81800079211D0AA899A429AD1AB69D1
:107AF000002B97D0228AADF82420002004F1120137
:107B00008DF81000089104A898478BE7268A022E6A
:107B1000EAD1002A86D004F1120004F0F7FF58B130
:107B2000029B01221A708DF81060AB69002B3FF4A4
:107B300079AF04A8984775E7029A032310708DF86F
:107B40001030F2E770B5374B04460E460FCB8EB0BF
:107B500002AD85E80F00002C60D0002E5ED03368A7
:107B6000A36128462146FFF74DFF08B10EB070BD56
:107B70002246012512F8023B8DF80630284601A95D
:107B8000ADF80450FFF738FF0028EFD1014620225E
:107B900006A809F009FABDF82430234E8DF82950C3
:107BA00023F44F63224623F00F0343F4406312F89B
:107BB0000C0B8DF81A002B43ADF8243060888DF83B
:107BC0002A50022306A9ADF81830079604F0ACFF3E
:107BD0000028CBD10146202206A809F0E5F9BDF81E
:107BE0002430079623F48753224623F01F0343F4DF
:107BF00080532B4312F8046B8DF829506088ADF840
:107C00002430032540F2011406A98DF81A60ADF85E
:107C10001850ADF82A4004F087FFA7E70E200EB0F9
:107C200070BD00BFF81603001400010060B3F0B58A
:107C300087B00E461746044601AA406919461D46FC
:107C400000F02AF8D8B94FF6FF739D4219D0019B76
:107C5000BBB11B78EBB13B88142B17D8014610221F
:107C600002A809F0A1F9A388ADF8083002A9012300
:107C70002846CDE904768DF80A30FFF7C1FE07B03B
:107C8000F0BD052007B0F0BD0E207047072007B0FB
:107C9000F0BD0820F3E700BF1AB3002370B5044617
:107CA00015461360B8B10368ABB1C38813F003067F
:107CB0000FD1084604F0A0FEC0B214280FD02379DB
:107CC00083420AD9E388226800FB03232B603046F5
:107CD00070BD072070BD0E2070BD042070BD052052
:107CE00070BD0E20704700BF2DE9F041644B1A684B
:107CF00088B002BB634F97F82E30002B29D1624B1E
:107D00001A685AB100221A601B68039302218DF889
:107D100014103B6803993A7405A898475B4B1C689C
:107D2000002C30D000221A601B680593059B3A7422
:107D300008B0BDE8F081534F00221A60196897F827
:107D40002E3000910099002B4ED097F82F30002B49
:107D500063D14F4B1A68002AD1D0002119601868EE
:107D600097F82D207B8B01909342019894B263D8B1
:107D700074D0434B474A002119601B6802930123CA
:107D800002991360BBE77E69002ED1D04FF0004806
:107D90000125B6FA86F101F146039B0003F180420A
:107DA00002F5E042A3F58C73D2F800E083F0040002
:107DB00028FA01F1C0F3800CDB0805A826EA0106C9
:107DC000BEF1000F0BD01460126804928DF81830C9
:107DD0008DF814503B688DF819C0049A9847002E0E
:107DE000D7D108B0BDE8F081FA68786839898DF894
:107DF00014300690ADF81C10002A2CD02648398B80
:107E00007A600122FB607983398102603B6805A8B2
:107E10009847002387F82F306DE7FB687868398929
:107E20008DF814200690ADF81C10A3B1398B7B603F
:107E3000FA6079833981E9E7398978681B1B9BB23D
:107E400089B2154C7B83C91A00EB4101C4F82C168A
:107E5000C4F830268DE700233B74D7E7FB684BB1AD
:107E60000D487983012187F82F10C0F82C36C0F80F
:107E700030267EE701227B8387F82F2079E700BF39
:107E8000047100409C2600201071004014710040D5
:107E9000007100400470004000700040214B93F8D6
:107EA0002C20002A3CD170B41F4C05781960C4F80E
:107EB000F05545781D49C4F8F4556FF000451A7423
:107EC000C678C4F8085383B00A600968184D019158
:107ED00001992A60817883F82E602D6815480095F5
:107EE000490183F82D205A6183F82F20C9B28022DE
:107EF000F5B2009E80F80713C0F8802102210260CD
:107F00000122C4F8041383F82C200DB1C4F8042313
:107F1000054B01220020C3F8002503B070BC704758
:107F2000082070479C26002000700040047100402B
:107F30000071004000E100E0334A137C002B60D167
:107F4000F0B40C79012C4ED900F10C0502EB45037D
:107F50001B7923B992F82D30013382F82D304B78FC
:107F60008E7891F800C04F791B01360206F4E06666
:107F700003F030033343CE780CF0030C360306F4E1
:107F8000805643EA0C0333438E793F0507F480178C
:107F9000360602EB450206F080761C4D24043B4376
:107FA00004F4E0243343234305EB0016CC79147129
:107FB00000010C7A547100F18040C6F8183500F5C4
:107FC000E040CB790A7AC0F81425C0F810350B7957
:107FD000012B02D90020F0BC70470123C5F8003501
:107FE0000020F0BC704703F0FF05084BC3F80055B4
:107FF00000F10C0502EB45030C791B79002BAED187
:10800000A8E71120704700BF9C26002000700040A8
:10801000F0B45D4C227C82B0002A40F0B18094F82C
:108020002D60012502F0FF03584A25740327AE4254
:10803000C2F80873C2F82C16C2F8305623D9544D32
:108040005449554F554EC2F81435C2F81035C5F88D
:108050001435C5F81035C1F81435C1F81035C7F816
:108060001435C7F81035C6F81435C6F81035C5F8FC
:108070005435C5F85035C1F85435C1F85035C2F8FB
:108080008435C2F8803500F10C02000104EB420295
:1080900000F1804303F5E0433C4D414811795679A6
:1080A000C3F814650122C3F810152A603D49026027
:1080B00042F2107301E0013B02D00A68002AFAD0B4
:1080C000394994F82D00374B00220A600968019164
:1080D00001991A601B6800930128009B3FD92B4827
:1080E000657FC0F81455257FC0F810552849E57FF5
:1080F000C1F81455A57FC1F81055264A94F82150AF
:10810000C2F8145594F82050C2F81055224B94F838
:108110002350C3F8145594F82250C3F8105594F81E
:108120002550C0F8545594F82450C0F8505594F890
:10813000275094F82600C1F8545594F82960C1F8E6
:10814000500594F8285094F82B00C2F8546594F820
:108150002A10C2F85055C3F85405C3F8501594F8C6
:108160002E3043B9094B0222C3F8042300202074A7
:1081700002B0F0BC7047054B0322C3F80423F5E7B7
:10818000112002B0F0BC70479C2600200070004017
:10819000107000402070004030700040407000407F
:1081A0000470004004710040007100400649074A15
:1081B000074B9B1A03DD043BC858D050FBDC02F090
:1081C000ABFAFEF73DF80000A018030020220020C3
:1081D00018230020FEE7FEE7FEE7FEE7FEE7FEE7E6
:1081E000FEE7FEE7FEE7FEE700B585B003460021A7
:1081F00001AA44F20100CDE90111039300F004F853
:1082000005B05DF804FB00BF72B6094B1B68DB07C5
:1082100000D500BEBFF34F8F0649074BCA6802F472
:10822000E0621343CB60BFF34F8F00BFFDE700BF99
:10823000F0ED00E000ED00E00400FA05F8B520499B
:10824000204B0024C1F84041C1F84441C1F84841E5
:10825000C1F84C41C1F80041C1F804411B6833B377
:108260001948D1F8045501681A686D1A25F07F4540
:10827000AA4227460DD8197CDE69AD1A144419B1FB
:10828000D3E905201F7490471EB133461A68AA42ED
:10829000F1D90E490E4A0B7812789A4208D00D494E
:1082A0000D4A41F823404FF48013C2F80031F8BD65
:1082B000531CDBB2022B08BF00230B70EFE700BF9B
:1082C00000100140EC270020E8270020E5270020CF
:1082D000E4270020DC27002000E100E02DE9F04F3A
:1082E000B34AB44913780978994285B000F088817F
:1082F0000133DBB2022B08BF0023AF481370AF4A33
:108300000568DFF8D08252F82310D8F800606B18A7
:1083100023F07F430360002E00F0C1810020074658
:10832000044684463346AE4613E0D868DD69C3F898
:1083300000C0891A144438B10EEB040222F07F42C7
:10834000C3E90120DF611F460120002D00F05F819D
:108350002B461A688A42E8D9002800F08B81C8F8B9
:1083600000309946521A1A6001230093944B954E9F
:10837000DFF864A243F0010301934D464FF0000B78
:10838000002F31D0D7E901303C46FF698A4ADFF837
:108390004CC21268991A21F07F41614500F2DD80DC
:1083A0000B18236000220121C4E90122E26121743B
:1083B000002D00F0F3802A689A4280F0E880294678
:1083C00005E0D1F800E09E4580F0CF807246084677
:1083D000C9699C469B1A0029F3D12360E161C461FD
:1083E0002C462546002FCDD170783378984247D05F
:1083F0009C460CEB4C0CB27806EBCC0C591CCBB267
:108400009A429CF80420337004BF00233370022A80
:10841000DCF8084024D0032A18D0012AE6D1227CB7
:10842000002AE3D1DCF80C306360DCF81000A060B7
:10843000DCF81410E1609AF800E0DCF81810A16193
:10844000BEF1000FA2D0626013469FE7002DCDD091
:1084500000232B74ED69002DFBD1C8F80050C3E751
:1084600055B1AC4200F0BC802A4601E0944239D0BC
:108470001146D269002AF9D1002222749842B7D15C
:10848000BBF1000F01D1A94541D0002D44D04A4A8B
:108490004D4B1468D3F804654C4FD5F800803A78FA
:1084A000351B25F07F450335002A00F0B580464A8C
:1084B000A8452CBF4444641924F07F44C2F84045C9
:1084C000D2F804359B1BA41B23F07F4324F07F4488
:1084D0000333A34200F2B98000238AF8003005B0CC
:1084E000BDE8F08F8C427DD0E0692268C861002829
:1084F00058D0AC46036813440360AC4552D0002208
:1085000033787078227465464FF0010BB6E7009B14
:10851000002BE1D0002DBAD12B4E2D4A284C4FF420
:1085200000314FF480330127C2F880103C43C6F875
:1085300048334FF43C60C6F808337760A0471E4BC1
:10854000B7604FF43C601D60A047204B1D700023B6
:108550008AF8003005B0BDE8F08FD31A23F07F43CE
:1085600083420BD2C31A23601CE77244A2EB0C02B5
:108570000A602360E161C4612C4632E700230122D6
:10858000C4E90033A360E36122743DB12A68C8F8EE
:108590000040D31A2B60E561254623E7C8F8004068
:1085A00025461FE7002233787078227466E700BF03
:1085B000E4270020E5270020E8270020DC27002012
:1085C00010170300CC26002000100140D9270020FE
:1085D00000E100E0EC270020D8270020FEFF7F000C
:1085E00029462A46D5F81CC0C8F800C0BCF1000FC7
:1085F00042D0D0691268C86100287FF47BAF7CE765
:10860000DFF8B4800027D8F800900097AEE6A946BE
:10861000C8F800500090A9E62349244A4FF480305E
:10862000C3F844034FF00109C3F804034FF40030CA
:10863000C1F8800142F001020860C3F800904FF4D5
:108640003C60904787F8009031E7184BD2F804154A
:10865000C2F8401543F001034FF43C609847124BB9
:108660004FF40032C3F8002100238AF8003005B02F
:10867000BDE8F08FB14675E6CDE902210C4A0D4800
:1086800001239360C0F800C08AF800304FF43C60CA
:10869000019B9847DDE90221D8F800C0A9E7012332
:1086A000B1463746009361E600E100E01017030091
:1086B00000100140E8270020EC2700202DE9F843B6
:1086C0001F4D204E204FDFF898804FF480334FF439
:1086D00000324FF001090024C6F8802047EA09075C
:1086E000C5F848334FF43C60C5F80833C5F804902A
:1086F000B847C5F808904FF43C60C8F80040B84748
:10870000124A134B13491C601470134B134A0C701C
:108710000B2114701C8099704FF48012C023C6F88E
:10872000802186F814333260C5F8084586F8113385
:10873000D5F80435C8F800302046BDE8F88300BFFE
:108740000010014000E100E010170300D9270020CD
:10875000EC270020E4270020CC260020E52700207D
:10876000E8270020074B9B783BB142B138B1036842
:10877000187C10B959745A61704708207047072057
:10878000704700BFCC2600202DE9F043264EB37879
:1087900083B0002B3AD00446002837D004290D4678
:1087A00038D9436993B3437C0027012B0DF10700AF
:1087B0000CBF8846B84691468DF8077000F076F8F1
:1087C0007378B0783278591CC9B2884208BF3946EC
:1087D0008A4223D003EB430306EBC3030120134A71
:1087E00018719C60D2F804259DF807007170C3E9E8
:1087F0000325C3E9058900F07FF80D4B4FF4801283
:108800003846C3F8002103B0BDE8F083082003B068
:10881000BDE8F083072003B0BDE8F0839DF80700B2
:1088200000F06AF80420EEE7CC260020001001409A
:1088300000E100E070B51B4EB37882B04BB3044644
:1088400038B343692BB3002505740DF107008DF88B
:10885000075000F02BF87378B07831785A1CD2B2F8
:10886000904208BF2A46914216D003EB430306EB21
:10887000C30302219DF807009C601971727000F01B
:108880003BF8094B4FF480122846C3F8002102B090
:1088900070BD082002B070BD9DF8070000F02CF8F4
:1088A0000420F4E7CC26002000E100E070B4EFF3F0
:1088B000108472B60D4B9A68AAB90D490D4E012568
:1088C0009D60D1F8805035401D60C1F88060D1F8BE
:1088D00084505D604FF0FF33C1F88430027004B9FA
:1088E00062B670BC704701230370F8E7082F0020C0
:1088F00000E100E0FC06FFBD094B9A687AB170B94F
:1089000010B4EFF3108172B6064A1C6814605C68FC
:108910005460986001B962B65DF8044B70477047C7
:10892000082F002000E100E00223F0B50B8000F5E5
:10893000805508308AB32A4F4FF6FF764FF0010C6E
:10894000036801331DD0B0F802E00EF1030400EB20
:108950008404A54216D38388B34219D00388BBB1DF
:1089600083683C68A34202D93B60B0F802E00B8800
:10897000033373440B804388033300EB8300854249
:10898000DED8F0BD012313704FF480630B80F0BD7F
:1089900082F800C0B0F802E0E9E7114E4FF6FF742C
:1089A00003680133EDD04388DA1C00EB8202954264
:1089B000EAD38288A24207D002882AB18268376847
:1089C000BA4284BF326043880A88033213440B8062
:1089D0004388033300EB83008542E1D8F0BD00BF3C
:1089E00028280020F0B543688C461BB1314AD46872
:1089F000A3423AD20023304EACF8003073684FF0F7
:108A0000010E03F580544FF6FF7708339C420ED8D1
:108A1000BEF1020FACF800E006F1140648D073680E
:108A200003F5805408339C424FF0020EF0D91A68C7
:108A30000132EDD05A88033203EB82029442E7D32D
:108A40009D88BD4207D01D882DB105689968A9424F
:108A500005D01346DAE79442DAD91346E7E7174A16
:108A60004360138903810120F0BD12699342C1D88C
:108A700013F00305BED1114A048912899442B9D179
:108A800004689A689442B5D10B484268934203D96E
:108A900002F58052934207D38269934208D902F5C6
:108AA0008052934204D20125ACF800500120F0BD61
:108AB0000020F0BD002300203028002014280020D2
:108AC0002DE9F04FAC4E89B004464FF6FF7735687C
:108AD000002D00F0C9802A78531E052B00F2308249
:108AE000DFE803F05B2222030340002C40F0C38048
:108AF0002B79012B00F08881022B00F00581002BDF
:108B000000F0A8810DF10C08C8E902440394C8F8EC
:108B100010400F2404942B78013B052B4CD8DFE840
:108B200003F0746584789848B5F814A0002C40F0E0
:108B3000B480DFF86C92A97D0AEB8A0309EB83030A
:108B40004FEA8A081C895B6803EB8404062900F25B
:108B50007884DFE811F0D402E302F602090383020D
:108B6000B9026902002C40F08680DFF830C29CF820
:108B70000C30002B00F02D819CF800308CF80C405C
:108B8000013B062B00F2DC81DFE813F00704110241
:108B9000E401F901DA013802B701002C76D12B7912
:108BA000032B00F2DD80DFE813F008019E00FD00DA
:108BB000B80005238DF80C30704C04F1100554F802
:108BC000043B404603B19847A542F8D16C496D4833
:108BD0000024346001F08CF96B48012101F062FA45
:108BE00000287FF474AF09B0BDE8F08F01238DF841
:108BF0000C302B89ADF81830AB88ADF81A30EB6823
:108C0000059300238DF81C30D6E700238DF80C3037
:108C1000D2E703238DF80C30EB88ADF818302B89A0
:108C2000ADF81A30EB680593C6E702238DF80C30D7
:108C30002B89ADF81830AB88ADF81A30EB68059386
:108C4000AB7DA3F10603B3FA83F35B098DF81C3007
:108C5000B2E704238DF80C30EB88ADF81830002310
:108C6000ADF81A300593A7E74549464801F010F9D9
:108C7000054630602FE701240DF10C080023C8E9F8
:108C80000033C8E90233C8F8103043E73F4B0022F5
:108C90005A6001240DF10C08F0E7AB7DDFF800917C
:108CA000022B08D90AEB8A0209EB8202EB881189B0
:108CB00003330B4413814FEA8A08D044EB8809EB55
:108CC0008809C3F57F43B9F80A200DF10C08FD337C
:108CD00013440022C8E90322A9F80A30C8F8082082
:108CE0000392012416E7DFF8B89099F80030022BC0
:108CF00000F0728399F81430022B00F07D83234B2F
:108D00000121002219705A600DF10C080024C8E9F5
:108D10000344C8F808400394FCE61D4C1D4A216832
:108D20001D48DFF87C904FF0000885F80480082388
:108D3000CDF8008001F0E0F9184B25685B88A18828
:108D400003EB830309EB830209F823805368236054
:108D5000022355601181A38000283FF444AF356899
:108D60000A4A0DF10C080023C8E90233536003934B
:108D7000C8F810300E24CDE62C280020FC27002057
:108D800024280020E4280020F42800200C280020BB
:108D9000F82800201C1703000023002014280020BE
:108DA00030280020BE4ABF481168002302242B71DE
:108DB0009480012201F0D2F9CEE7B94BBA4A196882
:108DC000B84801232B7100230093082301F094F984
:108DD000C2E79CF80030072B09D8DFE813F0100237
:108DE00008000800F20144028E008E003E02013BA2
:108DF000062B00F2A580DFE813F0D002DA00AD0008
:108E0000C200A30001018000A84B1B78002B00F0DA
:108E1000B482DFF89CC2BCF80480B8F1010F12D80C
:108E2000DFF8A09208EB8802204609EB8202137853
:108E300013B308F1010399B201299846ACF8043044
:108E400002F11402F3D99A480822002108F0ACF884
:108E5000356859E702232B71CDE904440DF10C0864
:108E6000EB68039340460DF10A01FFF7BBFD0028B4
:108E700040F08D810A2401E75368DCF8001003F507
:108E8000805E03F1080A002900F070824B880333EA
:108E900001EB83018E4540F26D820B68013300F0D7
:108EA00069824B88033301EB83039E45C0F06282E5
:108EB000B1F804B0BB4518D00C88B4B1EB88CCF83D
:108EC00000105B45DFD1002300937A4A75480423E4
:108ED00001F012F9002840F0AC8208EB880809EB99
:108EE0008809012389F810307DE69E4540F24282D0
:108EF00019460B680133D4D13CE2694B6A4A1968C0
:108F0000684800230093CCF8043007238CF8003025
:108F1000082301F0F1F80446002C3FF464AE3568F4
:108F20000DF10C0841F61D5200239442C8E90333A9
:108F3000C8F80830039308BF1C463FF4EBAD29E2A4
:108F40000DF10C080023C8E90333C8F80830039377
:108F50000F24DFE5DCF80420514853888488016839
:108F6000504803339BB29B0001EB84010024009422
:108F700003248CF8004001F0BFF80446CCE7BCF8AD
:108F80000230DFF8409103EB830309EB8309D9F842
:108F90000C30002B40F0CC8104228CF80020D9F852
:108FA00004104048012201F0D9F80446B4E7BCF8A7
:108FB0000200DFF81091DCF8042000EB800309EBDD
:108FC00083038500596801F58054002A40F012811E
:108FD00001F10802A242C0F05E81284409EB800939
:108FE000D9F80C30002B40F0A38104208CF800004D
:108FF00001222C4801F0B2F804468DE7BCF80220AB
:10900000DFF8C0909300134409EB83090620002386
:10901000D9F80410284A00938CF80000082321484E
:1090200001F06AF8044677E72A4641F61D5408EB3A
:109030000A0109EB8101EB880889033303440B81A2
:10904000D044EB8809EB8809C3F57F43B9F80A10CF
:10905000FD330B441546A9F80A3061E71748AB69A0
:10906000174903604FF0000BC0F804B0FFF7BAFCDB
:10907000002800F095810223AB7504230948CDF840
:1090800000B02146EA1801F037F800283FF4ABADF4
:10909000AB7D3268022B4FF00E04D1D9C7E700BF79
:1090A000F828002000230020241703000C280020AB
:1090B00008290020181703001C170300F0270020C0
:1090C0000429002030280020BC4BBD4A1C88516870
:1090D000BC48BD4A00234FF0060C85F816C000932B
:1090E000042301F009F80028D2D104EB840409EB31
:1090F0008409012389F8103009B0BDE8F08F0223FC
:109100000022AB7504230092AE482146EA1800F015
:10911000F3FF0028BCD109B0BDE8F08F032A0CBFD3
:10912000052306230022AB75A6480092211D0423C7
:1091300005F1080200F0E0FF0028A9D109B0BDE860
:10914000F08F2B699F48002B14BF032301230022BB
:10915000AB7504F108010092042305F10C0200F044
:10916000CBFF002894D13EE5EB882A6995484FF063
:10917000010C04F10C01002485F816C09B0000943A
:1091800000F0BAFF002883D109B0BDE8F08F049940
:109190008D4A8B88EB800B882B818A4800940423AE
:1091A000BDF80A4000F0A8FF002840F00381874B7B
:1091B00004EB840403EB84040123237409B0BDE8A9
:1091C000F08FBCF80200824DDFF80092DCF804203A
:1091D000AB88548800EB800109EB810103334968B7
:1091E00023444FF0020EAB8001F5805400FA0EF5D7
:1091F0008CF800E05388033302EB8302EAE6DFF8E1
:10920000CC91BCF8081099F8142099F80030B2FA03
:1092100082F252090131B3FA83F35B098CF80B2017
:10922000ACF80810002201218CF80A30ACF80220BA
:109230008CF80C208CF80010002B4DD0DFF88C91AE
:10924000D9F80C3000228CF80A20002B44D199F870
:109250001020002A40D018464EE001238CF8003040
:109260009CF80A30E8E7BCF80220DFF86091584922
:1092700002EB820309EB830308685D688C88586001
:1092800002201C810D60888002FA00F3BBE6A34235
:10929000BFF4A3AE1A46136801333FF49EAE538861
:1092A000033302EB8303A3423FF697AEB2F804E028
:1092B000BE45ECD0B2F800E0BEF1000FE7D0CCF82C
:1092C0000420434C5388A58821683E4803339BB251
:1092D0009B0001EB850149E69CF80B30B3B3DFF846
:1092E000EC90D9F8203000228CF80B2073BB99F851
:1092F00024305BB3012318469D00E91809EB810176
:10930000DCF804204968ACF8020001F58054002A1A
:1093100000F094805088033002EB800294426DD8B4
:109320002B4409EB8309D9F80C30002B3FF45DAED8
:10933000274B2448196802229A8005228CF80020C5
:109340000023012200F00AFF0446E5E50DF10C08B8
:109350000023C8E90333C8F808308CF80030ACF8B3
:109360000230CCF804300393FFF7D4BB51468E454E
:109370003FF693ADCCF800005BE50DF10C082146FB
:109380001448082207F010FEC8E902440394C8F804
:10939000104002243568FFF7BDBB9CF80A304BE74C
:1093A0000DF10C08C8E9020003900A24C8F8100067
:1093B000FFF7B0BB35680E2460E400BF042900202D
:1093C000F027002000230020181703003028002079
:1093D000F82800200829002000239A001A4409EBED
:1093E0008203002059680090082309F82200164AD9
:1093F000164800F081FEAFE40123EEE7106801306B
:109400008ED05088033002EB8000844288D3B2F8BB
:1094100004E0BE4505D0B2F800E0BEF1000F7FF4D5
:109420004EAF84427FF67CAF024610680130E8D12F
:1094300076E735680E240DF10C081FE401F10802EF
:109440006CE72A460F24F2E51C17030000230020D6
:109450004068FFF735BB00BF084A116804290BD0EC
:1094600038B5074C156803460121104644F82530ED
:1094700000F00AFE002038BD0C20704700290020B3
:10948000FC2700202DE9F04F8B4D89B02A7800236E
:10949000CDE90333CDE90533079372B1874C04F16D
:1094A000100554F8043B03A803B19847A542F8D12E
:1094B0000024204609B0BDE8F08F281D02F0FF0906
:1094C00000F0FEFD0028F3D14FF010234FF0805242
:1094D0005B6911695269DFF80882581C08BF02FBFA
:1094E00001F3C8F810307649A3F5405340460022F6
:1094F000C8F80C3000F0F4FD04460028D9D17149B9
:109500007148DFF8E0A11C238C2200F049FC2646BC
:109510004FF0030B2746D8F80C20B0180346E8B1EB
:10952000B2586A498A4219D1426869498A427AD056
:1095300001318A4212D1B9F1000F40F08980654BA8
:109540006549186000220193FFF7EEF9019B9B88A3
:10955000022B0CBF042308231C4317E000F58051A5
:1095600001E0994249D01A68013203F10403F8D0AE
:1095700007EB87030AEB830203210BF1FF3B013763
:109580000AF823101FFA8BFBBFB2506006F5805615
:10959000B6F5405FBFD1BBF1010F40F28580E4B268
:1095A000062C0ED1454C012200232A7004F110062E
:1095B0006B6054F8043B03A803B19847B442F8D158
:1095C00076E702D814F0FD0F6ED002A93E4800F0F5
:1095D00021FC1C220546002107F0E6FC002D5ED090
:1095E0000123013C2B700A2C44D8DFE804F04143EE
:1095F000414355435543525A5200364B1A68002A8C
:1096000054D007EB87030AEB83010222DFF8D8C0AE
:1096100048600A810AF82320791CACF802708FB2E6
:1096200044F00104B2E707EB870300220AF8232085
:1096300099000AEB830301F11002083152445144AE
:1096400058600137FFF770F944F00204BFB29DE79C
:1096500007EB870E1F4B0AEB8E024FF0020C1968C6
:109660000AF82EC00137BFB25160A2F808C067E700
:1096700000232B7102A9144800F0FAFB17480121BE
:1096800000F0F4FC044600287FF412AFFFF718FA4C
:109690000FE703232B71EDE701232B71EAE7082481
:1096A00007E702232B71E5E70B2402E7022218608B
:1096B0009A804FF00109B3E70C280020FC27002016
:1096C0003817030058280020E4280020DEC0ADDE53
:1096D000FE011EF1F8280020FC280020F4280020BC
:1096E00000230020302800201428002020B370B56B
:1096F0000D4682B0E9B10DF106010446FFF772F99B
:1097000010B90A2002B070BDBDF806000B4B6668A8
:1097100000EB800003EB800001210C3000F0B4FC72
:109720002E60636801220C3300206B60A27202B0CD
:1097300070BD052002B070BD0520704730280020A4
:1097400000B310B582B00DF106010446FFF74AF9E7
:10975000A8B1BDF806300C4A03EB830302EB830388
:10976000DA684AB1A27A3AB1DA680021013A0846C9
:10977000DA60A17202B010BD062002B010BD0A204E
:1097800002B010BD05207047302800202DE9F047B9
:109790004E4B1B7882B073B30C46002941D00A8827
:1097A0004FF6FF739A4221D04B88FBB14D6815F0FC
:1097B000030531D1B1F8089009F103039BB240F2DF
:1097C000FD3293422FD8424A1178074639B9508961
:1097D00011890144194489B2B1F5806F25D3117DF7
:1097E00071B10725284602B0BDE8F0870425284658
:1097F00002B0BDE8F0870225284602B0BDE8F08738
:10980000D08B918B0144194489B2B1F5806FE8D2B5
:109810004FF0010841460AE00325284602B0BDE8A2
:10982000F0870525DEE70925DCE7A84629464FEA4B
:10983000810A8A4402EB8A0A034401A92548AAF84E
:109840000A3000F0E7FA1C220646002107F0ACFBC4
:10985000002E2FD002234FF0000AA6F81480337098
:1098600086F816A06368336101211B4800F00CFCE8
:10987000F0602388338163881648B38001A9A6F875
:109880000AA0A6F8069000F0F3FA47B1C7F804A0C2
:10989000F268124B3A601B8987F80AA03B81104896
:1098A000012100F0E3FB044600289BD1FFF708F9F3
:1098B000254697E7BAF80A30C9F57F4909F1FD094D
:1098C0009944AAF80A9008258CE700BF0C280020CC
:1098D00030280020E4280020282800201428002018
:1098E000F42800202DE9F04782B060B34F4B1B787D
:1098F000002B3ED00C4631B30A884FF6FF739A42D4
:1099000032D04B8883B34E6816F0030636D1B1F8D7
:1099100008A00AF103039BB240F2FD3293422FD814
:10992000434A1178054639B95189108908441844C9
:1099300080B2B0F5806F25D3117D49B1072630463E
:1099400002B0BDE8F0870526304602B0BDE8F087DA
:10995000D18B908B0844184480B2B0F5806FEDD263
:109960004FF0010948460FE00426304602B0BDE83A
:10997000F0870226304602B0BDE8F0870326DEE716
:109980000926DCE7B14630464FEA8008804402EB06
:1099900088080B442748A8F80A3001A900F03AFAD1
:1099A0001C220746002107F0FFFA002F32D04FF0AB
:1099B00000080323A7F814903B7087F816806368AB
:1099C0003B6101211C4800F05FFBF86023883B816C
:1099D0006388BB800423A7F806A0BB752B68BB6116
:1099E00001A91448A7F80A8000F042FAC5F80480DB
:1099F000FA68124B2A601B89114885F80A802B816E
:109A0000012100F033FB0446002898D1FFF758F8F5
:109A1000264694E7B8F80A30CAF57F4A0AF1FD0AEB
:109A20009A44A8F80AA0082689E700BF0C2800205D
:109A300030280020E42800202828002014280020B6
:109A4000F428002070B51B4B1B7882B00BB34FF687
:109A5000FF739842044624D001A9174800F0DAF9B0
:109A60001C220546002107F09FFAB5B10523012607
:109A7000EC8001A92B7010482E7100F0F9F90F4805
:109A8000314600F0F3FA044678B10024204602B0D3
:109A900070BD0224204602B070BD0824204602B0EA
:109AA00070BD0424204602B070BDFFF709F82046BF
:109AB00002B070BD0C280020E4280020F42800200B
:109AC00010B5184B1B7882B0F3B101A9164800F00D
:109AD000A1F91C220446002107F066FAECB1062326
:109AE0002370114801A900F0C3F9104B1A780AB18C
:109AF00001221A730E48012100F0B8FA044638B169
:109B00000024204602B010BD0224204602B010BD41
:109B1000FEF7D6FF204602B010BD0824204602B052
:109B200010BD00BF0C280020E428002014280020CD
:109B3000F42800202DE9F043304C2478002C56D036
:109B4000002A57D0002B55D0B3F804E0BEF1010F26
:109B500014D82B4E0EEB8E0406EB84064FF6FF77DF
:109B60004FF0000C34785CB10EF10104A4B2022C69
:109B70009C8006F114064FF0010EF3D10A2031E06B
:109B80001C68756805F5805874B36588033504EB67
:109B90008504444505D3C3F800C0E5E7A845FAD9D4
:109BA0002C4625680135F6D06588033504EB85051C
:109BB000A845F0D3B4F80490B945EFD0B4F80090BC
:109BC000B9F1000FEAD01C60A5888542D9D125885B
:109BD0008D42D6D1A168116019680A4B51601B896A
:109BE00013810020BDE8F08305F10804D1E70220CD
:109BF000BDE8F0830520BDE8F08300BF0C280020FD
:109C000030280020142800202D4B1B78002B52D028
:109C1000002952D0002A50D02DE9F0419688012E1B
:109C200013D8284D06EB860305EB83054FF6FF7727
:109C30004FF0000C2B7853B1731C9BB2022B938016
:109C400005F114054FF00106F4D10A202EE0136847
:109C50006C6804F5805E5BB35C88033403EB8403BB
:109C6000734505D3C2F800C0E6E7A645FAD92346F6
:109C70001C680134F6D05C88033403EB8404A645E9
:109C8000F0D3B3F80480B845EFD0B3F80080B8F152
:109C9000000FEAD013601C888442D9D19B680B6006
:109CA0001268094B4A601B890B810020BDE8F081D6
:109CB00004F10803D4E7022070470520704700BF75
:109CC0000C28002030280020142800202D4B1B7861
:109CD000002B52D0002952D0002A50D02DE9F0415B
:109CE0009688012E13D8284D06EB860305EB8305D5
:109CF0004FF6FF774FF0000C2B7853B1731C9BB2DB
:109D0000022B938005F114054FF00106F4D10A20CF
:109D10002EE013686C6804F5805E5BB35C880334E6
:109D200003EB8403734505D3C2F800C0E6E7A645FC
:109D3000FAD923461C680134F6D05C88033403EB5F
:109D40008404A645F0D3B3F80480B845EFD0B3F847
:109D50000080B8F1000FEAD013609C888442D9D10A
:109D60009B680B601268094B4A601B890B810020BD
:109D7000BDE8F08104F10803D4E702207047052014
:109D8000704700BF0C280020302800201428002035
:109D900020B119B103680B6000207047052070479F
:109DA00099B110B4B2FBF3F403FB1424A4B244B988
:109DB000C0E9001484608281C38120465DF8044BB1
:109DC000704709205DF8044B70470E20704700BFB4
:109DD00082B050E8022FC188B2EB324F4FF000033F
:109DE00017BF92B241EA014142EA014104E04268F0
:109DF000B2EB324F08BF012340E80212002AE8D13B
:109E00008DF807309DF80730002B0CBF1120002083
:109E100002B0704730B482B050E8013F9DB2C489AF
:109E200025448489A54228BF2D1B0489A54202BF71
:109E3000BFF32F8F002207E0C5EA030540E8015475
:109E4000002CE9D14FF001028DF803200193019B12
:109E50009DF803200B602AB10B880068184402B0FB
:109E600030BC704702F0FF03184602B030BC7047A8
:109E70000A884B889A4201D00020704750E8012F91
:109E8000C2EA024240E80123002BF7D101207047CB
:109E900030B482B050E8023F1FFAA3F5C488A5424F
:109EA00002BFBFF32F8F00220DE0C48925448489AF
:109EB000A54228BF2D1BC3EA054540E80254002CEB
:109EC000E8D14FF001028DF803200193019B9DF82A
:109ED00003200B602AB14B880068184402B030BCE4
:109EE000704702F0FF03184602B030BC704700BF55
:109EF0000A884B889A4201D00020704750E8022F10
:109F0000C2EA224240E80223002BF7D10120704729
:109F10004A09012301F01F0100EB820003FA01F15D
:109F200000F088B84B0910B501F01F04012100EBC7
:109F30008300A14000F070F8E04000F0010010BD87
:109F400001F01F0201234909934000EB8100D9432E
:109F500000F07EB84B0901F01F0150F82300C84003
:109F600000F00100704700BF2DE9F04F01F1FF3A0A
:109F700083B04FEA5A130D46044601934FF000098F
:109F80004FF0010854F8293004EB89066FEA030BFF
:109F90009BFAABFBBBFA8BFBBBF1200F25D00BEB85
:109FA000491B5D454FEA49170CD81EE03368DB4377
:109FB00093FAA3F3B3FA83F3202B07EB030B14D02C
:109FC0005D4512D90BF01F034FEA5B1008FA03F14D
:109FD00004EB80009A4600F01FF820FA0AF0C3074D
:109FE000E4D4584603B0BDE8F08F019A4A4509F120
:109FF000010301D09946C5E7AB46F2E710B403462A
:10A0000053E8000F0A4643E8002494F0000FF7D10C
:10A010005DF8044B704700BF10B4034653E8000FCF
:10A0200040EA010243E8002494F0000FF6D15DF805
:10A03000044B704710B4034653E8002F42EA010076
:10A0400043E8000494F0000FF6D15DF8044B70472C
:10A0500010B4034653E8002F02EA010043E800046D
:10A0600094F0000FF6D15DF8044B704710B403462E
:10A0700053E8000F00EB010243E8002494F0000FC6
:10A08000F6D15DF8044B704710B4034653E8002F37
:10A0900002EB010043E8000494F0000FF6D15DF8F4
:10A0A000044B704710B4034653E8002FA2EB0100A5
:10A0B00043E8000494F0000FF6D15DF8044B7047BC
:10A0C00010B40346012253E8000F40EA020143E8BE
:10A0D000001494F0000FF6D15DF8044B704700BFF8
:10A0E00040B10B4631B110B403601B685DF8044BFE
:10A0F000114618470E20704750B32DE9F0414AB37E
:10A10000D0F800E0BEF1000F26D01E46EBB1476844
:10A11000D7F80480B3FBF8F708FB1737AFB942EA6A
:10A120000105AD070ED1C568A9420BD3046901F141
:10A13000FF3C6644A64205D8DEF80C40A446BDE8C4
:10A14000F04160471020BDE8F0810920BDE8F081B2
:10A150000E2070470E20F6E70820F4E700B3F0B5B4
:10A16000D0F800C0BCF1000F1CD0BAB14768D7F8D6
:10A1700000E00EF1FF370F420ED1C768B9420BD392
:10A1800004694D1E0EFB0255A54205D8DCF81040AF
:10A19000A446BDE8F04060471020F0BD0920F0BDA6
:10A1A0000E2070470820F0BD29DF704728DF704778
:10A1B0000846704700207047024B187A003818BFD5
:10A1C00001207047AC290020034B187A0122B0FA15
:10A1D00080F05A7440097047AC29002008B5104639
:10A1E0001A4606F0D3FE002008BD00BF08B51422B1
:10A1F0000021044806F0D8FE0348FFF7E9FD0020DF
:10A2000008BD00BFAC2900209C29002038B50A4CAD
:10A210000A4B43602046FFF753FF08B1002038BDCA
:10A2200006F076FD064905461C238C220548257458
:10A23000FFF7B6FD002038BDAC2900202C17030025
:10A24000102900209C29002030B5394D2B7A87B089
:10A25000002B39D0374B1C6802232B722379002B3B
:10A260003DD0012B24D022689368C3B10023CDE9EF
:10A27000033302930093A368059303230193237987
:10A28000002B48D0012B07D1E368616904911B03BF
:10A29000022102938DF800109368684698470023C6
:10A2A000254926482B726B60FFF722FE07B030BDB0
:10A2B000D4E903031844FFF779FF20B31128D2D162
:10A2C00001232B7207B030BD1B491C48FFF7E0FD8E
:10A2D000184B044618600028BED16860E6E7D4E950
:10A2E0000520121AB2F5805F28BF4FF48052D4E9DE
:10A2F00003139208012A38BF012201441844FFF7D2
:10A3000053FF0028DAD12B7C002BCFD1014602204D
:10A3100000F016F8CAE72069E1680123CDE90201DF
:10A320008DF8003063690493936868469847B6E7F0
:10A33000AC290020C4290020C02900209C2900202D
:10A34000831E012B3FD810B5334C237A86B0002BE7
:10A3500037D0022B31D103283AD0304B00221B6872
:10A36000E2601A79002A40D0012A26D1D3E90421DB
:10A3700001328A421A6120D10020207219688A684D
:10A38000BAB10022CDE90322029200929A680190AC
:10A3900005921A79002A35D0012A07D1DA685B695B
:10A3A00004931303022202938DF800208B68684601
:10A3B00098471B491B48FFF79BFD637C23B9FFF7B8
:10A3C00043FF06B010BD704706F092FC06B010BD0A
:10A3D000E3680133082B01D8E360EEE70F4B00225E
:10A3E0001B68E26022720D20C8E7D3E90512881AC3
:10A3F000B0F5805F94BF121802F5805291429A61C5
:10A40000DBD1B9E7012218698DF80020DA685B69B1
:10A410000493CDE90202C9E7AC290020C429002039
:10A42000C02900209C2900202DE9F04784B0074670
:10A430000E461A4803A915469A46FFF7EBFC40B3AF
:10A44000044600211C228846DFF8549006F0ACFD3B
:10A450000C9B12482760C4E90356A360C4F814A0FB
:10A4600003A984F80480FFF703FD09F10400FFF756
:10A4700027FE18B1404604B0BDE8F08799F81130C6
:10A48000002BF8D10190FFF7DFFE019804B0BDE882
:10A49000F087042004B0BDE8F08700BF9C290020AD
:10A4A000AC2900202DE9F04385B081460D461948BE
:10A4B00003A916461F46FFF7ADFC30B304461C2225
:10A4C000002106F071FDDFF850801248C4F80090BA
:10A4D00001232D0BC4E90275666103A92371FFF7FF
:10A4E000C7FC08F10400FFF7EBFD18B1002005B030
:10A4F000BDE8F08398F81130002BF8D10190FFF7F8
:10A50000A3FE019805B0BDE8F083042005B0BDE8C6
:10A51000F08300BF9C290020AC29002000F0FD033F
:10A52000012B00D0704730B53B4DA0F10100B0FACF
:10A5300080F02B7A4009002287B028746A74002BBF
:10A540004AD0364B1C6802232B722379002B4ED045
:10A55000012B07D1D4E903031844FFF727FE48B3C2
:10A5600011281BD0226893687BB10023CDE9033307
:10A5700002930093A36805930323019323790BB3FC
:10A58000012B0ED09368684698470023244925483C
:10A590002B726B60FFF7ACFC07B030BD01232B7250
:10A5A000FAE7E368616904911B03022102938DF8C5
:10A5B0000010E7E72B7C002BEED101460220FFF7CD
:10A5C000BFFEE9E72069E16801238DF80030636987
:10A5D0000493CDE90201D5E711491248FFF758FC71
:10A5E0000E4B044618600028ADD16860D4E7D4E96A
:10A5F0000520121AB2F5805F28BF4FF48052D4E9CB
:10A6000003139208012A38BF012201441844FFF7BE
:10A61000CBFD0028A4D1CDE7AC290020C42900201F
:10A62000C02900209C29002041DF7047064A074BC3
:10A6300010B5002414701C60BFF35F8F04490548F7
:10A6400000F034F8204610BDD0290020D429002085
:10A6500058170300C829002000B583B000230DF16E
:10A6600007008DF80730FEF721F9F1EE103A23F0DC
:10A670009F03E1EE103ABFF35F8F0B4B4022C3F80C
:10A6800084219DF80700FEF737F906F041FB28B951
:10A6900020BF40BF20BF03B05DF804FBFFF7C4FF3D
:10A6A00003B05DF804FB00BF00E100E001600B684F
:10A6B00043604A68934204BF00234360704700BF71
:10A6C000436843B1026891680B4443605268934207
:10A6D00004BF0023436070470A7B10B4D1E90043F4
:10A6E000002A0ABF2346002201225DF8044B0271B2
:10A6F00003607047BFF34F8F0549064BCA6802F4E9
:10A70000E0621343CB60BFF34F8F00BFFDE700BF94
:10A7100000ED00E00400FA0538B5BA4B1B78062BB3
:10A7200024D0B94B1B68062B00F08580B74AD2F8BD
:10A73000883043F47003C2F88830BFF34F8FBFF303
:10A740006F8F4FF01023D3F80C22D20700F1B081A5
:10A75000D3F80022002AC0F28581D3F80432002BFE
:10A76000C0F28081AA4BAB4A1A6038BDAA4B1B6865
:10A770001B07D6D1A94B1B6803F0F002302A00F06A
:10A780009B8003F0E003402B00F09680A34B1B68F6
:10A7900003F0F003302B00F0A080A04B1B6803F007
:10A7A000F002302A77D003F0E003402B73D09B4BAC
:10A7B0001B6803F0F003302B00F01481974B1B68EB
:10A7C00003F0F002302A52D003F0E003402B4ED0C9
:10A7D000924B1B6803F0F003302B00F0F5808F4B99
:10A7E0001B6803F0F003302B00F0D7808B4B1B6805
:10A7F00003F0F003502B7ED0884B1B6803F0F0026F
:10A80000302A23D003F0E003402B1FD0834B1B687A
:10A8100003F0F002302A03D003F0E003402B80D194
:10A820004FF08043D3F80024D10744BF6FF00102FA
:10A83000C3F8002475E77A4B1B68062B7FF476AFCC
:10A84000784A136843F4806313606FE7764B6D4A70
:10A850001B681278754903F04F03062A0B607FF4DA
:10A8600060AF6D4B1B6818077FF45BAFCEE7654A9E
:10A8700011784FF0804300220629C3F80C21C3F859
:10A880001021C3F838257FF44CAF634B1B681A07BF
:10A890007FF447AF9CE7664B5A4A1B6812786549BC
:10A8A000C3F34233062A0B607FF43BAF5A4B1B685D
:10A8B00018077FF436AF7AE75F4B524A1B6812786D
:10A8C0005E49C3F30423062A0B607FF42AAF524B80
:10A8D0001B681D077FF425AF58E74A4B584A1B7881
:10A8E00058491160062B7FF41CAF4B4B1B681C07AB
:10A8F0007FF417AF51E74FF08052534BD2F8041456
:10A90000C3F82015D2F80814C3F82415D2F80C1493
:10A91000C3F82815D2F81014C3F82C15D2F8141463
:10A92000C3F83015D2F81814C3F83415D2F81C1433
:10A93000C3F84015D2F82014C3F84415D2F82414F3
:10A94000C3F84815D2F82814C3F84C15D2F82C14C3
:10A95000C3F85015D2F83014C3F85415D2F8341493
:10A96000C3F86015D2F83814C3F86415D2F83C1453
:10A97000C3F86815D2F840142248C3F86C15D2F811
:10A9800044140278C3F87015062A7FF4CAAE224B2D
:10A990001B681C077FF4C5AE2EE71A4B2B4C1B78A7
:10A9A0002B492C482C4A0525256001250D600024E3
:10A9B0003F21062B046011607FF4B3AE164B1B6879
:10A9C0001D077FF4AEAE11E70E4B244A1B7803211E
:10A9D000062B11607FF4A5AE0F4B1B681B077FF49D
:10A9E000A0AEFCE61E4A0749D368097823F08073BD
:10A9F0000629D3607FF495AE074B1B6819077FF4D7
:10AA000090AEDBE6E00F00F03001001000ED00E05A
:10AA10007C2200200090D003E40F00F0E80F00F04B
:10AA2000340100103C17004058020010E40E0040B2
:10AA3000440200103C050040240300104035014052
:10AA400074C007400DF0ADBA00C000401056004081
:10AA5000885600401856004014560040A00500409B
:10AA6000F0ED00E0214A0123C2F80435D2F80034A9
:10AA7000002BFBD04FF0102315211C4AC3F8001205
:10AA8000D2F80034002BFBD04FF010231521174AC9
:10AA9000C3F80412D2F80034002BFBD00023134972
:10AAA000C2F80435D1F80034002BFBD0FFF722FEAA
:10AAB0000E4B0122C3F80425D3F80024002AFBD052
:10AAC0004FF01021094AD1F80C3223F00103C1F8EC
:10AAD0000C32D2F80034002BFBD000230349C2F81B
:10AAE0000435D1F80034002BFBD0DFE700E0014053
:10AAF00010B568B90E4CA368012262703BB1D3E96E
:10AB000000230020A2609847A368002BF7D110BD56
:10AB10000128FCD1064C2369A070002BF7D0D3E9A3
:10AB200000230120226198472369002BF7D110BD33
:10AB3000D829002070B910B5074CA36801226270B3
:10AB40003BB1D3E900230020A2609847A368002B03
:10AB5000F7D110BD704700BFD829002030B50128BB
:10AB600083B004D003281DD0B0B103B030BD224C57
:10AB700000230DF107008DF80730FDF797FE2378CD
:10AB80004BB3E3689DF8070001330122E360A27034
:10AB9000FDF7B2FE03B030BD184B0122C3F8802090
:10ABA00003B030BD144C00F097F800230DF10700FE
:10ABB0008DF80730FDF77AFEE368013BE360E56856
:10ABC0002DB19DF80700FDF797FE03B030BD00F0F2
:10ABD00097F8A570F5E70A486360A3602361E36016
:10ABE00000F06EF806F094F810B101232370C8E766
:10ABF00000F072F8F9E700BFD829002000E100E07A
:10AC0000F1AA020030B587B0057844688DF8045089
:10AC100002948568084A094B8DF80C50D0E903402E
:10AC200053F821308DF8140052F82110049401A833
:10AC3000984707B030BD00BFEC290020F82900205C
:10AC40002DE9F04F1A4EDFF86CE0DFF86C90DFF87A
:10AC50006CA00C46154607469B4696E80F0087B049
:10AC600002AE86E80F0017F804CB23680193002D8D
:10AC70004EF82C5094F8058094F804E04AF82CB073
:10AC8000314608BF2A46019EA568A4890296384627
:10AC900018BF4A4663468DF80DE08DF80E80049586
:10ACA000ADF8144000F00CFD07B0BDE8F08F00BF18
:10ACB00064170300F829002005AC0200EC290020ED
:10ACC000044A137923B90121106091801846704716
:10ACD00085207047042A0020084B1A68D20706D442
:10ACE0000122C02183F80013C3F880211A604FF0BD
:10ACF00080430122C3F81825704700BF00E100E03F
:10AD0000044B01221A604FF08042D2F81834DB0362
:10AD1000FBD470470C00004010B5174B1A6882B086
:10AD200062B10021154A19601B68507900934FF0F9
:10AD300080410123009CC1F8083398B1104B1A6878
:10AD4000BAB100221A601B6801934FF080420221C1
:10AD50000A4B0198C2F808131B68012002B0BDE835
:10AD600010401847116853718847054B1A68002A2C
:10AD7000E7D102B010BD00BF00010040042A00204E
:10AD80000401004070B5214C94F8585082B0002D59
:10AD900038D14FF0FF304FF0FF314FF0FF33C4E9AF
:10ADA0000001C4E90C01C4E90E01C4E91001C4E9C1
:10ADB00012010422294604F15400C4E90233C4E913
:10ADC0000433C4E90633C4E90833C4E90A3323650C
:10ADD00006F0EAF80E4B0F4A0F4E1560C02183F8BB
:10ADE00006134021C3F8801119601368019301997B
:10ADF0004FF000430122284684F85820C6F8043357
:10AE000002B070BD082002B070BD00BF102A002043
:10AE100000E100E07C61004000600040034B93F8DB
:10AE20005800003818BF0120704700BF102A0020CA
:10AE3000F0B46F4B1D1895F93040002C61DA8C7816
:10AE4000A707C4F3400C53D41C6A013400F0C88037
:10AE50005C6A013400F0BD800C260A2453F82450AB
:10AE6000013552D0651CB5423FD253F825700137E9
:10AE700000F0A780A51CB54237D253F825700137E2
:10AE800000F09F80E71CB7422FD253F827500135BE
:10AE90003AD0271DB74228D253F82750013533D076
:10AEA000671DB74221D253F8275001352CD0A71D7A
:10AEB000B7421AD253F82750013525D0E71DB742C3
:10AEC00013D253F8275001351ED004F10807B742BA
:10AED0000BD253F82750013516D00934B44204D2AE
:10AEE000DC6A013408BF0B240FD00420F0BC70478B
:10AEF0001C68013467D05C68013460D008260224E5
:10AF0000ACE70820F0BC70473C461E1865B243F819
:10AF1000242086F83050BCF1000F02D11C4484F884
:10AF200048008A78540714D4D6073ED44C784FF0A2
:10AF3000A04600F5E072A40046F822402D4EC40859
:10AF400000F0070C375D012202FA0CF23A43325549
:10AF50008A7812F002021CD0AB0003F1804303F5A3
:10AF6000C0430978D3F8104524F4473424F44074DE
:10AF7000C3F8104502020904D3F8100501F440316A
:10AF800002F4F8520A430243C3F810250020F0BC33
:10AF90007047083D2B44087893F8501041EA80111F
:10AFA00083F850101046F0BC7047820002F1A042B6
:10AFB000D2F8004724F00204C2F80047BEE701249B
:10AFC000A3E72C46A1E7002485F830401A60254607
:10AFD000A7E7092685F830605A62344635469DE772
:10AFE000082685F830601A623446354696E700BF79
:10AFF000102A0020642A002070B42C4C251883B03D
:10B0000095F93020072A1CDD224492F848309B092C
:10B01000032B40D0012B0CBF4FF400334FF44033CF
:10B02000800000F1A040D0F8002722F44032C0F8A0
:10B030000027D0F800271343C0F8003703B070BCD6
:10B040007047D3B2072BF9D8900000F1804000F58B
:10B05000C04002F140039B00D0F810659BB203F1A1
:10B06000804303F5C04346F00106C0F81065002098
:10B0700018601B680193019B0029DFD095F93030DF
:10B0800054F82330002BD9D00949012303FA02F2E6
:10B09000C1F80423D2E74FF0A043D3F81035C340E2
:10B0A00003F0010302331B04BAE700BF102A00209B
:10B0B00000600040164B034493F93030072B0DDD40
:10B0C000800000F1A040D0F8003723F44033C0F8EE
:10B0D0000037D0F80037C0F800377047DAB2072AD7
:10B0E00014D810B49A0002F1804202F5C042094C13
:10B0F000D2F81005012120F0010001FA03F3C2F893
:10B100001005C4F808335DF8044B7047704700BF62
:10B11000102A0020006000402DE9F04186B0C04AAE
:10B12000002301931168012900F0C8811E46BD4B20
:10B130001A68012A00F0B481BB4B1A68012A00F09A
:10B14000A181BA4B1A68012A00F08E81B84B1A68A7
:10B15000012A00F07B81B74B1A68012A00F0528166
:10B16000B54B1A68012A00F03F81B44B1A68012AD6
:10B1700008D0B34B1A68012A00F0AC81F6B906B0CA
:10B18000BDE8F081AF4AD2F804231206F1D50022BF
:10B190001A6019680491196E0498012903F160037B
:10B1A00046F080060AD11A601B6805934FF0A04351
:10B1B000059AD3F81035019346F00046A24F0125B9
:10B1C0000024A30003F180432E4203F5C0434FEA5D
:10B1D00045050BD0D3F8100557F82420D3F81015E7
:10B1E000C0F30420C1F3014102B190470134082C9F
:10B1F000E7D1002EC3DA00224FF0FF33CDE902235E
:10B20000914C012502AE94F95000471C37D0C0F391
:10B21000C20C06AB03EB0C0700F0070317F80C2C6D
:10B2200005FA03F31A42C1B200F03F0027D02218FA
:10B23000890992F9302054F82280B8F1000F00F00B
:10B240009D81032900F09D81820002F1A04217F840
:10B25000147CD2F800C71F40CCF3014C0BD0BCF1DA
:10B26000020F0CD1032900F0BF810027B8F1000FB5
:10B2700006D0C04704E0BCF1030F00F0A381002713
:10B2800094F95100411C32D0C0F3C20E06AB03EB5F
:10B290000E0C00F007031CF80C2C05FA03F31A42FD
:10B2A000C1B200F03F0022D02218890992F9302063
:10B2B00054F82280B8F1000F00F07B81032900F0E0
:10B2C0007B81820002F1A04E1CF814CCDEF800272E
:10B2D0001CEA030FC2F3014200F03A81022A06D1B0
:10B2E000032900F08481B8F1000F00D0C04794F921
:10B2F0005200421C32D0C0F3C20E06AB03EB0E0C60
:10B3000000F007031CF80C2C05FA03F31A42C1B233
:10B3100000F03F0022D02218890992F9302054F819
:10B320002280B8F1000F00F03B81032900F03B813F
:10B33000820002F1A04E1CF814CCDEF800271CEAB3
:10B34000030FC2F3014200F0ED80022A06D1032967
:10B3500000F05081B8F1000F00D0C04794F95300BD
:10B36000431C32D0C0F3C20E06AB03EB0E0C00F050
:10B3700007021CF80C3C05FA02F21342C1B200F0BD
:10B380003F0022D02318890993F9303054F82380E4
:10B39000B8F1000F00F0FB80032900F0FB80830070
:10B3A00003F1A04E1CF814CCDEF800371CEA020FA3
:10B3B000C3F3014300F09C80022B06D1032900F067
:10B3C0001C81B8F1000F00D0C047002F3FF4D7AE6A
:10B3D0004FF0A043019AD3F810359A423FF4CFAE14
:10B3E000029A019303920EE7164AD2F804235106FB
:10B3F0007FF5BBAE00221A601B680493049B46F0E5
:10B400004006B2E60F4AD2F8042390067FF5A8AEB4
:10B4100000221A601B680493049B46F020069FE6F6
:10B420000061004004610040086100400C61004080
:10B430001061004014610040186100401C61004030
:10B440007C61004000600040102A00206C4AD2F865
:10B450000423D4067FF57FAE00221A601B68049394
:10B46000049B46F0100676E6654AD2F804231507D9
:10B470007FF56CAE00221A601B680493049B46F0B3
:10B48000080663E65E4AD2F8042357077FF559AEF3
:10B4900000221A601B680493049B46F0040650E6E1
:10B4A000574AD2F8042392077FF546AE00221A606D
:10B4B0001B680493049B46F002063DE65049D1F810
:10B4C000046316F001063FF432AE13601368049370
:10B4D000049B2CE600221A601B6805934FF0A043E2
:10B4E000059AD3F810350193002E3FF484AE63E63D
:10B4F000032B7FF46AAF03297FF463AF4FF400326C
:10B50000DEF8003723F44033CEF80037DEF800379A
:10B510001343CEF80037B8F1000F3FF459AF0137AD
:10B52000FFB251E7032A7FF419AF03297FF412AF6A
:10B530004FF40032DEF8003723F44033CEF8003702
:10B54000DEF8003701371343FFB2CEF8003701E7CA
:10B55000032A7FF4CCAE03297FF4C5AE4FF400324A
:10B56000DEF8003723F44033CEF80037DEF800373A
:10B5700001371343FFB2CEF80037B4E603297FF456
:10B580007EAE16F80C201A4306F80C205CE6032960
:10B590007FF41BAF16F80E30134306F80E30FEE6AC
:10B5A00003297FF4DBAE16F80E201A4306F80E20AE
:10B5B000BEE603297FF49BAE16F80E201A4306F868
:10B5C0000E207EE603297FF451AE4FF40037D2F807
:10B5D000003723F44033C2F80037D2F800373B433A
:10B5E000C2F80037012741E64FF44037EFE74FF448
:10B5F0004032B5E74FF440329CE74FF440327FE7EA
:10B6000000600040014B1B68184700BF6C2A0020F7
:10B61000114B98421DD130B583B000230DF10700C6
:10B620008DF807300D46FDF741F90C4B1C794CB9EC
:10B630009DF807001D6001221A71FDF75DF9204693
:10B6400003B030BD9DF80700FDF756F9112003B097
:10B6500030BD0020704700BF002000406C2A002051
:10B66000144AD2F81831E3B10021134BC2F8181173
:10B67000D2F81811DA7F82B0FF2A0191019908D01F
:10B68000997F79B101214FF0A04001FA02F2C0F890
:10B690000C2500225A771A72D3E90021074802B01C
:10B6A0001047704701214FF0A04001FA02F2C0F8A4
:10B6B0000825EEE700300040742A00207C2A002094
:10B6C0002DE9F04F0679DFF804A206EBC6090AEB74
:10B6D000890B05469BF81C0083B0CDE90032002899
:10B6E00040F0C0802F680C4638467649FFF790FF3F
:10B6F000002840F0DA804FEA8909019A4AF80920C7
:10B70000009BCBF80430237B94F800C0012B4FF052
:10B71000A0414FF0010303FA0CF394BFC1F80C35BC
:10B72000C1F8083523784FF0A04C03F5E0730121F0
:10B730004CF823106378FF2B4FEAC60800F0968080
:10B7400003F5E07E99404FF00309CCF80C154CF856
:10B750002E9094F802C0BCF1FF0F00F08F800CF522
:10B76000E07E4FF0A0414FF0040941F82E90E646EC
:10B7700094F802C008EB06010AEB810181F820C0B1
:10B7800094F803C081F81FC0BCF1FF0F1AD02179D3
:10B79000002976D101214FF0A04901FA0CF1C9F836
:10B7A0000815E1784FF0A04C01F5E0714FF0030966
:10B7B0004CF8219008EB06010AEB810194F804C0D3
:10B7C00081F81EC02178C7F80815C7F80C35C7F8EE
:10B7D00010E5A368C7F82435637B217B003B18BFC5
:10B7E000012302296BD0032966D0012961D0C7F853
:10B7F0005435A379C7F8C035002A4AD04022072320
:10B80000C7F80423C7F800352A68637942F3073183
:10B8100000294FEA123240DB01F1604101F561413C
:10B820005B01DBB281F80033296841F3C43323F0B4
:10B83000604323F0030303F1604303F56143C1F365
:10B84000043101228A40C3F880211A6046440AEB81
:10B85000860A002201238AF81D208AF81C3003B0D2
:10B86000BDE8F08F082003B0BDE8F08F94F802C067
:10B87000BCF1FF0F4FF0FF337FF471AF4FF0FF3E8D
:10B8800078E701214FF0A04901FA0CF1C9F80C1535
:10B8900087E70723C7F80035D8E70B4902F00F0206
:10B8A0005B011144DBB20B76BEE7112003B0BDE8AB
:10B8B000F08F43F002039AE743F0060397E743F063
:10B8C000040394E761B60200FCEC00E0742A002057
:10B8D0002DE9F0470779DFF850C107EBC7030CEB00
:10B8E00083068646707F82B0002840F093809B00DC
:10B8F0000C465CF8033015464FEAC70823B112F036
:10B90000140F04BF0123737708EB07060CEB8606C0
:10B9100094E80F0096F81FA006F10C09BAF1FF0F8A
:10B9200089E80F0009D0B37F002B61D001234FF0CD
:10B93000A04203FA0AF3C2F80835226822B102F0E5
:10B940006043B3F1005F5BD1A36823B103F06043B0
:10B95000B3F1005F54D1DEF800306168C3F84425CC
:10B96000C3F84815D4E90221C3F834250022C3F8EE
:10B970003815C3F81821D3F818210192019A15F04F
:10B98000010218BF0122C3F8502515F0020218BFAA
:10B990000122C3F840252A075CBF01221A6108EB87
:10B9A00007025CF8222062B115F004004FF040025B
:10B9B0001ABFC3F808230020C3F8042302B0BDE86F
:10B9C000F087D3F81821002AFBD047440CEB870CF2
:10B9D0009CF81F30FF2B24D09CF81E0001224FF052
:10B9E000A04102FA03F3C8B1C1F80C350020E5E725
:10B9F00001234FF0A04203FA0AF3C2F80C359CE78A
:10BA000047440CEB870C002310208CF81D3002B04B
:10BA1000BDE8F087112002B0BDE8F087C1F8083515
:10BA2000CCE70020CAE700BF742A0020032806D80C
:10BA3000012A06D001291BD0022908D071B10720A4
:10BA40007047012911D002294FF00002F6D10B4BAB
:10BA500000EB4000034400205A707047074B00EB96
:10BA60004000034408469A70704700F10E02D2B2BB
:10BA700000EB400301490020CA547047982A002077
:10BA800010B50388102B07D0112B04D1254B186853
:10BA90000138186030B110BD224C216811B301315A
:10BAA000216010BD01220221FFF7C0FF40B107282D
:10BAB00006D01D4B1B68002BEDD0BDE81040184789
:10BAC000072202210120FFF7B1FF08B10728F0D1BA
:10BAD000002108460A22FFF7A9FF0028DBD007282B
