:020000022000DC
:1060000000000120F98102002182020023820200A7
:10601000258202002782020029820200000000007F
:106020000000000000000000000000002B820200C1
:106030002D820200000000002F8202003182020047
:10604000A5AF020033820200D5B802002DB90200CC
:1060500033820200338202008DB30200F97C020019
:106060003382020033820200338202003382020054
:106070003382020033820200338202003382020044
:1060800033820200898202003382020033820200DE
:106090002983020033820200551603003382020076
:1060A0003382020033820200338202003382020014
:1060B0003382020033820200000000000000000072
:1060C00033820200338202003382020033820200F4
:1060D000338202003382020033820200000000009B
:1060E00000000000000000000000000000000000B0
:1060F00000000000000000000000000000000000A0
:10610000000000000000000000000000000000008F
:10611000000000000000000000000000000000007F
:10612000000000000000000000000000000000006F
:10613000000000000000000000000000000000005F
:10614000000000000000000000000000000000004F
:10615000000000000000000000000000000000003F
:10616000000000000000000000000000000000002F
:10617000000000000000000000000000000000001F
:10618000000000000000000000000000000000000F
:1061900000000000000000000000000000000000FF
:1061A00000000000000000000000000000000000EF
:1061B00000000000000000000000000000000000DF
:1061C00000000000000000000000000000000000CF
:1061D00000000000000000000000000000000000BF
:1061E00000000000000000000000000000000000AF
:1061F000000000000000000000000000000000009F
:106200000348044B834202D0034B03B11847704745
:106210000423002004230020000000000548064954
:10622000091A891001EBD171491002D0034B03B157
:1062300018477047042300200423002000000000BA
:1062400010B5064C237843B9FFF7DAFF044B13B1BE
:106250000448AFF300800123237010BD18230020F1
:10626000000000008C27030008B5044B1BB1044953
:106270000448AFF30080BDE80840CFE7000000000D
:106280001C2300208C270300134B002B08BF114B4D
:106290009D46A3F5803A00218B460F461148124ACD
:1062A000121A0BF0F3FB0D4B002B00D098470C4B50
:1062B000002B00D098470020002104000D000B485F
:1062C0000BF0A2FA0BF0D4FA2000290000F096FAA5
:1062D0000BF0A0FA00000800000001200000000000
:1062E00000000000182300209C2F00203D18030010
:1062F00076DF704777DF704778DF70477ADF704767
:106300007CDF70478FDF7047B1DF704733DF704746
:10631000014B01221A70704734230020014B0122E7
:106320001A70704735230020014B01221A70704704
:106330006C260020014B01221A7070477426002041
:106340000A4B1A7842B94FF0A0424FF40071C2F8DC
:10635000081501221A7070474FF0A0424FF40071E7
:10636000C2F80C1500221A70704700BF36230020B7
:1063700001F060BF10B50388212B82B073D011D912
:10638000522B2CD0562B03D03B2B01D002B010BD8A
:1063900080881321FFF7ACFF0028F7D001F04AFFF7
:1063A00002B010BD102B24D0112BEFD13F4B404831
:1063B0004FF6FF721A8002F03DFA00285DD13D4889
:1063C00002F038FA00286DD13B4802F033FA002879
:1063D00065D13A4802F02EFA0028D7D0DEE7334ADA
:1063E0000023108819461A46FFF78EFF0028CDD0EB
:1063F000D4E74FF0A0434FF40072C3F80C252B4CA8
:1064000081882F48218007F0A5FF002844D1002370
:1064100020881A461946FFF777FF002839D1002255
:106420004FF48031224802F0AFF978BB00224FF4DC
:106430008031204802F0A8F928BB00224FF48031B7
:106440001D4802F0A1F9D8B900224FF480311B4851
:1064500002F09AF908B101F0EDFE1A4802F0EAF9EB
:10646000002893D09AE702A9002321F8043D8088F0
:10647000FFF748FF002889D090E701F0DBFE9EE798
:1064800001F0D8FEE0E701F0D5FED6E701F0D2FE3C
:10649000CCE701F0CFFEC2E701F0CCFEB7E701F098
:1064A000C9FE96E701F0C6FE8EE700BF2422002059
:1064B00038230020B0250020142600204C26002080
:1064C00008260020D025002008B50321044806F046
:1064D000F9F800B908BDBDE8084001F0ABBE00BF47
:1064E0005823002010B5044609F068FA204609F048
:1064F0009BFA23780C2B04D10020BDE81040FFF755
:10650000E3BF10BD704700BF08B5037803B108BDF5
:10651000054B3B211888FFF7EBFE0028F7D0BDE8BC
:10652000084001F087BE00BF2422002001F082BE97
:1065300010B548B1032806D100224FF4004113489A
:1065400002F022F9F0B910BD4FF0A0434FF480548F
:10655000D3F8342722F44032C3F83427D3F8342751
:106560004FF4806042F440324FF40071C3F8342796
:10657000C3F80845C3F80805C3F80815FFF7C6FEB9
:106580000028E0D0BDE8104001F054BED025002026
:1065900010B582B002AA022322F8023D0A4B0B4832
:1065A0001B8840F2052401A9ADF8044001F04AFB24
:1065B000132803D0034633F0080301D102B010BD05
:1065C00001F038FE02B010BD242200202822002055
:1065D00010B5006884B0D8B90323ADF8023004AC1C
:1065E000052324F80C3D0A220DF106010BF064F995
:1065F000114B12481B8821460DF1020201F022FBCB
:106600001328034602D033F0080310D104B010BDA4
:10661000034603210A4C00E01146A4FB0323DB08D8
:1066200001F1010292B2F7D1ADF80210D7E701F003
:1066300001FE04B010BD00BF24220020282200204B
:10664000CDCCCCCC0278002A48D12DE9F04182B0E3
:10665000868A0169023E00AF91F800C04D7810D0E3
:106660000131104601E0B2420DD011F8013F303B3C
:10667000DCB200EB8000092C02F1010203EB4000C8
:10668000F1D94FF0FF30ACF10303032B22D8DFE840
:1066900003F0612F26024FF0A0434FF48054D3F84B
:1066A000342722F44032C3F83427D3F834274FF488
:1066B000806042F440324FF40071C3F83427C3F8CD
:1066C0000845C3F80805C3F80815FFF71FFE08B111
:1066D00001F0B0FD0837BD46BDE8F0817047012DDF
:1066E000F8D1431E622B88BF5A2000F049FDF1E724
:1066F000002DEFD1334B344D1B8807336E46DB083A
:10670000A6EBC3039D46284600F048FD286800F12B
:106710006303C62B6C461BD80028DFF8BC8049DB1E
:1067200098F80030A37004220023227063700A22BC
:10673000E11C0BF0C1F8254B224A1B882448214656
:1067400001F080FA1328034602D033F008032DD15C
:10675000B546BFE7002DBDD11E4C238807336E46DA
:10676000DB08A6EBC303B81D9D4600F079FBB7F923
:106770000600A0F57A739BB242F227329342E7D823
:1067800003238DF800300A220DF102018DF801502B
:106790000BF092F80D4B0E481B882246694601F01B
:1067A00051FA13280346D0D1B54693E701F042FDD4
:1067B000B5468FE72D2388F800300BF021F82860CC
:1067C000AEE700BF4E2200207026002024220020C9
:1067D000282200204C2200205C22002008B5064B15
:1067E000024693F854100120FFF784FD00B908BD5C
:1067F000BDE8084001F01EBD582300202DE9804867
:10680000B3B000AF01F05AFF08B101F013FDB14A77
:10681000B148012101F0A6FF08B101F00BFDAF4A1C
:10682000AF48012101F09EFF08B101F003FDAD4A20
:10683000AD48012101F096FF08B101F0FBFCAB4A25
:10684000AB48012101F08EFF08B101F0F3FCA94A29
:10685000A948012101F086FF08B101F0EBFC4FF0DF
:10686000A04303224FF480554FF480644FF400702E
:106870000C21C3F83027C3F82827C3F82427C3F80E
:106880000855C3F80845C3F80805C3F8341704F0E1
:1068900007F808B101F0CEFC0AF0CCFD08B101F018
:1068A000C9FC07F1C804002344F8AC3D012021468F
:1068B0000AF018FF08B101F0BDFC20460AF06EFF97
:1068C00008B101F0B7FC07F1C805112305F8B43D84
:1068D0008A480BF035F9894982B22846FFF710FD46
:1068E00008B101F0A7FC4FF44070FFF705FD08B1B7
:1068F00001F0A0FC0822002120460BF0C7F8804BD5
:10690000FB6120464FF0C8733B62FFF7F7FC08B10C
:1069100001F090FC7B497C4807F036FC08B101F09F
:1069200089FC07F1C8031A46784B42F8BC3D784809
:106930003A60114607F0FCFC08B101F07BFC4022F4
:10694000002120460BF0A2F87249204606F062FBB7
:1069500007F12400704906F05DFB0123204687F80B
:1069600058300AF07DFB08B101F064FC00210422DC
:1069700028460BF08BF8694B69487B61294601F08A
:10698000F3F808B101F056FCAC22002120460BF0D0
:106990007DF80123022263493A7728200626BB7737
:1069A000BB8587F8983044F250625F4B3963C7F873
:1069B000A40021465D48FE77C7F8A820C7F8C0307C
:1069C00005F000FE08B101F035FC0121574805F043
:1069D000F5FD0420FFF702FF554B564841F2883180
:1069E000196047F230524FF47A715A60996001226F
:1069F00019461A7303F0A8FF1C22002120460BF051
:106A000045F800234FF47020FB617B8587F82C301C
:106A1000494A4A4B78624FF42036032120463E62B1
:106A200087F82810C7E90C2306F02AF908B101F00D
:106A300001FC08F039FE08B101F0FCFB0522002141
:106A400020460BF023F83B7FF97F97F820200320A6
:106A500003F0F00360F306136FF3C71301F0FE01B8
:106A600002F0FE026FF341016FF3410207263B770C
:106A700020461023F97787F820207E77BB7708F02F
:106A800059FE08B101F0D6FB2D4808F037FE08B1D9
:106A900001F0D0FB00F0C4F92A4B2B4A2B49DFF858
:106AA000C0A0DFF8C090DFF8C080294E192000F0A8
:106AB000F3F9284B0FCB84E80F00274BFB612046EE
:106AC000032387F82830254C00F0D6FCFFF7FCFCA8
:106AD0005CE000BF11630200002603001D6302009A
:106AE0000426030035630200102603002963020018
:106AF0000C2603004163020008260300142603004D
:106B00002800500005650200F02500207163020096
:106B1000082600201C2603002426030045660200E8
:106B20002822002020220020316502005823002066
:106B30003426002044260020096502002D6502004D
:106B4000E564020091650200D16502005022002038
:106B500074260020F02503000F060811CDCCCCCC04
:106B600034230020352300206C26002099F80030C3
:106B7000002B40F0C08098F80030002B40F0D88007
:106B80003378002B40F00E8103F0A0FE9AF800301D
:106B9000002BEBD000F09AFC386800F0B1FCB7F99C
:106BA0000C000028B4BF2D222B2200233B757A75E0
:106BB0000AF026FE0A2207F116010AF07DFEB7F957
:106BC0000C000AF01DFE80B20928EB4640F20A8153
:106BD000012200E01A46A4FB0030C008531C09281B
:106BE0009BB2F7D8033292B2864B7A811B888648D3
:106BF00007F10A02294601F025F81328034604D0BC
:106C000033F0080301D001F015FBB7F90E0000289E
:106C1000B4BF2D222B2201233B757B607A750AF0CD
:106C2000EFFD0A2207F116010AF046FEB7F90E0041
:106C30000AF0E6FD80B2092840F2D8807B6800E0C7
:106C40001346A4FB0020C0085A1C092892B2F7D8AA
:106C500003339AB26B4B7A811B886B4807F10A02A7
:106C6000294600F0EFFF1328034604D033F0080351
:106C700001D001F0DFFAB7F910000028B4BF2D22CF
:106C80002B2202233B757A750AF0BAFD0A2207F11E
:106C900016010AF011FEB7F910000AF0B1FD80B23A
:106CA000092840F2A180012200E01A46A4FB00302E
:106CB000C008531C09289BB2F7D8033292B2514B3B
:106CC0007A811B88504807F10A02294600F0BAFF72
:106CD0001328034604D033F0080301D001F0AAFAC8
:106CE00000F004FC00238AF8003099F80030DD46FB
:106CF000002B3FF440AF454B1B880733EB46DB08C6
:106D0000ABEBC30328469D4600F0AAF8B7F9140080
:106D1000A0F57A739BB242F22732934247D90023FF
:106D200089F8003098F80030DD46002B3FF428AF9A
:106D3000374B38481B880733EB46DB08ABEBC30304
:106D40009D4600F02BFA334B186800F16302C62A07
:106D50006B461FD800284BDB2F4A7B604FF0040C9A
:106D6000127883F800C0002159709A70D91C0A2249
:106D70000AF0A2FD7B68264A23481946214B1B884E
:106D800000F060FF1328034604D033F0080301D05D
:106D900001F050FA002388F800303378DD46002BEC
:106DA0003FF4F2AE00F014F900233370ECE6002358
:106DB00003228DF800208DF801300A220DF1020126
:106DC0000AF07AFD0F4B114A1B880F48694600F004
:106DD00039FF13280346A2D033F008039FD001F0F7
:106DE00029FA9CE70322FFE6032268E7032231E742
:106DF0007B60094B2D221A700AF002FD054B1860CA
:106E00007B68A9E724220020282200204C220020B1
:106E10004E220020702600205C220020704700BF18
:106E200000B50C490C4885B001F05EF878B90B4B01
:106E300093E8070001AB03C301A900201A7001F019
:106E4000A1F808B101F0F6F905B05DF804FB01F016
:106E5000F1F9ECE71D6E0200402603003426030022
:106E600010B501460446092001F0F8F808B101F018
:106E7000E1F9B4F9003003EB8303C3EB0313DB0048
:106E800048BF03F2FF339B1203EB43035B0003F5A0
:106E90008773238010BD00BFF0B53F4D3F4C2A6083
:106EA0003F4E404D336083B021602870002967D089
:106EB0000B684FF0A04203F5E073032042F8230073
:106EC000096801238B40C2F8083504F0E3F8002874
:106ED0005BD02068344A02238DF8063043684FF0B7
:106EE000A04603F5E07300210227ADF804108DF8E9
:106EF000047046F8231001A9406804F0D5F8002872
:106F000040D12A4B2A492B4A2B4E0120C3F8400579
:106F10001020C3F844052020C3F848050420C3F816
:106F200000020020C3F810052B78C1F84035022379
:106F3000C1F80435236821481C68214B214D42EAE1
:106F40000422C0F81425A1F56C6100F58040C3F857
:106F500010151D4A1D4CC3F81465083001F5805109
:106F6000C3F81855C3F81C45C3F81409C3F8201515
:106F7000C3F82425D3F8002542F00702C3F8002502
:106F800003B0F0BD01F056F9BBE704F03DF800286E
:106F90009FD001F04FF99CE778260020882600203A
:106FA0008C2600207C2600206571020000900040A5
:106FB00000A0004003001100346000400060004069
:106FC00000F0014044910040109000406460004097
:106FD000034A044B012151661B68586804F042B90A
:106FE0000060004088260020F8B52B4C6378002B09
:106FF0003DD0D4ED017AF5EE407AF1EE10FA3BD1B6
:107000005A22264902FB00F281FB0231D317C3EB5F
:107010006113D4E903656169A3600122227002FA59
:1070200006F602FA05F502FA01F14FF0A042002738
:107030006770C2F80865C2F80855C2F80C15984286
:1070400014D8174B1B6803B19847D4E90410E468BF
:1070500001234FF0A04203FA00F003FA01F1A3402C
:10706000C2F80805C2F80815C2F80C35F8BD237837
:10707000002BFBD0A368E2E707EE100AB8EEC77A50
:10708000DFED086A27EE277AC7EE267AFCEEE77A6C
:1070900017EE903ABDE700BF602200201F85EB513C
:1070A0008C2600200000C8422DE9F04FDFF8B0C068
:1070B000274C284B284D00210122DA602160CCF8B2
:1070C000002083B020682D6821710E468A46019504
:1070D00062718646614617274FF0A0494FF0020BB8
:1070E00002E0D1F84051ADB95A64D3F84455172D98
:1070F000F7D9002E18BF704620F07F431846236052
:10710000FFF772FF154B1B68F3B1114803B0BDE8E0
:10711000F04F1847CCF840A1019ED9F81055D6F889
:107120000480267984F805B025FA08F505F00105F4
:10713000BD40013F01364EEA050E7D1C26714FF021
:107140000106D1D17046D7E703B0BDE8F08F00BF8C
:107150008026002000A000408826002078260020FD
:107160000090004008B5054B1B6833B1586804F027
:10717000DBF8BDE80840FFF797BF08BD8826002070
:1071800007EE900A034BF8EE677A01225A70C3EDBE
:10719000017A7047602200204CDF704710B504462A
:1071A000FFF7FAFF08B101F045F820680AF070FF18
:1071B0000022034B0AF0D6FF0BF0E6F9206010BD69
:1071C0000000D03F014B01221A707047902600202A
:1071D0002DE9F04303F1080085B000F4FC7000AF26
:1071E000ADEB000D01F07F018DF80010EC46002B97
:1071F00064D0A3F10C01C9B2F22900F2818051429E
:1072000011F0030100F0878010788DF8010001294A
:1072100073D050788DF8020003297FD190788DF8D3
:1072200003004FF00409A3EB01084C1C5FFA88F837
:107230004FEA980E6444114400200130C5B251F861
:10724000046B44F8046BAE45F7D808F0FC0009EB7A
:1072500000018045C9B231D05418481CC0B214F89E
:10726000014C0CF80140834228D315188C1C15F8EA
:10727000015C0CF80050E0B283421FD31518CC1CFF
:1072800015F8015C0CF80050E0B2834216D31518D3
:107290000C1D15F8015C0CF80050E0B283420DD3D0
:1072A00014180531C9B214F8014C0CF800408B4297
:1072B00004D30A4412F8012C0CF8012000240133F5
:1072C000184D19482C70DBB222463946C7E90244F2
:1072D000C7F800C07B6004F055FC44B214B12046EE
:1072E00000F0A8FF114B4FF4C85043F0010398473A
:1072F00020461437BD46BDE8F0834FF0020992E7FF
:1073000001215418481C14F8014C0CF80140C1B27A
:107310008B42F6D2D2E74FF0010984E74FF0030920
:1073200081E700BF902600205C2603005026030062
:107330002DE9F04387B000AF07F1180461F07F0139
:1073400004F8141D1D46083303F4FC716B1CDFF8B0
:1073500004C1BC60DBB20024ADEB010D7B613B4896
:10736000C7F810D00123164607F1080122468CF811
:107370000040FB6004F006FC4FFA80F9E846B9F1E2
:10738000000F5CD1324B4FF4C85043F001039847D3
:10739000002D4DD0724202F00302D31C691E9942A7
:1073A00051D3002A49D098F801303370012A44D0D3
:1073B00098F802307370032A05BF98F80330B37051
:1073C00002231346A5EB020E501C4FEA9E0C4044CC
:1073D00032440021013150F8044B42F8044B61451E
:1073E000F8D32EF003029645134421D05A1C95423F
:1073F00018F80210F1541BD9991C8D4218F801009D
:10740000B05415D9DA1C954218F8020070540FD9FF
:10741000191D8D4218F80100B05409D95A1D954222
:1074200018F80200705403D9984498F80630B35401
:1074300048461C37BD46BDE8F0831346C2E74846C0
:1074400000F0F8FE9EE70023D0E700BF5C260300B3
:10745000502603009026002050B138B5054D044653
:1074600045F001054FF47A40A847013CFAD138BDF8
:10747000704700BF5026030010B5014600230D4A97
:107480000D4803F017FD88B90C4B0D480D490E4A05
:107490009860002418465C70D9605A6100F048F882
:1074A00000B910BDBDE8104000F0C4BE00F0C2FE3F
:1074B000EAE700BFC571020058260300782F0020BC
:1074C000D1710200317302005974020010B500201E
:1074D00000F098F90446082000F04AF9201800D17D
:1074E00010BDBDE8104000F0A5BE00BF08B50320E8
:1074F00000F088F900B908BDBDE8084000F09ABE68
:1075000038B50A4B1A7802B138BD044600F03AF893
:107510000546A01C00F088F80544201D00F0D6F8B0
:107520004019F1D0BDE8384000F084BE782F00202B
:1075300070B5134D82B0002128608DF806108DF8CB
:107540000710C8B1C468007901230DF10602A047F5
:107550002B689DF806205A700446DE6818790DF1F4
:10756000070201233E21B0472B689DF807205A717E
:10757000204440B202B070BD6FF07E00FAE700BF59
:107580009426002030B5264B83B01A680023ADF84E
:107590000430002A40D0234B1B78012B044629D00D
:1075A00012D3022B22D1D5681079194601AAA84717
:1075B0009DF804309DF9052003F0FC0343EA022303
:1075C0009B10238003B030BD02231946D568107983
:1075D00001AAA8479DF804309DF9052003F0F003A7
:1075E00043EA02231B11238003B030BD4FF0FF306C
:1075F00003B030BD02231946D568107901AAA84707
:107600009DF804309DF9052003F0C00343EA0223EE
:107610009B11238003B030BD6FF07E00D2E700BF26
:10762000942600207822002030B5264B83B01A68BB
:107630000023ADF80430002A40D0234B1B78012BE7
:10764000044629D012D3022B22D1D5681079042107
:1076500001AAA8479DF804309DF9052003F0FC031A
:1076600043EA02239B10238003B030BDD568107914
:10767000022301AA0421A8479DF804309DF90520A2
:1076800003F0F00343EA02231B11238003B030BD53
:107690004FF0FF3003B030BDD5681079022301AA46
:1076A0000421A8479DF804309DF9052003F0C0038C
:1076B00043EA02239B11238003B030BD6FF07E00AC
:1076C000D2E700BF942600207822002030B5264B58
:1076D00083B01A680023ADF80430002A40D0234B51
:1076E0001B78012B044629D012D3022B22D1D56856
:1076F0001079062101AAA8479DF804309DF90520BC
:1077000003F0FC0343EA02239B10238003B030BD47
:10771000D5681079022301AA0621A8479DF80430F4
:107720009DF9052003F0F00343EA02231B11238097
:1077300003B030BD4FF0FF3003B030BDD5681079D5
:10774000022301AA0621A8479DF804309DF90520CF
:1077500003F0C00343EA02239B11238003B030BD32
:107760006FF07E00D2E700BF942600207822002030
:1077700070B5214D82B02A6800238DF80730002AA9
:1077800033D05178A0F10803FB29DBB226D0072BB8
:1077900028D81A49CC5CD6681079012310210DF144
:1077A0000702B0479DF80730296823F01F032343E1
:1077B00006468DF80730D9B18C6808790DF10702BB
:1077C00001231021A0472B681A78044612B15B6987
:1077D00001209847A01940B202B070BD062B01D815
:1077E0000749D7E76FF00100F6E76FF07E00F3E797
:1077F0006FF07E04EEE700BF9426002070260300A1
:10780000682603002DE9F043834C83B021680023F0
:107810008DF805308DF806308DF80730002900F01E
:10782000F380CD6807460DF1050208790123112187
:10783000A84723680646DD6818790DF10602012382
:107840001221A84722685379064443F00C03052F00
:10785000F6B28DF8073000F2C9807B1E042B66D883
:10786000DFE803F0696F7503B8004FF481734FF0E0
:10787000400953804B469DF806109568107921F019
:10788000400213438DF806300DF106020123122148
:10789000A84723681A7805461AB15B690120984702
:1078A00023685B690120984721689DF805300A78B4
:1078B0002E44F6B2012A4FFA86F803F01F0350D087
:1078C000042A4ED043EA09038DF805308D68087903
:1078D000012311210DF10502A84721680B78054607
:1078E000002B7ED04B69012098472168EDB24B698F
:1078F0000120984723684544EDB2002B00F08780B3
:107900009E6818790DF1070201233E21B0472368D4
:107910001A780646C0B222B15B69012098472368F5
:10792000F0B2054468B21F7003B0BDE8F0830023D5
:10793000994653809FE7022353804FF0400900236C
:1079400099E7042353806FF07F09002393E7D378EE
:107950009B0103F0400301215BB291704FF02009BD
:1079600089E7002FAED163F07F038D688DF8053075
:107970000879012311210DF10502A84721680B7830
:107980000546002B2FD04B690120984721682E44D3
:10799000F6B200293DD08D68087901233E210DF112
:1079A0000702A84721680B7880461BB14B6901206C
:1079B000984721689DF8053003F01F03464449EAC3
:1079C00003034FFA86F88DF8053000297FF47EAF67
:1079D00081258CE74FF4827353806FF07F09402339
:1079E00049E7C5B283E70644F6B2D4E7D37892F804
:1079F00002909B01023E03F040034FEA4919F6B2A0
:107A00005BB24FFA89F936E76FF07E008CE7812090
:107A100087E76FF07E08CDE794260020A8DF704747
:107A2000ADDF7047AEDF704762DF704769B160B1AC
:107A300070B50388502B8AB00D46044606D0572BEC
:107A400060D0102B28D00AB070BD7047818868695B
:107A500002AA00F02BF91822002104A80AF016F857
:107A6000E3882989A088029A05959942ADF8180003
:107A700007925DD0AA899A42E5D1AB69002BE2D08A
:107A8000002004F11201228A8DF81000089104A848
:107A9000ADF824209847D6E70AAA0026818842F844
:107AA000246D686900F002F93146082202A809F045
:107AB000EDFF022302AA298AA088CDF80CD00293F8
:107AC000FFF7AEFF0028BED1AB69002BBBD00398F7
:107AD00005F09CFA0028B6D0019B0BB101221A7068
:107AE0001822002104A809F0D1FFA388019AADF85B
:107AF000183002210595AB698DF8101004A8079283
:107B00009847A0E78188686902AA00F0CFF80028AA
:107B100099D1029B1B78002B95D00146182204A80E
:107B200009F0B4FFA388029AADF818300121E1E70B
:107B3000268A022E9ED1002A85D004F1120005F07B
:107B400065FA58B1029B01221A708DF81060AB697A
:107B5000002B3FF478AF04A8984774E7029A0323F8
:107B600010708DF81030F2E7F0B5344B06460D4634
:107B70000FCB8FB002AC84E80F00002E5AD0002D3E
:107B800058D02B68B36120463146FFF74DFF08B14E
:107B90000FB0F0BD32460EA9012412F8023B21F8C5
:107BA000344D20468DF80630FFF738FF0028EFD11E
:107BB0000146202206A809F069FF9DF82530204DD6
:107BC00070888DF82440324643F00C0312F80C1BE9
:107BD0008DF81A108DF8253006A902238DF829405A
:107BE0008DF82A40ADF81830079505F01DFA0028E9
:107BF000CED10146202206A809F048FF9DF8253085
:107C00000795324643F0100312F8047B70888DF814
:107C10002440032506A98DF829408DF82A408DF8C7
:107C20002B408DF81A708DF82530ADF8185005F0FE
:107C3000FBF9ADE70E200FB0F0BD00BF78260300C2
:107C40001400010048B3F0B587B0054617460E464C
:107C500001AA194640691C4600F028F8D8B94FF629
:107C6000FF739C421DD0019BDBB11B78BBB13B88ED
:107C7000142B19D80146102202A809F007FFAB887F
:107C8000ADF8083002A901232046CDE904768DF82D
:107C90000A30FFF7C7FE07B0F0BD0E20704708207E
:107CA000F9E7052007B0F0BD0720F4E7EAB10023AB
:107CB0001360D0B10368C3B170B5C38813F0030576
:107CC00011D104460846164605F018F9C0B214282A
:107CD0000FD0237983420AD9E388226800FB03236B
:107CE0003360284670BD072070BD0E207047042009
:107CF00070BD052070BD00BF2DE9F041734B1A68BF
:107D000088B0002A4CD1DFF8DC8198F82E30002BA7
:107D100054D16F4B1A686AB100221A6008A81B6818
:107D20000393022100F80C1DD8F80030039988F85D
:107D300010209847674B1C68002C7CD1D8F8147031
:107D40005FB34FF000450126B7FA87F101F1460312
:107D50009B0003F1804202F5E042A3F58C73D2F858
:107D600000E083F0040025FA01F1C0F3800CDB0889
:107D700005A827EA0107BEF1000F0CD014601268B5
:107D800004928DF818308DF814608DF819C0D8F869
:107D90000030049A9847002FD6D108B0BDE8F08192
:107DA0000022DFF840811A60196898F82E3000919F
:107DB0000099F3B198F82F30002B46D1464B1A6842
:107DC000002AA6D00020186098F82D201968B8F86D
:107DD0001A30019191B28B42019C4DD861D03B4B3E
:107DE0003E4A002119601B68029301230299136027
:107DF0008FE7D8F80C20D8F80400B8F808108DF8F0
:107E000014300690ADF81C10002A46D03448B8F85B
:107E10001810C8F804200122C8F80C30A8F81A106D
:107E2000A8F808100260D8F8003005A89847002389
:107E300088F82F3069E700221A601B680593059BBC
:107E400088F8102008B0BDE8F081D8F80C30D8F8D8
:107E50000400B8F808108DF814200690ADF81C1036
:107E6000DBB1B8F81810C8F80430C8F80C20A8F82E
:107E70001A10A8F80810D6E7B8F80800184C5B1AD2
:107E80009BB2D8F80410A8F81A30C01A01EB4001D0
:107E9000C4F82C16C4F83026A1E7002388F8103067
:107EA000C1E7D8F80C3053B10D49A8F81A000120E9
:107EB00088F82F00C1F82C36C1F830268FE7012250
:107EC000A8F81A3088F82F2089E700BF0471004015
:107ED00010710040147100400071004004700040B7
:107EE0000070004098260020214B93F82C20002A97
:107EF0003CD170B41F4C05781960C4F8F055457832
:107F00001D49C4F8F4556FF000451A74C678C4F8DA
:107F1000085383B00A600968184D019101992A60DD
:107F2000817883F82E602D6815480095490183F803
:107F30002D205A6183F82F20C9B28022F5B2009E0D
:107F400080F80713C0F88021022102600122C4F8E2
:107F5000041383F82C200DB1C4F80423054B01222F
:107F60000020C3F8002503B070BC7047082070479C
:107F7000982600200070004004710040007100400D
:107F800000E100E0334A137C002B60D1F0B40C799F
:107F9000012C4ED900F10C0502EB45031B7923B9E6
:107FA00092F82D30013382F82D304B788E7891F88D
:107FB00000C04F791B01360206F4E06603F030037F
:107FC0003343CE780CF0030C360306F4805643EAB4
:107FD0000C0333438E793F0507F48017360602EB16
:107FE000450206F0807624043B431B4D04F4E02454
:107FF0003343234305EB0016CC79147100010C7A4E
:10800000547100F18040C6F8183500F5E040CB7996
:108010000A7AC0F81425C0F810350B79012B02D963
:108020000020F0BC70470123C5F800350020F0BCEB
:10803000704703F0FF05084BC3F8005500F10C052D
:1080400002EB45030C791B79002BAED1A8E7112078
:10805000704700BF9826002000700040F0B45D4CCF
:10806000227C82B0002A40F0B18094F82D60012576
:1080700002F0FF03584A25740327AE42C2F8087382
:10808000C2F82C16C2F8305623D9544D5449554FD6
:10809000554EC2F81435C2F81035C5F81435C5F878
:1080A0001035C1F81435C1F81035C7F81435C7F8C4
:1080B0001035C6F81435C6F81035C5F85435C5F86E
:1080C0005035C1F85435C1F85035C2F88435C2F87E
:1080D000803500F10C03000104EB430300F1804004
:1080E00000F5E0405A793C4E404D1B79C0F814250C
:1080F0000122C0F810353E49326042F210732A6006
:1081000001E0013B02D00A68002AFAD0394994F80C
:108110002D00374B00220A600968019101991A600D
:108120001B6800930128009B3FD92B48657FC0F84E
:108130001455257FC0F810552849E57FC1F814551E
:10814000A57FC1F81055264A94F82150C2F814555D
:1081500094F82050C2F81055224B94F82350C3F8DD
:10816000145594F82250C3F8105594F82550C0F8CF
:10817000545594F82450C0F8505594F8275094F86A
:108180002600C1F8545594F82960C1F8500594F8B8
:10819000285094F82B00C2F8546594F82A10C2F8BD
:1081A0005055C3F85405C3F8501594F82E3043B910
:1081B000094B0222C3F804230020207402B0F0BC53
:1081C0007047054B0322C3F80423F5E7112002B0E2
:1081D000F0BC7047982600200070004010700040EE
:1081E000207000403070004040700040047000403B
:1081F00004710040007100400649074A074B9B1A72
:1082000003DD043BC858D050FBDC02F0BDFBFEF799
:108210003BF8000020280300202200201823002023
:10822000FEE7FEE7FEE7FEE7FEE7FEE7FEE7FEE726
:10823000FEE7FEE700B585B000230390194601AACA
:1082400044F20100CDE9013300F004F805B05DF817
:1082500004FB00BF72B6094B1B68DB0700D500BEEC
:10826000BFF34F8F0649074BCA6802F4E06213431D
:10827000CB60BFF34F8F00BFFDE700BFF0ED00E024
:1082800000ED00E00400FA05F8B5204A204B002478
:10829000C2F84041C2F84441C2F84841C2F84C41DA
:1082A000C2F80041C2F804411B6833B31949D2F83F
:1082B00004550A68AD1A1A6825F07F45AA42274678
:1082C0000DD8197CDE69AD1A144419B11F74D3E9B5
:1082D000052090471EB133461A68AA42F1D90E49CB
:1082E0000E4A0B7812789A4208D00D490D4A41F88F
:1082F00023404FF48013C2F80031F8BD531CDBB2A9
:10830000022B08BF00230B70EFE700BF00100140F5
:10831000E8270020E4270020E1270020E0270020B4
:10832000D827002000E100E02DE9F04F8C4A8D496C
:1083300013780978DFF85082994285B0D8F800A008
:1083400000F07B810133DBB2022B08BF002386489B
:108350001370864A076852F823107B1823F07F4376
:1083600000240360534626462046A446ABB11A6853
:108370008A4200F26581DC68C3F800C0891A1044A3
:10838000DA6934B13D1825F07F45C3E90154DE6157
:108390001E4613460124002BE9D1002C40F07C81BD
:1083A00001230093724B734FDFF8E09143F0010318
:1083B000019355464FF0000B46B3D6E901C1344650
:1083C000F669694B6C481A68ACEB020323F07F43F3
:1083D000834248D80B44236000220121C4E90122D2
:1083E000E2612174002D5DD02A689A424DD2284660
:1083F00003E00A689A424FD20846C1699B1A0029D5
:10840000F7D12360E161C461002ED6D17878397844
:10841000884264D00B4603EB43034C1CBA7807EB4D
:10842000C303E1B28A421A79397004BF002139705E
:10843000022A9C6844D0032A38D0012AE8D1227C41
:10844000002AE5D1D3F80CC0C4F804C01969A160B2
:108450005869E06099F800009B69A3610028B0D0DA
:1084600062609446ADE7A2EB0C0222F07F428A42A2
:1084700002D28B1A2360AFE700230122C4E9003344
:10848000A360E36122746DB12A68C8F80040D31A72
:108490002B60E56125468FE7D21A0A602360E1610F
:1084A000C461B1E7C8F80040254685E7002DAFD08C
:1084B00000232B74ED69002DFBD1C8F80050A5E70F
:1084C0004DB1AC422B4603D1E4E094422FD0134689
:1084D000DA69002AF9D10023237488429AD1BBF1CA
:1084E000000F01D1554553D0002D56D1234E244ABB
:1084F0001F4C4FF480334FF400310127C2F8801035
:108500003C43C6F848334FF43C60C6F80833776004
:10851000A047154BB7604FF43C601D60A047194B56
:108520001D70002389F8003005B0BDE8F08FA3422C
:1085300000F09180E0692168D861002800F0868011
:108540002A4603680B440360AA424FF000033978BF
:10855000787823741CBF15464FF0010BBDE700BFB0
:10856000E0270020E1270020E4270020D827002072
:1085700090260300C8260020FEFF7F000010014067
:1085800000E100E0D5270020E8270020D4270020C4
:10859000009B002BC5D0002DA8D0434B434A1C683C
:1085A000D2F80465424FD5F800A03978331B23F088
:1085B0007F43DD1CB9B93F493F4B4FF48030C2F8CF
:1085C00044034FF00108C2F804034FF40030C1F82F
:1085D000800143F001030860C2F800804FF43C6062
:1085E000984787F80080AA452CBF04EB0A0363195B
:1085F0002E4923F07F43C1F84035D1F80425921B62
:108600009B1B22F07F4223F07F4303329A4288D99A
:10861000294BD1F80425C1F8402543F001034FF45C
:108620003C609847234B4FF40032C3F800210023ED
:1086300089F8003005B0BDE8F08F00260096B1E65D
:1086400074BB521A1A6001230093ABE600233978F9
:108650007878237441E71946EA69C8F8002092B98E
:10866000CDE90231114BDFF840C001209860019B39
:1086700089F80000CCF800204FF43C609847DDE911
:108680000231D8F80020C8690968D86100287FF451
:1086900058AF59E72946DFE7C8F800309A467FE629
:1086A000C8F800309A46CCE7E427002000100140CB
:1086B000D527002000E100E0902603002DE9F843D3
:1086C0001F4D204E204FDFF898804FF480334FF439
:1086D00000324FF001090024C6F8802047EA09075C
:1086E000C5F848334FF43C60C5F80833C5F804902A
:1086F000B847C5F808904FF43C60C8F80040B84748
:10870000124A134B13491C601470134B134A0C701C
:108710000B2114701C8099704FF48012C023C6F88E
:10872000802186F814333260C5F8084586F8113385
:10873000D5F80435C8F800302046BDE8F88300BFFE
:108740000010014000E100E090260300D527002042
:10875000E8270020E0270020C8260020E12700208D
:10876000E4270020074B9B784BB132B128B1036856
:10877000187C20B959745A61704707207047082047
:10878000704700BFC82600202DE9F047264CA3788B
:1087900082B0002B3CD000283AD004293CD9436950
:1087A000002B35D0814602A899F811300026012B04
:1087B00000F8016D0CBF8846B04617468A4600F0A7
:1087C00073F86378A17822789DF807005D1CEDB2FC
:1087D000A94208BF3546AA4222D003EB430304EB6B
:1087E000C3030121114AC3F808901971D2F8042576
:1087F0006570C3E9032AC3E9058700F07BF80C4BD9
:108800004FF480123046C3F8002102B0BDE8F08773
:10881000082002B0BDE8F087072002B0BDE8F0876D
:1088200000F068F80420F0E7C8260020001001409E
:1088300000E100E0F0B51A4CA37883B043B338B33D
:1088400043692BB3064602A8002500F8015D357484
:1088500000F02AF86278A77821789DF80700531C69
:10886000DBB29F4208BF2B46994214D002EB420272
:1088700004EBC202022196601171637000F03AF8B5
:10888000084B4FF480122846C3F8002103B0F0BD16
:10889000082003B0F0BD00F02DF80420F9E700BF78
:1088A000C826002000E100E070B4EFF3108472B637
:1088B0000D4B9A68AAB90D490D4E01259D60D1F85E
:1088C000805035401D60C1F88060D1F884505D60F3
:1088D0004FF0FF33C1F88430027004B962B670BC47
:1088E000704701230370F8E7902F002000E100E0BB
:1088F000FC06FFBD094B9A687AB170B910B4EFF36A
:10890000108172B6064A1C6814605C6854609860F6
:1089100001B962B65DF8044B70477047902F002094
:1089200000E100E0F0B443681BB1384AD468A342C8
:1089300046D20023364F0B807A684FF0010C02F5C7
:1089400080544FF6FF76083294420ED8BCF1020FE5
:10895000A1F800C007F1140754D07A6802F58054DA
:10896000083294424FF0020CF0D913680133EDD075
:108970005388033302EB83039C42E7D39588B542C7
:108980000AD0158845B1956803689D4211D0538877
:10899000033302EB8302D7E79C42D7D91A6801322E
:1089A0001A46D3D05D88033503EB85039C42E5D29C
:1089B000CCE7184B42601B8903810120F0BC704753
:1089C00012699342B5D813F00305B2D1114A048954
:1089D00012899442ADD104689A689442A9D10C4896
:1089E0004268934203D902F58052934207D38269C9
:1089F000934207D902F58052934203D201250D809C
:108A00000120DBE70020F0BC704700BF04230020FA
:108A10002C28002010280020F0B5334C334DB4F83A
:108A200002C062684FEA8C0606EB0C0305EB830379
:108A300083B0596801F58050002A52D0538803331F
:108A400002EB8302904213D8664405EB8605EB687F
:108A5000002B3DD0264B2748196802229A80052515
:108A600000230122257003B0BDE8F04001F074BB83
:108A700013680133E8D05388033302EB8303834246
:108A8000E2D84FF6FF7E9788774514D0178897B1C4
:108A900062605388164D1748AE8829680333002555
:108AA0009BB200959B0001EB86010325257001F028
:108AB0001FFB03B0F0BD9842C6D91A6801321A46AE
:108AC000C2D05F88033703EB87039842DBD2BBE752
:108AD000084804250122257003B0BDE8F04001F0EC
:108AE0003BBB01F10802ADE7102800202C28002034
:108AF000F4280020042300202DE9F04FAC4E89B06B
:108B000004464FF6FF773568002D00F0D9802A78AB
:108B1000531E052B67D8DFE803F05931311D1D03C3
:108B2000002C40F0C380DFF8B0C29CF80C209CF809
:108B30000030002A00F05281013B8CF80C40062BDB
:108B400051D8DFE813F0E703F8020302D801500020
:108B5000FB02C802002C40F0A9802B79012B00F009
:108B60004A81C0F0DE800DF10C08022B0394C8E9A5
:108B70000244C8F810403ED120463DE0B5F81490BC
:108B8000AB7D002C00F0A380022BEA8840F2C48069
:108B90004FEA8904DFF8388204EB090108EB810110
:108BA000D31C0A8913440B81EA884C4408EB8404E3
:108BB0000DF10C086389033B9B1A00226381C8F8FE
:108BC00008200392C8E90322012015E0002C40F0A0
:108BD00097802B79032B00F2DF80DFE813F0800110
:108BE0003D015501600100230DF10C08C8E9033374
:108BF000C8F8083003930F2004902B78023B042B15
:108C00000AD8DFE803F0472F2303430004238DF83D
:108C10000C30EB88ADF81830664C04F1100554F8B0
:108C2000043B404603B19847A542F8D162496348E6
:108C30000024346001F074F90121614801F038FA30
:108C400000287FF460AF09B0BDE8F08F03238DF8F2
:108C50000C30EB88ADF818302B89ADF81A30EB6882
:108C60000593D9E702238DF80C302B89ADF8183025
:108C7000AB88ADF81A30EB680593AB7DA3F1060322
:108C8000B3FA83F35B098DF81C30C5E705238DF833
:108C90000C30C1E701238DF80C302B89ADF818306A
:108CA000AB88ADF81A30EB680593B5E70DF10C0809
:108CB0000023C8F808300393C8E9033301209BE779
:108CC0003D493E4801F0FEF8054630601FE74FEA97
:108CD0008904DFF8FC8004EB090108EB8101B1F89D
:108CE00008A0496801EB8A0A062B00F2B682DFE889
:108CF00013F0CC019301A501B80141016C0186017B
:108D00000DF10C082F4A002353600393C8E9023386
:108D1000C8F8103001206FE7DFF8B4804FEA89040B
:108D200043E702232B71CDE904440DF10C08EB68F5
:108D3000039340460DF10A01FFF7F4FD002800F00F
:108D4000C1810499204A8B88EB800B882B811F48B6
:108D500000940423BDF80A4001F0CAF9002840F04D
:108D6000DE821B4B04EB840403EB84040123237495
:108D700069E701239A001A4408EB8203002059682E
:108D80000090082308F82200124A104801F0B0F9B8
:108D900000283FF458AF35680A4A0DF10C0800234B
:108DA00053600393C8E90233C8F810300E2023E75C
:108DB00028280020F827002020280020E028002074
:108DC000F028002008280020982603000423002013
:108DD0002C2800209C26030010280020072B00F2DE
:108DE0008382DFE813F0FA01810281029D01E6012E
:108DF00078017801C001BF4B1B78002B00F0538134
:108E0000DFF8F4E2BEF80490B9F1010F15D8DFF8ED
:108E10000C8309EB890208EB8202043212F8043C4D
:108E2000002B00F0088209F1010399B2012999464B
:108E3000AEF8043002F11402F0D90DF10C0808224A
:108E40000021AD4808F022FE0020C8F80800039079
:108E5000C8E903003568CFE6DFF8C08298F8003033
:108E6000022B00F0688298F81430022B81D0A14BBD
:108E70000DF10C08002001221A7003905860C8E917
:108E80000200C8F81000B7E69C4A9D48116800230C
:108E900002242B719480012201F05EF978E7974C4F
:108EA000984A21689648DFF874824FF0000985F8E7
:108EB00004900823CDF8009001F01AF9924B256830
:108EC0005B88A18803EB830308EB830208F82390F7
:108ED00053682360022355601181A38058E7874BB4
:108EE0008A4A1968864801232B71002300930823BE
:108EF00001F0FEF84CE7BCF80230DFF8208203EB0B
:108F0000830308EB8308D8F80C30002B00F0DC81D9
:108F10007A4B7B48196802229A8005228CF800203F
:108F20000023012201F018F900283FF48CAE0DF166
:108F30000C08002341F61D523568C8F80830039329
:108F4000C8E90333904208BF184655E6DCF8042010
:108F50006A48538884880168694801EB84010333B7
:108F6000002400949BB203249B008CF8004001F085
:108F7000BFF8D9E7664BAA6966491A604FF0000B43
:108F80001846C3F804B0FFF7CDFC002800F0CA81F2
:108F90000223AB7504235146CDF800B0EA185848B7
:108FA00001F0A6F800283FF44EAEAB7DEA88022B14
:108FB0004FF00E0026D84C4408EB8408B8F80A306D
:108FC000033B9B1AA8F80A30B1E7524B504AB3F85A
:108FD00000A051684A48504A00234FF0060C85F81B
:108FE00016C00093042301F083F80028DDD10AEBBA
:108FF0008A0A08EB8A08012388F8103023E6EA88F9
:1090000041F61D5004EB090108EB8101D31C0A89CC
:1090100013440B81EA88CEE7032A0CBF05230623FD
:109020000022AB750AF104010092042305F1080245
:10903000334801F05DF80028B7D104E62B693048C9
:10904000002B14BF032301230022AB750AF1080192
:109050000092042305F10C0201F04AF80028A4D183
:10906000F1E5EB882A6926484FF0010C85F816C017
:109070004FF0000C0AF10C019B00CDF800C001F08C
:1090800037F800283FF4DFAD8FE702230022AB75ED
:10909000042300925146EA18194801F029F80028E3
:1090A0003FF4D1AD81E70DF10C08082221461248AA
:1090B00008F0ECFC0394C8E90244C8F81040356895
:1090C000022099E50A200023C8E90033C8E90233E9
:1090D000C8F8103090E5094B0C4A1968084800237D
:1090E0000093CCF8043007238CF80030082300F0FC
:1090F000FFFF19E70828002004290020F428002099
:10910000042300209C26030010280020A42603002E
:10911000EC27002000290020982603002C2800209E
:10912000884ADCF804109388498803330B440221F1
:1091300093808CF80010FFF76FFCF5E6BCF8022076
:10914000DFF810829300134408EB83080620002305
:10915000D8F804107C4A00938CF8000008237B4860
:1091600000F0C6FFE0E601238CF800309CF80A30DE
:109170004BB1DFF8E081D8F80C3000228CF80A20DF
:10918000002B00F0AB809CF80B30002B43D0DFF8B5
:10919000C481D8F8203000228CF80B20002B3AD163
:1091A00098F82430BBB30123ACF80230FFF734FC4D
:1091B000BAE6BCF80220DFF89C81624C9300991853
:1091C00008EB810120684D68B4F804E04860022093
:1091D0002560A1F808E0A080B5E7DFF87881BCF849
:1091E000081098F8142098F80030B2FA82F2520968
:1091F0000131B3FA83F35B098CF80B20ACF808104B
:10920000002201218CF80A30ACF802208CF80C20E6
:109210008CF80010ACE70DF10C080020C8F808002D
:109220008CF80000ACF80200CCF804000390C8E908
:1092300003003568E0E41368DEF8001003F5805C95
:1092400003F1080A002968D04B88033301EB83013E
:109250008C4505D8CEF80040E5E5EA880F20D1E638
:109260000B680133F6D04B88033301EB83039C4535
:10927000F0D38888B8421AD0B1F800B0BBF1000F23
:1092800015D0EB88CEF800108342DBD10023009389
:109290002F4A2E48042300F02BFF00284DD109EB64
:1092A000890908EB8908012388F81030CBE49C4534
:1092B000D0D9196801311946CCD05888033003EB56
:1092C00080039C45D5D2C5E704228CF80020D8F84D
:1092D00004101E48012200F03FFF25E698F81020F8
:1092E000002A3FF450AF5FE7013B062B3FF67BAC13
:1092F00001A252F823F000BF15930200379102003B
:109300004D8F0200F78E0200E78B02003D910200B4
:10931000D79002009CF80A302AE7514698E7356852
:109320000E20D0E60DF10C080390C8E90200C8F841
:1093300010000A2060E400231CE535680E200DF1C2
:109340000C08C0E6F42800209C260300042300201B
:10935000982603002C2800204068FFF7CDBB00BFF3
:1093600038B5084B1A68042A0AD01D68064C024614
:109370000121184644F8252000F08EFE002038BD5B
:109380000C2038BDFC280020F82700202DE9F04FE4
:10939000A34C8BB022780023CDE90533CDE9073308
:1093A000099372B19F4C04F1100554F8043B05A8D1
:1093B00003B19847A542F8D1002528460BB0BDE877
:1093C000F08F201D02F0FF0600F07EFE0746002809
:1093D000F2D14FF010234FF080525B69116952694E
:1093E000DFF86482581C08BF02FB01F3C8F8103094
:1093F0008D49A3F5405340460022C8F80C3000F0D8
:109400006FFE05460028D8D11C238C228749884846
:10941000DFF838A200F0E0FCD8F80C90DFF83082DA
:10942000029609F5405348464FF0030B2A469946E9
:10943000002800F0998003687E498B4240F09480B8
:1094400043687D498B4200F0058101318B4240F039
:109450008B80029B63B102EB820C08EB8C0102262D
:109460000132DAF8003008F82C6092B24B600E81BD
:109470008168CAF800004FF0020C0131AAF804C05C
:1094800000F5805300F108062CD04189033106EB2A
:1094900081008342C0F0A58060464FF6FF7E0192B6
:1094A000B6F804C0F4450FD0B6F800C0BCF1000F08
:1094B0000AD0624AD6F808C01268944504D95F4AB7
:1094C000C2F800C071880331084480B2AAF80400D1
:1094D0007188033106EB8106B34277D80228019ADE
:1094E00040F01F8104210F4399451846A0D1BBF1DC
:1094F000010F7CD9FFB2022F79D0062F00F08180B6
:10950000002F74D004A94A4800F0A0FC1C22044695
:10951000002108F0BBFA002C00F001810123013F7B
:1095200023700A2F09D8DFE807F019081908160870
:1095300016081C061C000223237104A93C4800F0F5
:10954000B1FC01213E4800F09BFD00287FF434AFC0
:10955000FFF7D2FA31E701232371EEE700232371ED
:10956000EBE703232371E8E700F58053014601E0B0
:109570008B4214D00E68013601F10401F8D002EBE1
:10958000820108EB81060BF1FF3B01324FF0030C27
:109590001FFA8BFB92B208F821C07060A4E7DAF8DA
:1095A000001031B3274E02EB820108EB810C728070
:1095B000022602F1010E08F821601FFA8EF2CCF8A3
:1095C0000400ACF8086047F001078DE7316801310D
:1095D00084D07188033106EB810C6345BFF460AF22
:1095E000019A4FF48061AAF8041008217BE70B254B
:1095F000E3E60221AAF804100121CAF80000029152
:10960000E1E7084D01220023227005F11006636096
:1096100055F8043B05A803B19847AE42F8D1CBE614
:1096200008280020F8270020B8260300542800202E
:10963000E0280020DEC0ADDEFE011EF1242800205F
:10964000F02800201028002004230020F428002007
:109650002C28002093000393134408EB830C002173
:1096600008F823104FF00203ACF80830CCF80400DF
:109670008668013600F5805300F1080140D040892A
:1096800000F1030E01EB8E0E73452FD302260192DB
:10969000E646B1F804C04FF6FF72944537D0B1F8F2
:1096A00000C0BCF1000F32D01F4AD1F808C01268C8
:1096B000944505D91C4ABEF80860C2F800C0488825
:1096C00006440336B6B2AEF808604888033001EBB2
:1096D00080018B4219D90868013016D0488800F102
:1096E000030C01EB8C0C6345D3D2019A039911440E
:1096F00008EB81014FF480604FF001060E74088181
:10970000013292B247F00207EEE6019AF8E74FF015
:1097100001028EF810204888BEF80860D0E70825BE
:109720004BE60821DFE600BF2428002008B301B380
:1097300070B582B00C460DF106010546FFF7F2F850
:10974000A0B1BDF806000C4B6E6800EB800003EB87
:10975000800001210C3000F09FFC26606B68012224
:109760000C3300206360AA7202B070BD0A2002B000
:1097700070BD0520704700BF2C280020E8B110B54F
:1097800082B00DF106010446FFF7CCF890B1BDF8A8
:1097900006300C4A03EB830302EB8303DA6872B1F1
:1097A000A27A62B1DA680021013A0846DA60A17251
:1097B00002B010BD0A2002B010BD0520704706207F
:1097C00002B010BD2C280020484B1B78002B32D053
:1097D000002934D00A884FF6FF739A4229D04B886B
:1097E0003BB34B689B072CD12DE9F043B1F80880BF
:1097F00008F103039BB240F2FD32934283B01CD8C0
:109800003B4A17783FB95689148934441C44A4B2A2
:10981000B4F5806F17D3147D3CB9D68B948B344448
:109820001C44A4B2B4F5806F5DD3072003B0BDE83B
:10983000F08304207047022070470920F6E70520D6
:10984000704703207047BC464FEA8C09E14402EBA5
:10985000890933440C46054601A92648A9F80A306F
:1098600000F0F4FA1C220646002108F00FF95EB35E
:1098700002234FF00009B782337086F816906368B0
:10988000336101211C4800F007FCF060238833811C
:109890006388B38001A9A6F80A90A6F80680154847
:1098A00000F000FB45B1C5F80490F268134B2A6044
:1098B0001B8985F80A902B810121114800F0E0FBFB
:1098C000044660B10020B1E7B9F80A30C8F57F4816
:1098D00008F1FD089844A9F80A800820A6E7FFF7D8
:1098E0000BF92046A2E70127BC46ADE70828002077
:1098F0002C280020E0280020242800201028002008
:10990000F0280020002836D0484B1B78002B30D0A0
:10991000002930D00A884FF6FF739A422FD04B8827
:109920006BB34B689B0728D12DE9F043B1F8089041
:1099300009F103039BB240F2FD32934283B020D879
:109940003B4A15783DB9578914893C441C44A4B25C
:10995000B4F5806F17D3147D3CB9D78B948B3C44FE
:109960001C44A4B2B4F5806F5BD3072003B0BDE8FC
:10997000F0830220704705207047032070470420C1
:1099800070470920F2E7A846AC464FEA8C056544CB
:1099900002EB85053B4406460C4626486B8101A92F
:1099A00000F054FA1C220746002108F06FF857B364
:1099B00000250323A7F814803B70BD7563683B61E5
:1099C00001211D4800F068FBF86023883B81638813
:1099D000BB800423A7F80690BB753368BB6101A95F
:1099E0007D81144800F05EFA7560FA68134B3260AE
:1099F0001B89B57233810121114800F041FB0446F7
:109A000058B12846B2E76B89C9F57F4909F1FD09CC
:109A10009944A5F80A900820A8E7FFF76DF82046BA
:109A2000A4E74FF00108C446AFE700BF08280020B4
:109A30002C280020E02800202428002010280020C6
:109A4000F0280020184B1B7823B34FF6FF73984281
:109A50001ED070B582B001A90446144800F0F6F992
:109A60001C220546002108F011F8ADB1052301269E
:109A7000EC8001A92B702E710C4800F013FA3146CE
:109A80000B4800F0FDFA044648B1002002B070BD5A
:109A90000420704702207047082002B070BDFFF715
:109AA0002BF8204602B070BD08280020E0280020D6
:109AB000F0280020194B1B78EBB110B582B001A93A
:109AC000174800F0C3F91C220446002107F0DEFF0E
:109AD0000CB30623237001A9114800F0E3F9114BE0
:109AE0001A7852B90121104800F0CAFA044668B148
:109AF000002002B010BD02207047012201210A4857
:109B00001A7300F0BDFA04460028F1D1FEF7F4FF05
:109B1000204602B010BD082002B010BD0828002069
:109B2000E028002010280020F02800202DE9F04334
:109B3000344C2478002C60D03AB333B39F88012F83
:109B40005ED8314C07EB870C013704EB8C0CBFB2AD
:109B50004FF6FF7E4FF000089CF8004074B91C6877
:109B6000DCF8045005F58056002C43D06588033599
:109B700004EB8504B4420BD3C3F80080022F9F800E
:109B80000CF1140C3CD00227E6E70520BDE8F08379
:109B900025680135F0D06588033504EB8505AE42B4
:109BA000EAD3B4F80490F14515D0B4F80090B9F1B7
:109BB000000F10D01C60A5888542D1D125888D4228
:109BC000CED1A16811601968104B51601B891381B7
:109BD0000020BDE8F083AE42CED92C6801342C467B
:109BE000CAD0B5F8029009F1030905EB8905AE4228
:109BF000D7D2C1E705F10804BCE70220BDE8F08335
:109C00000A20C3E7082800202C2800201028002064
:109C1000334B1B78002B5CD051B34AB32DE9F04194
:109C20009588012D5AD82F4F05EB850307EB830745
:109C300001353B78ADB24FF6FF7C4FF0000E43B1DB
:109C4000022D958007F1140748D03B780225002BA0
:109C5000F6D113687C6804F58056002B3BD05C88F5
:109C6000033403EB8403B34204D3C2F800E0E7E714
:109C7000052070471C680134F7D05C88033403EB7F
:109C80008404A642F1D3B3F80480E04512D0B3F8BF
:109C90000080B8F1000F0DD013601C888442D9D128
:109CA0009B680B601268104B4A601B890B81002077
:109CB000BDE8F081A642D8D9236801332346D4D029
:109CC000B4F8028008F1030804EB8804A642DAD253
:109CD000CBE70220704704F10803C4E70A20E7E756
:109CE000082800202C28002010280020334B1B7847
:109CF000002B5CD051B34AB32DE9F0419588012D7A
:109D00005AD82F4F05EB850307EB830701353B78C6
:109D1000ADB24FF6FF7C4FF0000E43B1022D95809F
:109D200007F1140748D03B780225002BF6D11368C1
:109D30007C6804F58056002B3BD05C88033403EB31
:109D40008403B34204D3C2F800E0E7E7052070477C
:109D50001C680134F7D05C88033403EB8404A6420A
:109D6000F1D3B3F80480E04512D0B3F80080B8F125
:109D7000000F0DD013609C888442D9D19B680B6082
:109D80001268104B4A601B890B810020BDE8F081EE
:109D9000A642D8D9236801332346D4D0B4F8028030
:109DA00008F1030804EB8804A642DAD2CBE70220CC
:109DB000704704F10803C4E70A20E7E708280020F9
:109DC0002C2800201028002020B119B103680B6056
:109DD000002070470520704799B110B4B2FBF3F42E
:109DE00003FB1424A4B244B9C0E900148460828146
:109DF000C38120465DF8044B704709205DF8044B91
:109E000070470E20704700BF82B050E8022FC18813
:109E1000B2EB324F4FF0000317BF92B241EA01415B
:109E200042EA014104E04268B2EB324F08BF01232D
:109E300040E80212002AE8D18DF807309DF807307B
:109E4000002B0CBF1120002002B0704730B482B04C
:109E500050E8013F9DB2C48925448489A54228BFAA
:109E60002D1B0489A54202BFBFF32F8F002207E0FC
:109E7000C5EA030540E80154002CE9D14FF0010286
:109E80008DF803200193019B9DF803200B602AB1FC
:109E90000B880068184402B030BC704702F0FF0322
:109EA0001846F8E70A884B889A4201D0002070478C
:109EB00050E8012FC2EA024240E80123002BF7D10B
:109EC0000120704730B482B050E8023F1FFAA3F57A
:109ED000C488A54202BFBFF32F8F00220DE0C489C2
:109EE00025448489A54228BF2D1BC3EA054540E8C7
:109EF0000254002CE8D14FF001028DF803200193A9
:109F0000019B9DF803200B602AB14B880068184420
:109F100002B030BC704702F0FF031846F8E700BFFC
:109F20000A884B889A4201D00020704750E8022FDF
:109F3000C2EA224240E80223002BF7D101207047F9
:109F400001F01F024B09012100EB8300914000F05A
:109F50007FB800BF10B5012301F01F04490900EBD1
:109F6000810003FA04F100F067F8E04000F001001E
:109F700010BD00BF01F01F0201234909934000EB0F
:109F80008100D94300F070B84B0901F01F0150F86F
:109F90002300C84000F00100704700BF2DE9F84FD2
:109FA00001F1FF394FEA591300F104090F46064643
:109FB00009EB8309044600254FF0010823686FEA86
:109FC000030B9BFAABFBBBFA8BFBBBF1200F20D042
:109FD000AB445F450CD81CE02368DB4393FAA3F342
:109FE000B3FA83F3202B05EB030B12D05F4510D996
:109FF0000BF01F0A4FEA5B1008FA0AF106EB80002B
:10A0000000F01AF820FA0AF0C307E5D45846BDE874
:10A01000F88F04344C4505F12005CFD1BB46584696
:10A02000BDE8F88F50E8002F0B4640E8003C9CF05C
:10A03000000FF7D11046704750E8002F42EA0103A5
:10A0400040E8003C9CF0000FF6D11046704700BF7E
:10A0500050E8003F43EA010240E8002C9CF0000F6A
:10A06000F6D11046704700BF50E8003F03EA0102F6
:10A0700040E8002C9CF0000FF6D11046704700BF5E
:10A0800050E8002F02EB010340E8003C9CF0000F79
:10A09000F6D11046704700BF50E8003F03EB0102C5
:10A0A00040E8002C9CF0000FF6D11046704700BF2E
:10A0B00050E8003FA3EB010240E8002C9CF0000FA9
:10A0C000F6D11046704700BF012350E800CF4CEA9C
:10A0D000030240E8002191F0000FF6D1604670477E
:10A0E00020B119B101600B68114618470E20704766
:10A0F00050B32DE9F0414AB3D0F800E0BEF1000FB3
:10A1000027D01D4673B14768D7F80480B3FBF8F732
:10A1100008FB173737B942EA0104A40705D010201D
:10A12000BDE8F0810920BDE8F081C468A142F6D302
:10A1300001F1FF3C04696544A542F0D8DEF80C400B
:10A14000A446BDE8F04160470E2070470E20BDE8F0
:10A15000F0810820BDE8F08100B3F0B5D0F800C070
:10A16000BCF1000F1CD0AAB14768D7F800E00EF18F
:10A17000FF370F4210D1C768B9420DD34D1E046995
:10A180000EFB0255A54207D8DCF81040A446BDE8F6
:10A19000F04060470920F0BD1020F0BD0E20704750
:10A1A0000820F0BD29DF704728DF70470846704758
:10A1B00000207047024B187A003018BF012070470A
:10A1C000A8290020034B187A0122B0FA80F05A74B3
:10A1D00040097047A829002008B510461A4607F024
:10A1E000BBFB002008BD00BF08B5142200210448B5
:10A1F00007F04CFC0348FFF707FE002008BD00BF36
:10A20000A82900209829002010B5094C094B43606B
:10A210002046FFF759FF40B907F016FA1C232074B7
:10A220008C2205490548FFF7D7FD002010BD00BF6F
:10A23000A8290020AC2603000C2900209829002022
:10A2400030B55E4C237A87B0002B3AD05C4B1B684C
:10A25000022222721A79002A3ED0012A0CD1D3E9B7
:10A2600003021044FFF7A0FF002849D0112803D1B2
:10A270000123237207B030BD19688A68C2B1002279
:10A2800068460092C0E902220325026101959A689E
:10A2900005921A79002A4BD0012A07D102228DF8A3
:10A2A0000020DA68120302925B6904938B68984776
:10A2B00000234449444823726360FFF731FE07B02E
:10A2C00030BD40494048FFF7FDFD3D4A0346106060
:10A2D0000028BDD16060F2E7D3E90525521BB2F535
:10A2E000805F28BF4FF48052D3E903109208012AFF
:10A2F00038BF012229442844FFF754FF0028B5D174
:10A30000227C002ADBD1227A002AD8D0022A0AD164
:10A31000E0601A79DAB1012A05D1D3E904210132CA
:10A320008A421A611FD0637C73B107F07DF9C6E7DA
:10A3300001228DF800201A690292DA6803925B69A3
:10A3400004938B689847B3E7FFF77AFFB7E7D3E941
:10A350000512881AB0F5805F94BF121802F580527A
:10A3600091429A61DFD10022227219688868A8B1EF
:10A3700068460092C0E90122C0E903229A6805926A
:10A380001A7982B1012A07D102228DF80020DA68F9
:10A39000120302925B6904938B68984709490A4843
:10A3A000FFF7BEFDBFE701228DF800201A69029277
:10A3B000DA6803925B690493EEE700BFA8290020E6
:10A3C000C0290020BC290020982900202DE9F04751
:10A3D00082B082468946174801A990461F46FFF77A
:10A3E00035FD10B3044600211C220D46124E07F025
:10A3F0004DFB0A9BC4F800A0A360C4E90389676110
:10A4000001A925710B48FFF74DFD301DFFF75CFEDC
:10A4100038B9747C34B9FFF713FF204602B0BDE8A9
:10A42000F087284602B0BDE8F087042002B0BDE8FE
:10A43000F08700BF98290020A82900202DE9F043CB
:10A4400083B081460D46164801A917469846FFF786
:10A45000FDFC08B304461C22002107F017FB114E37
:10A46000C4F8009001232D0BC4E90285676101A99E
:10A4700023710B48FFF716FD301DFFF725FE38B995
:10A48000747C34B9FFF7DCFE204603B0BDE8F083EE
:10A49000002003B0BDE8F083042003B0BDE8F083E2
:10A4A00098290020A829002000F0FD03012B00D0EE
:10A4B000704730B5604CA0F10100B0FA80F0237A0B
:10A4C0004009002287B020746274002B3AD05B4BA5
:10A4D0001B68022222721A79002A3ED0012A0CD16E
:10A4E000D3E903021044FFF75FFE002849D011288A
:10A4F00003D10123237207B030BD19688A68C2B145
:10A50000002268460092C0E90222032502610195FB
:10A510009A6805921A79002A4BD0012A07D10222A3
:10A520008DF80020DA68120302925B6904938B684D
:10A53000984700234249434823726360FFF7F0FCC9
:10A5400007B030BD3E493F48FFF7BCFC3B4A0346DD
:10A5500010600028BDD16060F2E7D3E90525521BE9
:10A56000B2F5805F28BF4FF48052D3E90310920800
:10A57000012A38BF012229442844FFF713FE00288E
:10A58000B5D1227C002ADBD1227A002AD8D0022A37
:10A590000AD1E0601A79CAB1012A05D1D3E90421B0
:10A5A00001328A421A611DD0637C63B107F03CF826
:10A5B000C6E701228DF800201A690292DA68039238
:10A5C0005B690493B3E7FFF73BFEB9E7D3E90512F4
:10A5D000881AB0F5805F94BF121802F5805291423C
:10A5E0009A61E1D10022227219688868A8B1684690
:10A5F0000092C0E90122C0E903229A6805921A7903
:10A6000082B1012A07D102228DF80020DA681203F4
:10A6100002925B6904938B68984709490948FFF7E0
:10A620007FFCC1E701228DF800201A690292DA68E6
:10A6300003925B690493EEE7A8290020C02900205B
:10A64000BC29002098290020831E012B00D97047C7
:10A6500030B58E4C237A87B0002B31D0022B2BD112
:10A6600003286BD1E3680133082B79D9884B00228A
:10A670001B68E26022720D2519688A68C2B1002247
:10A6800068460092C0E90222026101959A6805922B
:10A690001A79002A00F0B980012A07D102228DF828
:10A6A0000020DA68120302925B6904938B68984772
:10A6B00078497948FFF734FC637C1BB106F0B4FF9E
:10A6C00007B030BD237A002B5BD0714B1B68022290
:10A6D00022721A79002A5FD0012A0BD1D3E9030232
:10A6E0001044FFF761FD002869D0112802D1012331
:10A6F0002372E5E719688A68C2B1002268460092B1
:10A70000C0E902220325026101959A6805921A792F
:10A71000002A70D0012A07D102228DF80020DA68C1
:10A72000120302925B6904938B689847002359498E
:10A73000594823726360FFF7F3FBC1E7544B0022D3
:10A740001B68E2601A796AB1012AB5D1D3E9042104
:10A7500001328A421A6111D0637C002BAED1B4E77A
:10A76000E360F9E7D3E90512881AB0F5805F94BF7A
:10A77000121802F5805291429A61EDD1002525729E
:10A780007AE744494448FFF79DFB414A034610607D
:10A7900000289CD1606093E7D3E90525521BB2F5F0
:10A7A000805FD3E9031028BF4FF480529208012A3A
:10A7B00038BF012229442844FFF7F4FC93E7227CA8
:10A7C000002A7FF47DAF227A002A3FF479AF022A73
:10A7D0000AD1E0601A7912B3012A05D1D3E9042124
:10A7E00001328A421A6126D0637C002B7FF466AF67
:10A7F000FFF726FD64E701228DF800201A69029216
:10A80000DA6803925B6904938EE701228DF80020D9
:10A810001A690292DA6803925B69049346E7D3E906
:10A820000512881AB0F5805F94BF121802F58052A5
:10A8300091429A61D8D10022227219688868A8B121
:10A8400068460092C0E90122C0E903229A68059295
:10A850001A7982B1012A07D102228DF80020DA6824
:10A86000120302925B6904938B68984709490A486E
:10A87000FFF756FBB8E701228DF800201A69029213
:10A88000DA6803925B690493EEE700BFA829002011
:10A89000C0290020BC2900209829002041DF7047F2
:10A8A000064A074B10B5002414701C60BFF35F8F7D
:10A8B0000449054800F032F8204610BDCC2900209C
:10A8C000D0290020D8260300C429002000B583B079
:10A8D00002A8002300F8013DFDF7E6FFF1EE103A73
:10A8E00023F09F03E1EE103ABFF35F8F0A4B402243
:10A8F000C3F884219DF80700FDF7FCFF06F0A4FED5
:10A9000028B920BF40BF20BF03B05DF804FBFFF7AC
:10A91000C5FF03B05DF804FB00E100E001600B68D7
:10A9200043604A68934204BF00234360704700BFFE
:10A93000436843B1026891680B4443605268934294
:10A9400004BF0023436070470A7B10B4D1E9004381
:10A95000002A0ABF234600220122027103605DF82B
:10A96000044B7047BFF34F8F0549064BCA6802F48A
:10A97000E0621343CB60BFF34F8F00BFFDE700BF22
:10A9800000ED00E00400FA0538B5B34B1B78062B48
:10A9900024D0B24B1B68062B00F08980B04AD2F855
:10A9A000883043F47003C2F88830BFF34F8FBFF391
:10A9B0006F8F4FF01023D3F80C22D20700F1B08133
:10A9C000D3F80022002AC0F28581D3F80432002B8C
:10A9D000C0F28081A34BA44A1A6038BDA34B1B6808
:10A9E0001B07D6D1A24B1B6803F0F002302A00F0FF
:10A9F0009D8003F0E003402B00F098809C4B1B6887
:10AA000003F0F003302B00F01881994B1B6803F022
:10AA1000F002302A7AD003F0E003402B76D0944B3A
:10AA20001B6803F0F003302B00F04481904B1B684F
:10AA300003F0F002302A56D003F0E003402B52D04E
:10AA40008B4B1B6803F0F003302B00F0E880884B41
:10AA50001B6803F0F003302B00F0CA80844B1B68A6
:10AA600003F0F003502B71D0814B1B6803F0F00210
:10AA7000302A27D003F0E003402B23D07C4B1B6807
:10AA800003F0F002302A03D003F0E003402B80D122
:10AA90004FF08043D3F80024D10744BF6FF0010288
:10AAA000C3F800246D4B1B68062B7FF477AF714B06
:10AAB0001B68062B7FF472AF6F4A136843F4806300
:10AAC00013606BE76D4B6E4A1B6803F04F03136016
:10AAD000614B1B78062B7FF45CAF644B1B68180737
:10AAE0007FF457AFCAE74FF080430022C3F80C2130
:10AAF000C3F81021C3F83825574B1B78062BE7D134
:10AB00005A4B1B681A077FF444AF99E75D4B524AD2
:10AB10001B6812785C49C3F34233062A0B6073D179
:10AB2000524B1B6818077FF434AF78E7574B4A4AFB
:10AB30001B6812785649C3F30423062A0B60DBD145
:10AB40004A4B1B681D077FF424AF57E74FF0805333
:10AB5000504AD3F80414C2F82015D3F80814C2F8E8
:10AB60002415D3F80C14C2F82815D3F81014C2F821
:10AB70002C15D3F81414C2F83015D3F81814C2F8F1
:10AB80003415D3F81C14C2F84015D3F82014C2F8B9
:10AB90004415D3F82414C2F84815D3F82814C2F881
:10ABA0004C15D3F82C14C2F85015D3F83014C2F851
:10ABB0005415D3F83414C2F86015D3F83814C2F819
:10ABC0006415D3F83C14C2F86815D3F84014224831
:10ABD000C2F86C15D3F844140378C2F87015062B2C
:10ABE0007FF4D7AE214B1B681C077FF4D2AE3BE746
:10ABF000294A2A4C2A492B4B0520106001250020A8
:10AC00003F22256008601A60134B1B78062B7FF4E7
:10AC1000C0AE164B1B681D077FF4BBAE1EE70E4B84
:10AC2000214A1B780321062B11607FF4B2AE0F4B33
:10AC30001B681B077FF4ADAE09E7074B1B4A1B7867
:10AC40001B491160062B7FF4A4AE084B1B681C0740
:10AC50007FF49FAED9E600BFE00F00F03001001096
:10AC600000ED00E07C2200200090D003E40F00F013
:10AC7000E80F00F0340100103C17004058020010AB
:10AC8000E40E0040440200103C0500402403001084
:10AC90004035014000C0004010560040885600403A
:10ACA0001856004014560040A005004074C00740EC
:10ACB0000DF0ADBA29492A4BCA681B7822F0807280
:10ACC000062BCA607FF465AE264B1B6819077FF41C
:10ACD00060AEABE6244A0123C2F80435D2F8003452
:10ACE000002BFBD04FF0102315211F4AC3F8001290
:10ACF000D2F80034002BFBD04FF0102315211A4A54
:10AD0000C3F80412D2F80034002BFBD000231649FC
:10AD1000C2F80435D1F80034002BFBD0FFF722FE37
:10AD2000114B0122C3F80425D3F80024002AFBD0DC
:10AD30004FF010210C4BD1F80C2222F00102C1F887
:10AD40000C22D3F80024002AFBD00021064AC3F8C5
:10AD50000415D2F80034002BFBD0DFE7F0ED00E063
:10AD6000E00F00F0E40F00F000E0014010B570B11A
:10AD700001280BD10D4C2369A0703BB1D3E900230E
:10AD80000120226198472369002BF7D110BD074CA1
:10AD9000A36801226270002BF8D0D3E900230020C1
:10ADA000A2609847A368002BF7D1EFE7D4290020D1
:10ADB00070B910B5074CA368012262703BB1D3E9AA
:10ADC00000230020A2609847A368002BF7D110BD94
:10ADD000704700BFD429002030B5012883B01CD0B3
:10ADE00015D3032811D100F0BDF802A800231F4C91
:10ADF00000F8013DFDF758FDE368013BE360E568BD
:10AE000065B39DF80700FDF775FD03B030BD184B25
:10AE10000122C3F8802003B030BD02A80023134CE8
:10AE200000F8013DFDF740FD237853B1E3689DF83C
:10AE3000070001330122E360A270FDF75BFD03B060
:10AE400030BD0C486360A3602361E36000F07CF8D0
:10AE500006F0FAFB30B101232370E7E700F096F823
:10AE6000A570CEE700F07EF8F5E700BFD4290020FA
:10AE700000E100E06DAD020030B587B005784468B0
:10AE80008DF8045002948568084A094B8DF80C50DF
:10AE9000D0E9034053F821308DF81400049452F89F
:10AEA000211001A8984707B030BD00BFE829002055
:10AEB000F42900202DE9F04306461F4C16F8047BC8
:10AEC0001E4844F8273015460C460FC8DFF870E0DE
:10AED000DFF870C04EF8275085B0002D6D4685E82C
:10AEE0000F00237894F8019094F8028094F803E01E
:10AEF0008DF8003029463B46257B67798DF8019017
:10AF000018BF6246304694F804C0A668647B8DF88A
:10AF1000028008BF00228DF803E08DF805C08DF88F
:10AF2000067002968DF80C508DF80D4000F02AFD49
:10AF300005B0BDE8F08300BFE8290020E426030047
:10AF4000F429002079AE0200054A13792BB90121BA
:10AF5000106053711846117170478520704700BF0B
:10AF6000002A0020084B1A68D20706D40122C0210B
:10AF700083F80013C3F880211A604FF08043012248
:10AF8000C3F81825704700BF00E100E0044B012220
:10AF90001A604FF08042D2F81834DB03FBD47047BC
:10AFA0000C00004010B5154B1A6882B07AB1002130
:10AFB000134A19601B68507900934FF080410123B8
:10AFC000009CC1F8083310B91168537188470D4BC4
:10AFD0001A6882B100221A601B6801934FF0804208
:10AFE0000221074B0198C2F808131B68012002B028
:10AFF000BDE81040184702B010BD00BF000100407E
:10B00000002A00200401004070B51E4C94F85850EE
:10B0100082B0A5BB4FF0FF332946042204F154004F
:10B02000C4E90033C4E90233C4E90433C4E9063394
:10B03000C4E90833C4E90A33C4E90C33C4E90E3364
:10B04000C4E91033C4E91233236506F01FFD0E4B2B
:10B050000E4A0F4E1560C02183F806134021C3F835
:10B06000801119601368019301994FF00043012288
:10B07000284684F85820C6F8043302B070BD082072
:10B0800002B070BD082A002000E100E07C610040B1
:10B0900000600040034B93F85800003018BF0120B7
:10B0A000704700BF082A0020F0B56C4B1C1894F9BB
:10B0B0003050002D68DA8E78C6F340069646002E92
:10B0C0005CD11D6A013500F0B58009240C2553F8C8
:10B0D000247001375BD004F1010C53F82C70013758
:10B0E00000F0B380A71CAF4246D253F827200132AC
:10B0F00000F0AD8004F1030CAC453DD253F82C7048
:10B10000013700F0A28004F1040CAC4534D253F8AE
:10B110002C70013700F0998004F1050CAC452BD25E
:10B1200053F82C70013700F0908004F1060CAC4508
:10B1300022D253F82C70013700F0878004F1070CFD
:10B14000AC4519D253F82C7001377ED004F1080CAD
:10B15000AC4511D253F82C70013776D004F1090CAC
:10B16000AC4509D253F82C7001376ED00A34AC428A
:10B1700002D2DC6A013409D00420F0BD1D6801351B
:10B1800067D001240825A2E70820F0BD0B241F1872
:10B1900065B243F824E087F83050002E51D08A7809
:10B1A000540714D4D6073BD44C784FF0A04600F592
:10B1B000E072A40046F82240294EC40800F0070CB3
:10B1C000375D012202FA0CF23A4332558A780C7844
:10B1D00012F0020209D1083D2B44104693F850208A
:10B1E00042EA841483F85040F0BDAB0003F1804381
:10B1F00003F5C0430202D3F8101521F4473121F4BE
:10B200004071C3F810152404D3F8101504F4403429
:10B2100002F4F85222430A43C3F810250020F0BD7F
:10B22000820002F1A042D2F8004724F00204C2F8E2
:10B230000047C1E7082684F83060C3F820E03546AF
:10B2400034461C4484F84800A9E764469FE73C461E
:10B250009DE700251A6084F83050A0E7082A0020F6
:10B260005C2A002070B42E4D2E1883B096F9303031
:10B27000072B1CDD2B4493F848309B09032B41D04E
:10B28000012B14BF4FF440314FF40031800000F126
:10B29000A040D0F8002722F44032C0F80027D0F8B0
:10B2A00000370B43C0F8003703B070BC7047DAB208
:10B2B000072AF9D8980000F1804000F5C04003F15A
:10B2C0004002D0F81045920092B244F0010402F11D
:10B2D0008042C0F8104502F5C04200200190019C58
:10B2E00010600029E0D096F9302055F82220002A7D
:10B2F000DAD001220B4902FA03F3C1F8043303B098
:10B3000070BC70474FF0A043D3F81035C34013F022
:10B31000010F0CBF4FF400314FF44031B6E700BFCE
:10B32000082A002000600040164B034493F9303097
:10B33000072B18DCDAB2072A14D810B49A0002F1ED
:10B34000804202F5C042104CD2F81005012120F0D5
:10B35000010001FA03F3C2F81005C4F808335DF8E0
:10B36000044B70477047800000F1A040D0F80037D0
:10B3700023F44033C0F80037D0F80037C0F8003766
:10B38000704700BF082A0020006000402DE9F0410E
:10B3900086B00023A14A01931168012900F054816D
:10B3A0001E469F4B1A68012A00F05E819D4B1A6869
:10B3B000012A00F06B819C4B1A68012A00F0788109
:10B3C0009A4B1A68012A00F08581994B1A68012A64
:10B3D00000F09281974B1A68012A00F09F81964BEA
:10B3E0001A68012A0CD0954B1B68012B00F0A48130
:10B3F00016F0FF0F15D1002E30DB06B0BDE8F0814E
:10B400008F4AD2F804231706EDD500221A601A6875
:10B4100004926033049A1B68012B46F0800600F00A
:10B420008B81884F01250024A30003F1804335421E
:10B4300003F5C0434FEA45050BD0D3F8100557F884
:10B440002420D3F81015C0F30420C1F3014102B148
:10B4500090470134082CE7D1002ECEDA00224FF0BD
:10B46000FF33CDE90223774C012602AF94F9503027
:10B470005D1C2CD0DBB223F0C00006AA4FEAD00C32
:10B4800002EB0C0E03F007021EF80C1C06FA02F287
:10B4900011421CD02518990995F9303054F8233001
:10B4A000002B00F09781032900F097814FEA800C70
:10B4B0000CF1A04C1EF8145CDCF800E71540CEF34C
:10B4C000014E40F05B81BEF1030F00F0DD810025ED
:10B4D00094F95130581C2DD0DBB223F0C00006AADD
:10B4E0004FEAD00802EB080E03F007011EF80C2CFF
:10B4F00006FA01FC12EA0C0F1CD02218990992F9E5
:10B50000303054F82330002B00F05A81032900F02A
:10B510005A81820002F1A0421EF8148CD2F800E792
:10B5200018EA0C0FCEF3014E40F03581BEF1030F47
:10B5300000F0A58194F95230591C2DD0DBB223F0D4
:10B54000C00006AA4FEAD00802EB080E03F007017C
:10B550001EF80C2C06FA01FC12EA0C0F1CD0221863
:10B56000990992F9303054F82330002B00F03B81D8
:10B57000032900F03B81820002F1A0421EF8148CE6
:10B58000D2F800E718EA0C0FCEF3014E40F0E2804B
:10B59000BEF1030F00F06D8194F953305A1C2DD089
:10B5A000DBB223F0C00006AA4FEAD00802EB080E77
:10B5B00003F007011EF80C2C06FA01FC12EA0C0F2E
:10B5C0001CD02218990992F9303054F82330002BFE
:10B5D00000F0EC80032900F0EC80820002F1A04230
:10B5E0001EF8148CD2F800E718EA0C0FCEF3014EC7
:10B5F00040F0BB80BEF1030F00F0FF80002D3FF450
:10B60000FCAE4FF0A043019AD3F8103593423FF4BB
:10B61000F4AE029A0193039228E700BF0061004054
:10B6200004610040086100400C610040106100406E
:10B6300014610040186100401C6100407C610040C2
:10B6400000600040082A00209A49D1F8046316F0EF
:10B6500001063FF4A6AE136013680493049B964B57
:10B660001A68012A7FF4A2AE924AD2F804239707FF
:10B670007FF59CAE00221A601B680493049B8F4BDD
:10B680001A68012A46F002067FF495AE894AD2F87C
:10B69000042355077FF58FAE00221A601B680493C0
:10B6A000049B874B1A68012A46F004067FF488AE93
:10B6B000804AD2F8042314077FF582AE00221A6074
:10B6C0001B680493049B7F4B1A68012A46F0080606
:10B6D0007FF47BAE774AD2F80423D0067FF575AEAF
:10B6E00000221A601B680493049B774B1A68012A96
:10B6F00046F010067FF46EAE6E4AD2F8042391062F
:10B700007FF568AE00221A601B680493049B6F4BA0
:10B710001A68012A46F020067FF461AE654AD2F825
:10B72000042352067FF55BAE00221A601B68049367
:10B73000049B46F0400652E6654B00221A601B68E7
:10B7400005934FF0A043059AD3F81035019346F0C6
:10B7500000464DE6BEF1020F7FF41EAF032963D011
:10B76000002B3FF419AF984716E7BEF1020F7FF4A4
:10B7700045AF032969D0002B54D13FE7BEF1020F3A
:10B780007FF4A5AE032900F091800025002B3FF443
:10B790009FAE98479CE6BEF1020F7FF4CBAE032923
:10B7A00056D0002B3FF4C6AE9847C3E603297FF47A
:10B7B00025AF17F8082042EA0C0207F808200CE72A
:10B7C00003297FF4B7AE17F8082042EA0C0207F805
:10B7D00008209EE603297FF47AAE17F80C50154333
:10B7E00007F80C5062E603297FF4D6AE17F808205C
:10B7F00042EA0C0207F80820BDE60329BBD14FF44A
:10B80000003ED2F800C72CF4403CC2F800C7D2F882
:10B8100000C701354CEA0E0CEDB2C2F800C7002B90
:10B820003FF4EFAE9847E9E64FF4403ED2F800C748
:10B830002CF4403CC2F800C7D2F800C701354CEAEE
:10B840000E0CEDB2C2F800C78AE74FF4403ED8E7CD
:10B850004FF4403ED2F800C72CF4403CC2F800C779
:10B86000D2F800C701354CEA0E0CEDB2C2F800C7A1
:10B8700097E703297FF474AF4FF4003ED6E703291E
:10B880008FD14FF4003EE5E703297FF47FAF4FF4FB
:10B890000035DCF8002722F44032CCF80027DCF831
:10B8A00000272A43CCF8002701256FE74FF44035E5
:10B8B000EFE700BF00600040046100400861004005
:10B8C0000C610040106100401461004018610040AC
:10B8D0007C610040014B1B68184700BF642A0020B0
:10B8E000104B984201D00020704730B583B002A8B9
:10B8F000002300F8013D0D46FCF7D6FF0A4B1C79EA
:10B9000034B19DF80700FCF7F5FF112003B030BDFE
:10B9100001229DF807001D601A71FCF7EBFF20461D
:10B92000F4E700BF00200040642A0020124AD2F849
:10B930001831E3B10021114BC2F81811D2F81811D7
:10B94000DA7F82B0FF2A0191019908D0987F012106
:10B9500001FA02F24FF0A04150B1C1F80C250022CB
:10B960005A771A72D3E90021054802B01047704790
:10B97000C1F80825F3E700BF003000406C2A002022
:10B98000742A00202DE9F04F0579DFF8F4814FEAA1
:10B99000C50909EB0506B60008EB060B83B09BF85A
:10B9A0001C70002F40F0C5809A46036801920C4637
:10B9B0000746714900931846FFF792FF002840F0B0
:10B9C000BC80019A48F80620CBF804A0217B94F8AB
:10B9D00000C0009B01294FF0A0464FF0010101FA81
:10B9E0000CF194BFC6F80C15C6F8081521784FF075
:10B9F000A04C01F5E07101264CF821606178FF2927
:10BA000000F0A88001F5E07E8E404FF0030ACCF8EC
:10BA10000C654CF82EA094F802C0BCF1FF0F00F0AA
:10BA200096800CF5E07E4FF0A0464FF0040A46F8F1
:10BA30002EA0E64694F802C009EB050608EB860640
:10BA400086F820C094F803C086F81FC0E678FF2E61
:10BA50001DD094F804A04FF0010C0CFA06F64FF03C
:10BA6000A04CBAF1000F6CD1CCF80865E6784FF025
:10BA7000A04C06F5E0764FF0030A4CF826A009EB3F
:10BA8000050608EB860694F804C086F81EC02678E2
:10BA9000C3F80865C3F80C15C3F810E5A168C3F82E
:10BAA0002415617B267B003118BF0121022E60D056
:10BAB000032E49D0012E01D141F00201C3F85415E3
:10BAC000A179C3F8C015002A47D040210722C3F846
:10BAD0000413C3F8002539686379090B4AB2002AB8
