:020000022000DC
:106000000000012081840200A9840200AB84020008
:10601000AD840200AF840200B184020000000000E1
:10602000000000000000000000000000B384020037
:10603000B584020000000000B7840200B9840200A9
:10604000E9C80200BB84020079CE020029DA02000E
:10605000BB840200BB84020055CC020075800200A4
:10606000BB840200BB840200BB840200BB8402002C
:10607000BB840200BB840200BB840200BB8402001C
:10608000BB840200C19B0200BB840200BB840200EF
:10609000E99B0200BB8402009D320300BB84020026
:1060A000BB840200BB840200BB840200BB840200EC
:1060B000BB840200BB84020000000000000000005E
:1060C000BB840200BB840200BB840200BB840200CC
:1060D000BB840200BB840200BB84020000000000FD
:1060E00000000000000000000000000000000000B0
:1060F00000000000000000000000000000000000A0
:10610000000000000000000000000000000000008F
:10611000000000000000000000000000000000007F
:10612000000000000000000000000000000000006F
:10613000000000000000000000000000000000005F
:10614000000000000000000000000000000000004F
:10615000000000000000000000000000000000003F
:10616000000000000000000000000000000000002F
:10617000000000000000000000000000000000001F
:10618000000000000000000000000000000000000F
:1061900000000000000000000000000000000000FF
:1061A00000000000000000000000000000000000EF
:1061B00000000000000000000000000000000000DF
:1061C00000000000000000000000000000000000CF
:1061D00000000000000000000000000000000000BF
:1061E00000000000000000000000000000000000AF
:1061F000000000000000000000000000000000009F
:106200000348044B834202D0034B03B11847704745
:10621000202300202023002000000000054806491C
:10622000091A891001EBD171491002D0034B03B157
:106230001847704720230020202300200000000082
:1062400010B5064C237843B9FFF7DAFF044B13B1BE
:106250000448AFF300800123237010BD34230020D5
:1062600000000000B46C030008B5044B1BB10449E6
:106270000448AFF30080BDE80840CFE7000000000D
:1062800038230020B46C0300134B002B08BF114BC4
:106290009D46A3F5803A00218B460F461148124ACD
:1062A000121A0DF0B1FA0D4B002B00D098470C4B91
:1062B000002B00D098470020002104000D000B485F
:1062C0000DF060F90DF092F92000290000F07CFE3D
:1062D0000DF05EF900000800000001200000000041
:1062E000000000003423002008360020B9350300E8
:1062F00076DF704777DF704778DF70477ADF704767
:106300007CDF70478FDF7047B1DF704733DF704746
:106310000346012005E0044AA2FB0323DB08013009
:1063200080B2092BF7D87047CDCCCCCC014B0122E1
:106330001A70704750230020014B01221A707047D9
:1063400051230020014B01221A707047882600203B
:10635000014B01221A707047902600200B4B1B78CE
:106360004BB94FF0A0434FF40072C3F80825074B18
:1063700001221A7070474FF0A0434FF40072C3F827
:106380000C25024B00221A70704700BF52230020D8
:106390004FF0A0430322C3F83027C3F82827C3F8DF
:1063A00024274FF48052C3F808254FF48062C3F8C5
:1063B00008254FF40072C3F808250C22C3F83427CF
:1063C0007047000008B54FF0A043D3F8342722F4FB
:1063D0004032C3F83427D3F8342742F44032C3F8AC
:1063E00034274FF48052C3F808254FF48062C3F875
:1063F00008254FF40072C3F80825FFF787FF00B99E
:1064000008BD034A40F2B22103F07CF8F8E700BF70
:10641000F445030008B5034A4FF4E67103F072F83F
:1064200008BD00BFF445030008B5034A40F28A21C5
:1064300003F068F808BD00BFF445030008B5037811
:1064400003B108BD3B21064B1888FFF751FF002818
:10645000F7D0044A4FF4217103F054F8F1E700BF7C
:1064600024220020F445030008B5094B1B880A4686
:106470000146084801F09CFD082802D0132800D0EE
:1064800000B908BD044ABE2103F03CF8F9E700BF9B
:106490002422002028220020F445030010B584B0F7
:1064A00004461948194BC01AC0080004226818494C
:1064B00040F0030002F0D2FB23680222ADF8022074
:1064C00063B90322ADF8022008E0124AA2FB0323BD
:1064D000DB08BDF802200132ADF80220002BF4D118
:1064E00005238DF8043000238DF805300A220DF1C4
:1064F000060120680DF09EF80DF1020101A8FFF7DA
:10650000B3FF04B010BD00BF8C6D0300546D0300D9
:10651000B4450300CDCCCCCC00B583B005238DF8B9
:10652000043002238DF8053002A921F8063D01A8A8
:10653000FFF79AFF03B05DF804FB000008B54A8836
:106540000C4B1B889A4200D008BD0A8840F677237E
:106550009A42F9D18A88033A92B20748074BC01A87
:10656000C00800041346064940F0030002F004FC92
:10657000EAE700BF242200208C6D0300546D030065
:106580009443030008B54FF40041002002F03AF9AB
:1065900010B902F091F808BD024A40F2833102F0CE
:1065A000B1FFF6E7F445030008B503F021FBF0B9AD
:1065B000214A0121214803F04BFBF0B9204A012177
:1065C000204803F045FBF0B91F4A01211F4803F0A2
:1065D0003FFBF0B91E4A01211E4803F039FBF0B918
:1065E0001D4A01211D4803F033FBF0B908BD1C4AC8
:1065F0004FF4B97102F086FFDAE7194A4FF4BC7123
:1066000002F080FFDAE7164A40F27D1102F07AFFCD
:10661000DAE7134A4FF4C17102F074FFDAE7104A67
:1066200040F2871102F06EFFDAE70D4A40F28B115B
:1066300002F068FFDAE700BF2D630200B0430300F9
:1066400039630200B443030051630200C0430300F6
:1066500045630200BC4303005D630200B8430300CE
:10666000F445030008B505F033FC00B908BD034A42
:106670004FF4637102F046FFF8E700BFF4450300F2
:1066800000B583B00CF064FD70B902A9002341F895
:10669000043D01200CF04CFE60B901A80CF002FF93
:1066A00070B903B05DF804FB084A4FF4487102F07A
:1066B00029FFEAE7054A40F2263102F023FFECE722
:1066C000024A40F22A3102F01DFFEAE7F4450300D6
:1066D00008B5144803F0F0FA60B9134803F0ECFA77
:1066E00070B9124803F0E8FA80B9114803F0E4FAEF
:1066F00090B908BD0F4A40F2672102F003FFECE7B2
:106700000C4A40F26A2102F0FDFEEAE7094A40F233
:106710006D2102F0F7FEE8E7064A4FF41C7102F023
:10672000F1FEE6E754230020CC250020302600208F
:1067300068260020F445030008B500224FF480319C
:10674000184803F09BFAA8B900224FF4803116488C
:1067500003F094FAA0B900224FF48031134803F0FB
:106760008DFA98B900224FF48031114803F086FA6F
:1067700090B908BD0F4A40F2552102F0C3FEE3E78D
:106780000C4A4FF4167102F0BDFEE4E7094A40F2EC
:106790005B2102F0B7FEE5E7064A40F25E2102F017
:1067A000B1FEE6E754230020CC250020302600204F
:1067B00068260020F445030010B582B00446038823
:1067C000212B5FD010D9522B79D0562B6BD03B2B7D
:1067D0001ED113218088FFF78BFDC8B13F4A4FF4CB
:1067E000407102F08FFE13E0102B13D0112B0FD14C
:1067F0003B483C4BC01AC00800043B4940F0030032
:1068000002F0B0F9394B4FF6FF721A80FFF760FFC4
:1068100002B010BD3248334BC01AC00800043449DE
:1068200040F0030002F09EF94FF0A0434FF40072D5
:10683000C3F80C25A1882D4B19802E4809F028FF9C
:10684000A0B900231A46194628480088FFF75CFDC6
:1068500090B9FFF771FF284803F02EFA0028D7D02F
:106860001E4A40F2E52102F04DFED1E71B4A4FF4EB
:10687000387102F047FEE4E7184A40F2E22102F0E4
:1068800041FEE6E700238DF804308DF8053001A9BC
:106890008088FFF737FD0028BAD0104A40F2F72170
:1068A00002F030FEB4E713218088FFF721FD0028B5
:1068B000AED00A4A4FF4427102F024FEA8E700234A
:1068C0001A46194609480088FFF71EFD00289FD088
:1068D000024A40F20E3102F015FE99E7F44503003A
:1068E0008C6D0300546D03004066030024220020D9
:1068F0008043030024260020EC25002008B5C0B109
:10690000032818D10C480D4BC01AC00800040C49CC
:1069100040F0030002F026F900224FF4004109483C
:1069200003F0ACF938B1084A4FF4317102F0EAFDD6
:1069300001E0FFF747FD08BD8C6D0300546D0300B7
:10694000C8450300EC250020F445030030B585B0B0
:106950009DF80430012262F3030362F3071304ACD1
:1069600004F80C3D1C4D28460CF0AAFF82B22946C3
:106970002046FFF7C5FCE8B94FF44070FFF7BCFCB8
:10698000F0B9082200210DEB02000CF03DFF282396
:10699000ADF808305023ADF80A300023ADF80C30C4
:1069A0004FF4C873ADF80E3002A8FFF7A7FC68B922
:1069B00005B030BD094A4FF4CF7102F0A3FDDBE70B
:1069C000064A40F2A11102F09DFDDAE7034A40F2C7
:1069D000AB1102F097FDEBE78C430300F445030095
:1069E00008B50649064809F07FFD00B908BD054A0B
:1069F0004FF4E07102F086FDF8E700BF3D6502004C
:106A00000C260020F445030000B593B012A91E4BDC
:106A100041F8443D1D4809F027FE10BB40220021EB
:106A200002A80CF0F1FE1A4902A808F0F1FA19497F
:106A300004A808F0EDFA01238DF8443002A80CF008
:106A40005DFAA0B90422002168460CF0DDFE124B6D
:106A500000936946114801F031FA70B913B05DF83E
:106A600004FB0F4A40F22E2102F04CFDD6E70C4AFF
:106A700040F2392102F046FDE4E7094A40F24221A2
:106A800002F040FDEAE700BF156402002426002062
:106A9000DC450300E4450300896E02002822002043
:106AA000F445030000B5ADB0AC22002101A80CF004
:106AB000ABFE02238DF8043001238DF80630062248
:106AC0008DF80720ADF814300E4A06928DF880300C
:106AD0002823239344F2506324930B4B2A9301A958
:106AE0000A4807F0C9FD30B90121084807F0C1FD87
:106AF0002DB05DF804FB064A4FF45A7102F002FD16
:106B0000F2E700BF20220020FD680200742300206D
:106B1000F445030008B5084941F288330B6047F299
:106B200030534B604FF47A738B6001230B7303482F
:106B300005F05EFA08BD00BF502600206026002048
:106B400000B589B01C22002101A80CF05DFE0023D5
:106B500001934FF4203202924FF4702203920322E9
:106B60008DF81020ADF812308DF81430084B0693D4
:106B7000084B079301A808F053F810B909B05DF865
:106B800004FB054A40F29E2102F0BCFCF6E700BF80
:106B90003D64020029640200F445030000B583B09F
:106BA0000AF03AFC80BB0522002168460CF02CFE5E
:106BB0009DF8003003F0F003032262F306136FF335
:106BC000C7138DF8003007238DF8013010238DF89E
:106BD00002309DF8033003F0FE036FF341038DF89C
:106BE00003309DF8043003F0FE036FF341038DF88A
:106BF000043068460AF0C2FC60B90C480AF0A4FCF4
:106C000070B903B05DF804FB094A40F2363102F076
:106C100079FCC8E7064A40F2493102F073FCECE720
:106C2000034A4FF4537102F06DFCEAE7596C02001D
:106C3000F445030008B50321054807F0A7FD00B996
:106C400008BD044A40F29E3102F05CFCF8E700BF48
:106C500074230020F445030010B504460BF062F9DC
:106C600020460AF051FF23780C2B02D10020FFF7B9
:106C7000E1FF10BD10B50C46002809DB2B23227064
:106C800063700CF07BFC0A22A11C0CF0D3FC10BD3D
:106C90002D23F4E710B588B000F040FD04A800F003
:106CA0005DFD2948294BC01AC0080004BDF9102019
:106CB000BDF91230BDF914100091254940F00300D0
:106CC00002F0EAF8002206A9BDF91000FFF7D2FF92
:106CD000BDF910000CF052FC80B2FFF719FB023036
:106CE00008AC24F8120D214606A8FFF7BDFB0122CF
:106CF00006A9BDF91200FFF7BDFFBDF912000CF0A7
:106D00003DFC80B2FFF704FB0230ADF80E002146D7
:106D100006A8FFF7A9FB022206A9BDF91400FFF798
:106D2000A9FFBDF914000CF029FC80B2FFF7F0FABE
:106D30000230ADF80E00214606A8FFF795FB00F0E3
:106D4000FFFC08B010BD00BF8C6D0300546D030044
:106D5000E0440300F0B583B000AF6E461B4B1B88C8
:106D60000733DB08A6EBC3039D46B81D00F0ECF922
:106D7000174C184BE41AE4082404B7F90620164906
:106D800044F0030001F06AFFFB88A3F57A739BB21D
:106D900042F22732934212D86D4603232B70002310
:106DA0006B700A22A91CB7F906000CF043FC0749D6
:106DB0002846FFF759FBB5460C37BD46F0BD0749DD
:106DC00044F0020001F0CEFEB546F5E74C2200206B
:106DD0008C6D0300546D030000450300244503003F
:106DE0002DE9F04100AFE846204B1B880733DB0854
:106DF000A8EBC3039D461E4D284600F08BFB1D4C9F
:106E00001D4BE41AE40824042A681C4944F00300DA
:106E100001F024FF286800F16303C62B17D86E46E3
:106E200000281BDB0423337000237370144B1B7882
:106E3000B3700A22F11C0E4B18680CF0FBFB0B49D7
:106E40003046FFF711FBC546BD46BDE8F0810D4950
:106E500044F0020001F086FEC546F5E7084B2D22FE
:106E60001A700CF08BFB024B1860DBE74E220020FF
:106E70008C2600208C6D0300546D030058450300E0
:106E80005C2200207C4503000378002B6ED12DE9A5
:106E9000F04383B00546B0F814C00069067847781F
:106EA0004FF0FF340CE09A1C825CA2F13001C9B2B1
:106EB00009290DD804EB84046100303A8C180133A1
:106EC000ACF102029A420FD9002BECD10024EAE780
:106ED0002748284BC01AC0080004274940F0020088
:106EE00001F040FE4FF0FF34214B224AA3EB020891
:106EF0004FEAD8084FEA084848F00309AA8A0194E3
:106F0000009733461D49484602F058F8033E032EC9
:106F100026D8DFE806F002060A20F7B9FFF71AFFC5
:106F20001BE0D7B9FFF75CFF17E0012F15D1B4F1D3
:106F3000FF3F03D0632C01DC002C08DC5A221049EF
:106F4000484601F08BFE5A2000F0D6FA05E02046B4
:106F500000F0D2FA01E0FFF735FA03B0BDE8F083A4
:106F6000084948F0020001F0FDFDF6E7704700BF58
:106F70008C6D0300546D0300EC43030018440300C0
:106F800078440300B444030008B500F0AFF908BD2D
:106F900008B501F0ADFC00B108BD04F0AFFFFBE7A0
:106FA00008B50246064B93F854100120FFF7A2F9EA
:106FB00000B908BD034A40F2AA3102F0A3FAF8E78B
:106FC00074230020F445030000B585B0FFF7DAFA1A
:106FD000FFF7EAFAFFF7DCF9FFF744FBFFF750FB96
:106FE000FFF7B4FCFFF7FCFCFFF70EFDFFF75AFDBF
:106FF0000420FFF7D5FFFFF78DFDFFF7A1FDFFF799
:10700000CDFD00F073F82C4B2C4A2D49192000F0CF
:10701000B7F82C4B6C460FCB84E80F0011238DF88A
:10702000033008238DF8023006238DF801300F233A
:107030008DF8003003238DF80C30204600F020FB43
:10704000214C224BE41AE408240444F003042049B0
:10705000204601F087FD1F49204601F083FDFFF720
:10706000E9FD13E0FFF716FE1B4B00221A7011E03A
:10707000FFF770FE194B00221A700FE0FFF7B0FE09
:10708000174B00221A700DE0FFF782FF124B1B789E
:10709000002BE7D1114B1B78002BE9D1104B1B784B
:1070A000002BEBD10F4B1B78002BEDD0FFF76CFFC3
:1070B0000C4B00221A70E7E7196502009D6402007C
:1070C00050220020704303008C6D0300546D0300B8
:1070D000C4430300DC43030050230020512300205D
:1070E00088260020902600207047000000B585B05B
:1070F0000D490E4801F094F860B90D4A01AB07CA7A
:1071000003C31A7001A9002001F0DEF838B905B0F8
:107110005DF804FB074A0C2102F0F4F9EDE7054A9B
:10712000112102F0EFF9F2E7E97002002C460300AA
:10713000084603001446030001FB00F090FBF2F048
:1071400010FB03F000B2704710B504460146092059
:1071500001F01CF968B906234FF480624FF41671F0
:10716000B4F90000FFF7E8FF80B200F587702080D7
:1071700010BD024A1A2102F0C5F9ECE714460300DB
:1071800010B582B04C4C22604C4A13604C4B1960D5
:107190004C4B1870002900F084800B684FF0A0421F
:1071A00003F5E073032042F82300096801238B40B4
:1071B000C2F8083505F048FC002864D00022ADF87C
:1071C000042002238DF804308DF806303C4B1868FB
:1071D000436803F5E0734FF0A04141F823203A4A99
:1071E00001A9406805F03AFC002855D1374B01222F
:1071F000C3F840251022C3F844252022C3F84825AF
:107200000422C3F800220022C3F810252D4B1A785F
:107210002F4BC3F840250222C3F80425284B1B68D6
:107220001B681B0243F4881343F00303294AC2F886
:107230001435294B02F54552C3F81025A2F54452E6
:107240000C3AC3F8142502F544521032C3F818253D
:10725000A2F54352203AC3F81C2502F57E5224328F
:10726000C3F8142902F59C72C3F82025A2F58952AF
:10727000103AC3F82425D3F8002542F00702C3F8DA
:10728000002502B010BD05F09BFB002896D0134AE4
:10729000332102F037F991E7104A392102F032F92F
:1072A000A4E70F480F4BC01AC00800040E4940F075
:1072B000020001F057FCE4E794260020A8260020F5
:1072C000A426002098260020BD74020000900040F3
:1072D00000A000400060004000F00140584603005C
:1072E0008C6D0300546D03007046030008B5012146
:1072F000034B5966034B1B68586805F01BFC08BD1F
:1073000000600040A426002010B5314B5B7853B3D9
:107310002F4BD3ED017AF5EE407AF1EE10FA4AD018
:1073200007EE100AB8EEC77A67EE277ADFED296A12
:1073300087EEA67ABCEEC77A83ED027A244A002350
:10734000537001231370D16803FA01F44FF0A04188
:10735000C1F80845146903FA04F4C1F808455269F4
:107360009340C1F80C351A4B1B781BB3184B9B6824
:1073700083421FD3184B1B6803B1984714494A69CD
:10738000012303FA02F04FF0A042C2F80805086991
:1073900003FA00F0C2F80805C9688B40C2F80C3542
:1073A0000E480F4BC01AC00800040E4940F00300FD
:1073B00001F0D8FB10BD5A2303FB00F30A4A82FBFD
:1073C0000312DB17C3EB6213014A9360B6E700BFF9
:1073D000602200200000C842A82600208C6D030017
:1073E000546D0300304603001F85EB5120F07F40B1
:1073F0007047000038B50123274AD360274A00258B
:10740000157115605371264A1360264C264BE41AF9
:10741000E4082404254944F0030001F0A3FB2946B5
:1074200017292CD81C4B01225A64D3F84435172B4A
:1074300020D81B4BD3F84031002BF3D0184B00223F
:10744000C3F840211A4B1B685A684FF0A043D3F889
:107450001035D34003F00103C1F1170293400F4AE6
:1074600010680343136013790133137102235371BE
:107470000131D5E70F4944F0020001F073FB074CDE
:107480002068FFF7B3FF2060FFF73EFF0A4B1B6841
:107490000BB12046984738BD00A000409C26002034
:1074A000009000408C6D0300546D0300984603006B
:1074B000A4260020A84603009426002008B50A4B05
:1074C0001B682BB1586805F099FBFFF793FF08BDC7
:1074D0000648074BC01AC0080004064940F00200E5
:1074E00001F040FBF3E700BFA42600208C6D0300F1
:1074F000546D030070460300044B01225A7007EEDE
:10750000900AF8EE677AC3ED017A70476022002096
:107510004CDF704710B50446FFF7FAFF50B92068FA
:107520000CF076FC0022064B0CF0DCFC0CF0ECFEC0
:10753000206010BD034A082101F0E4FFEFE700BF1F
:107540000000D03FBC460300014B01221A70704777
:10755000AC26002010B5044638B14FF47A40034BF6
:1075600043F001039847013CF7D110BD6047030089
:10757000B0B584B000AF5D1C03F1080000F4FC70EE
:10758000ADEB000D6C4601F07F018DF8001001217C
:1075900004E0481E105C60540131C9B2A942F8DB16
:1075A00000220F490A700133DBB23C607B60BA6095
:1075B000FA6039460B4806F041FB44B24CB94FF42F
:1075C000C850094B43F00103984720461037BD4689
:1075D000B0BD064A4B21204601F094FFEFE700BF03
:1075E000AC2600206C470300604703003C470300C3
:1075F0002DE9F04186B000AF154661F07F0107F13B
:10760000180000F8041D591C1C46083303F4FC73D1
:10761000ADEB030D6E460022154B1A70CBB27860AD
:107620000121B960C7F80CD03B61391D114806F043
:1076300005FB4FFA80F8B8F1000F07D14FF4C8509E
:107640000D4B43F001039847002309E00B4A5A21F0
:10765000404601F057FFF1E75A1CB15CE95413466C
:10766000A342F9D340461837BD46BDE8F08100BFBC
:10767000AC2600206C470300604703003C47030032
:1076800008B500231A4A01461A4805F0BBF8D0B9DC
:10769000194800234370194B8360194BC360194B81
:1076A000436100F0B1F898B9134B5A78FA2A14D014
:1076B0001548164BC01AC0080004154940F00300D5
:1076C00001F0CCFA08BD134A192101F01BFFDFE7D6
:1076D000104A1F2101F016FFE6E70B480B4BC01ABA
:1076E000C00800040C4940F0030001F03BFAE9E750
:1076F0004975020068470300E035002071750200FB
:10770000F1750200557502008C6D0300546D030085
:107710000C4703003C470300F846030010B5002067
:1077200000F030FA0446082000F090F9201800D14B
:1077300010BD024A312101F0E5FEF9E73C470300A4
:1077400008B5032000F01EFA00B908BD024A38212E
:1077500001F0D8FEF9E700BF3C47030038B5104BF5
:107760001B788BB9054600F07BF80446A81C00F096
:10777000C9F80444281D00F017F900190ED0094A71
:10778000732101F0BFFE09E00748084BC01AC0088A
:107790000004074940F0020001F0E4F938BD00BFE1
:1077A000E03500203C4703008C6D0300546D03005E
:1077B000D846030038B50B4B1C687CB113460A460B
:1077C0000146A5682079A8470446064B1B681A782D
:1077D00012B15B6901209847204638BD6FF07E04E6
:1077E000FAE700BFB026002038B5064B1C6834B15C
:1077F00013460A460146E5682079A84738BD6FF070
:107800007E00FBE7B026002030B583B000238DF862
:1078100007308DF80630114B1860D8B1C4680123C9
:107820000DF1070200210079A04704460B4D2B689B
:107830009DF807205A7001220DF106013E20FFF746
:10784000D3FF54FA80F040B22B689DF806205A719D
:1078500003B030BD6FF07E00FAE700BFB026002015
:1078600070B582B000238DF804308DF80530234BBD
:107870001C68002C3ED00546214B1B78012B17D0ED
:1078800023B1022B25D04FF0FF300FE0E668022332
:1078900001AA19462079B0479DF905209DF80430CA
:1078A00003F0F00343EA02231B112B8002B070BDEA
:1078B000E668022301AA19462079B0479DF9052000
:1078C0009DF8043003F0C00343EA02239B112B8090
:1078D000ECE7E668022301AA19462079B0479DF932
:1078E00005209DF8043003F0FC0343EA02239B10BB
:1078F0002B80DBE76FF07E00D8E700BFB0260020CA
:107900007822002070B582B000238DF804308DF805
:107910000530234B1C68002C3ED00546214B1B78BC
:10792000012B17D023B1022B25D04FF0FF300FE0F1
:10793000E668022301AA04212079B0479DF90520B9
:107940009DF8043003F0F00343EA02231B112B805F
:1079500002B070BDE668022301AA04212079B04775
:107960009DF905209DF8043003F0C00343EA02238B
:107970009B112B80ECE7E668022301AA0421207901
:10798000B0479DF905209DF8043003F0FC0343EA5D
:1079900002239B102B80DBE76FF07E00D8E700BF4F
:1079A000B02600207822002070B582B000238DF828
:1079B00004308DF80530234B1C68002C3ED0054662
:1079C000214B1B78012B17D023B1022B25D04FF070
:1079D000FF300FE0E668022301AA06212079B047B4
:1079E0009DF905209DF8043003F0F00343EA0223DB
:1079F0001B112B8002B070BDE668022301AA06218C
:107A00002079B0479DF905209DF8043003F0C003AC
:107A100043EA02239B112B80ECE7E668022301AACC
:107A200006212079B0479DF905209DF8043003F028
:107A3000FC0343EA02239B102B80DBE76FF07E0000
:107A4000D8E700BFB02600207822002030B583B0F0
:107A5000044600238DF807302F4B1868002851D0BA
:107A60004378FB2B25D0A4F10803DBB2072B4FD8BA
:107A7000A4F10803072B43D8C56801230DF10702C1
:107A800010210079A84705469DF8073023F01F0311
:107A90005BB204F01F041C438DF8074001220DF176
:107AA00007011020FFF786FE55FA80F040B203B0C0
:107AB00030BDA4F10803DBB2062B26D8A4F10803DD
:107AC000062B1BD8C56801230DF107021021007990
:107AD000A84705469DF8073023F01F035BB204F06A
:107AE0001F041C438DF8074001220DF107011020EF
:107AF000FFF760FE55FA80F040B2D8E70024E1E7D6
:107B00000024B9E76FF07E00D1E76FF00100CEE707
:107B10006FF00100CBE700BFB0260020184B1B68B8
:107B200033B3052827D8052828D8DFE800F0030755
:107B3000121D0C1700209870D870704702229A709E
:107B40000020D870704702229A700122DA7000205B
:107B5000704704229A700020D870704704229A70EF
:107B60000122DA700020704701229A7000207047CD
:107B70006FF07E0070476FF0010070470020704783
:107B8000B02600202DE9F04182B000238DF80730A7
:107B90008DF806308DF80530454B1C68002C00F040
:107BA00084800546E66801230DF107021121207942
:107BB000B04704463E4E3068C76801230DF1060207
:107BC00012210079B84754FA80F4E4B233685B7943
:107BD00043F00C038DF805302846FFF79FFF54FA59
:107BE00080F4E4B233689F78DB789DF8062022F0B9
:107BF000400252B29B0103F0400313438DF806305C
:107C000001220DF106011220FFF7D4FD54FA80F095
:107C10005FFA80F84FFA88F433685B69012098476F
:107C200033681B78012B24D0042B22D09DF8073019
:107C300003F01F0343EA471702A901F8017D01225F
:107C40001120FFF7B7FD54FA80F4E4B2184E336800
:107C50005B690120984701220DF105013E20FFF7E5
:107C6000A9FD54FA80F040B233681D7002B0BDE83F
:107C7000F081002DDAD19DF8073003F01F0343F0A7
:107C8000800302A901F8013D01221120FFF792FDB6
:107C900058FA80F0C4B201220DF105013E20FFF731
:107CA00089FD54FA80F464B2C0E76FF07E00DDE72E
:107CB000B0260020A8DF7047ADDF7047AEDF704709
:107CC00062DF704730B589B005460C4601AA898845
:107CD000406900F0A6F920B9019B1B786BB909B087
:107CE00030BD0F4B0F48C01AC0080004A2880E49CF
:107CF00040F0010000F0B2FFF1E71822002102A8D5
:107D00000BF082FD01238DF808300395A388ADF8B0
:107D10001030019B0593AB6902A89847DFE700BFCD
:107D2000546D0300946D03008847030030B58BB099
:107D300004460D460AAA002342F8283D8988406976
:107D400000F06FF9002830D1082200210DEB02006D
:107D50000BF05AFD01AB03930223ADF8083000236A
:107D6000ADF80A3002AA218AA888FFF7A5FFD0B98A
:107D7000A369C3B1039807F047F9A0B1009B0BB109
:107D800001221A701822002104A80BF03DFD0223E5
:107D90008DF810300594AB88ADF81830009B079330
:107DA000A36904A898470BB030BD064B0648C01A1B
:107DB000C0080004AA88054940F0010000F04EFF09
:107DC000C2E700BF546D0300946D030088470300B1
:107DD00030B589B005460C4601AA8988406900F093
:107DE00020F998B91822002102A80BF00DFD039587
:107DF000A388ADF81030019A0592E38829898B4257
:107E000010D0AA8993422AD009B030BD1B4B1C4820
:107E1000C01AC0080004A2881A4940F0010000F00E
:107E20001DFFDFE7218A0229EBD1002AECD004F103
:107E3000120007F0E9F858B1019B01221A700223E1
:107E40008DF80830AB69002BDED002A89847DBE73D
:107E5000019B00221A7003238DF80830F2E7AB690A
:107E6000002BD1D000228DF8082004F112020692D6
:107E7000228AADF81C2002A89847C5E7546D03007C
:107E8000946D030088470300B9B108B50B4638B1BB
:107E900001460288502A08D0572A0AD0102A00D05A
:107EA00008BD1846FFF742FFFAE71846FFF790FFB4
:107EB000F6E71846FFF706FFF2E7704770B58EB099
:107EC00006460D46394B09AC0FCB84E80F00002E57
:107ED00067D0002D67D02B68B36131462046FFF78D
:107EE000EFFE034610B118460EB070BD324612F8D0
:107EF000023B8DF8363001200EA921F8040DFFF762
:107F0000D9FE03460028EED12022002101A80BF063
:107F10007BFC0223ADF8043033788DF8063014234F
:107F2000ADF808300123ADF80A308DF810309DF817
:107F3000112042F00C028DF811208DF815308DF8CB
:107F4000163006F10C0201A9708807F06AF80346A2
:107F50000028C8D12022002101A80BF055FC0323E2
:107F6000ADF80430324612F8043B8DF80630142385
:107F7000ADF808300123ADF80A308DF810309DF8C7
:107F8000111041F010018DF811108DF815308DF899
:107F900016308DF8173001A9708807F042F80346B3
:107FA000A1E70E239FE70E239DE700BF784703005C
:107FB00060B3F0B587B007461C4616460D4601AAC9
:107FC0001946406900F02DF80346E0B94FF6FF73FB
:107FD0009C421ED0019BF3B11B78F3B13388142B64
:107FE0001DD81022002102A80BF00EFCBB88ADF8B2
:107FF00008300595049601238DF80A3002A9204621
:10800000FFF75CFE0346184607B0F0BD0E23184686
:1080100070470523F7E70523F5E70823F3E7072370
:10802000F1E7DAB138B5154600222A60C0B102681E
:10803000C2B1C28812F0030F16D10446084606F0FA
:1080400073FFC0B2142811D02379834210D923685A
:10805000E28802FB00302860002006E00E20704716
:108060000E2002E00E2000E0072038BD0520FCE7CE
:108070000420FAE710B588B0624B1B68002B2AD0A9
:10808000604B00221A601B680093009B5E4B93F8C4
:108090002E2012B193F82F30EBB100238DF814305D
:1080A000594B596806911989ADF81C10D9680029F7
:1080B0007FD0554B188B5883596018810021D960A7
:1080C00012B9524B01221A604F4C236805A89847F9
:1080D000002384F82F304C4B93F82E3033B34C4BA5
:1080E0001B681BB34A4B00221A601B680193019B5B
:1080F000454A538B92F82D108AB293425CD99B1A51
:108100009BB24148438342680089C31A02EB430390
:108110003E4AC2F82C36C2F830163A4B00221A609A
:108120001B680293029B3B4B01221A603A4B1B686F
:108130006BB1394B00221A601B680393039B324BCF
:108140001A7408A8022200F80C2D1B689847334BBC
:108150001B68002B4BD12C4B5C69002C4FD0B4FA20
:1081600084F34FF00042DA4024EA020446339B00D5
:1081700003F1804202F5E04211680029EDD00021B0
:10818000116012680492049A01228DF81420A3F55C
:108190008C73C3F3C7028DF8182013F0040F0CBFC3
:1081A00001230B468DF81930174B1B6805A898471B
:1081B000D3E700221A7487E7934208D09342ACD1E8
:1081C000114B012283F82F2000225A83A5E70E4885
:1081D000C0680028F2D00C4B012283F82F20002227
:1081E0005A830A4BC3F82C06C3F8301695E70B4A9E
:1081F0000023136012680592059A034A137408B0AD
:1082000010BD00BF04710040B42600200070004083
:108210000071004004700040107100401471004073
:10822000244B93F82C30002B41D110B483B0214B58
:10823000196002782049C1F8F0254278C1F8F42588
:10824000C27883F82E20012283F82C2000221A7491
:1082500083F82D205A6183F82F206FF00044C1F875
:108260000843164C226024680194019C144C22603F
:1082700022680092009A82785201D2B2114880F8A6
:1082800007238022C0F8802102600222C1F8042363
:1082900093F82E3013B10122C1F80423064B0122BA
:1082A000C3F80025002003B05DF8044B7047082098
:1082B000704700BFB42600200070004004710040E9
:1082C0000071004000E100E02E4B1B7C002B56D1DA
:1082D00030B40B79012B47D900F10C03294A02EB8A
:1082E00043031B7923B992F82D30013382F82D30E6
:1082F000CA7900F10C04234B03EB44031A710A7A88
:108300005A710B7803F003034A78120102F030022D
:1083100013438A78120202F4E0621343CA7812030C
:1083200002F4805213430A79120402F4E022134348
:108330004A79120502F4801213438A79120602F078
:1083400080721343104A02EB0014C4F81835CB793D
:108350000D7A513000011418656013500B79012B10
:1083600007D9002030BC7047074B0022C3F8002516
:10837000B2E713460122C3F800250020F2E71120DE
:10838000704700BFB426002000700040384B1B7CB3
:10839000002B6BD130B482B0354A01241474354BB4
:1083A0000325C3F80853C3F82C16C3F8304692F8D7
:1083B0002D30A3420CD9002208E0D3B22D4951330D
:1083C0001B01CD1800246C60CC500132072AF4D96F
:1083D00000F10C02264B03EB42031A795C79254B22
:1083E0005130000119184C601A5001221A600433F0
:1083F0001A6042F21073204A12680AB9013BFAD19E
:108400001E4B00221A601B680193019B1A4B1A60D5
:108410001B680093009B164B93F82D30012B12D94B
:1084200000220EE002F10C01114B03EB410318791D
:108430005D79D3B20F4951331B01CC186560C85028
:108440000132072AEED90A4B93F82E304BB1094B73
:108450000322C3F804230020054B187402B030BC7B
:108460007047044B0222C3F80423F4E7112070473D
:10847000B4260020007000400471004000710040EC
:108480000649074A074B9B1A03DD043BC858D050E6
:10849000FBDC03F039FFFDF7F7FE0000346E03004C
:1084A0002022002034230020FEE7FEE7FEE7FEE75F
:1084B000FEE7FEE7FEE7FEE7FEE7FEE7F0B595B074
:1084C0000F4615461C46084603F0D5FC0E950F9442
:1084D000002410948DF8444012941A9B1393234661
:1084E000082208A9384603F0E5FC0A9B0B93BDF867
:1084F0002430ADF83030BDF82630ADF832308DF88C
:1085000035409DF8203003F00303012B06D0022BE9
:1085100021D0384603F0B5FC15B0F0BD089DC5F379
:1085200095259DF82030C3F3C2038DF83430BDF893
:108530002040C4F383140823A2000DEB0301384646
:1085400003F0B8FC0EAB00930BAB224602A9284601
:1085500000F0F2FEDDE7BDF82250AD099DF82030B5
:10856000C3F3C2038DF8343008262C46082D28BFEB
:1085700008243346224602A9384603F09BFC2644D1
:108580002D1B0EAB0BAA214602A800F039FF002DCF
:10859000EBD1BEE7014B01221A707047282700205B
:1085A0007047000070B588B006466C460E4D0FCD82
:1085B0000FC495E80F0084E80F001A2300934FF0D2
:1085C000805306934EB1094A6946094804F0BCF845
:1085D00028B9084B1E7008B070BD0022F4E7064AA7
:1085E000432100F08FFFF4E7D84703009585020090
:1085F0007C220020E42600200448030008B5084B34
:108600001B78084AD35C33B9074804F09BFE00206E
:10861000FFF7C8FF08BD054805F0E6F8F7E700BF1B
:108620007C220020043600208822002080220020A6
:1086300000B583B0044B00934023044AFFF73EFF8C
:1086400003B05DF804FB00BF51860200E82600205D
:1086500008B5D2B20E4B002018700E4B1B780E4896
:10866000C35C5BB90D4804F099FE58B90C4B1B78FC
:108670001BB1074B1B78002BF8D008BD094805F04B
:10868000E7F8F2E7084A532100F03CFFEEE700BFAD
:10869000282700207C220020043600208822002089
:1086A000E4260020802200200448030008B50120B1
:1086B000FFF778FF08BD000008B5FFF7F7FF0421BA
:1086C000034800F0A5FD034B01225A7108BD00BF0D
:1086D0001C6E030090220020037813F0040F18D0C2
:1086E00003F00303012B03D0022B0AD001207047B3
:1086F0000388C3F383130A68134402330B60012019
:10870000704742880B6803EB921302330B60012021
:108710007047002070470000002002E001238BB961
:10872000013009280CDC084BD3F81034002BF5D0AD
:10873000DB681A79824201D01B68F7E70023EEE775
:108740004FF0FF30704700BFFC27002030B585B0E8
:108750002A4C04F5836002F00DFD04F2144002F08F
:1087600009FD60680390A5682840023004EB800092
:10877000043003A9FFF7B0FF88B303982840831C97
:108780001E4800EB83000430F3E7039B591C039160
:108790002B400233194901EB83035B684DF822300B
:1087A0000132012AF1D99DF8003003F00303012BB7
:1087B00017D0022B1FD1BDF80640BDF802309B092F
:1087C0000333039A02EB930303930D4802F0D7FCA3
:1087D00010B10A4B039A5A60204605B030BD002202
:1087E000DFE7BDF80640BDF80030C3F38312039BFA
:1087F00013440393E9E70024E7E700BFFC270020C8
:10880000102C002010B50B4BFF229A6000221A603A
:108810005A60C3F81824C3F8142483F820240648A7
:1088200003F0DBFA044608B1204610BD034803F00C
:108830008BFBF9E7FC270020406D03006048030034
:108840000248034BC01AC008704700BF1C6E0300EB
:10885000546D030099B110B50446FFF7F1FF0023F2
:1088600083420AD2074A32F823102268914201D08B
:108870000133F5E72360002000E0052010BD002053
:10888000704700BF3423002000B583B002AB43F82B
:10889000040D1846FFF7DEFF30B9019A034B53F879
:1088A000320003B05DF804FB0020FAE7546D0300CA
:1088B000094B03EBC0000139032909D8DFE801F0B7
:1088C000020A040602207047007970474079704719
:1088D0000020704704207047546D0300034B586814
:1088E0001B68984214BF002001207047FC2700201D
:1088F0002DE9F04186B0FFF7F1FF002840F020811C
:10890000054692480023C0F81834BFF34F8F4368E0
:10891000059384682340023300EB8300043005A9EB
:10892000FFF7DAFE68B3894BD3F818345BBB874B8B
:108930001B680598834206D92040831C834800EBBE
:1089400083000430EBE7814A5360FAE0059B591C31
:108950000591234002337D4901EB8303596802AB43
:1089600043F822100132012AF0D99DF8083003F0B3
:108970000303022B09D0012B72D0744BD3F810449F
:10898000CCE00022EFE70022EDE7BDF80A309F09B6
:108990003E46502F28BF502666F38F13ADF80A309D
:1089A00006F108016A4803F033FA054600283DD075
:1089B00003F061FA002308220DEB0201284603F0C0
:1089C0006DFA059A24EA020301339B009E423AD9CC
:1089D00033B1224002325D4901EB8202111D00E0F9
:1089E0005C494BB1DCB24BB1DFF868814BB1F6B2F8
:1089F000DBB2F31ADEB205E0F4B2F4E74FF00008A0
:108A0000F4E7002608232246284603F047FA04F13B
:108A10000803B8F1000F04D032464146284603F05F
:108A20003DFA0337059B03EB97070597002DA4D06C
:108A3000464BD3F81044D3F81834002B48D02846BE
:108A400003F01FFA76E002EA040302333F4901EB28
:108A50008301082332460431284603F01FFAE0E779
:108A6000BDF80820C2F38313062B28BF062363F347
:108A70008912ADF8082002339900354803F0C8F98F
:108A800005460028D2D003F0F6F9002308220DEBAA
:108A90000201284603F002FA002608270FE0059B92
:108AA0005A1C059223400233284901EB83013B46BF
:108AB00004221144284603F0F1F904370136BDF8C9
:108AC0000830C3F38313B342E9D8AFE7E3681C6807
:108AD0004CB1E3685B79002BF8D023681B6829460A
:108AE00020469847F2E7284603F0CBF906A8002372
:108AF00000F8113D01F0F6F8144BD3F8183413B90F
:108B0000124B059A5A609DF8070001F017F911E021
:108B100023689B6820469847E3681C68002CF7D1BF
:108B20000D4B0E48C01AC00800040D4940F0020069
:108B300000F018F8FFF7D2FE80F00100C5B200E0A7
:108B40000025284606B0BDE8F08100BFFC270020C4
:108B5000406D030008280020546D03008C6D030055
:108B60006C4803002DE9F04F83B006468B46DFF8D2
:108B7000E880D8F8084002A8002300F8013D01F081
:108B8000B1F8D8F80050D8F80830D8F80420521BB3
:108B90001344013312E0304F07F21C4901214846CB
:108BA00002F0CDFAFFF7D2FD0146484602F0C7FABF
:108BB000BB687A683968521A13440133012BEAD929
:108BC00000224FF0010969F3010242F004026FF341
:108BD0008912DFF88480D8F80010D8F808300B40EC
:108BE000023308EB83035A600231C8F800109DF885
:108BF000070001F0A3F84FEA164A002108F21C40D2
:108C000002F05CFA80F3100005EB090323404AEA06
:108C10000040023308EB830358602C40023408EB19
:108C20008404237966F3C5032371A3886FF3891342
:108C3000A38063686BF39F23636069F301036FF3A1
:108C40008203237198F820341BB1FFF751FE0028EE
:108C5000FBD103B0BDE8F08FFC2700202DE9F047E1
:108C600082B006468A460192DFF80881D8F80840AB
:108C700002A8002300F8053D01F034F8D8F80050B0
:108C8000D8F80830D8F80420521B1344013312E0FE
:108C9000384F07F21C490121484602F050FAFFF70D
:108CA00055FD0146484602F04AFABB687A683968C1
:108CB000521A13440133022BEAD90022012363F331
:108CC000010242F0040263F389122A4908688B68A2
:108CD0000340023301EB83035A60033008609DF8C0
:108CE000030001F02BF8A81C00230DE004EA0002A9
:108CF00002A901EB830151F8047C911C1D4A02EB8F
:108D00008102576001330130002BEFD04FEA164942
:108D1000DFF86080002108F21C4002F0CFF980F3F8
:108D200010006B1C234049EA0040023308EB830328
:108D300058602C40023408EB8404237966F3C503A1
:108D40002371A388012262F38913A38063686AF305
:108D50009F23636062F301036FF38203237198F82A
:108D600020341BB1FFF7C4FD0028FBD102B0BDE8E1
:108D7000F08700BFFC2700202DE9F04784B00646AD
:108D80008A4602920393DFF80C81D8F8084004A8C1
:108D9000002300F8093D00F0A5FFD8F80050D8F8EE
:108DA0000830D8F80420521B1344013312E0394F25
:108DB00007F21C490121484602F0C1F9FFF7C6FC41
:108DC0000146484602F0BBF9BB687A683968521A16
:108DD00013440133032BEAD90022012363F3010278
:108DE00042F00402022363F389122A4908688B685F
:108DF0000340023301EB83035A60043008609DF89E
:108E0000070000F09BFFA81C00230DE004EA00020D
:108E100004A901EB830151F8087C911C1D4A02EB67
:108E20008102576001330130012BEFD94FEA164917
:108E3000DFF86080002108F21C4002F03FF980F367
:108E400010006B1C234049EA0040023308EB830307
:108E500058602C40023408EB8404237966F3C50380
:108E60002371A388022262F38913A38063686AF3E3
:108E70009F236360012262F301036FF38203237176
:108E800098F820341BB1FFF733FD0028FBD104B064
:108E9000BDE8F087FC2700202DE9F04784B00646A6
:108EA0008A46019202930C9B0393DFF80C81D8F859
:108EB000084004A8002300F80D3D00F013FFD8F887
:108EC0000050D8F80830D8F80420521B134401335E
:108ED00012E0394F07F21C490121484602F02FF9F0
:108EE000FFF734FC0146484602F029F9BB687A686E
:108EF0003968521A13440133042BEAD900220123A2
:108F000063F3010242F00402032363F389122A4946
:108F100008688B680340023301EB83035A60053015
:108F200008609DF8030000F009FFA81C00230DE075
:108F300004EA000204A901EB830151F80C7C911CA6
:108F40001D4A02EB8102576001330130022BEFD939
:108F50004FEA1649DFF86080002108F21C4002F059
:108F6000ADF880F310006B1C234049EA0040023347
:108F700008EB830358602C40023408EB8404237907
:108F800066F3C5032371A388032262F38913A380C8
:108F900063686AF39F236360012262F301036FF346
:108FA0008203237198F820341BB1FFF7A1FC00283D
:108FB000FBD104B0BDE8F087FC2700202DE9F04785
:108FC00086B006468A46029203930E9B04930F9B3B
:108FD0000593DFF80C81D8F8084006A8002300F8B4
:108FE000113D00F07FFED8F80050D8F80830D8F8CE
:108FF0000420521B1344013312E0394F07F21C497D
:109000000121484602F09BF8FFF7A0FB01464846C5
:1090100002F095F8BB687A683968521A1344013334
:10902000052BEAD90022012363F3010242F0040276
:10903000042363F389122A4908688B6803400233CA
:1090400001EB83035A60063008609DF8070000F0CA
:1090500075FEA81C00230DE004EA000206A901EB3E
:10906000830151F8107C911C1D4A02EB810257606C
:1090700001330130032BEFD94FEA1649DFF8608046
:10908000002108F21C4002F019F880F310006B1C5C
:10909000234049EA0040023308EB830358602C4028
:1090A000023408EB8404237966F3C5032371A38893
:1090B000042262F38913A38063686AF39F236360C9
:1090C000012262F301036FF38203237198F82034C5
:1090D0001BB1FFF70DFC0028FBD106B0BDE8F087FF
:1090E000FC2700202DE9F04786B006468A4601920B
:1090F00002930E9B03930F9B0493109B0593DFF841
:109100000C81D8F8084006A8002300F8153D00F0AF
:10911000E9FDD8F80050D8F80830D8F80420521BE0
:109120001344013312E0394F07F21C49012148462C
:1091300002F005F8FFF70AFB0146484601F0FFFF81
:10914000BB687A683968521A13440133062BEAD98E
:109150000022012363F3010242F00402052363F3BA
:1091600089122A4908688B680340023301EB8303A4
:109170005A60073008609DF8030000F0DFFDA81C6E
:1091800000230DE004EA000206A901EB830151F877
:10919000147C911C1D4A02EB81025760013301309F
:1091A000042BEFD94FEA1649DFF86080002108F25E
:1091B0001C4001F083FF80F310006B1C234049EA40
:1091C0000040023308EB830358602C40023408EB64
:1091D0008404237966F3C5032371A388052262F30F
:1091E0008913A38063686AF39F236360012262F39B
:1091F00001036FF38203237198F820341BB1FFF74A
:1092000077FB0028FBD106B0BDE8F087FC270020E3
:1092100010B50446FFF780FAB0F1FF3F0ED0E368C7
:1092200018710A4BD3F810344BB1DA68E36812684E
:109230001A60064BD3F81034DB681C6010BD034B7A
:10924000C3F81044E36800221A60F7E7FC27002007
:1092500010B5094BD3F81044012283F8202408E00C
:10926000E36801225A7123685B6820469847E368E7
:109270001C68002CF4D110BDFC27002070B582B012
:1092800004460D46C388A3B9217A05290FD0637A15
:10929000BBB9227A104B53F822600021A088FFF757
:1092A000F3FA034632460D49284601F0E2FF02B0C8
:1092B00070BD0B4A00920B4A0B49284601F0D9FFBA
:1092C000E2E7A088FFF7F4FA084B53F8202008499A
:1092D000284601F0CEFFDCE7F4480300E84803002D
:1092E000E0480300C0480300C84803008448030066
:1092F0000461030010B50C46037A052B0FD0437AA6
:109300003BB90A49204601F0B4FF204601F0A5FF11
:1093100010BD074A0749204601F0ABFFF1E7002ADC
:10932000F3D00249204601F0A4FFEEE7BC48030059
:10933000E0480300046103002DE9F04385B0814655
:109340000D4617461E460C9C94F80C800023237390
:1093500021463046FFF792FF062F09D8DFE807F0D5
:109360000412181F283340004946204601F081FFAF
:10937000002221463046FFF7BDFF84F80C8005B07F
:10938000BDE8F0832A684946204601F072FFEFE706
:109390006B682A684946204601F06BFFE8E76B6876
:1093A0002A68A96800914946204601F062FFDFE77C
:1093B0006B682A68E9680191A968009149462046CE
:1093C00001F057FFD4E76B682A6829690291E968C0
:1093D0000191A96800914946204601F04AFFC7E77C
:1093E0006B682A686969039129690291E9680191AA
:1093F000A96800914946204601F03BFFB8E700000C
:10940000082900D970472DE9F8431D4690460E46BD
:10941000074693F80C9000241C7319461046FFF77A
:109420002DFF04E01949284601F023FF0134072CE1
:1094300007D8B442F6D23A5D1549284601F019FF23
:10944000F4E71449284601F014FF002404E012490F
:10945000284601F00EFF0134072C0ED8B44207D283
:109460003A5D0E4BD35C13F0970FF0D12E22EEE74E
:109470000B49284601F0FDFEEDE701222946404652
:10948000FFF738FF85F80C90BDE8F883B04803007B
:10949000A8480300B4480300B8480300856B0300E4
:1094A000F048030082B001238DF807309DF80730A3
:1094B000134B186059609A6044F20103984213D02C
:1094C00044F20203984207D10D4BDA60DA68128841
:1094D0009A61DA685268DA6172B69DF80730002B3B
:1094E000FBD162B602B07047054B1A611A699268E7
:1094F0005A611A6912689A611A695268DA61EBE76F
:10950000B82C002000B583B002900091019244F283
:10951000010071466A4600F003F803B000BD000088
:109520002DE9F04184B004460E46154672B6FFF7A9
:109530008FFEFFF7DDF90028FBD141F201039C42C9
:109540002FD014D944F201039C4235D044F20203D7
:109550009C424DD12C482D4BC01AC00800042B88CA
:109560006A682B4940F00100FFF706FC0BE0012C74
:109570003ED12548254BC01AC0080004254940F0BB
:109580000100FFF7EFFA244B1B6813F0010F00D026
:1095900000BE2A4631462046FFF784FF04B0BDE8EE
:1095A000F0811948194BC01AC00800041B4940F04B
:1095B0000100FFF7D7FAE6E7134F144BFF1AFF0835
:1095C0003F0447F00107D5F80880404602F004FD4B
:1095D0006B682A680296019200930346424610493E
:1095E0003846FFF77FFD0F493846FFF7BBFACAE759
:1095F0000548064BC01AC008000432460A4940F02C
:109600000100FFF72BFBBEE78C6D0300546D0300D8
:10961000A449030060490300F0ED00E08049030025
:10962000C0490300E8490300FC490300034BC3F8A9
:109630000805034BC02283F8112370470010014036
:1096400000E100E010B50B4B4FF48032C3F8442327
:10965000C3F80423084A4FF40031C2F880111160A6
:1096600001241C604FF43C60044B23439847044B97
:109670001C7010BD0010014000E100E0204A030012
:10968000E52D002070B50E4B4FF40032C3F880205A
:109690000C4D4FF48033C5F84833C5F80833012624
:1096A0006E60094C34434FF43C60A047AE60002527
:1096B000064B1D604FF43C60A047054B1D7070BD0C
:1096C00000E100E000100140204A0300F42D0020DA
:1096D000E52D002010B4114B1C682CB102682368E2
:1096E0009A4203D923460AE0186013E09A1A2260CE
:1096F000C4610A4B18600DE0521A1C46DB6913B1B5
:1097000019689142F8D313B11968891A1960026077
:10971000C361E0615DF8044B704700BFF82D002085
:1097200070B5184B1E683446354624B1844202D0C9
:109730002546E469F9E714B3A5420CD02168E36932
:10974000EB6113B11A680A441A600E4B1868801B4B
:1097500018BF012070BDF3690A4A1360002BEDD1D8
:109760000123094A9360094A00211160084A1370D5
:109770004FF43C60074B43F001039847DEE70020BD
:10978000E8E700BFF82D002000100140F42D002074
:10979000E42D0020204A0300024B4FF40032C3F8AE
:1097A0000021704700E100E0024B4FF48012C3F843
:1097B0000021704700E100E008B5436980699847DF
:1097C00008BD00001B4B1868002832D070B51A4B3A
:1097D000D3F80445194B1B68E41A24F07F44002594
:1097E00004E000230374FFF7E7FF304648B1036845
:1097F000A34206D8E41A1D44C669037C002BF4D0AA
:10980000EFE70F4B1A780F4B1B789A4207D00D4B9E
:109810001A780D4B43F82250FFF7C6FF70BD013395
:10982000DBB2084A1370022BF1D1134600221A70E2
:10983000EDE77047F82D002000100140F42D0020C6
:10984000F02D0020F12D0020E82D0020104B1B787A
:10985000104A1278934217D00133DBB20C4A1370CE
:10986000022B0DD00A4B1A780B4B53F822300360B1
:109870000A4A11680B4423F07F43136001207047AC
:10988000134600221A70EDE7002303601846704764
:10989000F02D0020F12D0020E82D0020F42D0020D7
:1098A00070B400250E4B1B68BBB11C68844212D8F3
:1098B000001B254400241C60DE69094C2660DC681E
:1098C000002CEFD06E1826F07F465E609C60146816
:1098D000DC611360E6E7241A1C6070BC704700BFAF
:1098E000F82D0020F8B50546414B1F68002659E0C9
:1098F000404A11784B1CDBB213709278934228D007
:109900004A000A44D0003B4B03449C681B79022B5D
:1099100023D0032B30D0012B44D1237C002B41D109
:10992000DFF8D0C04A005018C3006344D8686060B4
:109930001869A0605B69E3601144CB009C44DCF8CB
:109940001830A3612C4B1B78002B30D000236360B0
:109950002DE0284B00221A70D2E72046FFF7E0FEE8
:10996000034600B93346002222741E461AE0002244
:109970001A74DA691E4B1A601D4B1B68002BF6D156
:1099800010E0521A22F07F42A36893421CD99A1A1F
:10999000226000236360A36001222274E3612046F9
:1099A000FFF798FE9DB1002DA2D02C46ED696168AD
:1099B000124B1A688B1A23F07F4311488342E0D878
:1099C000A26813442360E4E700232360E1E7094B26
:1099D0001A785B789A42E6D12EB9054B1B68BB42D8
:1099E00003D0012000E00120F8BD0020FCE700BF0B
:1099F000F82D0020D82C0020E42D0020F42D00208C
:109A0000FEFF7F00F8B51C4B1B688BB31F681B4B18
:109A1000D3F804551A4B1C682E1B26F07F460336DC
:109A2000184B1B780BB3B7422CBFE419A41924F0D0
:109A30007F44124BC3F84045D3F804355B1B23F039
:109A40007F430333641B24F07F44A3420CD90B4BA8
:109A5000D3F80425C3F840254FF43C600A4B43F08B
:109A600001039847FFF798FEF8BDFFF7EBFDDAE733
:109A7000FFF708FEF8E700BFF82D002000100140B6
:109A8000F42D0020E52D0020204A030070B582B09F
:109A9000002301930D4B1E680D4B1C686846FFF7B1
:109AA000D5FE054660B90198FFF71CFF00B915B156
:109AB0002046FFF7A7FF074B00221A7002B070BDC7
:109AC00001AA31460098FFF7EBFEECE7F42D0020E9
:109AD000F82D0020E42D0020014B5870704700BF86
:109AE000D82C00200B4A53780133DBB292789A428B
:109AF0000CD0084A12789A420AD00370054843787D
:109B000003EB4303DA001044043070470023F0E70E
:109B100000207047D82C0020F0B583B007460E46D1
:109B200015461C4602A8002300F8023D00F0DAF8B2
:109B30000DF10700FFF7D6FFB0B1012202704760B8
:109B40000C4AD2F804258260C660056144619DF824
:109B50000700FFF7C1FF00249DF8060000F0EEF8B3
:109B600024B1204603B0F0BD0424F5E7FFF71CFE46
:109B7000F7E700BF0010014030B583B004460D4642
:109B800002A8002300F8023D00F0ACF80DF1070038
:109B9000FFF7A8FF70B1057044609DF80700FFF75C
:109BA0009BFF00249DF8060000F0C8F824B1204671
:109BB00003B030BD0424F5E7FFF7F6FDF7E700003A
:109BC00008B5084B0022C3F84021C3F84421C3F86C
:109BD0004821C3F84C21C3F80021C3F80421FFF742
:109BE000F1FD08BD0010014008B5FFF74FFF08BDAB
:109BF00010B5FFF747FD0F4B00241C705C700B2263
:109C00009A700D4B1C600D4B1C700D4B1C700D4B56
:109C10004FF48012C3F88021C02183F814131A6016
:109C20002046FFF703FD084BD3F80425074B1A60C5
:109C3000204610BDD82C0020F82D0020F02D00204B
:109C4000F12D002000E100E000100140F42D002083
:109C5000094B9B7843B14AB150B10368187C48B9AD
:109C6000187459745A61704708207047072070476C
:109C70000720704708207047D82C00200D4B9B7898
:109C800083B188B1042911D943698BB110B5437CE4
:109C9000012B05D0002413462246FFF73DFF10BDDF
:109CA0000C46F8E7082070470820704707207047E7
:109CB00008207047D82C002008B5094B9B7843B189
:109CC00048B143694BB1002303740221FFF754FFED
:109CD00008BD0820FCE70820FAE70820F8E700BFE5
:109CE000D82C0020EFF3108272B6114B9B68C3B9D9
:109CF00030B40F4901238B600E4BD3F880400E4DDA
:109D00002C400C60C3F88050D3F884404C604FF076
:109D1000FF31C3F884100023037002B962B630BC6F
:109D20007047012303700AB962B67047704700BFDD
:109D3000F835002000E100E0FC06FFBD084B9B6801
:109D40006BB160B9EFF3108172B6054B1868054A24
:109D500010605868506000229A6001B962B670477E
:109D6000F835002000E100E038B50546002400E0A9
:109D70000134032C07D8044B53F82430002BF7D0C0
:109D800028469847F4E738BD082E00200378013BA9
:109D9000052B34D8DFE803F0030611202931002316
:109DA0000B70704701230B7003898B818388CB81F3
:109DB000C3688B6000230B74704702230B70038908
:109DC0008B818388CB81C3688B60837D062B14BF16
:109DD000002301230B74704703230B70C3888B810E
:109DE0000389CB81C3688B60704704230B70C388E1
:109DF0008B810023CB818B60704705230B707047EC
:109E0000884207D20368B3F1FF3F01D001207047B9
:109E100000207047002070474388033300EB830025
:109E2000704738B504460D46FFF7F6FF85420AD362
:109E3000A2884FF6FF739A4207D023880BB1002007
:109E400002E0012000E0022038BD0120FCE7000014
:109E500070B10A4AD26882420CD8084A126982421A
:109E60000AD310F0030F01D0002070470120704783
:109E700000207047002070470020704720230020FA
:109E800070B10168094A91420CD14368084A934273
:109E90000AD00132934201D101207047032070475C
:109EA000032070470320704700207047DEC0ADDEFE
:109EB000FE011EF10023B3F5806F06D250F8232077
:109EC000B2F1FF3F03D10133F5E7012070470020D5
:109ED0007047000030B40A4C82001518AB001D46D4
:109EE00023441B8919442C44608910FA81F080B204
:109EF000B0F5806F2CBF0020012030BC704700BF40
:109F00003C2E00200023012B18D810B403E00133AD
:109F10009BB2012B0ED803EB83029400084A224423
:109F200052688A42F3D202F580528A42EFD9038006
:109F3000002000E00A205DF8044B70470A207047BB
:109F40003C2E0020F8B50E46174600F5805500F16E
:109F5000080402230B800DE00FB101223A70022B9E
:109F60001CD0638832881344033333802046FFF7C4
:109F700053FF044629462046FFF742FF88B1294691
:109F80002046FFF74EFF03460028E5D1A368054AA7
:109F900012689342E5D9034A1360E2E74FF4806305
:109FA0003380F8BD342E00208B7D022B04D9CB8862
:109FB0000289134403330381CA8843899B1A033BF4
:109FC00043817047F8B5033085B240F2FD339D42BE
:109FD00020D80E46002401E00134A4B2012C17D889
:109FE00004EB840293000C4AD35C002BF4D1294685
:109FF0002046FFF76FFF0028EED034800649A3000B
:10A00000181982000A4453891D445581002000E03C
:10A010000720F8BD0920FCE73C2E002030B4054C99
:10A020008B005D18AA0022445389181A0338508106
:10A0300030BC70473C2E0020F8B50F4600EB800086
:10A040008200124B13445C6804F58055086898B18F
:10A05000FFF7E2FE044629462046FFF7D1FE0646FA
:10A0600068B129462046FFF7DCFE012809D028B157
:10A070000228F0D1002602E00834ECE73C603046CC
:10A08000F8BD2046FFF7C8FE0446E4E73C2E00205A
:10A0900070B582B005460C464068FFF7D9FE20B186
:10A0A0002A89174B1B899A4218D0002323802388C2
:10A0B000012B23D80023019301A92088FFF7BCFFBF
:10A0C0000646B8B1019B99682A689142F4D16B6049
:10A0D0000B4B1B892B81304602B070BD2A68696822
:10A0E0008B689A42E1D12046FFF70CFFB0FA80F668
:10A0F0007609F0E7238801332380D8E70026EAE7D2
:10A10000202E0020F8B51E4E3678002E33D0002ABF
:10A1100033D01C4616460F46054633B9052027E0C6
:10A1200000232360A3880133A380A388012B20D8B8
:10A1300003EB83039800134B1B5C002BF2D12146E9
:10A14000A088FFF779FF0028EAD023681DB199881D
:10A150002A889142F3D11FB119883A889142EED1F1
:10A160009B68336023687360074B1B893381002031
:10A17000F8BD0A20FCE70220FAE70520F8E700BF57
:10A18000182E00203C2E0020202E00202DE9F04724
:10A190000024A1464FF00308264627462DE0434AF7
:10A1A00015600221918081464FE008F1FF381FFAC7
:10A1B00088F83F49B3009819820010460A44556058
:10A1C00003230B540136B6B215E03949B300981990
:10A1D000820088184FF0000C01F802C0456010465C
:10A1E000103208300A4401442846FFF7ABFE47F01E
:10A1F00002070136B6B20134A4B2022C4DD82D4B61
:10A20000DD6805EB04352846FFF73AFE01281FD02C
:10A210000028DAD00328EED12846FFF74BFE0028AD
:10A22000C3D0224A1268002AB9D0214BB20090193B
:10A23000810003EB010C02205854CCF80450ACF818
:10A2400008001D4B5E800136B6B247F00107D2E729
:10A25000B9F1000F0FD0164BB2009019810003EB3B
:10A26000010C0220585411490968CCF80410ACF8CC
:10A2700008000136B6B2DFF834A0514641F8045B5D
:10A2800000222846FFF75EFEBAF80430022B02D007
:10A2900008231F43AFE70423FBE7B8F1010F02D9FE
:10A2A000F8B2BDE8F0870027FAE700BF042F0020CE
:10A2B0003C2E002020230020202E00200B4A138952
:10A2C000013313810023538013730CE003EB8301EC
:10A2D0008A0007498A5CB2FA82F25209034919449A
:10A2E0008A7201339BB2012BF0D97047202E0020D7
:10A2F0003C2E00200023012B27D8164A1A44927ABC
:10A3000032BB01339BB2F6E701339BB2012B17D866
:10A31000104A1A44927A002AF6D00E4A1A440024AF
:10A32000947203EB830294000B4A2244D268002A01
:10A33000EAD1094A2244127C002AE5D0038000E0D9
:10A34000002210465DF8044B70470022104670470B
:10A3500010B4E2E7202E00203C2E0020044B5B6866
:10A360005B880333034A918811FA83F39380704723
:10A37000202E0020042F002070B40A490E680A4BDA
:10A380005C880A48A3001D19AA00024455680D60A4
:10A3900056608D8823449A001044058102238B80E7
:10A3A00070BC7047042F0020202E00203C2E00207F
:10A3B00008B5124B1B78072B0AD8DFE803F0040915
:10A3C000090A1016161AFFF779FF0C4B01221A70B2
:10A3D00008BDFFF7C3FF094B02221A70F8E7FFF729
:10A3E000CBFF064B06221A70F2E7044B07221A70C5
:10A3F000EEE7024B01221A70EAE700BF202E002090
:10A400004FF0102358694FF080531A695B69B0F11F
:10A41000FF3F00D0704703FB02F0FBE708B5FFF7F2
:10A42000EFFF034B1861A0F54050D86008BD00BF96
:10A430002023002008B50146014800F0CCFD08BDEE
:10A44000F02E002008B5064B05221A70054902239C
:10A450008B80002301220968034801F027FA08BD18
:10A46000202E0020042F00202023002008B50D4BB3
:10A470005B8803EB830291000B4A0A44D26812B155
:10A48000FFF7E0FF08BD074A0421117003EB8303C7
:10A490009A0005491144002301224968034801F04C
:10A4A00005FAEFE7202E00203C2E0020202300207C
:10A4B00000B583B0054B1968002300930823044AB4
:10A4C000044801F025F903B05DF804FB042F0020D7
:10A4D000344A03002023002008B5044B07221A70D9
:10A4E00000225A60FFF7E4FF08BD00BF202E0020C5
:10A4F00000B583B0002300930823044A01460448B2
:10A5000001F006F903B05DF804FB00BF2C4A03001C
:10A5100020230020F8B530B90B79032B0ED8DFE8E3
:10A5200003F0071E38432E4B00225A600120F8BD6D
:10A5300001230B71FFF7BCFF0028F8D0284B002245
:10A540005A600E20F3E70A469B001C18A100002465
:10A5500054540A445068FFF7CBFF01230FE0002357
:10A56000012B0AD8184603EB83018A001D498A5C37
:10A57000022AE8D001339BB2F2E700230F20002B20
:10A58000DAD1174B01221A7000225A6041F61D5091
:10A59000CDE700230B71144902228A800122096849
:10A5A000124801F083F9C7E700250D710E4C2068B1
:10A5B000FFF79EFF0E4B5988D4F800C0094E8A0061
:10A5C0005718BB0033445F682760C3F804C0A788EE
:10A5D0001F810223A38053189A00B554ACE700BF33
:10A5E000182E00203C2E0020042F002020230020C5
:10A5F000202E002008B5064B06221A705B8803EB5C
:10A6000083039A00034B13445868FFF771FF08BD9A
:10A61000202E00203C2E002000B583B0022383753D
:10A62000002300930423C218054801F071F8034683
:10A6300018B9184603B05DF804FB0E23F9E700BF14
:10A640002023002000B583B0036983B10323837501
:10A6500000230093042300F10C020831064801F0A6
:10A6600057F8034628B9184603B05DF804FB0123E8
:10A67000EDE70E23F7E700BF2023002000B583B0ED
:10A68000012383750269C388002000909B000C3170
:10A69000054801F03DF8034618B9184603B05DF8C7
:10A6A00004FB0E23F9E700BF2023002000B583B090
:10A6B0000378032B10D00623837500230093042313
:10A6C00000F108021944064801F022F8034628B9AF
:10A6D000184603B05DF804FB0523EDE70E23F7E70A
:10A6E0002023002010B582B00C46002300930423E1
:10A6F000094A0146094801F00BF850B9024604EB3B
:10A700008404A100064B0B4401211974104602B0C9
:10A7100010BD0E22FAE700BF284A030020230020C4
:10A720003C2E002070B50C468B8A03EB83018A0017
:10A730002A4D154498B929489A00D618B1000E46FA
:10A74000014449683044068901EB8606A37D062B47
:10A750000BD8DFE803F0152D21270C333D002146EF
:10A760002846FFF721FC012614E00F260EE01C48C6
:10A7700000234360A36903601A49FFF789FC50B3C3
:10A7800031462046FFF748FF06461EB121462846BF
:10A79000FFF70AFC304670BD31462046FFF752FFF6
:10A7A0000646F2E731462046FFF768FF0646ECE72B
:10A7B00031462046FFF77AFF0646E6E70623A375F3
:10A7C000084B1988064B5868FFF78CFF0646DCE7F4
:10A7D00041F61D56DAE70A26DCE700BF3C2E0020D2
:10A7E000FC2D0020102F002010B584B0044600235B
:10A7F00001930293C36800930DF10E016846FFF7C1
:10A8000047FC50B101988388E38003882381BDF819
:10A810000E10FFF767FF04B010BD0A20FBE7000031
:10A8200030B583B009484268094B19689C88538841
:10A8300003339BB203250570002000909B0001EBC1
:10A840008401044800F064FF03B030BD202E0020D6
:10A85000042F00202023002008B5064B191D58881E
:10A86000FFF7EAFB10B9FFF701FE08BDFFF7D8FFBD
:10A87000FBE700BF202E002008B50748FFF73AFD90
:10A8800010B1FFF7E9FF08BD044B00221A705A808F
:10A890005A6041F61D50F6E7222E0020202E00209F
:10A8A00030BB08B5144B1B7B6BB1134B00221A73E2
:10A8B000114B1B78013B062B1CD8DFE803F0070A7D
:10A8C0000D101B131600FFF773FDF1E7FFF7D4FF20
:10A8D00008BDFFF7C1FFFBE7FFF7A2FFF8E7FFF7AF
:10A8E000C5FDF5E7FFF786FEF2E7FFF7F5FDEFE7B9
:10A8F000012070470F20EBE7202E002010B584B018
:10A900000B4B01AA00210630FFF7FCFB40B10446C7
:10A9100008220021064808F077FF204604B010BD49
:10A92000034B99880298FFF7DDFE0446F5E700BF68
:10A93000142F0020B8B908B50B79012B0BD023B127
:10A94000022B12D141F61D5008BD02230B7108469F
:10A95000FFF74AFFF8E70846FFF7D0FF0A28F3D1D0
:10A9600041F61D50F0E7012070470F20ECE7000092
:10A9700008B50146014800F03AFB08BDF02E002062
:10A9800008B50121034800F0E5FB003018BF0120A5
:10A9900008BD00BF002F002010B586B0044625E09A
:10A9A0002848FFF747FD284B186023E02046FFF7B3
:10A9B000B1FD002844D00023019303930493059331
:10A9C00041F61D53984239D002901F4C01A92068CE
:10A9D000FFF7DCF901A8FFF7C7F900232360194846
:10A9E000FFF7C6FFFFF7CCFF50B30024164B1B68E0
:10A9F000002BD5D0144B19680B78013B052B1BD8C5
:10AA000001A252F823F000BFADA9020021AA020062
:10AA100021AA020029AA020029AA020031AA0200E2
:10AA20002046FFF77FFEC4E72046FFF783FFC0E71D
:10AA30002046FFF735FFBCE70F20BCE70020C3E747
:10AA400006B010BD302E0020382E002008B540681A
:10AA5000FFF7A2FF08BD000008B50121014800F082
:10AA60006EFB08BD342E002008B5FFF7D7FC00228E
:10AA70000249034800F016FE08BD00BF484C030021
:10AA80002023002008B51C238C220249024800F034
:10AA90006DFA08BD642E0020F02E002010B501468E
:10AAA000044800F081FA04461C22002108F0ACFEA4
:10AAB000204610BDF02E002008B50146014800F0E8
:10AAC0007FFA08BDF02E002008B50121034800F0F0
:10AAD0002BFB00B108BDFFF75FFFFBE7002F002055
:10AAE0002DE9F04182B0354C2478002C59D0002952
:10AAF0005CD00D884FF6FF74A54259D04C88002CCD
:10AB000058D04C6814F0030F56D11E460C46074629
:10AB1000002A2FD01388ADF80630B2F802806846BC
:10AB2000FFF7BCFF054600282FD006700023837571
:10AB3000BDF80630838263680361FFF78DFFE8602C
:10AB400023882B816388AB80A5F80680032E23D051
:10AB500000236B816846FFF7AFFF3FB100237B60A6
:10AB6000EA683A60BB72164B1B893B81FFF7ACFF6A
:10AB7000002217E0B1F808800DF106014046FFF70A
:10AB800021FA02460028CAD00CE0BDF80610404663
:10AB9000FFF744FA082205E00423AB753B68AB617C
:10ABA000D6E70222104602B0BDE8F0810522F9E79F
:10ABB0000422F7E70422F5E70322F3E7182E00202A
:10ABC000202E002008B5084B1B68042B0AD0034632
:10ABD00005480168054A42F82130012100F0AFFA2A
:10ABE000002008BD0C20FCE70C2F0020082E0020C0
:10ABF00030B587B000230193029303930493059328
:10AC0000264B1B782BB9264800F0AFFA40B1002440
:10AC100003E001A8FFF7A8F80024204607B030BDE4
:10AC2000FFF722FF04460028F7D1FFF72BFFFFF7BD
:10AC3000ADFA054602282DD0062811D050B368463B
:10AC4000FFF72CFF40B301220270013D0A2D12D8FC
:10AC5000DFE805F00F110F111D111D11171A170054
:10AC60000E4B01221A7000225A6001A8FFF77CF8EF
:10AC7000D3E7002202716846FFF71EFFFFF724FFAB
:10AC8000CBE703220271F6E702220271F3E7012209
:10AC90000271F0E70B24C0E70824BEE7182E00205D
:10ACA0001C2E0020F8B170B582B00446E9B10D4603
:10ACB0000DF10601FFF7ECF9C8B16668BDF8063082
:10ACC00003EB8303980008300A4B18440121043039
:10ACD00000F035FA2E6063680C336B600123A372B9
:10ACE000002002B070BD052070470520F9E70A205A
:10ACF000F7E700BF3C2E002000B330B583B0044618
:10AD00000DF10601FFF7C4F9D0B1BDF8063003EB31
:10AD1000830291000D4A0A44D2689AB1A27A9AB18C
:10AD20000A499A00D518A80005460844C0680138A9
:10AD30002944C8600020A07203B030BD05207047D0
:10AD40000A20F9E70620F7E70620F5E73C2E002069
:10AD500008B502230022FFF7C3FE08BD28B108B5DD
:10AD600003230022FFF7BCFE08BD0520704700004A
:10AD7000104B1B78BBB14FF6FF73984215D010B53E
:10AD800082B0044601A8FFF789FE80B10522027057
:10AD900001220271C48001A8FFF78EFEFFF794FE26
:10ADA000002002B010BD0220704704207047082028
:10ADB000F7E700BF182E00200E4B1B78B3B100B58B
:10ADC00083B001A8FFF76AFE90B10622027001A8C5
:10ADD000FFF772FE084B1B7813B1074B01221A7361
:10ADE000FFF772FE002003B05DF804FB02207047FD
:10ADF0000820F8E7182E0020202E002000B583B090
:10AE0000ADF8060002A820F8041D01460DF1060069
:10AE1000FFF778F903B05DF804FB10B582B002AC1F
:10AE200024F8020D13460A4621460020FFF76AF96E
:10AE300002B010BD10B582B002AC24F8020D13466A
:10AE40000A4600212046FFF75DF902B010BD20B18F
:10AE500029B103680B60002070470520704705206A
:10AE6000704710B483B050E8013F9CB2B0F80EC0F8
:10AE70006444B0F80CC0644528BFA4EB0C04B0F8DF
:10AE800008C0644502BFBFF32F8F002208E0C4EA68
:10AE9000030440E8014CBCF1000FE4D14FF0010283
:10AEA0008DF807200093009B0B609DF8070003B00E
:10AEB0005DF8044B704750E8012FC2EA024240E8B7
:10AEC0000123002BF7D1704710B483B050E8023F44
:10AED0001FFAA3F4B0F806C0644502BFBFF32F8F7A
:10AEE000002211E0B0F80EC06444B0F80CC0644514
:10AEF00028BFA4EB0C04C3EA044440E8024CBCF1B4
:10AF0000000FE3D14FF001028DF807200093009B62
:10AF10000B609DF8070003B05DF8044B704750E8E4
:10AF2000022FC2EA224240E80223002BF7D17047E9
:10AF300082B050E8022FC188B2EB324F4FF00003CD
:10AF400017BF92B241EA014142EA014104E042687E
:10AF5000B2EB324F08BF012340E80212002AE8D1C9
:10AF60008DF807309DF8070002B0704781B110B42A
:10AF70000C46B2FBF3F103FB112189B251B9046015
:10AF8000416081608281C38108465DF8044B70474F
:10AF90000E2070470920F8E708B5FFF7C9FF08B190
:10AFA000002008BD1120FCE738B505460C46FFF728
:10AFB00058FF18B128682388184438BD0020FCE7E2
:10AFC00008B50A884B889A4201D0002008BDFFF7D7
:10AFD00072FF0120FAE738B505460C46FFF774FF0B
:10AFE00018B128686388184438BD0020FCE708B50C
:10AFF0000A884B889A4201D0002008BDFFF78FFFD6
:10B000000120FAE708B54B0901F01F01012202FAFD
:10B0100001F100EB830000F066F808BD10B54B09A4
:10B0200001F01F040121A14000EB830000F050F863
:10B03000E04000F0010010BD08B54A0901F01F0111
:10B04000012303FA01F1C94300EB820000F061F82B
:10B0500008BD4B0950F8230001F01F01C84000F063
:10B06000010070472DE9F04106460F46002500E03B
:10B0700001357B1E5B090133AB421BD906EB85080A
:10B0800056F82510C94391FAA1F1B1FA81F11F29AF
:10B09000EED801EB4514A742EAD921463046FFF726
:10B0A000BDFF40B1D8F80010C94391FAA1F1B1FA3F
:10B0B00081F1ECE73C462046BDE8F08150E8002FE6
:10B0C0000B4640E8003C9CF0000FF7D1104670475B
:10B0D00050E8002F42EA010340E8003C9CF0000FDA
:10B0E000F6D11046704750E8003F43EA010240E8BD
:10B0F000002C9CF0000FF6D11046704750E8002F4E
:10B1000002EA010340E8003C9CF0000FF6D1104633
:10B11000704750E8003F03EA010240E8002C9CF031
:10B12000000FF6D11046704750E8002F02EB0103E4
:10B1300040E8003C9CF0000FF6D11046704750E804
:10B14000003F03EB010240E8002C9CF0000FF6D119
:10B150001046704750E8003FA3EB010240E8002C86
:10B160009CF0000FF6D11046704708B50121FFF79B
:10B17000AFFF08BD08B50121FFF7B5FF08BD08B551
:10B180000021FFF7BBFF08BDC368008A00FB013048
:10B190007047C368C91A008AB1FBF0F0C0B27047AB
:10B1A000C0B110B4044682684368D21AD2B20168B2
:10B1B0000B6005E021680A68501C086013701A468D
:10B1C000531EDBB2002AF5D12368002018715DF808
:10B1D000044B70470E20704730B583B0044602A878
:10B1E000002300F8013DFEF77DFD226813686168C9
:10B1F0008B4217D9591E116013F8011C2046FFF726
:10B20000C3FF0546A368226811685B1ADBB2117997
:10B21000994200D213719DF80700FEF78FFD284672
:10B2200003B030BD0025F6E770B582B005460E4686
:10B2300002A8002300F8013DFEF754FD2B681C68AE
:10B24000621C1A6031462846FFF7A3FF20709DF864
:10B250000700FEF773FD02B070BD826842B110B501
:10B26000044643690168006998470023A36010BD44
:10B2700070470EB400B582B0039921B902B05DF8F1
:10B2800004EB03B0704702AA04AB42F8043D00F09F
:10B2900008F9F3E710B5026883685C1C8460D15438
:10B2A000826843689A4200D210BDFFF7D6FFFBE7E1
:10B2B0002DE9F84F82460F4616461D46DDF82890C8
:10B2C0000B9A0B464FF0010803E0B3FBF6F308F1CD
:10B2D0000108B342F9D2A84500D2A84612F0010BEA
:10B2E00013D1B9F1000F10D012F0020F0FD085B1B9
:10B2F000202405E009F1FF3921465046FFF7CAFF37
:10B30000B9F1000F01D0C145F4D8012409E020248F
:10B31000F6E73024F4E7B7FBF4F39E4205D806FBCA
:10B3200004F4012DF7D9013DF9E7B7FBF4F304FB71
:10B3300013770E4AD15C5046FFF7ACFFB4FBF6F42E
:10B34000002CF2D1BBF1000F02D0B9F1000F07D1F0
:10B35000BDE8F88F09F1FF3920215046FFF79AFF29
:10B36000B9F1000FF4D0C145F4D8F1E73C4A03002D
:10B370002DE9F04782B082468846154699460A9ED6
:10B380000B9F81EAE173A3EBE173012402E093FBDD
:10B39000F5F301349D42FADD4C4500D24C4636B1FE
:10B3A000B8F1000F02DB17F0040F00D0013E17F0D8
:10B3B000020F02D0B9F1000F03D017F0010F00D136
:10B3C000CEB9B8F1000F1BDB17F0040F1FD107F047
:10B3D0000303022B20D0019700964B462A46414694
:10B3E0005046FFF765FF02B0BDE8F087013E20211F
:10B3F0005046FFF74FFF002EE3D0A642F6D8E0E715
:10B40000C8F100082D215046FFF744FFDFE72B214C
:10B410005046FFF73FFFDAE7B9F1000FDBD12EB955
:10B42000D9E7013E30215046FFF734FF002ED2D03D
:10B43000A642F6D8CFE7F8B506460D46144613F0F7
:10B44000010F0ED119B3084608F03AFA074619E081
:10B45000013501373046FFF71DFF29780029F7D164
:10B4600006E00027F9E7013C20213046FFF712FFF4
:10B47000BC4215D9002CF6D112E0013C2021304607
:10B48000FFF708FFBC4208D9002CF6D105E00027E1
:10B49000F8E701353046FFF7FDFE29780029F8D19D
:10B4A000F8BDF0B583B0054616460C46002940F0BD
:10B4B0008480D4E00027012303E047F00107013432
:10B4C00083B121782D29F8D0302903D02B2905D03C
:10B4D0000023F5E747F002070134F1E747F00407DE
:10B4E0000134EDE700222A290CD02178A1F13000A7
:10B4F000C0B209280CD8013402EB820250000A18AD
:10B50000303AF0E73368191D31601B681A44013482
:10B5100023782E2B02D00023217810E00134002361
:10B520002178A1F13000C0B20928F5D8013403EB2D
:10B53000830043000B44303BF2E714F8011F6C29F1
:10B54000FBD06829F9D02539532932D8DFE801F03A
:10B55000803131313131313131313131313131318C
:10B5600031313131313131313131313131313131CB
:10B5700031313131313131313131313131313131BB
:10B5800031313156313131313131313131312A407E
:10B5900031313131403131313131316A3131613123
:10B5A0004B31315633681A1D326019782846FFF73F
:10B5B00071FE01342378002B4FD014F8011B0029B1
:10B5C0004BD025293FF476AF2846FFF763FEF1E71D
:10B5D0003168081D30600968019700920A222846E8
:10B5E000FFF7C6FEE5E73168081D3060096801977E
:10B5F00000920A222846FFF75BFEDAE73168081D51
:10B60000306009680197009210222846FFF750FE2B
:10B61000CFE731680B1D33603B4609682846FFF7CA
:10B620000AFFC6E733681A1D32601F6830212846BA
:10B63000FFF730FE78212846FFF72CFE0023019308
:10B6400008230093102239462846FFF731FEB0E761
:10B6500025212846FFF71EFEABE72B7B0BB903B075
:10B66000F0BD2846FFF7F9FDF9E7C3688B4206D81D
:10B67000114401390369994203D900207047002021
:10B6800070470120704710F0030F0CBF012000200D
:10B69000704743681B68013B0B420CBF0120002030
:10B6A0007047000010B582B030B1A9B101600C68DC
:10B6B0001146A04702B010BD0F4B1048C01AC00879
:10B6C00000040E2400940E4B0E4A0F4940F0010076
:10B6D000FDF7E2FB2046EDE7074B0848C01AC0081B
:10B6E00000040E240094064B084A074940F001006C
:10B6F000FDF7D2FB2046DDE7546D0300AC6D03007F
:10B700004C4A0300004B0300084B0300344B03007A
:10B710002DE9F04383B000282FD0894616461C46F9
:10B720000546002A39D00768002F46D0002B54D098
:10B7300043685A68B4FBF2F302FB1343002B5CD15D
:10B740000846FFF7A0FF002867D03046FFF79BFFB1
:10B75000002872D0224649462846FFF786FF002877
:10B760007BD0D7F80C800A9B00932346324649468B
:10B770002846C04703B0BDE8F083404B4048C01A9C
:10B78000C00800040E2400943E4B3F4A3F4940F05D
:10B790000100FDF781FB2046ECE7384B3848C01A22
:10B7A000C00800040E240094364B394A374940F053
:10B7B0000100FDF771FB2046DCE7304B3048C01A32
:10B7C000C0080004082400942E4B324A2F4940F050
:10B7D0000100FDF761FB2046CCE7284B2848C01A42
:10B7E000C008000409240094264B2B4A274940F046
:10B7F0000100FDF751FB2046BCE7204B2048C01A52
:10B80000C0080004092400941E4B244A1F4940F03C
:10B810000100FDF741FB2046ACE7184B1848C01A61
:10B82000C008000410240094164B1D4A174940F02C
:10B830000100FDF731FB20469CE7104B1048C01A71
:10B84000C0080004102400940E4B164A0F4940F023
:10B850000100FDF721FB20468CE7084B0848C01A81
:10B86000C008000410240094064B0F4A074940F01A
:10B870000100FDF711FB20467CE700BF546D03007B
:10B88000AC6D0300604A0300004B0300084B03004B
:10B89000944B0300884B0300444B03009C4B030074
:10B8A000C84B0300E04B0300044C03002DE9F041BA
:10B8B00082B0F0B10E46154698460446076847B375
:10B8C000002A36D0FFF7E5FE002842D063681A68E8
:10B8D00005FB02F231462046FFF7C7FE002848D09C
:10B8E0003F6943462A4631462046B84702B0BDE884
:10B8F000F081284B2848C01AC00800040E24009488
:10B90000264B274A274940F00100FDF7C5FA20469B
:10B91000ECE7204B2048C01AC0080004082400941B
:10B920001E4B214A1F4940F00100FDF7B5FA2046A1
:10B93000DCE7184B1848C01AC0080004092400941A
:10B94000164B1A4A174940F00100FDF7A5FA2046A8
:10B95000CCE7104B1048C01AC00800041024009413
:10B960000E4B134A0F4940F00100FDF795FA2046AF
:10B97000BCE7084B0848C01AC00800041024009413
:10B98000064B0C4A074940F00100FDF785FA2046B6
:10B99000ACE700BF546D0300AC6D0300744A0300B4
:10B9A000004B0300084B0300884B0300444B03008B
:10B9B000884A0300B04A030029DF704728DF704738
:10B9C00003689B683BB300B587B0002300930293E4
:10B9D00003930493019183680593037943B1012B89
:10B9E00010D003689B686846984707B05DF804FB71
:10B9F00001238DF8003003690293C3680393436900
:10BA00000493EEE702238DF80030C3681B03029312
:10BA100043690493E5E7704710B542698369D21A18
:10BA2000B2F5805F28BF4FF4805292080469C16864
:10BA3000012A38BF012219441819FFF7BDFF10BDB4
:10BA400008B5C26800691044FFF7B8FF08BD0000E0
:10BA5000114B0022DA6003791BB1012B11D00020B9
:10BA6000704742698369D11AB1F5805F94BF5B1852
:10BA700003F5805383619A4201D000207047012072
:10BA800070470369013303614269934201D000208A
:10BA900070470120704700BFB82F0020064AD368C6
:10BAA0000133D360082B04D913460022DA60012049
:10BAB00070470020704700BFB82F0020084670472D
:10BAC00000207047024B187A003018BF01207047E1
:10BAD000B82F0020034B01225A74187AB0FA80F074
