:1000000000000120790300006103000011130000CB
:1000100065030000670300006903000000000000A2
:100020000000000000000000000000006B03000062
:100030006D030000000000006F030000710300006A
:10004000212D000073030000612D0000312D000000
:100050003D2D00007303000019290000C13000008D
:10006000B9320000CD320000E132000089300000DA
:1000700073030000AD2F0000730300007303000042
:100080001D330000E10700002D2E0000552D00005B
:100090007D080000493200004F3200005532000058
:1000A0005B32000061320000F532000009330000CD
:1000B000FD2D0000B52B0000000000000000000036
:1000C000730300000D2E00001D2E0000492D0000BE
:1000D00099300000992A000073030000000000001E
:1000E0000000000000000000000000000000000010
:1000F0000000000000000000000000000000000000
:1001000000000000000000000000000000000000EF
:1001100000000000000000000000000000000000DF
:1001200000000000000000000000000000000000CF
:1001300000000000000000000000000000000000BF
:1001400000000000000000000000000000000000AF
:10015000000000000000000000000000000000009F
:10016000000000000000000000000000000000008F
:10017000000000000000000000000000000000007F
:10018000000000000000000000000000000000006F
:10019000000000000000000000000000000000005F
:1001A000000000000000000000000000000000004F
:1001B000000000000000000000000000000000003F
:1001C000000000000000000000000000000000002F
:1001D000000000000000000000000000000000001F
:1001E000000000000000000000000000000000000F
:1001F00000000000000000000000000000000000FF
:10020000364937480A1A02D0072291438D463549AC
:1002100035480A1A06D00722914381F30988022241
:1002200082F3148831483249324A00F045F83248A6
:100230003249334A00F040F832483349334A00F03B
:100240003BF833483349344A00F036F833483449F0
:10025000344A00F031F834483449354A00F02CF87B
:1002600034483549354A00F027F8354835490022E9
:1002700000F02DF834483549002200F028F83448C1
:100280003449091A082903DB0022026004300160A6
:10029000314A90471F482049884205D002680430FF
:1002A00003B4904703BCF7E700208646EC460020E5
:1002B00000212A4A9047FEE7884207D0521A05D00B
:1002C000037801300B700131013AF9D1704788424F
:1002D00002D002700130FAE77047000000000120F0
:1002E00000E000200000012000000120D474000084
:1002F000340000204C000020D8030000D803000088
:1003000014430000D47400003400002034000020A6
:10031000A8430000A8430000A8430000A843000031
:10032000A8430000A8430000A8430000A843000021
:10033000D4740000EC7400004C0000204C0000203D
:100340004C000020501500205015002050150020B2
:100350005015002050350020A10300001534000086
:10036000FEE7FEE7FEE7FEE7FEE7FEE7FEE7FEE765
:10037000FEE7FEE7704700BF1048804710484FF087
:100380000701884385460F4880470F48016841F4BC
:1003900070010160BFF34F8FBFF36F8FFFF730BF66
:1003A0000A480B490B4A884207D0521A05D00378F5
:1003B00001300B700131013AF9D17047750300002B
:1003C00000000120993E000088ED00E07443000029
:0803D0000000002034000020B1
:1003D80003F000B80021084602F0C2BF10F1360F42
:1003E8000AD058B148F2115248F2165310F1380F9A
:1003F8000CBF10461846704748F21450704708B5AD
:100408000846114602F01EFA002008BD37B504461A
:10041800002002F0D9F9054678B90434204603F0E3
:100428007AFC00952B462A460549204603F0EDFC48
:1004380003B0BDE83040FFF7D1BF03B030BD00BF07
:100448000704000008B5043003F06AFC02F0DCF988
:10045800002008BD012907B5034604D08168D1F8FA
:100468003C11890707D500221146184603B05DF8EC
:1004780004EB01F03BBA536800931368034A022166
:1004880001F0FEF903B05DF804FB00BFE045000091
:100498002DE9F74F8368D3F83C51C5F3400506466C
:1004A80035B10022114603B0BDE8F04F01F01EBA85
:1004B800724BDFF82CB21A68C2F3072A5A68CDF8D3
:1004C80000A012F0010F6E4A98464FF008016D4BDC
:1004D80008BF13466C4A01F0D3F9554502D103B061
:1004E800BDE8F08F002000F02DFBC8F80850D8F8C0
:1004F8001070D8F80C40002000F026FBFA072B46B5
:1005080006D4624A0821304601F0BAF90135E4E719
:100518005F4A0821304601F0B3F9C7F344035A1C77
:1005280001239340621E019313440093594A2346C2
:100538000821304601F0A4F9C7F30263564A5BF874
:1005480023300821304607F47C1401F099F9B4F5FA
:10055800C02FC7F3C2492AD01CD8B4F5003F17D022
:100568000DD87CB3B4F5803F4ED0B9F1030F4DD907
:100578004A4A4B4B17F4802F18BF134623E0B4F5B3
:10058800802F1FD0B4F5A02F3ED0B4F5403FECD15A
:10059800434B18E0B4F5402F09D00AD8B4F5002F22
:1005A800F6D0B4F5302FF3D0B4F5E02FDDD13B4BC6
:1005B80009E0B4F5801F25D0B4F5A01F22D0B4F50A
:1005C800702FF3E7374B384A0821304601F058F9C5
:1005D800B4F5C02F08D033D8B4F5003F4AD017D8A7
:1005E80014B1B4F5803F1CD1304B314A0821304654
:1005F80001F046F92F4A304B17F0805F08BF1346C9
:100608002E4A7FE72E4BDEE72E4BDCE72E4BDAE750
:10061800B4F5802FE8D0B4F5A02FE5D0B4F5403F6D
:1006280024D0B9F1030F27D94FEA8909C7F3014349
:1006380009F00C0943EA0909244B53F82930D4E797
:10064800B4F5402FD0D008D8B4F5002FCCD0B4F5ED
:10065800302F0DD0B4F5E02FC5E7B4F5801FC3D017
:10066800B4F5A01FC0D0B4F5702FBCE7184BBCE799
:10067800184BBAE7184BB8E7184BB6E790ED00E00F
:10068800764400006E44000017450000464500000F
:100698005C450000714500009F450000B44400001F
:1006A800AD4400007F440000AF450000F044000066
:1006B800BE450000F344000014450000CF4500008B
:1006C800C64400009B440000CD440000C84300001D
:1006D800FC44000002450000F64400000C45000000
:1006E800A84300002DE9F74F8368214D2E68D3F801
:1006F8003C41C4F34004074634B10022114603B01C
:10070800BDE8F04F01F0F2B82B681A4ADFF86C80A8
:10071800DFF86C90082101F0B3F86B68164A0821DD
:10072800384601F0ADF8C6F30726B44202D303B049
:10073800BDE8F08F002000F005FAAC60D5F810A0F5
:10074800D5F80CB0002000F0FFF9234642460821F6
:100758003846CDF800B001F093F82346CDF800A054
:100768004A460821384601F08BF80134DDE700BF1E
:1007780090ED00E0184400002B4400003E440000C7
:1007880057440000024B4FF43C6043F00103184704
:100798001047000038B50C4B0C4C4FF40032C3F82E
:1007A800802001254FF48033C4F84833C4F8083357
:1007B8006560FFF7E7FF064BA56000241C60FFF7A4
:1007C800E1FF044B1C7038BD00E100E0001001405F
:1007D8006801002059010020F8B51F4B1F491B680C
:1007E8000025C1F84051C1F84451C1F84851C1F839
:1007F8004C51C1F80051C1F804514BB3D1F804452C
:1008080017490968641A24F07F442F461A68A242DF
:1008180009D8A41A15441A7CDE691AB11F74D3E9E1
:1008280005209047AEB90F4B0F4A197813788B42C1
:1008380005D10133DBB2022B08BF002313701278F5
:100848000A4B43F822500A4B4FF48012C3F8002198
:10085800F8BD3346DAE700BF6C0100200010014004
:100868006801002064010020650100205C0100206F
:1008780000E100E02DE9F74F9E4A9F491378097877
:100888009E4D99423CD00133DBB2022B08BF0023B6
:1008980013709B4912789B4B0F6853F822003B1842
:1008A80023F07F4300220B602B68164614469446BB
:1008B80013B942B12B6006E0196881420ED902B122
:1008C8002B60091A19604FF001082B68DFF83CA269
:1008D80000930027BEB9DFF83CB260E0401A0C4430
:1008E800D968C3F800C0D3F81CE031B13A1922F036
:1008F8007F42C3E90121DE611E4601227346D7E724
:100908000026B046E1E73446F6697D4A6368126816
:10091800DFF804C2A068991A21F07F41614500F20E
:10092800A58001442160012222742A680023C4E9B9
:100938000133E361002A40F0A2802C60CAE75A1C08
:100948009BF80210D2B291428BF8002004BF00221B
:100958008BF80020182202FB03B32A6819799C68D7
:10096800022974D003297ED0012918D1217CB1B97C
:10097800DA6862601A69A2605A699B69A361624B6E
:10098800E2601B78002BC0D06160BEE79C4200F09B
:1009980093809946DB69002BF8D1002323749BF8D8
:1009A80000309BF801209A42C9D12B682FB9009AD0
:1009B800934202D1B8F1000F43D0002B79D0D3F87D
:1009C80000A0524D4E4BD5F804751C68DFF84C81D9
:1009D8003E1B98F8003026F07F4603369BB94FF44B
:1009E8008033C5F84433C5F80433494B4FF400321B
:1009F8004FF00109C3F880211A60C5F80090FFF78D
:100A0800C1FE88F80090B2452CBF5444A41924F0C4
:100A18007F44C5F84045D5F80435DB1B23F07F43F8
:100A2800E41B033324F07F44A3420AD9D5F80435E4
:100A3800C5F84035FFF7A6FE354B4FF40032C3F832
:100A48000021314B00221A7003B0BDE8F08F134625
:100A58009146A0E71174D2690123002AFAD1002B2C
:100A68009DD02A609BE700231946F6E7D31A23F0A6
:100A78007F43834234BFC31A0023236053E72168AE
:100A88001368994213D8591A1160E26155E7091A97
:100A9800D8691A4638B1034618688842F7D3401A0D
:100AA8001860184613462160E061DC6112E71346BE
:100AB800F2E7FFF76FFEC4E74C450DD1D3692B6011
:100AC80053B90F4801920121CAF8081003600E4B70
:100AD8001970FFF757FE019AE1692368C9F81C10DD
:100AE80011B1086803440B602B689A4218BF0127AC
:100AF80053E700BF64010020650100206C0100205D
:100B0800680100205C01002058010020001001400D
:100B180000E100E04C000020FEFF7F0059010020AA
:100B280072B6024A136801331360704770010020DF
:100B3800034A1368013B136003B962B6704700BFEC
:100B480070010020FFF7ECBFFFF7F2BF70B5064E4B
:100B58000546002456F824300BB12846984701343E
:100B6800042CF7D170BD00BF800100200B4A0C4B4C
:100B78005188142000FB0131CB6833B9042049683F
:100B880010700122074801F0B6BB0523064913700F
:100B980002238B80012200230968F3E798010020D3
:100BA800B001002000000020EC01002007B5002360
:100BB80005490093054A09680548082301F06DFBBB
:100BC80003B05DF804FB00BFEC01002024470000DF
:100BD8000000002007B50023009301460823034ABC
:100BE800034801F05AFB03B05DF804FB1C47000002
:100BF8000000002013B500230C460093014604238F
:100C0800074A084801F049FB38B9074B142202FB90
:100C180004340123237402B010BD0E20FBE700BF8B
:100C28001847000000000020B001002037B50A482E
:100C38000A4B42689C88196853880325033305705A
:100C48009BB2002000909B0001EB8401044801F056
:100C580024FB03B030BD00BF98010020EC01002048
:100C6800000000204388033300EB8303994209D333
:100C780082884FF6FF739A4206D00088B0FA80F057
:100C8800400970470220704701207047144A142316
:100C980003FB002070B50B6844680D4604F58056C8
:100CA8009BB15C88033403EB8404B4420BD2236801
:100CB800013308D031462046FFF7D4FF012809D078
:100CC80005D30228F1D1002003E00834EDE72C60B9
:100CD800012070BD6388033304EB8304E5E700BF9C
:100CE800B0010020436873B505460C466BB3254A2E
:100CF800D1688B4229D31269934226D813F0030294
:100D080023D121490089098988421ED12868996818
:100D180088421AD11D494868834203D900F580509A
:100D280083420ED38A6993420DD902F580529342C9
:100D380009D2012323800020B0FA80F0400902B0D4
:100D480070BD1346F6E70A20F6E7002323801E4607
:100D58002388012B01D90020F1E7019601A92088F9
:100D6800FFF794FF18B9238801332380F0E7019B2C
:100D78002A6899689142F1D16B60034B1B892B81DA
:100D8800DDE700BF0000002098010020B00100202E
:100D98002DE9F8431C461E4B1B7806460F461546A0
:100DA800002B30D0002A30D07CB3DFF86C804FF0B5
:100DB8001409A388012B01D90A201AE009FB03F3BF
:100DC80018F80330BBB1A3880133A380F1E7236887
:100DD8001EB19988328891420DD11FB119883A887D
:100DE800914208D19A68C5E900230A4B1B892B81D7
:100DF8000020BDE8F8832146A088FFF747FF0028B8
:100E0800E5D12060DFE70220F3E70520F1E700BF26
:100E18009001002098010020B001002008B5074B80
:100E2800191D5888FFF732FF18B1BDE80840FFF7D1
:100E3800FDBEBDE80840FFF799BE00BF980100203D
:100E48002DE9F04FA04FDFF8A49289B00646B846C6
:100E58003B6823B949469D4800F08CFA3860D8F8B9
:100E6800005029784B1E052B00F21281DFE813F0A1
:100E7800060076007600060106015D0126B1944B56
:100E880000225A60012424E02B79032B1DD8DFE8C7
:100E980003F01502424D8F490B78022B084631D0DA
:100EA8000B7D022B4FF001032ED114225343C2189D
:100EB8000020C8545068FFF78DFE03E001232B7112
:100EC800FFF774FE002800F0D380814B00225A609F
:100ED8000E241422002103A803F08EF941F61D53B5
:100EE8009C4208BF0024D8F8003004941A78023ACB
:100EF800042A00F2D381DFE812F0B401C001E30153
:100F0800EB01F2010023D0E7714A1370002353600C
:100F180041F61D54DDE770497048002302222B7109
:100F28008A800122096801F0E6F9CBE76A4C0026BD
:100F38002E712068674DFFF74DFE694BD4F800C04D
:100F48005A8814235343EA18EE5451682160A18843
:100F5800C2F804C011810222A280B3E7B5F814A038
:100F6800AA7DDFF870B1AEB1022AEB8806D9142148
:100F780001FB0AB1DA1C088902440A81142202FB27
:100F88000ABAC3F57F43BAF80A20FD331344AAF816
:100F98000A3077E7142303FB0AB318895C6804EB6B
:100FA8008004062A05D8DFE802F0264C34421C5893
:100FB80066000F24AA7DEB88022A06D9142101FBBA
:100FC8000AB1DA1C088902440A81142202FB0ABA0F
:100FD800C3F57F43BAF80A20FD331344AAF80A3050
:100FE80077E74048404900234360AB690360FFF757
:100FF80079FE00285AD00223AB75002300930423FE
:10100800EA182146354801F048F9002830D00E2466
:10101800D0E72B69002B0CBF01230323AB750023FA
:10102800009305F10C02042304F10801EAE7012307
:10103800AB750022EB8800929B002A6904F10C0131
:10104800E0E7032914BF06230523AB7500230093AB
:10105800042305F10802E118D4E70623AB75224BF7
:101068001988204B5868FFF7C5FD04460028A1D110
:1010780009B0BDE8F08F41F61D549BE7002E7FF4C0
:1010880001AF2B79012B33D004D3022B3FF440AFAF
:101098000F241EE702232B710DF10A01EB6803935D
:1010A80003A8CDE90466FFF71DFE08B90A2410E776
:1010B8000498BDF80A108388EB8003882B81FFF71A
:1010C80099FD044627E000BFAC010020D8010020AC
:1010D80090010020B0010020EC0100200000002059
:1010E8009801002074010020F4010020A8010020CC
:1010F800DFF808A203AA53463146A81DFFF748FEA9
:10110800044660B9BAF804100498FFF773FD044662
:101118000A2C3FF4FDAE002C7FF4DBAEA8E70822D2
:101128003146504603F068F8F2E7002E7FF4AAAE85
:101138006D4B1A7BB2B11E731A78013A062AA7D8EA
:1011480001A151F822F000BFF71100001D120000A4
:101158003B120000411200009910000047120000E5
:101168005D1200001A78072AE6D801A151F822F08A
:10117800991100004111000041110000BF11000049
:10118800D3110000F3110000F3110000BB1100009F
:101198001A89564901321A8100225A801A730A782C
:1011A800B2FA82F252099A720A7DB2FA82F25209AE
:1011B800DA72012207E04E4958688A88408803326B
:1011C80002448A8002221A70B6E7484C5A88484975
:1011D800142505FB0242086854685060888810810D
:1011E80002228A800C600622EDE70722EBE79A7A52
:1011F80032B9DA7A8AB900221A705A805A6087E6B8
:101208003A4900229A72CA68002AF2D1097C002958
:10121800EFD05A80FFF702FE53E70022DA72334A12
:10122800116A0029E7D192F82420002AE3D001228C
:10123800EFE7FFF7FBFC44E7FFF798FC41E70622DE
:101248001A702A4A5B88142101FB03235868FFF7A8
:10125800C1FC36E707221A7000225A60FFF7A6FC85
:101268002FE701228DF80C201A89ADF818209A88EA
:10127800DB68ADF81A20059310E002228DF80C20E7
:101288001A89ADF818209A88ADF81A20DA689B7D7B
:1012980005929A1F534253418DF81C3003A8FFF75B
:1012A80055FC002649461348C8F8006000F08DF840
:1012B8000121114800F099F800287FF4C9ADD7E65C
:1012C80003228DF80C20DA88ADF818201A89CFE7A8
:1012D8000422DB888DF80C20ADF81830DEE70523F2
:1012E8008DF80C30DAE700BF98010020B00100202B
:1012F800EC010020D8010020E8010020F8010020BE
:101308004068FFF79DBD00001EF0040F1CBFEFF3FF
:1013180009800AE0EFF308800549064A884201D8A7
:10132800904202D88D464FF00000034B184700004A
:101338000000012000E0002069130000BFF34F8F78
:101348000549064BCA6802F4E0621343CB60BFF359
:101358004F8F00BFFDE700BF00ED00E00400FA0575
:1013680008B5034B9A6ADB6AFFF7E8FF08BD00BFC0
:1013780000ED00E037B550E8023F1FFAA3F5C48836
:10138800A54202BFBFF32F8F00220DE0C489254478
:101398008489A54228BF2D1BC3EA054540E80254AD
:1013A800002CE8D14FF001028DF803200193019B36
:1013B8009DF803200B6002F0FF0322B14B88006800
:1013C800184403B030BD1846FBE70A884B889A4298
:1013D80009D150E8022FC2EA224240E80223002B3A
:1013E800F7D1012070470020704750E8003FA3EB79
:1013F800010240E8002C9CF0000FF6D1104670471F
:101408002DE9F0438368D3F83C61C6F3400689B000
:10141800074636B10022114609B0BDE8F04300F096
:1014280065BA012906D91E4A022109B0BDE8F04370
:1014380000F026BA1B4C1C4DDFF870901823E218F8
:101448002D1B4FF06408B5FBF3F503FB0525183495
:10145800AC4202D109B0BDE8F08354F8180C54E945
:101468000523017900689A1A1B1ADBB2039308FB5B
:1014780003F3B3FBF2F3CDE9016334F8043C0093C2
:10148800CDE9061254F8083C11FB08F13846B1FBC7
:10149800F2F1CDE904214A46082100F0F1F9D6E736
:1014A800544700002C4300002C430000674700000D
:1014B80008B102F0FBBE70472DE9F047089C1E46B4
:1014C80009BB1B4F1B4CE41BE4089442B94606D9E0
:1014D8001948E50000EB82080C46A54201D100231B
:1014E8000EE009EB0403D8F800005B68196802F005
:1014F800B6FE07EB040A08340028EED1DAF8043007
:101508003360BDE8F0870028E9D00178436839B135
:101518002146104698472368002BE0D03460F0E756
:10152800120199189B58002BD9D03160E9E700BF08
:1015380034430000744300001400002007B583689A
:10154800B9B1DA7B8A4211D00B4A009233228DF866
:10155800042001F12F028DF805206D22ADF8062038
:10156800D9736A460549006900F0DDFC03B05DF8EF
:1015780004FBD973024AF5E71B5B313B9B4B000028
:101588005D480000836807B51A7C8A4213D045F687
:101598001B32ADF8002034228DF8022001F12F0211
:1015A8008DF803206D22ADF8042019746A460349AA
:1015B800006900F0B8FC03B05DF804FB9B4B000029
:1015C800014A024900F0AFBC5A4800009B4B00009A
:1015D8000A460068014900F0A6BC00BF8548000023
:1015E80009B1FFF7F5BF70472DE9F34106460F46ED
:1015F8001446002514B902B0BDE8F081706803688C
:101608002246D3F80C80791901ABC047019B1D44D1
:10161800E41A002BEED1B3681A78032AEAD0D3F87B
:101628003C219206FBD593F83C216FF3451283F8D1
:101638003C21DFE72DE9F04F054685B017460E46F9
:10164800002979D00C46A4EB060A14F8010B02F025
:10165800A5FD0028F7D1BB1B01935FFA87F8304638
:10166800FFF726FFAB685C7BA0EB0A00E41BA042F7
:1016780006EB0A095ED9019BCB46A3EB0A02ABEB4A
:1016880009039BF800000392029302F087FD039A76
:1016980028B19BF80000029B0A281C4607D0A868BE
:1016A800407B02EB0B0398420BF1010BE7D828694A
:1016B80000F02EFC224649462846FFF795FF544481
:1016C8003444A4EB060A14F8010B02F067FD002865
:1016D800F7D12C4654F8100FFFF772FF4146204609
:1016E800FFF77EFFBBE70134A04218D019F8043099
:1016F8000A2B0AEB0408F6D1286900F009FC2246F7
:101708002C4649462846FFF76FFF54F8100FFFF79D
:1017180057FFF9B2204608F1010AFFF761FF28696F
:1017280006EB0A0100F0FFFB286905B0BDE8F04FA1
:10173800FFF746BF0024D7E705B0BDE8F08F0000EB
:101748000A4619B10249006800F0EDBB704700BFB6
:101758007F4800000A4619B10249006800F0E3BB5F
:10176800704700BF8B4800002DE9F34106468068AA
:10177800414F00248022214694308DF8034002F026
:101788003BFD3E49306900F0CEFB306900F0C0FBFC
:101798004FF47A7547F00107706803680122D3F89F
:1017A80010800DF1030101ABC047019B5BB94FF6F7
:1017B800C010B847019B002BEED1013DADB2002D02
:1017C800EAD10D2034E09DF80320B3681B2A47D0E6
:1017D80093F894101B29EDD1522A41D11C440022C0
:1017E80084F8942093F895105B291ED103F1960094
:1017F800022510F8011B0135EDB23B296CB21AD154
:10180800002C20DB05F193041C44002114F8010F7F
:10181800D8B9FA2988BFFA21FA2A88BFFA22002003
:1018280019729A7283F8940002E083F894200B20CE
:1018380002B0BDE8F08102EB820201EB4202303ACD
:10184800802D92B2D5D10C20F2E70135303801EB6A
:101858008101EDB200EB4101280689B2F3D4D5E746
:1018680019190134E4B2092C81F89420A2D9002274
:1018780083F894200420DBE7A048000070480000AB
:101888000CB4F7B508AB02AD53F8046B45F8043D4A
:101898000F468168D1F83C315B07044620D5CB7BE5
:1018A800BB421DD002220F31684602F07CFC39464B
:1018B8002046FFF743FE2A463146206900F0A8FB80
:1018C8009DF800102046FFF739FE9DF8011011B170
:1018D8002046FFF757FE03B0BDE8F04002B070475E
:1018E8002A463146206900F093FBF4E72DE9F04FD2
:1018F800044689B08248DFF82C9217460E4602F05B
:10190800D5FC05467F4802F0D1FCA3687E4A5B6897
:10191800CDF8009008212D1A1B682046FFF7B0FF6C
:10192800A3685B681868FFF7C3FD8046484602F065
:10193800BDFCA3685B6808EB000292B259682046B8
:10194800FFF778FE714A08212046ADB2FFF798FFED
:101958003FB136B14FF00C09B04609FB0769C145E4
:1019680028D1684802F0A2FC02300544ADB2644BAD
:10197800009305F10308664A082120462B461FFA02
:1019880088F8FFF77DFF424662492046FFF752FE7E
:1019980036B10C23DFF8789103FB0767B74223D1F0
:1019A800A3685B68D3F80890B9F1000F5AD109B061
:1019B800BDE8F08FD8F80400FFF77AFD8246D8F822
:1019C8000000FFF775FD5044A8420AD9D8F8040072
:1019D800FFF76EFD0546D8F80000FFF769FD0544DE
:1019E800ADB208F10C08BAE7D6E9002393B34AB3BD
:1019F8000192444A00920821474A2046FFF740FFD7
:101A08007068FFF755FD83463068FFF751FD824641
:101A18003C4802F04BFCA5EB0B03A3EB0A031B1A93
:101A2800D9B204F11000FFF7DBFD3A223B492069E7
:101A380000F079FAB16889B142462046FFF7FAFD0D
:101A48000C36ABE700932B464A4608212046FFF7A1
:101A580017FFEFE7002AEDD00092F4E72069FFF7BF
:101A6800AFFDEDE70DF12008002248F8142D1646C9
:101A780004AF009743460121484602F1010AFFF7E7
:101A88001BFD039D5DB12868FFF712FDB04204D924
:101A9800039B1868FFF70CFD86B25246E9E7BAF1D6
:101AA800010F84D01E4A08212046FFF7E9FE06F1FF
:101AB800020A2A46164D1FFA8AFA43460097012160
:101AC800484602F1010BFFF7F7FC039B002B3FF49C
:101AD8006EAF1B680093082153462A462046FFF73D
:101AE800CFFE039B596831B1721D92B22046FFF7B1
:101AF800A1FD5A46E1E72069FFF762FDF9E700BF5B
:101B0800A6480000B04B0000944B0000BF4A0000FC
:101B1800CA4A0000D24A0000E54A000057480000BF
:101B2800EE4A000075480000022910B504460AD1A3
:101B38008368D3F83C319B0705D500221146BDE8E0
:101B48001040FFF7D3BE2069054A064900F0EBF9BB
:101B58002069054A0349BDE8104000F0E4B900BF18
:101B6800614800009B4B00006548000010B5836881
:101B7800D3F83C2192070C4606D500221146FFF700
:101B8800B5FE0124204610BD0029FBD05B68034A3E
:101B98001B680221FFF774FEF4E700BFCC49000080
:101BA800012937B50546144606D10022114603B06F
:101BB800BDE83040FFF79ABE023918BF0121FFF790
:101BC800D5FF48B963680193044B0093044A23681E
:101BD80002212846FFF754FE03B030BD4B4A0000EF
:101BE800414A000011F1FF3110B518BF0121044628
:101BF800FFF7BCFF40B9054A0549206900F093F991
:101C0800A36845F218029A8110BD00BF6A48000017
:101C18009B4B000001292DE9F3410446154637D1B5
:101C28008668FFF7A1FD38BBA36804F11005FA2107
:101C3800284693F808809F7AFFF7CAFC20691E4956
:101C4800FA2200F070F92046FFF78EFDA0B9A368CC
:101C5800197A7173A368A1EB08019B7A337328463C
:101C6800C9B2FFF76DFD317BC91BC9B2284602B066
:101C7800BDE8F041FFF76EBDA36845F218029A81EE
:101C88000E4A0421204602B0BDE8F041FFF7F8BD36
:101C9800022994BF00210121FFF768FF48B96B684A
:101CA8000193074B00932B68064A02212046FFF751
:101CB800E7FD02B0BDE8F08179480000844A0000E1
:101CC8004B4A0000414A00002DE9F04111F1FF3173
:101CD80086B018BF01210546FFF748FF40BBAB6837
:101CE800DFF85480D3F834610446EEB1082C1BD0D9
:101CF80030460023092203A900F064FB9DF8142054
:101D0800A968304609230132943100F05BFBAB68C7
:101D1800049E94330093671C2346424608212846B4
:101D2800FFF7AEFD3C46E0E7AB68002283F894205D
:101D380006B0BDE8F08100BF794A000011F1FF311B
:101D480010B518BF01210446FFF710FF30B9A2688B
:101D580092F83C3160F3820382F83C3110BD11F1F6
:101D6800FF3110B518BF01210446FFF7FFFE30B957
:101D7800A26892F83C3143F0040382F83C3110BD6C
:101D880011F1FF3110B518BF01210446FFF7EEFE2F
:101D980030B9A26892F83C3160F3C30382F83C3151
:101DA80010BD11F1FF3110B518BF01210446FFF72E
:101DB800DDFE30B9A26892F83C3143F0080382F89E
:101DC8003C3110BD022973B50D4694BF0021012195
:101DD80004461646FFF7CAFE58B9022D0BD17368A0
:101DE80001930D4B00930D4A336829462046FFF7AF
:101DF80047FD02B070BDA368094AD3F83C3113F01F
:101E0800080F084B18BF1346074A0821204602B09E
:101E1800BDE87040FFF734BD4B4A0000414A00005E
:101E2800604A0000634A0000674A000011F1FF3170
:101E380010B518BF01210446FFF798FE48B9A368FA
:101E4800C3F82C01E3685B68BDE81040186800F02F
:101E5800FCBB10BD30B511F1FF3185B018BF0121B1
:101E68000446FFF783FEB8B9E3685B681D68284637
:101E780000F0E8FBAB68A168C2B2CDE90123642099
:101E88005043B0FBF3F0C0B20090D1F82C31034AB4
:101E980008212046FFF7F4FC05B030BD084A0000D1
:101EA800012906D0022908D18368D3F83C319B0761
:101EB80003D500221146FFF719BD024A0221FFF798
:101EC800DFBC00BF434B0000012907B506D1002243
:101ED800114603B05DF804EBFFF708BD02290AD1EB
:101EE80053680193084B00931368084AFFF7C8FC2E
:101EF80003B05DF804FB8CBF0121002103B05DF83D
:101F080004EBFFF733BE00BF4B4A0000414A000014
:101F1800826810B504462AB1436901680069984788
:101F28000023A36010BD0EB403B5039929B102AA1A
:101F380004AB42F8043D00F06BF802B05DF804EB26
:101F480003B07047826830B40468551C8560A1549A
:101F5800D0E901329A4202D330BCFFF7D9BF30BC76
:101F6800704700002DE9F84F9946DDE90A43174606
:101F7800824688460A460126BA420FD24E4538BFE5
:101F88004E4613F0010B01D164B900240125B9F1C3
:101F9800010F1AD909F1FF397D43F8E7B2FBF7F2CF
:101FA8000136E9E79B070ED5B9F1000F0CBF3025C4
:101FB8002025A642EAD2013C29465046FFF7C2FF37
:101FC800002CF6D1E1E72025F3E7B8FBF5F39F42B3
:101FD800E2D9DFF83890B8FBF5F3504619F803104A
:101FE80005FB1388FFF7AEFFB5FBF7F5002DF2D11F
:101FF800BBF1000F02D00CB1A64201D3BDE8F88FA7
:1020080020215046013CFFF79DFFF4E7424E0000B7
:102018002DE9F74F054690460E46002900F03A8113
:1020280016F8011B002958D0252940F0D180002737
:1020380002E047F001071646324612F8013B2D2B05
:10204800F7D0302B04D02B2B05D147F00407F2E74B
:1020580047F00207EFE700242A2B06F101021BD103
:10206800D8F80030191D1B68C8F800101C44164623
:1020780033782E2B1CD101364FF0000A314611F867
:10208800012BA2F13000092814D80A2303FB0A23E4
:10209800A3F1300A0E46F1E712F8013CA3F1300132
:1020A8000929E5D80A2101FB0434303C1646D3E758
:1020B8004FF0000A324612F8011B01F0FB006828B5
:1020C8001646F8D0692916D054D8582970D00ED899
:1020D80025297DD03378002BA2D12B7B002B00F053
:1020E800D980284603B0BDE8F04FFFF711BF632938
:1020F80068D06429EED1D8F80020D2F80090111DDC
:1021080089EAE972C8F80010A2EBE9724FF0010BF6
:10211800092A61DCD34538BFD3462CB1B9F1000F89
:1021280001DB790700D5013CBA0702D5BAF1000FE7
:1021380004D0FB0702D4002C54D10024B9F1000FBD
:1021480058DAC9F100092D212846FFF7FBFE07F0F0
:102158000302022A05D1BAF1000F02D1002C4DD199
:102168000024CDE9004753460A2249462846FFF78E
:10217800F9FEAFE7732954D016D87029AAD1D8F838
:1021880000301A1DC8F80020302128461C68FFF7C7
:10219800D9FE78212846FFF7D5FE00220823CDE98D
:1021A800003221461022E1E775292FD0782991D1F4
:1021B800D8F800100A1DC8F80020CDE9004753469A
:1021C80010222CE0D8F800301A1D1978C8F8002021
:1021D8002846FFF7B7FE7DE70A230BF1010B92FBB8
:1021E800F3F295E7A345A9D220212846013CFFF741
:1021F800A9FEA0E77807AAD52B21A5E7A345B0D269
:1022080030212846013CFFF79DFEA7E7D8F80010CB
:10221800CDE900470A1DC8F8002053460A2209687C
:10222800A4E7D8F800301A1DC8F80020F907D3F839
:10223800009012D54F46A7EB090B17F8011B41B9BF
:10224800A345BFF447AF20212846013CFFF77AFE9B
:10225800F6E72846FFF776FEEDE7B9F1000F17D04D
:10226800484602F023F80746BC4200D954B909F1A0
:10227800FF3919F8011F00293FF42CAF2846FFF752
:1022880061FEF6E720212846013CFFF75BFEEBE7FD
:102298004F46E9E703B0BDE8F08F2DE9F04108B3F8
:1022A80002B3D0F800E0BEF1000F1ED0FBB14768C2
:1022B800D7F80480B3FBF8F708FB1737BFB942EA31
:1022C800010C1CF0030F14D1C768B94211D34C1E7E
:1022D80005691C44AC420CD8DEF80C40A446BDE8A5
:1022E800F04160470E20BDE8F0810820FBE7092097
:1022F800F9E71020F7E7F0B5D8B1D0F800C0BCF185
:10230800000F18D0CAB14768D7F800E00EF1FF37C0
:102318000F4214D1C768B94211D34C1E05690EFB90
:102328000244AC420BD8DCF81040A446BDE8F040AB
:1023380060470E20F0BD0820FCE70920FAE71020CE
:10234800F8E72DE9F047B0F806904479D2F800A0F4
:102358009DF8208009FB04F4043C06460AEB0300C0
:10236800A0420F4688BFA4EB030A191DC2F800A0BB
:10237800B1FBF9F509FB15114DB9A9EB0104544559
:1023880028BF5446BAF1000F04D1BDE8F08736687B
:10239800013DF1E704317B1970182246B8F1000FAE
:1023A8000ED001461846AAEB040A01F0FCFED145FE
:1023B800254436684C464FF0000128BF5446E1E7F3
:1023C8001946F0E71FB504AC44F8042D0122009229
:1023D8002246FFF7B6FF04B010BD026813685268C2
:1023E800934291BFD01A80680130801888BFC01A04
:1023F80070472DE9F84303681D685C68A54284BFEF
:10240800836801331746884694BF641B5C1BC26807
:102418004168BC42064605FB02110CD37A4340468C
:1024280001F0C1FEB3683D449D4288BF0025336872
:102438001D60BDE8F88304FB02F94A46404601F0F6
:10244800B2FEF26871683C1B624308EB090001F0B8
:10245800AAFE33681C60ECE7036881681A685B6849
:102468008B4234BF01330023D31A58425841704776
:10247800F8B5044600200D46FEF764FB2046FFF73A
:10248800EBFF10B1237C002B3CD12268A66853686F
:102498005168B14234BF01310021516030B1116837
:1024A800A068814234BF013100211160E268606890
:1024B800511E072920D8DFE801F004101F141F1F40
:1024C8001F182A78C2542046FFF787FF23689A68A6
:1024D800824200D29860002415E02A8820F8132050
:1024E800F1E72A6840F82320EDE7D5E9006700EB1B
:1024F800C300C0E90067E6E7294603FB020001F0D4
:1025080052FEE0E704240020FEF71EFB2046F8BD3B
:1025180070B505460E46144682B10020FEF712FB40
:102528002846FFF75AFFA0420AD3224631462846DA
:10253800FFF75FFF00240020FEF706FB204670BD72
:102548000524F8E710B504460020FEF7FBFA2068DA
:102558000C22002101F050FE0020BDE81040FEF7DB
:10256800F3BA10B504460020FEF7ECFA2046FFF750
:1025780034FF04460020FEF7E7FA204610BD0000AD
:102588002DE9F04F8368D3F83C319B078BB00646A2
:1025980006D5002211460BB0BDE8F04FFFF7A6B9EB
:1025A800012906D9214A02210BB0BDE8F04FFFF7F7
:1025B80067B91F4C1F4D204FDFF88080DFF88090EF
:1025C80018232D1BB5FBF3F503FB0545AC4202D1DF
:1025D8000BB0BDE8F08FE36809932368D4F808A02E
:1025E800D3F808B02046FFF7BCFF94F810C0642366
:1025F80003FB00F1BCF1000F0CBF3A46424603FB57
:102608000BF3B3FBFAF3CDE9043BB1FBFAF1099BF9
:102618000191CDE906A2CDE9020A00934A46636911
:1026280008213046FFF72CF91834CFE7544700004B
:10263800144300002C4300008C4E0000954E00000F
:10264800A14E0000036898687047036800229A60EA
:10265800704700004FF4A06310B500FB033308482F
:102668000849C218A3F5806303444FF4806093427D
:1026780000D310BD53F8044B8C42FAD10438F6E766
:10268800000300200ED0ADDE2DE9FF47374F064688
:102698000024B9460020FEF755FA0C2363435FFA7D
:1026A80084F8DD592DB13B445D68314B002D08BFDE
:1026B8001D460020FEF748FA002D47D04046FFF798
:1026C800C9FF23462B4A082182463046FFF7D8F82F
:1026D8002B46294A08213046FFF7D2F84FF4A0626A
:1026E80002FB04F1254A531802F2FF320A44BAF1F8
:1026F800000F31D04FF48061CDE902A1642101FBC4
:102708000AFA4FEA9A21CDE9002130461C4A0821ED
:10271800FFF7B6F81B4B1B78434524D01A4B1A68B1
:102728004FF00043E3401342184A194B18BF1346B1
:10273800184A08213046FFF7A3F80C2303FB04933B
:10274800154A9B6808213046FFF79AF80134032C94
:10275800A0D104B0BDE8F087009208210F4A3046A6
:10276800FFF78EF8D6E70E4BE2E700BF0012002015
:10277800AE4F0000D04F0000DB4F000000040020E7
:10278800E94F00000002002004020020C74F0000AB
:10279800B54F00003B500000485000002350000097
:1027A800BF4F000007B502A901F8010D0548FFF762
:1027B8005FFE0448FFF750FE08B100F0D7FB03B0F6
:1027C8005DF804FB1443000038B50C4D2B7893B921
:1027D8000B4B0C49002808BF18460388284620F8E8
:1027E800013F00F081FB044618B900F0ADFB01235E
:1027F8002B70204638BD8524FBE700BF74120020EB
:102808005B500000AD27000008B500F0AFFB00F0FA
:10281800B5FB0348FFF796FE024B00221A7008BD6D
:10282800144300007412002010B50A4601460448FB
:10283800FFF76EFE044600F087FB204610BD00BF80
:1028480014430000F8B505460C4604B9F8BD402C01
:10285800264628BF4026F7B239462846FFF7E4FF48
:102868000028F9D1A41B3544EFE700F1804000238C
:1028780082B0036003680193019B02B070470000B7
:10288800124B1B6810B573B14FF48070FFF7EDFF62
:102898004FF080430122C3F808230D4B587910B933
:1028A8005A711B6898470B4B1B6873B14FF48270C1
:1028B800FFF7DBFF4FF080430222C3F80823044BE5
:1028C80001201B68BDE81040184710BD00010040FA
:1028D800781200200401004000F1804000F5C0405B
:1028E800002382B0036003680193019B02B0704724
:1028F800800000F1A040D0F8003723F44033C0F83E
:102908000037D0F8003743EA0141C0F80017704794
:102918002DE9FF470024594A594E5A4D0194012187
:102928001368A2F5C040012B80B206D1D6F8043353
:102938000B4202D0FFF7D0FF0C430432AA424FEA01
:102948004101EDD1504B1B68012B0AD14FF4BE70E9
:10295800FFF7C2FF4FF0A04344F00044D3F810350E
:10296800019314F0FF0F1AD0484F01260025344276
:1029780010D0AB0003F1804303F5C043D3F8100532
:10298800D3F8101557F82530C0F30420C1F30141DE
:1029980003B198470135082D4FEA4606E7D1002CC8
:1029A80068DA00224FF0FF33CDE90223DFF8DC902C
:1029B80001260024A0464FF0A04709EB080393F92D
:1029C8005020531C45D0D2B222F0C005E90804A813
:1029D800084402F0070310F804CC06FA03F31CEAD3
:1029E800030F36D009EB050C92099CF930C059F851
:1029F8002CA0BAF1000F0AD1032A2AD10DF1080E32
:102A08001EF801C04CEA030C0EF801C001E0032ACD
:102A1800F4D005F5E07110F80C0C57F821101842A5
:102A2800C1F3014105D0022913D1032A0BD1114664
:102A380004E003290DD1032A05D102212846FFF716
:102A480057FF0134E4B2BAF1000F02D0114628460C
:102A5800D04708F10108B8F1040FAED154B14FF0D6
:102A6800A043019AD3F81035934203D00193029BF7
:102A780003939EE704B0BDE8F08700BF0061004003
:102A880000600040206100407C610040801200200E
:102A9800F0B5394B394C1A6885B07AB100221A6002
:102AA8001B680093009B637943F0080303F012024C
:102AB800122A637104BF43F020036371304B1A6814
:102AC8007AB100221A601B680193019B637943F075
:102AD800040303F01102112A637104BF43F02003B9
:102AE8006371284B1A68B2B100251D601B680293F8
:102AF800029B254B25480422C3F808232946C3F81E
:102B08000055236898472368214829469847012398
:102B1800237105B0F0BD637903F00F020F2A08D0C6
:102B2800D80701D4190704D462799207F1D45B0756
:102B3800EFD56379266803F0F30313F0200708D074
:102B480003F0D30343F01003637101210020B04761
:102B5800DFE70E4A92E8030002AD85E8030012E9B8
:102B6800030043F0100382E80300C4E902776371AD
:102B780001212846EBE700BF14510240DC12002077
:102B8800045102400851024000500240EC1200205B
:102B9800E412002000F1804000F5E830002382B004
:102BA800036003680193019B02B070471FB53D4B5A
:102BB8003D4C1A68002A4AD04FF48070FFF7EAFFAC
:102BC800A37CDA4302F0010204EB8201496811B9DF
:102BD800617C02292ED1607C022818BF04EB830394
:102BE8004FF000011ABF58680290012304A80CBFD7
:102BF800637459604FF0010300F80C3D23688DF8A9
:102C08000C10E1740CBF0291A2749847637C022BEC
:102C180001D101236374237D53B101238DF804305E
:102C2800002302938DF80C30237501A82368984778
:102C380004B010BDE37C002BE8D18DF8043002937A
:102C480001238DF80C30E37401A82368DDE7174BE6
:102C58001B68002BDFD04FF48270FFF79BFF144BEB
:102C6800C3F80025A37C627404EB83038DF80C2061
:102C780059688DF8042021B15A600291236801A88F
:102C88009847A37CDB4303F0010304EB83035A68F2
:102C98002AB1029200225A6001A8236898470023AB
:102CA800A374B8E700D10140F412002004D1014018
:102CB80000D001404FF0804310B5D3F804436107BA
:102CC80009D5D3F8082103F5847322B100221A60CC
:102CD8000D4B1B689847A20607D50C4B1A6822B102
:102CE800002018600A4B1B68984763060AD5094BF1
:102CF8001A683AB100221A60054B01201B68BDE82A
:102D08001040184710BD00BF0C13002014010040EC
:102D1800101300201801004008B5FFF7CBFFBDE8ED
:102D28000840FFF7ADBD0000014B1B68184700BF06
:102D380014130020014B1B68184700BF1C13002008
:102D4800014B1B68184700BF24130020014B1B6868
:102D5800184700BF2C130020014B1B68184700BF01
:102D6800341300200023435082B043580193019B41
:102D780002B07047D0F8103170B505460C4653B113
:102D88004FF48871FFF7EEFF63795A0703D523687C
:102D98000BB101209847D5F814315BB14FF48A7113
:102DA8002846FFF7DFFF63791B0703D523680BB1BC
:102DB80002209847D5F81C315BB128464FF48E7134
:102DC800FFF7D0FF607910F0100002D1236803B13B
:102DD8009847D5F8043163B14FF482712846FFF75C
:102DE800C1FF0123237123681BB10320BDE8704094
:102DF800184770BD01490248FFF7BCBF3C130020CB
:102E080000C0014001490248FFF7B4BF4413002045
:102E18000010024001490248FFF7ACBF4C130020E4
:102E2800002002407FB52B4B1A68BAB12A4AD2F863
:102E38000413C80712D5002119601B680193019B70
:102E48004FF48073ADF81030D2F80C358DF812308D
:102E5800224B06AA1B6812E903009847204A136808
:102E6800DBB11D4BD3F80413890716D50021116077
:102E780012680292029A4FF48272ADF81020D3F8C9
:102E88001825D3F84835ADF81430144BADF8122096
:102E980006AA1B6812E903009847124B1A68B2B1D8
:102EA8000D4AD2F80423520711D500221A601B6874
:102EB8000393039B06AB4FF4847223F8082D074A4B
:102EC80093E80300126807B05DF804EB104707B0F9
:102ED8005DF804FB0021014000200140541300204C
:102EE800042101400821014010B5134C22780ABB87
:102EF800124B1960037813F0010F114B1EBFD3F862
:102F0800042542F00102C3F80425D3F8002222F078
:102F18000102C3F8002243780A4A5B01DBB282F857
:102F28000D334FF40053C2F880311360012323702E
:102F3800002010BD8520FCE75C13002058130020FA
:102F480000D0004000E100E0064B00221A6082B089
:102F58001B680193019B044B0122C3F804231A60E8
:102F680002B0704700D1004000D00040024A01235F
:102F7800C2F808335360704700D00040064A012366
:102F8800C2F808335360054B4FF40052C3F8802051
:102F9800034B00221A70704700D0004000E100E0A7
:102FA8005C130020074B00221A6082B01B68019353
:102FB800019B054BD3F80805044B1B68C0B202B04F
:102FC800184700BF00D1004000D00040581300202F
:102FD8000023435082B043580193019B02B07047CD
:102FE8002DE9F047DFF8948004460F4691464FF4E8
:102FF8008036002500F5A07AD4F8043305F1500195
:103008008900334289B20DD05AF8253053B1C4F83B
:1030180048632046C4F80863FFF7DAFF58F82730FA
:10302800E8B298470135A9454FEA4606E4D1D4F8F5
:103038000433DA070CD5D4F800314BB120464FF4ED
:103048008071FFF7C5FF0D4B042053F827309847D0
:10305800D4F804339B070ED5D4F804315BB120466D
:103068004FF48271FFF7B4FF044B052053F8273063
:10307800BDE8F0471847BDE8F08700BF601300209F
:10308800032200210148FFF7ABBF00BF00B000409A
:10309800042201210148FFF7A3BF00BF00400240FE
:1030A80000F1804000F5E040002382B0036003682F
:1030B8000193019B02B07047F0B5514B514C1B680E
:1030C80085B0DBB14FF4827094F82E20FFF7E8FF4B
:1030D80012B194F82F30A3B1636802932389ADF835
:1030E8000C30E36800218DF80410002B44D12374C0
:1030F800236801A89847002384F82F3094F82E30CD
:1031080003B3414B1B68EBB14FF48070FFF7C8FF66
:1031180094F82D20638B91B28B4238D95B1A2189A0
:103128009BB26383CB1A616801EB4301374BC3F849
:103138002C16C3F830264FF48270FFF7B1FF344BDA
:1031480001221A60334B1B685BB14FF48870FFF79C
:10315800A7FF002304A82374022300F80C3D23686A
:1031680098472D4B1B6813B34FF48A70FFF798FFED
:103178000023237405B0F0BD208B60836360208139
:10318800E160002AB4D1214B01221A60B0E7D2D104
:10319800E368012184F82F103BB1002161831B49AA
:1031A800C1F82C36C1F83026C5E76383C3E76669E2
:1031B8004FF000470125002EDCD0B6FA86F227FA38
:1031C80002F34632920026EA030602F1804303F531
:1031D800E0431B68002BEED01046FFF761FFA2F515
:1031E8008C72D30882F00402C2F380028DF8083092
:1031F8008DF804508DF80920236801A89847DAE76C
:103208000471004068130020007100400070004005
:1032180004700040107100401471004030B4064A38
:1032280052F82040054A002532F8101022F81050B4
:10323800234630BC184700BFA41300209813002071
:103248000120FFF7EBBF0220FFF7E8BF0320FFF7DD
:10325800E5BF0420FFF7E2BF0520FFF7DFBF2DE938
:10326800F347002406460F46904600F5A0754FF434
:103278008039A24604F150002B68800080B26BB1FF
:10328800D6F8043309FA04F21A4207D0C5F800A0A8
:103298002B680193019BD7E9003198470134E3B2C9
:1032A800984505F10405E5D802B0BDE8F0870000AF
:1032B800042202490248FFF7D2BF00BFBC13002016
:1032C80000800040042202490248FFF7C8BF00BF3F
:1032D800C813002000900040042202490248FFF76A
:1032E800BEBF00BFD413002000A000400622024940
:1032F8000248FFF7B4BF00BFE013002000A0014060
:10330800062202490248FFF7AABF00BFEC130020BB
:1033180000B00140084BD3F80433DB0707B508D5E4
:10332800064B1B689847064B00221A601B680193DE
:10333800019B03B05DF804FB00000140F813002076
:1033480000010140054B1A78022A04D01878431E60
:103358005842584170470120704700BFFC130020B5
:1033680070B5154B6A469A4206460D4619D3FFF7C3
:10337800E9FFC8B1114C236823B1114B1A68114BEE
:103388009A4214D0AEB9A5B90F4810492060FDF78C
:103398003DF828B90A4B0B4A1A6023680C4A1A6090
:1033A80070BD48F21950FBE74FF40540F8E70020DC
:1033B800F6E748F21750F3E700E000204C1500202C
:1033C800441500206572E54B0014002048150020C4
:1033D8006169614D094B0A4A196891420AD1094A43
:1033E8001068094A0168914204D1002202601A60FB
:1033F800FDF728B848F20250704700BF4415002076
:103408006572E54B4C1500206169614DFEE74FF48C
:103418008C72002100F0F0BE20B100F58C73002200
:10342800984200D1704702700130F9E7C02AF0B520
:1034380045D0B2F5807F44D0802A40F0DE800A2350
:10344800036000F10803436052090025AA4201F114
:10345800040138D102680C2A47D00E2A7CD00A2AE7
:103468002BD1674E674D0024D86856F824101A6887
:103478004A40C0F307210134695C4A40010E0A2C16
:10348800695C82EA0142C1B203F11003695C82EA15
:103498000162C0F30741695C82EA012253F80C1CFF
:1034A8001A6082EA010253F8081C5A6082EA010293
:1034B8009A6082EA0002DA60D6D100209FE00C23ED
:1034C800BEE70E23BCE711F8024C11F8036C240484
:1034D80044EA062411F8046C344311F8016C44EAF8
:1034E800066443F825400135B0E7454E454D0024B4
:1034F800586956F824101A684A40C0F30721013465
:10350800695C4A40010E082C695C82EA0142C1B23A
:1035180003F11803695C82EA0162C0F30741695C40
:1035280082EA012253F8141C1A6082EA010253F855
:10353800101C5A6082EA010253F80C1C9A6082EA55
:10354800010253F8081CDA6082EA01021A6182EA71
:1035580000025A61CCD1B0E7294D2A490024D86924
:103568001E6855F824201F697240C0F307260134ED
:103578008E5D7240060E072C8E5D82EA0642C6B248
:1035880003F120038E5D82EA0662C0F307468E5D72
:1035980082EA062253F81C6C1A6082EA060253F883
:1035A800186C5A6082EA060253F8146C9A6082EA30
:1035B8000602D6B2DA608E5D86EA07064FEA12671F
:1035C800CF5D86EA0766C2F30727C2F30742CF5DDD
:1035D8008A5C86EA072686EA024253F80C6C1A616E
:1035E80082EA060253F8086C5A6182EA060280EA07
:1035F80002009A61D861B2D15FE76FF01F00F0BD99
:103608006C610000695000002DE9F04F47680D68B3
:103618003B684C688E68C968DFF89882DFF898E2E2
:10362800DFF898C25D407B685C40BB685E40FB6821
:103638004B4001688FB049100139009107F1300102
:1036480051F8107C0197EFB251F8200C58F8277008
:1036580087EA00091F0E95485EF8277089EA07096E
:10366800C4F307274FEA146B5CF827705EF82BB099
:1036780089EA0709C6F30747203150F8277089EA15
:103688000709E7B25FFA89F058F82770029051F8F5
:103698003C0C87EA000A2F0E84485EF827708AEAF5
:1036A800070AC6F30727C4F307445CF827708AEAB9
:1036B800070AC3F3074750F827708AEA070AF7B2E0
:1036C800CAF30720039058F8277051F8380C474080
:1036D80087EA0B07C3F3072B74485CF82BB087EA1B
:1036E8000B07C5F3074BDBB250F82BB058F8233063
:1036F80087EA0B07C7F30740360E049051F8340CDD
:103708005EF82660C5F307254340684873405CF8B7
:10371800256050F8244051F82C0C05907340634004
:10372800C3F30740069051F8280C0790F8B20890A8
:10373800C3F3072009901D0EC9F30740DBB20A90B6
:103748000D93009B4FEA1A600B90002B51F8240C44
:103758000C905FFA8AF4C7F3072B4FEA1966CAF38D
:10376800074AC9F307294FEA17675CDC5049039BEE
:10377800019811F803C0029B0C5DCB5C4340049890
:10378800085C83EA0C2383EA0043485D059D83EACD
:10379800006311F80B0013706C4084EA002406984B
:1037A800089D085C4D5D84EA0044885D079E84EAB4
:1037B80000640998085C754085EA00250A980C9E03
:1037C800085C85EA00450B98085C85EA00650D9859
:1037D800085C704011F8096080EA062011F80A6058
:1037E800C95D80EA064080EA0161180A5070180C29
:1037F8001B0E9070D370230A5371230C93712B0AFC
:1038080053722B0C93720B0A14711572240E2D0E21
:10381800117353730B0C090ED471D5729373D17352
:103828000FB0BDE8F08F029B5EF8255058F82330A2
:103838001E4858F824405EF827706B40019D6B4085
:10384800039D5CF825505D40049B50F823305D4093
:103858005EF826305C40059B5C405CF82B305C4091
:10386800069B50F823305C40089B58F823600B9B5C
:103878005EF823305E40079B5E40099B5CF823306E
:103888005E400A9B50F823305E400D9B58F8233069
:103898007B400C9F7B405CF829707B4050F82A7075
:1038A8007B40009F013F0097CAE600BF6C590000AB
:1038B800695000006C5100006C5D00006C55000000
:1038C8002DE9F04F47680C683B684E688D68C968F9
:1038D800DFF89C82DFF89CE2DFF89CC25C407B68E2
:1038E8005E40BB685D40FB684B4001688FB0491083
:1038F8000139009107F13001E7B251F8100C58F87E
:103908002770019051F8200C87EA0009370E964875
:103918005EF8277089EA0709C3F307274FEA136B94
:103928005CF827705EF82BB089EA0709C5F30747EA
:10393800203150F8277089EA0709DFB25FFA89F069
:1039480058F82770029051F8340C87EA000A270EBD
:1039580085485EF827708AEA070AC5F30727C3F384
:1039680007435CF827708AEA070AC6F3074750F846
:1039780027708AEA070AEFB2CAF30720039058F8BB
:10398800277051F8380C474087EA0B07C6F3072B16
:1039980075485CF82BB087EA0B07C4F3074BF6B2FF
:1039A80050F82BB058F8266087EA0B07C7F3074092
:1039B8002D0E049051F83C0C5EF82550C4F30724F2
:1039C800464069486E405CF8245050F8233051F85E
:1039D800280C07906E405E40F8B251F82C3C0890D5
:1039E800C6F3072005930990CAF30743C9F30740B4
:1039F80006930A904FEA1A600B9051F8240C0C9029
:103A0800C6F307400D9000980028C9F3072B4FEA2A
:103A180017634FEA1664F5B25FFA8AFAC7F3072705
:103A28004FEA19695CDC51490398019E11F800C0FE
:103A38000298085C7040049E8E5D80EA0C2080EA43
:103A480006400E5D11F80B4080EA06604E5D059D4C
:103A580010706E4086EA0426069C0C5D86EA0446D1
:103A6800CC5C099B86EA0464CE5C089BCD5C079B12
:103A78005D400A9BCB5C85EA062585EA03450B9BDE
:103A88000C9ECB5C85EA036511F80A307340CE5D65
:103A980083EA06230D9E8E5D11F8091083EA06431A
:103AA80083EA0163010A5170010C9170000E210A2A
:103AB800D0705171210C9171290A5172290C91729F
:103AC800190A14711572240E2D0E13735173190CE3
:103AD8001B0ED471D5729173D3730FB0BDE8F08FFC
:103AE800029E5EF8244058F826601F485EF823308E
:103AF8005EF829905CF827707440019E7440039E1C
:103B08005CF826607440049E50F82660744058F8AB
:103B180025605E40059B5E405CF82B305E40069B4E
:103B280050F823305E40089B58F823500B9B5EF8F2
:103B380023305D40079B5D40099B5CF823305D4066
:103B48000A9B50F823300C985D4058F82A3083EAD5
:103B5800090343407B400D98034F57F820700098A5
:103B680001387B400090C7E6946A00009461000029
:103B780094620000946E00009466000010B501295C
:103B8800144621461A4603D1FFF73EFD002010BD1A
:103B9800FFF796FEFAE72DE9F041B2F5C07FADF5E3
:103BA800467D06468846154678D84FF4D0720021DF
:103BB8005EA800F021FB18A8FFF729FC64AF2B0AC8
:103BC80000248DF88A312A463023414638468DF83C
:103BD8008B518DF88F31ADF8884100F0E4FA8023DD
:103BE8007B5504A9193523465B540133202BFBD19F
:103BF8004FF4807218A8FFF719FC00241022002146
:103C0800684600F0F9FA0DF27717A8460DF1FF3370
:103C180007F1100113F8012F17F8010F4240B942BC
:103C28001A70F7D1B8F1100F94BFA8EB0808A8F1E3
:103C380010086B466A46012118A8FFF79FFFB8F1E4
:103C4800000FE3D10CAB18191022694600F0ABFA4B
:103C58009DF87B3110340133302C8DF87B31CDD178
:103C68004FF480720CA918A8FFF7E0FB06F13004A6
:103C780014AB1A46012118A8FFF780FF304610221E
:103C880014A9103600F08FFAB442F1D118A8FFF742
:103C9800C3FB00200DF5467DBDE8F0816FF03700CD
:103CA800F8E7F0B58DB004460D463022002168468D
:103CB80000F0A2FA002704F120060DEB070304F137
:103CC800100111F8012D0132D2B20A700AB9A142CD
:103CD800F7D12246012130461037FFF74FFF302F2A
:103CE800EBD16B1E0DF1FF322F3512F8011F13F8BF
:103CF800010F41409D421170F7D169464FF480721F
:103D08003046FFF793FB102208A9204600F04BFA33
:103D180000200DB0F0BD4FF4A072002100F06CBA85
:103D280010B5044638B12030FFF776FB04F5A073D0
:103D380000229C4200D110BD22700134F9E72DE920
:103D4800F0418369B3F5C07FE0B004468846174662
:103D58002DD8C3F5C073934229D34FF4C072002104
:103D6800684600F049FAD4F83831A269D4F83C0121
:103D7800694698470546E8B9A669B8F1000F07D023
:103D880037B10DEB06003A46414600F00CFA3E44C6
:103D9800324669466846FFF7FEFE69462046FFF749
:103DA80080FF01232361284660B0BDE8F0816FF0F1
:103DB8003705F8E76FF03305F5E72DE9F0410446DC
:103DC80088B0884617460021202204F1200568465D
:103DD8001E4600F011FA2846FFF719FB0F9BA36156
:103DE80042F21073E3616946C4F83881C4F83C7143
:103DF8004FF480722846FFF719FB0E9A3146204689
:103E0800FFF79DFF08B0BDE8F08113B53024019499
:103E1800049C0094FFF7D1FF02B010BD0C4B1B7837
:103E2800062B10D10B4B1B681A070CD10A4B1868CC
:103E380000F0F003302B08D000F0E000A0F14003C0
:103E4800584258417047002070470120704700BF12
:103E5800E00F00F0E40F00F0E80F00F0094B1B78CA
:103E6800062B0CD1084B1B681A0708D1074B18689A
:103E780000F0F000A0F1300358425841704700208C
:103E8800704700BFE00F00F0E40F00F0E80F00F00B
:103E980008B5FFF7C3FF28B17D4B7E4A1B68C3F303
:103EA80004231360FFF7DAFF10B17B4B7B4A1A60DB
:103EB800FFF7B4FF28B17A4B7A4A1B68C3F3423341
:103EC8001360FFF7CBFF20B1774AD36823F08073E4
:103ED800D360FFF7A3FF40B14FF080430022C3F83F
:103EE8000C21C3F81021C3F83825FFF7B7FF10B12C
:103EF8006E4B03221A60FFF7B1FF40B16C4B0522ED
:103F08001A6001229A6700229A603F225A60694B20
:103F18001B78062B50D1684B1B6819074CD1674B8F
:103F28001B6803F0F003502B46D14FF08052644BCE
:103F3800D2F80414C3F82015D2F80814C3F82415CD
:103F4800D2F80C14C3F82815D2F81014C3F82C159D
:103F5800D2F81414C3F83015D2F81814C3F834156D
:103F6800D2F81C14C3F84015D2F82014C3F844152D
:103F7800D2F82414C3F84815D2F82814C3F84C15FD
:103F8800D2F82C14C3F85015D2F83014C3F85415CD
:103F9800D2F83414C3F86015D2F83814C3F864158D
:103FA800D2F83C14C3F86815D2F84014C3F86C155D
:103FB800D2F84424C3F87025FFF730FF28B1414BED
:103FC800414A1B6803F04F031360FFF727FF48B10E
:103FD8004FF08043D3F80024D20744BF6FF00102AA
:103FE800C3F80024394B1B68062B08D1384B1B68D3
:103FF800062B01BF374A136843F480631360364ABF
:10400800D2F8883043F47003C2F88830BFF34F8F7A
:10401800BFF36F8F4FF01023D3F80022002A03DB81
:10402800D3F80432002B2FDA2C4B0122C3F80425D5
:10403800D3F80024002AFBD04FF010221521C2F833
:104048000012D3F80024002AFBD04FF010231522C9
:10405800C3F80422214B1A46D3F800140029FBD0D8
:104068000021C3F80415D2F80034002BFBD0BFF3AD
:104078004F8F19491A4BCA6802F4E0621343CB60A8
:10408800BFF34F8F00BFFDE7164B174A1A6008BDF4
:10409800240300104035014074C007400DF0ADBA4C
:1040A800440200103C050040F0ED00E0A00500408F
:1040B80010560040E00F00F0E40F00F0E80F00F0A9
:1040C80000C0004058020010E40E0040300100100B
:1040D800340100103C17004000ED00E000E0014012
:1040E8000400FA05340000200090D0037F2805D88A
:1040F800034B185C034B5B5C18407047002070470B
:104108009472000014730000A0F16103192B98BF8A
:1041180020387047A0F14103192B98BF2030704711
:104128007F2805D8034B185C034B5B5C184070472D
:10413800002070479472000014730000A0F161031E
:10414800192B98BF20387047A0F14103192B98BF4D
:10415800203070477F299ABF017001206FF02E0030
:1041680070475AB10A787F2A0AD800B10260002144
:1041780019605960501A18BF012070470020704715
:104188006FF02E007047000008B5034B5B689B6812
:104198001B68984708BD00BF3800002008B50821F3
:1041A800FFF7F2FF08BD844640EA010313F0030F4E
:1041B80018D18446202A0BD32DE9F007B1E8F80777
:1041C800A0E8F807A2F12002202AF7D2BDE8F007FC
:1041D800042A07D351F8043B40F8043BA2F1040237
:1041E800042AF7D2002A05D011F8013B00F8013B58
:1041F800013AF9D1604670478446002A2DD010F064
:10420800030F04D000F8011B013A26D0F7E7C9B222
:1042180041EA012141EA0141202A12D3A2F12002F8
:104228002DE9F0030B460C460D460E460F46884610
:104238008946A0E8FA03203AFBD2BDE8F003203211
:104248000BD0042A05D340F8041B043A05D0042AED
:10425800F9D200F8011B013AFBD16046704710F013
:10426800030F19D111F0030F16D12DE970004FF08B
:1042780001364FF0803350F8044B51F8045BAC42E0
:1042880005D1A4EB060525EA04051D40F3D0A0F1ED
:104298000400A1F1040170BC10F8012B11F8013BD6
:1042A800D21A01D1002BF7D11046704700F1010155
:1042B80010F0030F11D010F8012B002A23D010F0B2
:1042C800030F0AD010F8012B002A1CD010F0030F9E
:1042D80003D010F8012B002A15D02DE970004FF0FB
:1042E80001324FF0803350F8044BA4EB020525EA65
:1042F80004051D4000D1F6E7A0F1040070BC10F8D9
:0C430800012B002AFBD1A0EB0100704744
:104314006812002024120020400000000100000068
:08432400000000005D500000E4
:08432C00DD030000D9030000CD
:10433400000000000844000000000000F8470000EE
:1043440000000000A04B000000000000004B000033
:1043540000000000F849000000000000E8490000E7
:1043640000000000544E0000000000006C4F0000EC
:10437400000000000000000009130000000000001D
:044384000000000035
:104388000000000000000000000000000000000025
:104398000000000000000000000000000000000015
:1043A800F0440000344600003A4600004046000051
:1043B800464600004C4600005246000052460000A7
:1043C800F0440000584600006046000066460000C1
:1043D8006C46000002450000744600007C46000060
:1043E800844600008A460000F64400009246000019
:1043F800984600009E460000A6460000FC440000C7
:10440800AC460000B0460000FC4500005D0400001A
:104418004D50555F545950453A0930782530385831
:104428000D0A004D50555F4354524C3A09307825D7
:104438003038580D0A000D0A4D50555F524241520E
:104448005B25755D3A093078253038580D0A004DDE
:1044580050555F524153525B25755D3A09307825B6
:104468003038580D0A00456E61626C656400446915
:104478007361626C6564005374726F6E676C792D3A
:104488006F7264657265642C20536861726561623D
:104498006C65004465766963652C205368617265B4
:1044A80061626C65004E6F726D616C004E6F726D6B
:1044B800616C2C20536861726561626C65004465AB
:1044C80076696365005265736572766564206F72FC
:1044D80020496D706C656D656E746174696F6E20CE
:1044E800446566696E6564002D2D2F2D2D00575487
:1044F8002F57540057422F574200574257412F57C2
:1045080042574100556E6B6E6F776E00584E004DE6
:1045180050552053746174653A2025732C202575F5
:1045280020756E696669656420726567696F6E7368
:104538002061766961626C652E0D0A0D0A0052656C
:1045480067696F6E2025753A2044697361626C65EE
:10455800640D0A00526567696F6E2025753A20451B
:104568006E61626C65640D0A00092D204C6F6361F1
:1045780074696F6E3A093078253038582D307825AF
:10458800303858202873697A653A20257520627971
:10459800746573290D0A00092D20416363657373DF
:1045A8003A0925730D0A00092D20547970653A09D6
:1045B8000925730D0A00092D2043616368696E6738
:1045C8003A0925730D0A00092D20466C6167733A74
:1045D8000925730D0A0D0A0025733A20756E6B6E56
:1045E8006F776E20706172616D657465723A20250F
:1045F800730D0A000000000004460000CC460000CD
:10460800D146000000000000ED060000A94F0000A0
:10461800E5460000000000009904000000000000CA
:1046280000000000000000000000000052572F2D7D
:104638002D0052572F524F0052572F5257003F3FCD
:104648002F3F3F00524F2F2D2D00524F2F524F001A
:10465800574257412F2D2D0057542F2D2D005742CB
:104668002F2D2D002D2D2F574257410057542F57CE
:104678004257410057422F57425741002D2D2F577F
:104688005400574257412F57540057422F57540050
:104698002D2D2F574200574257412F57420057544C
:1046A8002F5742006D707500436F6D6D616E6473B6
:1046B80020666F72204D5055206D616E6167656D83
:1046C800656E740064756D700044756D70204D5092
:1046D80055207265676973746572732E005072692C
:1046E8006E7420696E666F726D6174696F6E206199
:1046F800626F7574204D50552073746174652E0077
:1047080000000000000000000338FDD870470000DA
:104718000000FFFFDEC0ADDEFE011EF1DEC0ADDE33
:10472800FF011EF100000000344700002E48000081
:1047380035480000000000000914000000000000D7
:10474800000000000000000000000000426164203A
:10475800617267756D656E7420636F756E74002580
:10476800730D0A092D20456C656D656E742073699B
:104778007A653A092564202B2025642062797465BE
:1047880073206F6620646562756720696E666F7254
:104798006D6174696F6E0D0A092D20557361676527
:1047A8003A092575252520282575206F7574206FF1
:1047B8006620257520656C656D656E7473290D0A14
:1047C800092D204D6178696D756D3A092575252586
:1047D80020282575206F7574206F66202575206543
:1047E8006C656D656E7473290D0A0D0A0000000072
:1047F800084800000F4800002C470000091400007A
:1048080062616C6C6F6300436F6D6D616E647320E1
:10481800666F722042414C4C4F43206D616E616758
:10482800656D656E74007374617475730050726998
:104838006E7420737461747573206F662062616C86
:104848006C6F6320696E7374616E6365732E0025E7
:1048580063001B45001B5B6D001B5B48001B5B3244
:104868004A001B5B3F336C001B5B366E00202D201B
:10487800001B5B256442001B5B256444001B5B2511
:104888006443001B5B256441000000000000000039
:1048980000000000000000000338FDD870472D68B4
:1048A8002C202D2D68656C700000000000000000B1
:1048B800BC480000FB4C0000024D000034490000D9
:1048C800A91B0000194D00001E4D00006C49000096
:1048D800CD1D00002F4D0000354D0000FC480000A4
:1048E800D11E0000000000000000000000000000D1
:1048F800000000000000000004490000454D0000D1
:104908004B4D000000000000351E0000774D0000F0
:104918007C4D0000000000005D1E0000000000004B
:10492800000000000000000000000000000000007F
:104938003C490000634A0000134E000000000000DC
:10494800451D0000604A00002B4E000000000000DA
:10495800671D0000000000000000000000000000CB
:10496800000000000000000074490000634A0000D5
:10497800A64D000000000000891D0000604A0000EC
:10498800024E000000000000AB1D00000000000007
:10499800000000000000000000000000000000000F
:1049A800AC490000AF4C0000B74C0000000000000C
:1049B800ED1B0000000000000000000000000000E7
:1049C8000000000025733A2077726F6E67207061CF
:1049D80072616D6574657220636F756E740D0A007F
:1049E8009B4C0000A14C000000000000311B00009F
:1049F800734C0000774C0000B4480000A91E00006A
:104A08004C6F7374206C6F67733A2025750D0A4DCF
:104A18006178206C6F67207175657565207574699C
:104A28006C697A6174696F6E3A2025752525205B5B
:104A380025752F25755D0D0A0025733A2573257395
:104A48000D0A0020756E6B6E6F776E207061726153
:104A58006D657465723A20006F6E006F666600457A
:104A680063686F207374617475733A2025730D0A37
:104A7800005B2533645D2025730D0A004E6F20729C
:104A88006573706F6E73652066726F6D20746865EC
:104A9800207465726D696E616C2C20617373756D1D
:104AA80065642038307832342073637265656E200F
:104AB80073697A650D0A004F7074696F6E733A0DE9
:104AC8000A002020252D2A733A0053686F77206347
:104AD8006F6D6D616E642068656C702E00202025F6
:104AE800732573257300537562636F6D6D616E6412
:104AF800733A0D0A000000005A4C0000624C000096
:104B080000000000D11C00006E6F74207465726D87
:104B1800696E617465643A2025630D0A003A206362
:104B28006F6D6D616E64206E6F7420666F756E6454
:104B3800002D68002D2D68656C7000506C656173E0
:104B48006520737065636966792061207375626397
:104B58006F6D6D616E642E0D0A005461622066757A
:104B68006E6374696F6E3A20636F6D6D616E647306
:104B780020636F756E746572206F766572666C6FF0
:104B88007765642E0D0A002020000D0A2573257311
:104B9800000D0A2573000000B34B0000BA4B00005B
:104BA800A44900001D1C00002C2000726573697A5E
:104BB8006500436F6E736F6C65206765747320744E
:104BC80065726D696E616C2073637265656E2073C2
:104BD800697A65206F7220617373756D657320380B
:104BE8003020696E20636173652074686520726582
:104BF80061646F7574206661696C732E2049742036
:104C08006D75737420626520657865637574656475
:104C18002061667465722065616368207465726DD1
:104C2800696E616C207769647468206368616E6777
:104C38006520746F20656E7375726520636F72727C
:104C4800656374207465787420646973706C617925
:104C58002E00686973746F727900436F6D6D616EB1
:104C68006420686973746F72792E00636C690055EB
:104C7800736566756C2C206E6F7420556E69782D7F
:104C88006C696B6520434C4920636F6D6D616E6480
:104C9800732E00636C65617200436C6561722073EA
:104CA800637265656E2E0064656661756C7400419B
:104CB8007373756D65203830206368617273207373
:104CC800637265656E20776964746820616E64201C
:104CD80073656E6420746869732073657474696E93
:104CE8006720746F20746865207465726D696E61E1
:104CF8006C2E00636F6C6F727300546F67676C651E
:104D080020636F6C6F7265642073796E7461782E9E
:104D1800006563686F00546F67676C6520434C4992
:104D2800206563686F2E00737461747300434C4987
:104D380020737461746973746963732E0072657388
:104D4800657400526573657420434C49207374611F
:104D58007469737469637320666F72207468652060
:104D68004C6F67676572206D6F64756C652E007394
:104D7800686F770047657420434C492073746174E9
:104D880069737469637320666F7220746865204C58
:104D98006F67676572206D6F64756C652E00446976
:104DA8007361626C6520434C49206563686F2E20EF
:104DB8004172726F777320616E6420627574746FCC
:104DC8006E733A204261636B73706163652C204493
:104DD800656C6574652C20456E642C20486F6D6584
:104DE8002C20496E7365727420617265206E6F7431
:104DF8002068616E646C65642E00456E61626C6546
:104E080020434C49206563686F2E004469736162D2
:104E18006C6520636F6C6F7265642073796E746162
:104E2800782E00456E61626C6520636F6C6F7265E9
:104E3800642073796E7461782E00303132333435E2
:104E48003637383941424344454600001D4F00007B
:104E58000F480000644E0000892500000000000093
:104E68006C4E00002E480000234F00000000000098
:104E7800892500000000000000000000000000007C
:104E8800000000004F766572666C6F77004E6F20E9
:104E98006F766572666C6F770025730D0A092D2091
:104EA800456C656D656E742073697A653A09256489
:104EB8000D0A092D2055736167653A092575252561
:104EC80020282575206F7574206F6620257520654C
:104ED8006C656D656E7473290D0A092D204D617816
:104EE800696D756D3A092575252520282575206F6A
:104EF8007574206F6620257520656C656D656E7408
:104F080073290D0A092D204D6F64653A0909257327
:104F18000D0A0D0A007175657565005072696E7429
:104F280020737461747573206F662071756575657B
:104F380020696E7374616E6365732E000000000053
:104F48004C4F0000A94F0000A34F000000000000D4
:104F58009126000000000000000000000000000092
:104F6800000000007C4F0000894F0000444F000003
:104F7800000000007461736B5F6D616E616765723C
:104F880000636F6D6D616E647320666F722074616B
:104F9800736B206D616E61676572007461736B730A
:104FA80020696E666F003C4E554C4C3E005375733D
:104FB80070656E6465640052756E6E696E67005246
:104FC800756E6E61626C65005461736B2025753A6D
:104FD8000D0A00094E616D653A09272573270D0AE8
:104FE8000009537461636B3A093078253038582DBD
:104FF800307825303858207573656420696E20250F
:1050080075252520282575206F7574206F66202545
:1050180075206279746573290D0A000953746163F8
:105028006B3A093078253038582D30782530385883
:105038000D0A000953746174653A0925730D0A0055
:1050480009466C6167733A093078253038580D0A7B
:105058000D0A0001066D5F72616E645F706F6F6CA0
:1050680000637C777BF26B6FC53001672BFED7AB93
:1050780076CA82C97DFA5947F0ADD4A2AF9CA47212
:10508800C0B7FD9326363FF7CC34A5E5F171D8318A
:105098001504C723C31896059A071280E2EB27B2B6
:1050A8007509832C1A1B6E5AA0523BD6B329E32FDD
:1050B8008453D100ED20FCB15B6ACBBE394A4C5811
:1050C800CFD0EFAAFB434D338545F9027F503C9F73
:1050D800A851A3408F929D38F5BCB6DA2110FFF392
:1050E800D2CD0C13EC5F974417C4A77E3D645D19BD
:1050F8007360814FDC222A908846EEB814DE5E0B7E
:10510800DBE0323A0A4906245CC2D3AC629195E4EA
:1051180079E7C8376D8DD54EA96C56F4EA657AAE35
:1051280008BA78252E1CA6B4C6E8DD741F4BBD8BC3
:105138008A703EB5664803F60E613557B986C11DBB
:105148009EE1F8981169D98E949B1E87E9CE55285F
:10515800DF8CA1890DBFE6426841992D0FB054BB81
:1051680016000000C66363A5F87C7C84EE77779907
:10517800F67B7B8DFFF2F20DD66B6BBDDE6F6FB1E8
:1051880091C5C5546030305002010103CE6767A94C
:10519800562B2B7DE7FEFE19B5D7D7624DABABE694
:1051A800EC76769A8FCACA451F82829D89C9C94002
:1051B800FA7D7D87EFFAFA15B25959EB8E4747C940
:1051C800FBF0F00B41ADADECB3D4D4675FA2A2FD08
:1051D80045AFAFEA239C9CBF53A4A4F7E472729630
:1051E8009BC0C05B75B7B7C2E1FDFD1C3D9393AE94
:1051F8004C26266A6C36365A7E3F3F41F5F7F70251
:1052080083CCCC4F6834345C51A5A5F4D1E5E534A2
:10521800F9F1F108E2717193ABD8D8736231315367
:105228002A15153F0804040C95C7C7524623236561
:105238009DC3C35E30181828379696A10A05050F36
:105248002F9A9AB50E070709241212361B80809BE5
:10525800DFE2E23DCDEBEB264E2727697FB2B2CDE8
:10526800EA75759F1209091B1D83839E582C2C749F
:10527800341A1A2E361B1B2DDC6E6EB2B45A5AEE37
:105288005BA0A0FBA45252F6763B3B4DB7D6D66145
:105298007DB3B3CE5229297BDDE3E33E5E2F2F7128
:1052A80013848497A65353F5B9D1D1680000000040
:1052B800C1EDED2C40202060E3FCFC1F79B1B1C8A2
:1052C800B65B5BEDD46A6ABE8DCBCB4667BEBED9F2
:1052D8007239394B944A4ADE984C4CD4B05858E845
:1052E80085CFCF4ABBD0D06BC5EFEF2A4FAAAAE52E
:1052F800EDFBFB16864343C59A4D4DD766333355B0
:10530800118585948A4545CFE9F9F910040202060A
:10531800FE7F7F81A05050F0783C3C44259F9FBA87
:105328004BA8A8E3A25151F35DA3A3FE804040C05F
:10533800058F8F8A3F9292AD219D9DBC7038384869
:10534800F1F5F50463BCBCDF77B6B6C1AFDADA7540
:105358004221216320101030E5FFFF1AFDF3F30E00
:10536800BFD2D26D81CDCD4C180C0C142613133539
:10537800C3ECEC2FBE5F5FE1359797A2884444CC1D
:105388002E17173993C4C45755A7A7F2FC7E7E82FF
:105398007A3D3D47C86464ACBA5D5DE73219192BA4
:1053A800E6737395C06060A0198181989E4F4FD1B4
:1053B800A3DCDC7F44222266542A2A7E3B9090ABF1
:1053C8000B8888838C4646CAC7EEEE296BB8B8D3DB
:1053D8002814143CA7DEDE79BC5E5EE2160B0B1DBA
:1053E800ADDBDB76DBE0E03B64323256743A3A4EB2
:1053F800140A0A1E924949DB0C06060A4824246C42
:10540800B85C5CE49FC2C25DBDD3D36E43ACACEF65
:10541800C46262A6399191A8319595A4D3E4E43782
:10542800F279798BD5E7E7328BC8C8436E3737599D
:10543800DA6D6DB7018D8D8CB1D5D5649C4E4ED289
:1054480049A9A9E0D86C6CB4AC5656FAF3F4F40741
:10545800CFEAEA25CA6565AFF47A7A8E47AEAEE937
:10546800100808186FBABAD5F07878884A25256FD9
:105478005C2E2E72381C1C2457A6A6F173B4B4C730
:1054880097C6C651CBE8E823A1DDDD7CE874749C9F
:105498003E1F1F21964B4BDD61BDBDDC0D8B8B86FE
:1054A8000F8A8A85E07070907C3E3E4271B5B5C423
:1054B800CC6666AA904848D806030305F7F6F601B5
:1054C8001C0E0E12C26161A36A35355FAE5757F9DB
:1054D80069B9B9D01786869199C1C1583A1D1D2757
:1054E800279E9EB9D9E1E138EBF8F8132B9898B3C9
:1054F80022111133D26969BBA9D9D970078E8E8957
:10550800339494A72D9B9BB63C1E1E221587879229
:10551800C9E9E92087CECE49AA5555FF50282878F1
:10552800A5DFDF7A038C8C8F59A1A1F809898980BE
:105538001A0D0D1765BFBFDAD7E6E631844242C6B9
:10554800D06868B8824141C3299999B05A2D2D77FE
:105558001E0F0F117BB0B0CBA85454FC6DBBBBD64B
:105568002C16163AA5C6636384F87C7C99EE777787
:105578008DF67B7B0DFFF2F2BDD66B6BB1DE6F6FE4
:105588005491C5C55060303003020101A9CE676748
:105598007D562B2B19E7FEFE62B5D7D7E64DABAB90
:1055A8009AEC7676458FCACA9D1F82824089C9C9FE
:1055B80087FA7D7D15EFFAFAEBB25959C98E47473C
:1055C8000BFBF0F0EC41ADAD67B3D4D4FD5FA2A204
:1055D800EA45AFAFBF239C9CF753A4A496E472722C
:1055E8005B9BC0C0C275B7B71CE1FDFDAE3D939390
:1055F8006A4C26265A6C3636417E3F3F02F5F7F74D
:105608004F83CCCC5C683434F451A5A534D1E5E59E
:1056180008F9F1F193E2717173ABD8D85362313163
:105628003F2A15150C0804045295C7C7654623235D
:105638005E9DC3C328301818A13796960F0A050532
:10564800B52F9A9A090E0707362412129B1B8080E1
:105658003DDFE2E226CDEBEB694E2727CD7FB2B2E4
:105668009FEA75751B1209099E1D838374582C2C9B
:105678002E341A1A2D361B1BB2DC6E6EEEB45A5A33
:10568800FB5BA0A0F6A452524D763B3B61B7D6D641
:10569800CE7DB3B37B5229293EDDE3E3715E2F2F24
:1056A80097138484F5A6535368B9D1D1000000003C
:1056B8002CC1EDED604020201FE3FCFCC879B1B19E
:1056C800EDB65B5BBED46A6A468DCBCBD967BEBEEE
:1056D8004B723939DE944A4AD4984C4CE8B0585841
:1056E8004A85CFCF6BBBD0D02AC5EFEFE54FAAAA2A
:1056F80016EDFBFBC5864343D79A4D4D55663333AC
:1057080094118585CF8A454510E9F9F90604020206
:1057180081FE7F7FF0A0505044783C3CBA259F9F83
:10572800E34BA8A8F3A25151FE5DA3A3C08040405B
:105738008A058F8FAD3F9292BC219D9D4870383865
:1057480004F1F5F5DF63BCBCC177B6B675AFDADA3C
:1057580063422121302010101AE5FFFF0EFDF3F3FC
:105768006DBFD2D24C81CDCD14180C0C3526131335
:105778002FC3ECECE1BE5F5FA2359797CC88444419
:10578800392E17175793C4C4F255A7A782FC7E7EFB
:10579800477A3D3DACC86464E7BA5D5D2B321919A0
:1057A80095E67373A0C0606098198181D19E4F4FB0
:1057B8007FA3DCDC664422227E542A2AAB3B9090ED
:1057C800830B8888CA8C464629C7EEEED36BB8B8D7
:1057D8003C28141479A7DEDEE2BC5E5E1D160B0BB6
:1057E80076ADDBDB3BDBE0E0566432324E743A3AAE
:1057F8001E140A0ADB9249490A0C06066C4824243E
:10580800E4B85C5C5D9FC2C26EBDD3D3EF43ACAC61
:10581800A6C46262A8399191A431959537D3E4E47E
:105828008BF2797932D5E7E7438BC8C8596E373799
:10583800B7DA6D6D8C018D8D64B1D5D5D29C4E4E85
:10584800E049A9A9B4D86C6CFAAC565607F3F4F43D
:1058580025CFEAEAAFCA65658EF47A7AE947AEAE33
:1058680018100808D56FBABA88F078786F4A2525D5
:10587800725C2E2E24381C1CF157A6A6C773B4B42C
:105888005197C6C623CBE8E87CA1DDDD9CE874749B
:10589800213E1F1FDD964B4BDC61BDBD860D8B8BFA
:1058A800850F8A8A90E07070427C3E3EC471B5B51F
:1058B800AACC6666D89048480506030301F7F6F6B1
:1058C800121C0E0EA3C261615F6A3535F9AE5757D7
:1058D800D069B9B9911786865899C1C1273A1D1D53
:1058E800B9279E9E38D9E1E113EBF8F8B32B9898C5
:1058F80033221111BBD2696970A9D9D989078E8E53
:10590800A7339494B62D9B9B223C1E1E9215878725
:1059180020C9E9E94987CECEFFAA555578502828ED
:105928007AA5DFDF8F038C8CF859A1A180098989BA
:10593800171A0D0DDA65BFBF31D7E6E6C6844242B5
:10594800B8D06868C3824141B0299999775A2D2DFA
:10595800111E0F0FCB7BB0B0FCA85454D66DBBBB47
:105968003A2C161663A5C6637C84F87C7799EE7783
:105978007B8DF67BF20DFFF26BBDD66B6FB1DE6FE0
:10598800C55491C5305060300103020167A9CE6744
:105998002B7D562BFE19E7FED762B5D7ABE64DAB8C
:1059A800769AEC76CA458FCA829D1F82C94089C9FA
:1059B8007D87FA7DFA15EFFA59EBB25947C98E4738
:1059C800F00BFBF0ADEC41ADD467B3D4A2FD5FA200
:1059D800AFEA45AF9CBF239CA4F753A47296E47228
:1059E800C05B9BC0B7C275B7FD1CE1FD93AE3D938C
:1059F800266A4C26365A6C363F417E3FF702F5F749
:105A0800CC4F83CC345C6834A5F451A5E534D1E59A
:105A1800F108F9F17193E271D873ABD8315362315F
:105A2800153F2A15040C0804C75295C72365462359
:105A3800C35E9DC31828301896A13796050F0A052E
:105A48009AB52F9A07090E0712362412809B1B80DD
:105A5800E23DDFE2EB26CDEB27694E27B2CD7FB2E0
:105A6800759FEA75091B1209839E1D832C74582C97
:105A78001A2E341A1B2D361B6EB2DC6E5AEEB45A2F
:105A8800A0FB5BA052F6A4523B4D763BD661B7D63D
:105A9800B3CE7DB3297B5229E33EDDE32F715E2F20
:105AA8008497138453F5A653D168B9D10000000038
:105AB800ED2CC1ED20604020FC1FE3FCB1C879B19A
:105AC8005BEDB65B6ABED46ACB468DCBBED967BEEA
