:020000022000DC
:1060000000000120FD81020025820200278202009B
:10601000298202002B8202002D8202000000000073
:106020000000000000000000000000002F820200BD
:10603000318202000000000033820200358202003B
:1060400005B402003782020049BD0200A1BD020072
:10605000378202003782020001B80200FD7C020094
:106060003782020037820200378202003782020044
:106070003782020037820200378202003782020034
:106080003782020031850200378202003782020027
:10609000D185020037820200C9270300378202003F
:1060A0003782020037820200378202003782020004
:1060B000378202003782020000000000000000006A
:1060C00037820200378202003782020037820200E4
:1060D000378202003782020037820200000000008F
:1060E00000000000000000000000000000000000B0
:1060F00000000000000000000000000000000000A0
:10610000000000000000000000000000000000008F
:10611000000000000000000000000000000000007F
:10612000000000000000000000000000000000006F
:10613000000000000000000000000000000000005F
:10614000000000000000000000000000000000004F
:10615000000000000000000000000000000000003F
:10616000000000000000000000000000000000002F
:10617000000000000000000000000000000000001F
:10618000000000000000000000000000000000000F
:1061900000000000000000000000000000000000FF
:1061A00000000000000000000000000000000000EF
:1061B00000000000000000000000000000000000DF
:1061C00000000000000000000000000000000000CF
:1061D00000000000000000000000000000000000BF
:1061E00000000000000000000000000000000000AF
:1061F000000000000000000000000000000000009F
:106200000348044B834202D0034B03B11847704745
:10621000E8220020E822002000000000054806498E
:10622000091A891001EBD171491002D0034B03B157
:1062300018477047E8220020E822002000000000F4
:1062400010B5064C237843B9FFF7DAFF044B13B1BE
:106250000448AFF300800123237010BD0023002009
:1062600000000000403C030008B5044B1BB104498A
:106270000448AFF30080BDE80840CFE7000000000D
:1062800004230020403C0300134B002B08BF114B9C
:106290009D46A3F5803A00218B460F461148124ACD
:1062A000121A0CF0A9FC0D4B002B00D098470C4B98
:1062B000002B00D098470020002104000D000B485F
:1062C0000CF058FB0CF08AFB2000290000F0D4F9F8
:1062D0000CF056FB00000800000001200000000048
:1062E000000000000023002058300020A9290300EE
:1062F00076DF704778DF70477ADF70477CDF704762
:106300008FDF7047B1DF704733DF7047014B0122E9
:106310001A70704728230020014B01221A70704721
:10632000882600200249034A01230B70137070472E
:106330002923002020230020704700BF02F0CEB8A0
:10634000F0B52A4B1B7889B0002B3BD0012328499C
:1063500028488DF8013000268DF802308DF8006055
:1063600004F054FC244A254B9579029000EBC000C0
:10637000A3FB001392E803009B0805F11B0403F53F
:106380004863E4B205AF049387E80300FE230421C9
:106390003B2C8DF804308DF80C308DF81C1021D971
:1063A000537917480133DBB26C463B2BA5F121052D
:1063B000214694BF53715671957100F01BFE58B978
:1063C00009B0F0BD6C46204600F08EFD21460C4819
:1063D00000F010FE0028F3D00828F1D002F07EF87B
:1063E00009B0F0BD94716C46F0E700BF8026002034
:1063F000302600204026002054220020CDCCCCCCDA
:10640000E425002010B50388212B82B0044660D01B
:1064100011D9522B27D0562B03D03B2B01D002B0E1
:1064200010BDA0881321FFF763FF0028F7D002F00A
:1064300055F802B010BD102B1FD0112BEFD1334BEC
:1064400033484FF6FF721A8002F048FB00284AD109
:10645000304802F043FB002854D12F4802F03EFBA5
:106460000028DCD0E3E7294A0023108819461A46A1
:10647000FFF748FF0028D2D0D9E7072006F050F8F0
:1064800000283CD1A188214C2448218008F0BEFE80
:1064900090BB002320881A461946FFF733FF08B146
:1064A00002F01CF800224FF48031194802F0C0FAC3
:1064B000F8B900224FF48031164802F0B9FAA8B9B1
:1064C00000224FF48031144802F0B2FA0028A6D01E
:1064D000ADE702A9002321F8043D8088FFF710FFF3
:1064E00000289CD0A3E701F0F9FFB1E701F0F6FF27
:1064F000E6E701F0F3FFDCE701F0F0FFC9E701F0A8
:10650000EDFFBFE701F0EAFFA7E700BF2C22002064
:10651000B025002060260020002600202426002030
:10652000704700BF08B5037803B108BD054B3B2198
:106530001888FFF7DDFE0028F7D0BDE8084001F01D
:10654000CDBF00BF2C220020043808B50A280DD882
:10655000DFE800F0260C0C060C0C170C0C0C0D00E0
:106560001A4B1A884FF6FF739A4228D008BD174B72
:106570001A884FF6FF739A42F8D0BDE80840FFF73B
:10658000DFBE002005F0CCFFB0B906F055FA80B9A7
:10659000FFF7BAFE0028E9D0BDE8084001F09EBF31
:1065A0000A4B13211888FFF7A3FE30F00803F3D13C
:1065B00008BD01F093FFEBE701F090FFE5E7044829
:1065C00007F0A6F830F00803E6D108BD2C22002021
:1065D0002C23002001F082BF10B5044682B00AF0DF
:1065E00097F920460AF0CAF92378022B08D00C2B21
:1065F00004D103210D4806F0DFFE78B902B010BDCA
:106600000DF107010A4800F0CFFC58B99DF807309A
:10661000002BF3D0FFF794FE02B010BD01F05EFF37
:1066200002B010BD01F05AFFF0E700BF2C2300209C
:10663000E425002008B530B1032803D1022005F07D
:106640006FFF50B908BD05F06BFF50B906F0F4F9C3
:1066500068B9FFF759FE0028F4D0BDE8084001F002
:106660003DBF01F03BFF06F0E7F90028F1D001F053
:1066700035FFEEE7000000002DE98048B9B000AF1B
:1066800002F070F9002840F0A282CD4ACD480121E5
:1066900002F0BCF9002840F09782CB4ACB48012198
:1066A00002F0B4F9002840F0A182C94AC94801218A
:1066B00002F0ACF9002840F09682C749032006F0AA
:1066C000C7F8002840F08C8207F13401002006F062
:1066D000C5F9002840F0818297F8345004F034FA6C
:1066E000002840F0B3820BF05FFF002840F0AB823F
:1066F000002307F1340101207B630CF0ADF8002882
:1067000040F09E8207F134000CF002F9002840F0BE
:10671000948207F1E0031A46112302F8BC3DAF480A
:106720007A6014460CF0CCFAAC4982B22046FFF7EE
:10673000E5FD002840F07E824FF44070FFF7DAFD5F
:10674000002840F074820822002107F134000CF088
:1067500053FAA34B7B6307F134004FF0C873BB635C
:10676000FFF7CAFD002840F05F829E499E4808F06E
:1067700067FC002840F0558207F1E0019B4B41F88F
:10678000D83D9B4808F030FD002840F047827E68E5
:106790001022002130460CF02FFA01240023954AE4
:1067A00095487B623146FB6287F828403A630BF0DC
:1067B0002DFC002840F02F824022002107F13400F8
:1067C0000CF01AFA8D4907F1340007F003FB8C49ED
:1067D00007F13C0007F0FEFA77A1D1E90001894BEF
:1067E000BB61C7E90401012307F1100207F134007E
:1067F0007A6687F870300BF0EDFC002840F00882D4
:10680000002107F10C0004220CF0F6F97E4B7F48C2
:10681000FB6007F10C0101F0A9F9002840F0F581B7
:10682000AC22002107F134000CF0E6F9022101232B
:106830000622282087F83410754987F8363003245B
:1068400087F8B03087F83720724BB96444F2506251
:10685000C7F8BC0007F134016F48A7F84440C7F8F7
:10686000C020C7F8D83006F027FD002840F0CA81C4
:106870000121694806F01CFD684B694841F28831E6
:1068800047F230544FF47A7219605C601946012463
:106890009A601C7304F0ACF9624B63489C606422FC
:1068A00019465126C3E900621C7304F0A1F95F4B3D
:1068B0005F4840F6686140F6847419605C60194670
:1068C000002424229A601C7304F092F921461C22B1
:1068D00007F134000CF090F94FF42030554A564B34
:1068E000B8634FF47026032107F134007C63A7F8E6
:1068F000424087F84440FE6387F84010C7E91223FE
:1069000007F068F8002840F07A8109F029FE002895
:1069100040F072810522002107F134000CF06CF97F
:1069200097F8343097F8371097F83820032003F0A1
:10693000F00360F306136FF3C71301F0FE0102F0DA
:10694000FE026FF341016FF34102072487F83430F0
:1069500007F13400102387F8371087F8382087F8BC
:10696000354087F8363009F041FE002840F041817B
:10697000324809F01FFE002840F02C8100F07EF91B
:10698000192000F011FA00F00BFD022D40F01281E9
:1069900009F086FE002840F01481294EDFF8B4A0EB
:1069A000DFF8B490274DDFF8B480274CDFED278A5D
:1069B0009FED278A5CE000BF5544332211000000A0
:1069C0000D630200703A030019630200783A030075
:1069D00025630200743A0300496502007C3A030013
:1069E0002800500021650200D02500203D630200F0
:1069F000242600206401010184250020883A030038
:106A00009C3A030088776600396302003022002038
:106A100020220020356602002C230020482600207A
:106A20005826002098250020A82500203026002088
:106A30004026002025650200D5650200D9650200C8
:106A400028230020882600202023002000803B45AA
:106A50000080044580260020242300208426002076
:106A60002B78002B2ED12378002B5CD104F082F8F8
:106A70003378002BF4D09AF80030002B5ED07549A3
:106A8000754804F0C3F801B2B986744B74481A888B
:106A9000C9B20BF031FB30F0080209D020F002023D
:106AA000112A05D043F20142904201D001F016FDB7
:106AB00000233370D9F800300133C9F800302B7847
:106AC000002BD0D09AF80030EB46002B53D065490C
:106AD000654804F09BF8614B7862020A010C4FEAAA
:106AE000106E4FF0040C87F834001B8887F83520AF
:106AF00087F8361007F1100207F134015B4887F878
:106B000037E0A7F810C001F09FF830F008034BD130
:106B100000232B70D8F800300133C8F800302378F8
:106B2000DD46002BA2D04D49504800F071FC0023F7
:106B30004F4A237013680133136097E707F134015C
:106B4000092001F08DFA90BB4FF4167106234FF423
:106B50008062B7F9340000F0B1F800F5877003B235
:106B60001846F0EE680AB0EE480ABB8600F0AEF8B0
:106B700001B2B98689E7786800F096F90028C7D194
:106B800008230A2207F13401786A3B820BF04AFF9E
:106B9000324B36481B8807F1100207F1340101F02F
:106BA00053F830F00803B3D001F098FCB0E701F0DF
:106BB00095FCC9E703212F4806F0FEFB00283FF4AF
:106BC000ECAE01F08BFCE8E601F088FC65E501F035
:106BD00085FC5AE501F082FCD0E601F07FFC7BE504
:106BE00001F07CFC70E501F079FC66E501F076FCD3
:106BF0005BE501F073FCBBE601F070FC8AE601F096
:106C00006DFC82E601F06AFC32E601F067FC07E603
:106C100001F064FCF4E501F061FCCDE501F05EFCFF
:106C2000B5E501F05BFCA7E501F058FC9DE501F03E
:106C300055FC88E501F052FC7EE501F04FFC68E56B
:106C400001F04CFC5EE501F049FC51E501F046FC29
:106C500049E500BF98250020A82500202C2200200F
:106C600084250020482600205826002030220020BD
:106C70001C2300202C230020704700BF00B50C49C6
:106C80000C4885B001F032F978B90B4B93E8070056
:106C900001AB03C301A900201A7001F075F908B116
:106CA00001F01CFC05B05DF804FB01F017FCECE7FB
:106CB000796C0200B83A0300AC3A030001FB00F023
:106CC00090FBF2F010FB03F000B2704707EE900A61
:106CD000F8EEE77AF4EEC07AF1EE10FA19D4F4EE99
:106CE000E07AF1EE10FA16DCDFED0C5A9FED0C6A3B
:106CF000DFED0C6A87EEA57A82B067EE067A77EE52
:106D0000E67AFDEEE77ACDED017A9DF9040002B056
:106D10007047002070476420704700BF00007A442D
:106D20000000E442000072432DE9F041052004F028
:106D30002BFD1A4C1A4E1B4B01220021DA608E46A5
:106D400021713046216017256271114632604FF083
:106D5000A04C022702E0D0F840213AB95964D3F898
:106D60004425172AF7D92368BDE8F081C6F840E129
:106D7000DCF81025D4F80080C2F34012AA4042EAA1
:106D80000802226022790132D2B2013D22716A1CCE
:106D90006771E3D12368BDE8F08100BF8C26002035
:106DA0000090004000A0004070B54FF0A043334C6D
:106DB00003218022207082B0C3F81C17C3F8082575
:106DC00004F098FB002851D04FF0A041022200238C
:106DD000ADF804308DF806208DF804200520C1F8A8
:106DE0001437274A01A904F08FFB08B101F076FBA4
:106DF000244A2549254B2648264E0125C2F84055F0
:106E00001025C2F844552025C2F848550425C2F87B
:106E100000520025C2F810552278C1F84025022200
:106E2000C1F804251C4A1D4CC0F81445C3F8106570
:106E300000F58040C3F8142502F53F52184D194C57
:106E4000C3F81855083001F5A0711C32C3F81C4571
:106E5000C3F81409C3F82015C3F82425D3F8002576
:106E600042F00702C3F8002502B070BD04F0FCFA3E
:106E70000028A9D001F032FBA6E700BF8926002038
:106E8000296D02000090004000A0004000F0014089
:106E90000060004040910040346000400307110052
:106EA000449100406460004010B5A0B10B4B5A798A
:106EB000022A08D008240A4B01215966052004F053
:106EC00001FC204610BD1A68032122F07F420260B7
:106ED00059710024EFE70E24204610BD8C260020B7
:106EE000006000404CDF704710B582B0044601A836
:106EF000FFF7F8FF08B101F0F1FA0023FE2223703A
:106F00006370A370227101980CF082F90022064B85
:106F10000CF0E8F90022054B0CF0E4F90CF0F4FB5E
:106F2000A06002B010BD00BF0000D03F000059407B
:106F3000ADDF7047AEDF70470388112B2FD029D902
:106F400010B5502B82B00C460ED0532B0AD1C288FC
:106F5000CB889A4206D102A9022301F8043D2046BB
:106F60002368984702B010BDC2884B899A42F9D174
:106F7000038A022BF6D10B68002BF3D0123006F0F7
:106F80001BFF02A980F0010001F8040D23682046D0
:106F90009847E7E7102B06D18388CB8270474FF6DE
:106FA000FF73CB827047704730B5044685B0082226
:106FB0000D4602A800210BF01FFE01AB6189E08A9B
:106FC0000393022402AA0294FFF7B2FF044648B1D9
:106FD00043F20143984208BF0024204608BF2C70AA
:106FE00005B030BD184606F0EBFE2870204605B00F
:106FF00030BD00BFC28A4FF6FF739A4273D0F0B51E
:107000000B784A788BB01D460AB143F00205002B7D
:107010005BD18B6891F9044023F07F4343EA04631A
:107020001E0A1C0C8DF815301B0E8DF816608DF89D
:1070300017408DF81830002A51D08B8ACE7D8DF8FC
:1070400019301B0A0C7E8F7D8DF81A304A7E8B7E9C
:107050008DF81C600C268DF81D408DF81F3045F012
:1070600002058DF81B708DF81E2033460D248A789A
:107070003AB10AAA13440A7F03F8142C45F0040518
:10708000264604461022002101A88DF81450ADF8C0
:1070900002600BF0B1FDE388E08AADF80430012511
:1070A00000240DF1020205AB01A98DF80650ADF8E0
:1070B0000840CDE90323FFF73DFF20B9BDF80230BA
:1070C000B34218BF0C200BB0F0BD0B6991F90C4016
:1070D00023F07F4345F0010543EA0463A0E705265A
:1070E00033460624C3E70820704700BF014B012246
:1070F0001A707047942600202DE9F04303F1080030
:1071000085B000F4FC7000AFADEB000D01F07F0125
:107110008DF80010EC46002B64D0A3F10C01C9B22D
:10712000F22900F28180514211F0030100F08780C2
:1071300010788DF80100012973D050788DF8020085
:1071400003297FD190788DF803004FF00409A3EB59
:1071500001084C1C5FFA88F84FEA980E6444114409
:1071600000200130C5B251F8046B44F8046BAE4501
:10717000F7D808F0FC0009EB00018045C9B231D016
:107180005418481CC0B214F8014C0CF8014083425A
:1071900028D315188C1C15F8015C0CF80050E0B2CF
:1071A00083421FD31518CC1C15F8015C0CF8005055
:1071B000E0B2834216D315180C1D15F8015C0CF8CB
:1071C0000050E0B283420DD314180531C9B214F84F
:1071D000014C0CF800408B4204D30A4412F8012CF5
:1071E0000CF8012000240133184D19482C70DBB233
:1071F00022463946C7E90244C7F800C07B6004F064
:10720000FBFE44B214B1204601F068F9114B4FF473
:10721000C85043F00103984720461437BD46BDE8E7
:10722000F0834FF0020992E701215418481C14F82A
:10723000014C0CF80140C1B28B42F6D2D2E74FF0BC
:10724000010984E74FF0030981E700BF942600207D
:10725000DC3A0300D03A03002DE9F04387B000AFD9
:1072600007F1180461F07F0104F8141D1D4608336E
:1072700003F4FC716B1CDFF804C1BC60DBB20024BA
:10728000ADEB010D7B613B48C7F810D001231646DA
:1072900007F1080122468CF80040FB6004F0ACFEC8
:1072A0004FFA80F9E846B9F1000F5CD1324B4FF448
:1072B000C85043F001039847002D4DD0724202F0B0
:1072C0000302D31C691E994251D3002A49D098F871
:1072D00001303370012A44D098F802307370032AC9
:1072E00005BF98F80330B37002231346A5EB020ED6
:1072F000501C4FEA9E0C404432440021013150F8AA
:10730000044B42F8044B6145F8D32EF00302964536
:10731000134421D05A1C954218F80210F1541BD97D
:10732000991C8D4218F80100B05415D9DA1C954209
:1073300018F8020070540FD9191D8D4218F8010079
:10734000B05409D95A1D954218F80200705403D957
:10735000984498F80630B35448461C37BD46BDE8FB
:10736000F0831346C2E7484601F0B8F89EE70023D1
:10737000D0E700BFDC3A0300D03A03009426002097
:1073800050B138B5054D044645F001054FF47A403B
:10739000A847013CFAD138BD704700BFD03A03007E
:1073A00070B5134B134E0FCB84B06C4684E80F00BE
:1073B000032521460023104A104800968DF80C50F2
:1073C00003F0A8FF80B90E4B0E480F490F4A986092
:1073D000002418465C70D9605A6100F08FF808B13B
:1073E00001F07CF804B070BD01F078F8EBE700BF65
:1073F000BC3A03000F060811ED700200D83A0300F2
:1074000034300020F97002005972020081730200CA
:107410002DE9F04383B000AF002307F108080546CB
:10742000184608F8073D0E46FB8000F0EDF90446CB
:10743000082000F09FF90444404600F07FF904441E
:10744000B81C00F085F80444381D00F0D3F804445B
:10745000B81D00F021F90444032000F0D5F9041907
:1074600002D0204601F03AF8DFF88C80B7F904101A
:10747000B8F80030B7F902C0B7F906200733DB08C7
:10748000DB00ADEB030D6846ADEB030DE946C1F340
:10749000072EADEB030D89F800E0C2F30723CCF310
:1074A000072E80F801C080F800E089F801108DF8FF
:1074B000012001468DF8003042463388284600F00E
:1074C000C3FB494642463388284600F0BDFB33885B
:1074D00042462846694600F0B7FB30F0080304D165
:1074E00020460C37BD46BDE8F08300F0F7FF20468C
:1074F0000C37BD46BDE8F0835C22002070B5134D0B
:1075000082B0002128608DF806108DF80710C8B1F0
:10751000C468007901230DF10602A0472B689DF88D
:1075200006205A700446DE6818790DF1070201231F
:107530003E21B0472B689DF807205A71204440B285
:1075400002B070BD6FF07E00FAE700BF9826002001
:1075500030B5264B83B01A680023ADF80430002AFA
:1075600040D0234B1B78012B044629D012D3022B89
:1075700022D1D5681079194601AAA8479DF8043090
:107580009DF9052003F0FC0343EA02239B102380AE
:1075900003B030BD02231946D568107901AAA84767
:1075A0009DF804309DF9052003F0F00343EA02231F
:1075B0001B11238003B030BD4FF0FF3003B030BD4E
:1075C00002231946D568107901AAA8479DF804300E
:1075D0009DF9052003F0C00343EA02239B11238099
:1075E00003B030BD6FF07E00D2E700BF98260020C8
:1075F0005E22002030B5264B83B01A680023ADF818
:107600000430002A40D0234B1B78012B044629D09C
:1076100012D3022B22D1D5681079042101AAA847E0
:107620009DF804309DF9052003F0FC0343EA022392
:107630009B10238003B030BDD5681079022301AAC6
:107640000421A8479DF804309DF9052003F0F003BC
:1076500043EA02231B11238003B030BD4FF0FF30FB
:1076600003B030BDD5681079022301AA0421A847D0
:107670009DF804309DF9052003F0C00343EA02237E
:107680009B11238003B030BD6FF07E00D2E700BFB6
:10769000982600205E22002030B5264B83B01A6861
:1076A0000023ADF80430002A40D0234B1B78012B77
:1076B000044629D012D3022B22D1D5681079062195
:1076C00001AAA8479DF804309DF9052003F0FC03AA
:1076D00043EA02239B10238003B030BDD5681079A4
:1076E000022301AA0621A8479DF804309DF9052030
:1076F00003F0F00343EA02231B11238003B030BDE3
:107700004FF0FF3003B030BDD5681079022301AAD5
:107710000621A8479DF804309DF9052003F0C00319
:1077200043EA02239B11238003B030BD6FF07E003B
:10773000D2E700BF982600205E22002030B50C4B17
:1077400083B01B6800228DF8072073B10446DD6802
:1077500018790DF1070201231021A8479DF8073081
:1077600003F01F03237003B030BD6FF07E00FAE713
:107770009826002070B5214D82B02A6800238DF82C
:107780000730002A33D05178A0F10803FB29DBB27F
:1077900026D0072B28D81A49CC5CD668107901234B
:1077A00010210DF10702B0479DF80730296823F03A
:1077B0001F03234306468DF80730D9B18C6808793A
:1077C0000DF1070201231021A0472B681A78044607
:1077D00012B15B6901209847A01940B202B070BD98
:1077E000062B01D80749D7E76FF00100F6E76FF0E5
:1077F0007E00F3E76FF07E04EEE700BF98260020DE
:10780000F03A0300E83A03002DE9F043834C83B0DB
:10781000216800238DF805308DF806308DF807308B
:10782000002900F0F380CD6807460DF105020879C4
:1078300001231121A84723680646DD6818790DF158
:10784000060201231221A84722685379064443F017
:107850000C03052FF6B28DF8073000F2C9807B1EAD
:10786000042B66D8DFE803F0696F7503B8004FF4A6
:1078700081734FF0400953804B469DF80610956880
:10788000107921F0400213438DF806300DF1060205
:1078900001231221A84723681A7805461AB15B69AB
:1078A0000120984723685B690120984721689DF86B
:1078B00005300A782E44F6B2012A4FFA86F803F012
:1078C0001F0350D0042A4ED043EA09038DF8053037
:1078D0008D680879012311210DF10502A84721685F
:1078E0000B780546002B7ED04B6901209847216814
:1078F000EDB24B690120984723684544EDB2002B57
:1079000000F087809E6818790DF1070201233E215F
:10791000B04723681A780646C0B222B15B690120DD
:1079200098472368F0B2054468B21F7003B0BDE801
:10793000F0830023994653809FE7022353804FF042
:107940004009002399E7042353806FF07F09002347
:1079500093E7D3789B0103F0400301215BB2917060
:107960004FF0200989E7002FAED163F07F038D68C7
:107970008DF805300879012311210DF10502A84782
:1079800021680B780546002B2FD04B6901209847C2
:1079900021682E44F6B200293DD08D680879012374
:1079A0003E210DF10702A84721680B7880461BB1E4
:1079B0004B690120984721689DF8053003F01F03AB
:1079C000464449EA03034FFA86F88DF8053000294A
:1079D0007FF47EAF81258CE74FF4827353806FF084
:1079E0007F09402349E7C5B283E70644F6B2D4E7EE
:1079F000D37892F802909B01023E03F040034FEAD5
:107A00004919F6B25BB24FFA89F936E76FF07E009A
:107A10008CE7812087E76FF07E08CDE7982600206D
:107A2000A8DF7047ADDF7047AEDF704762DF704799
:107A300069B160B170B50388502B8AB00D46044619
:107A400006D0572B60D0102B28D00AB070BD7047DD
:107A50008188686902AA00F02BF91822002104A885
:107A60000BF0CAF8E3882989A088029A0595994203
:107A7000ADF8180007925DD0AA899A42E5D1AB69AA
:107A8000002BE2D0002004F11201228A8DF81000B0
:107A9000089104A8ADF824209847D6E70AAA002642
:107AA000818842F8246D686900F002F931460822A5
:107AB00002A80BF0A1F8022302AA298AA088CDF817
:107AC0000CD00293FFF7AEFF0028BED1AB69002BAC
:107AD000BBD0039806F070F90028B6D0019B0BB11B
:107AE00001221A701822002104A80BF085F8A3883F
:107AF000019AADF8183002210595AB698DF8101088
:107B000004A807929847A0E78188686902AA00F054
:107B1000CFF8002899D1029B1B78002B95D0014605
:107B2000182204A80BF068F8A388029AADF8183060
:107B30000121E1E7268A022E9ED1002A85D004F198
:107B4000120006F039F958B1029B01221A708DF823
:107B50001060AB69002B3FF478AF04A8984774E736
:107B6000029A032310708DF81030F2E7F0B5344B11
:107B700006460D460FCB8FB002AC84E80F00002EF6
:107B80005AD0002D58D02B68B36120463146FFF7FC
:107B90004DFF08B10FB0F0BD32460EA9012412F816
:107BA000023B21F8344D20468DF80630FFF738FFB0
:107BB0000028EFD10146202206A80BF01DF89DF801
:107BC0002530204D70888DF82440324643F00C0358
:107BD00012F80C1B8DF81A108DF8253006A9022317
:107BE0008DF829408DF82A40ADF81830079506F039
:107BF000FBF80028CED10146202206A80AF0FCFF9F
:107C00009DF825300795324643F0100312F8047BA7
:107C100070888DF82440032506A98DF829408DF839
:107C20002A408DF82B408DF81A708DF82530ADF86C
:107C3000185006F0D9F8ADE70E200FB0F0BD00BF28
:107C4000F83A03001400010048B3F0B587B00546C8
:107C500017460E4601AA194640691C4600F028F84E
:107C6000D8B94FF6FF739C421DD0019BDBB11B7846
:107C7000BBB13B88142B19D80146102202A80AF088
:107C8000BBFFAB88ADF8083002A901232046CDE93F
:107C900004768DF80A30FFF7C7FE07B0F0BD0E205E
:107CA00070470820F9E7052007B0F0BD0720F4E78A
:107CB000EAB100231360D0B10368C3B170B5C388C3
:107CC00013F0030511D104460846164605F0EAFFF5
:107CD000C0B214280FD0237983420AD9E3882268DE
:107CE00000FB03233360284670BD072070BD0E20C3
:107CF0007047042070BD052070BD00BF2DE9F04124
:107D0000734B1A6888B0002A4CD1DFF8DC8198F8F0
:107D10002E30002B54D16F4B1A686AB100221A60C2
:107D200008A81B680393022100F80C1DD8F8003046
:107D3000039988F810209847674B1C68002C7CD169
:107D4000D8F814705FB34FF000450126B7FA87F1F9
:107D500001F146039B0003F1804202F5E042A3F5E6
:107D60008C73D2F800E083F0040025FA01F1C0F32F
:107D7000800CDB0805A827EA0107BEF1000F0CD034
:107D80001460126804928DF818308DF814608DF824
:107D900019C0D8F80030049A9847002FD6D108B0FF
:107DA000BDE8F0810022DFF840811A60196898F878
:107DB0002E3000910099F3B198F82F30002B46D166
:107DC000464B1A68002AA6D00020186098F82D208B
:107DD0001968B8F81A30019191B28B42019C4DD8C4
:107DE00061D03B4B3E4A002119601B68029301237E
:107DF000029913608FE7D8F80C20D8F80400B8F87F
:107E000008108DF814300690ADF81C10002A46D0EA
:107E10003448B8F81810C8F804200122C8F80C300B
:107E2000A8F81A10A8F808100260D8F8003005A8C1
:107E30009847002388F82F3069E700221A601B68F2
:107E40000593059B88F8102008B0BDE8F081D8F8AC
:107E50000C30D8F80400B8F808108DF814200690FB
:107E6000ADF81C10DBB1B8F81810C8F80430C8F829
:107E70000C20A8F81A10A8F80810D6E7B8F80800DF
:107E8000184C5B1A9BB2D8F80410A8F81A30C01A24
:107E900001EB4001C4F82C16C4F83026A1E70023FA
:107EA00088F81030C1E7D8F80C3053B10D49A8F864
:107EB0001A00012088F82F00C1F82C36C1F83026AE
:107EC0008FE70122A8F81A3088F82F2089E700BF31
:107ED00004710040107100401471004000710040B6
:107EE00004700040007000409C260020214B93F855
:107EF0002C20002A3CD170B41F4C05781960C4F8BE
:107F0000F05545781D49C4F8F4556FF000451A74D2
:107F1000C678C4F8085383B00A600968184D019107
:107F200001992A60817883F82E602D6815480095A4
:107F3000490183F82D205A6183F82F20C9B280228D
:107F4000F5B2009E80F80713C0F88021022102607C
:107F50000122C4F8041383F82C200DB1C4F80423C3
:107F6000054B01220020C3F8002503B070BC704708
:107F7000082070479C2600200070004004710040DB
:107F80000071004000E100E0334A137C002B60D117
:107F9000F0B40C79012C4ED900F10C0502EB45032D
:107FA0001B7923B992F82D30013382F82D304B78AC
:107FB0008E7891F800C04F791B01360206F4E06616
:107FC00003F030033343CE780CF0030C360306F491
:107FD000805643EA0C0333438E793F0507F480173C
:107FE000360602EB450206F0807624043B431B4D27
:107FF00004F4E0243343234305EB0016CC791471D9
:1080000000010C7A547100F18040C6F8183500F573
:10801000E040CB790A7AC0F81425C0F810350B7906
:10802000012B02D90020F0BC70470123C5F80035B0
:108030000020F0BC704703F0FF05084BC3F8005563
:1080400000F10C0502EB45030C791B79002BAED136
:10805000A8E71120704700BF9C2600200070004058
:10806000F0B45D4C227C82B0002A40F0B18094F8DC
:108070002D60012502F0FF03584A25740327AE4204
:10808000C2F80873C2F82C16C2F8305623D9544DE2
:108090005449554F554EC2F81435C2F81035C5F83D
:1080A0001435C5F81035C1F81435C1F81035C7F8C6
:1080B0001435C7F81035C6F81435C6F81035C5F8AC
:1080C0005435C5F85035C1F85435C1F85035C2F8AB
:1080D0008435C2F8803500F10C03000104EB430342
:1080E00000F1804000F5E0405A793C4E404D1B794C
:1080F000C0F814250122C0F810353E49326042F222
:1081000010732A6001E0013B02D00A68002AFAD00D
:10811000394994F82D00374B00220A600968019113
:1081200001991A601B6800930128009B3FD92B48D6
:10813000657FC0F81455257FC0F810552849E57FA4
:10814000C1F81455A57FC1F81055264A94F821505E
:10815000C2F8145594F82050C2F81055224B94F8E8
:108160002350C3F8145594F82250C3F8105594F8CE
:108170002550C0F8545594F82450C0F8505594F840
:10818000275094F82600C1F8545594F82960C1F896
:10819000500594F8285094F82B00C2F8546594F8D0
:1081A0002A10C2F85055C3F85405C3F8501594F876
:1081B0002E3043B9094B0222C3F804230020207457
:1081C00002B0F0BC7047054B0322C3F80423F5E767
:1081D000112002B0F0BC70479C26002000700040C7
:1081E000107000402070004030700040407000402F
:1081F0000470004004710040007100400649074AC5
:10820000074B9B1A03DD043BC858D050FBDC02F03F
:1082100033FDFEF739F80000E43C03002022002083
:1082200000230020FEE7FEE7FEE7FEE7FEE7FEE7AD
:10823000FEE7FEE7FEE7FEE7434B1978002900F072
:1082400081802DE9F04F002487B001258E4603E0A0
:108250000134E4B2744560D23C4B27B21E6816F874
:1082600037C0ACF1200205FA02F9394ACCF12003FB
:10827000D2E9000125FA03F349EA030905FA0CF8EB
:1082800000EA080201EA0903134306EBC70BDFD03B
:1082900021EA09032E4920EA08026046C1E90023C9
:1082A00003F0A4FA16F837C0ACF1200205FA02F286
:1082B00001920199CCF12003C6B225FA03F3ACF187
:1082C0002002194306FA02F30393224B0191D3E9EA
:1082D0000023CDE9042305FA0CF30093CCF120012F
:1082E000039B26FA01F10B43039306FA0CF3029366
:1082F000DDE90467DDE9002316401F4032463B46B6
:10830000DDE90267BB4208BFB24209D00E4B01341F
:1083100093F800E0E4B274459ED307B0BDE8F08F57
:108320009BF80110DBF80430A1F10101B1FA81F1F1
:108330004909091AB1FA81F14909002BE6D06046D2
:108340009847E3E7704700BFCC26002008270020AD
:1083500000270020F82600202DE9F84F0646244883
:1083600000F0BCFBD8B9234F0123A6F1200103FA8A
:1083700001FBC6F12002D7E9000123FA02F24BEA21
:10838000020B03FA06FA00EA0A0201EA0B0313439E
:1083900007D020EA0A0421EA0B05C7E90045BDE839
:1083A000F88F304603F022FA134ED6E90089C8B19F
:1083B00048EA0A0349EA0B049846A146D7E9002394
:1083C0004BEA03050D4B0A4819684AEA02044B467A
:1083D0004246C6E90023C7E900450022BDE8F84F40
:1083E00000F026BB28EA0A0829EA0B09E6E700BFE5
:1083F000D426002000270020F8260020D0260020C8
:10840000042A36D92DE9F04182B00E4605461446BD
:1084100003F070F8002836D01D491E4A1E4B0D602F
:108420001E481F491C60167000230022741EC0E9FC
:108430000023C1E90023E4B2EEB105EBC404194FF7
:10844000083D4FF00008032601E0AC4213D0A378AA
:1084500020788DF806803A4601A98DF804608DF8E1
:10846000053003F051F8083C0028EED002B0BDE81A
:10847000F081072070470C4A0C48002100F0C6FA32
:1084800002B0BDE8F08102F0EFFF0028C4D0EDE7B4
:1084900008270020CC260020D0260020F826002027
:1084A000002700205983020039820200083B0300A4
:1084B00070B5084D2B785BB1074E0024336801215D
:1084C00013F8340003F0FEF82B780134A342F5D8FA
:1084D000002070BDCC2600200827002000B585B004
:1084E00000230390194601AA44F20100CDE90133AB
:1084F00000F004F805B05DF804FB00BF72B6094B4C
:108500001B68DB0700D500BEBFF34F8F0649074B42
:10851000CA6802F4E0621343CB60BFF34F8F00BF21
:10852000FDE700BFF0ED00E000ED00E00400FA051B
:10853000F8B5204A204B0024C2F84041C2F844411B
:10854000C2F84841C2F84C41C2F80041C2F80441A7
:108550001B6833B31949D2F804550A68AD1A1A6872
:1085600025F07F45AA4227460DD8197CDE69AD1A51
:10857000144419B11F74D3E9052090471EB1334646
:108580001A68AA42F1D90E490E4A0B7812789A421B
:1085900008D00D490D4A41F823404FF48013C2F82A
:1085A0000031F8BD531CDBB2022B08BF00230B7057
:1085B000EFE700BF001001402C28002028280020F1
:1085C00025280020242800201C28002000E100E0AD
:1085D0002DE9F04F8C4A8D4913780978DFF85082E5
:1085E000994285B0D8F800A000F07B810133DBB25E
:1085F000022B08BF002386481370864A076852F88A
:1086000023107B1823F07F43002403605346264643
:108610002046A446ABB11A688A4200F26581DC6844
:10862000C3F800C0891A1044DA6934B13D1825F046
:108630007F45C3E90154DE611E4613460124002B29
:10864000E9D1002C40F07C8101230093724B734FE1
:10865000DFF8E09143F00103019355464FF0000B22
:1086600046B3D6E901C13446F669694B6C481A68CD
:10867000ACEB020323F07F43834248D80B442360D2
:1086800000220121C4E90122E2612174002D5DD0A4
:108690002A689A424DD2284603E00A689A424FD28D
:1086A0000846C1699B1A0029F7D12360E161C461C2
:1086B000002ED6D178783978884264D00B4603EB07
:1086C00043034C1CBA7807EBC303E1B28A421A7920
:1086D000397004BF00213970022A9C6844D0032AF3
:1086E00038D0012AE8D1227C002AE5D1D3F80CC089
:1086F000C4F804C01969A1605869E06099F80000E5
:108700009B69A3610028B0D062609446ADE7A2EBFC
:108710000C0222F07F428A4202D28B1A2360AFE71A
:1087200000230122C4E90033A360E36122746DB128
:108730002A68C8F80040D31A2B60E56125468FE708
:10874000D21A0A602360E161C461B1E7C8F8004051
:10875000254685E7002DAFD000232B74ED69002D51
:10876000FBD1C8F80050A5E74DB1AC422B4603D170
:10877000E4E094422FD01346DA69002AF9D10023AD
:10878000237488429AD1BBF1000F01D1554553D0D3
:10879000002D56D1234E244A1F4C4FF480334FF402
:1087A00000310127C2F880103C43C6F848334FF42B
:1087B0003C60C6F808337760A047154BB7604FF4AC
:1087C0003C601D60A047194B1D70002389F80030E4
:1087D00005B0BDE8F08FA34200F09180E069216808
:1087E000D861002800F086802A4603680B440360A5
:1087F000AA424FF000033978787823741CBF1546DD
:108800004FF0010BBDE700BF2428002025280020E1
:10881000282800201C280020103B03000C270020E3
:10882000FEFF7F000010014000E100E01928002059
:108830002C28002018280020009B002BC5D0002DDC
:10884000A8D0434B434A1C68D2F80465424FD5F880
:1088500000A03978331B23F07F43DD1CB9B93F49B1
:108860003F4B4FF48030C2F844034FF00108C2F888
:1088700004034FF40030C1F8800143F001030860A5
:10888000C2F800804FF43C60984787F80080AA4502
:108890002CBF04EB0A0363192E4923F07F43C1F870
:1088A0004035D1F80425921B9B1B22F07F4223F018
:1088B0007F4303329A4288D9294BD1F80425C1F865
:1088C000402543F001034FF43C609847234B4FF49D
:1088D0000032C3F80021002389F8003005B0BDE85C
:1088E000F08F00260096B1E674BB521A1A6001237D
:1088F0000093ABE6002339787878237441E7194672
:10890000EA69C8F8002092B9CDE90231114BDFF8CD
:1089100040C001209860019B89F80000CCF800203D
:108920004FF43C609847DDE90231D8F80020C8696F
:108930000968D86100287FF458AF59E72946DFE776
:10894000C8F800309A467FE6C8F800309A46CCE76F
:1089500028280020001001401928002000E100E034
:10896000103B03002DE9F8431F4D204E204FDFF848
:1089700098804FF480334FF400324FF00109002407
:10898000C6F8802047EA0907C5F848334FF43C6031
:10899000C5F80833C5F80490B847C5F808904FF4F7
:1089A0003C60C8F80040B847124A134B13491C609A
:1089B0001470134B134A0C700B2114701C809970A7
:1089C0004FF48012C023C6F8802186F81433326039
:1089D000C5F8084586F81133D5F80435C8F80030D5
:1089E0002046BDE8F88300BF0010014000E100E030
:1089F000103B0300192800202C28002024280020E8
:108A00000C2700202528002028280020074B9B78D1
:108A10004BB132B128B10368187C20B959745A613E
:108A20007047072070470820704700BF0C270020C0
:108A30002DE9F047264CA37882B0002B3CD00028CB
:108A40003AD004293CD94369002B35D0814602A88D
:108A500099F811300026012B00F8016D0CBF8846F3
:108A6000B04617468A4600F073F86378A1782278FA
:108A70009DF807005D1CEDB2A94208BF3546AA4229
:108A800022D003EB430304EBC3030121114AC3F8D3
:108A900008901971D2F804256570C3E9032AC3E967
:108AA000058700F07BF80C4B4FF480123046C3F87A
:108AB000002102B0BDE8F087082002B0BDE8F087D1
:108AC000072002B0BDE8F08700F068F80420F0E766
:108AD0000C2700200010014000E100E0F0B51A4C26
:108AE000A37883B043B338B343692BB3064602A8D7
:108AF000002500F8015D357400F02AF86278A77847
:108B000021789DF80700531CDBB29F4208BF2B461B
:108B1000994214D002EB420204EBC2020221966099
:108B20001171637000F03AF8084B4FF48012284638
:108B3000C3F8002103B0F0BD082003B0F0BD00F081
:108B40002DF80420F9E700BF0C27002000E100E029
:108B500070B4EFF3108472B60D4B9A68AAB90D4940
:108B60000D4E01259D60D1F8805035401D60C1F843
:108B70008060D1F884505D604FF0FF33C1F88430DD
:108B8000027004B962B670BC704701230370F8E745
:108B90004C30002000E100E0FC06FFBD094B9A6864
:108BA0007AB170B910B4EFF3108172B6064A1C683E
:108BB00014605C685460986001B962B65DF8044B5B
:108BC000704770474C30002000E100E0F0B443688B
:108BD0001BB1384AD468A34246D20023364F0B80DB
:108BE0007A684FF0010C02F580544FF6FF76083298
:108BF00094420ED8BCF1020FA1F800C007F114078F
:108C000054D07A6802F58054083294424FF0020C36
:108C1000F0D913680133EDD05388033302EB83039B
:108C20009C42E7D39588B5420AD0158845B195682E
:108C300003689D4211D05388033302EB8302D7E7C8
:108C40009C42D7D91A6801321A46D3D05D880335C1
:108C500003EB85039C42E5D2CCE7184B42601B89AD
:108C600003810120F0BC704712699342B5D813F01C
:108C70000305B2D1114A048912899442ADD1046826
:108C80009A689442A9D10C484268934203D902F5EC
:108C90008052934207D38269934207D902F58052EA
:108CA000934203D201250D800120DBE70020F0BCB8
:108CB000704700BFE82200207028002054280020C0
:108CC000F0B5334C334DB4F802C062684FEA8C06FD
:108CD00006EB0C0305EB830383B0596801F5805064
:108CE000002A52D05388033302EB8302904213D8F8
:108CF000664405EB8605EB68002B3DD0264B2748E4
:108D0000196802229A80052500230122257003B0EC
:108D1000BDE8F04001F074BB13680133E8D053881C
:108D2000033302EB83038342E2D84FF6FF7E97883A
:108D3000774514D0178897B162605388164D17484D
:108D4000AE882968033300259BB200959B0001EB98
:108D500086010325257001F01FFB03B0F0BD98428A
:108D6000C6D91A6801321A46C2D05F88033703EBAE
:108D700087039842DBD2BBE708480425012225700F
:108D800003B0BDE8F04001F03BBB01F10802ADE7E4
:108D9000542800207028002038290020E8220020D4
:108DA0002DE9F04FAC4E89B004464FF6FF77356899
:108DB000002D00F0D9802A78531E052B67D8DFE8F4
:108DC00003F05931311D1D03002C40F0C380DFF842
:108DD000B0C29CF80C209CF80030002A00F05281B0
:108DE000013B8CF80C40062B51D8DFE813F0E70369
:108DF000F8020302D8015000FB02C802002C40F028
:108E0000A9802B79012B00F04A81C0F0DE800DF1A2
:108E10000C08022B0394C8E90244C8F810403ED164
:108E200020463DE0B5F81490AB7D002C00F0A38007
:108E3000022BEA8840F2C4804FEA8904DFF83882C6
:108E400004EB090108EB8101D31C0A8913440B814F
:108E5000EA884C4408EB84040DF10C086389033B59
:108E60009B1A00226381C8F808200392C8E90322F4
:108E7000012015E0002C40F097802B79032B00F2A5
:108E8000DF80DFE813F080013D0155016001002320
:108E90000DF10C08C8E90333C8F8083003930F201C
:108EA00004902B78023B042B0AD8DFE803F0472F0D
:108EB0002303430004238DF80C30EB88ADF8183001
:108EC000664C04F1100554F8043B404603B1984742
:108ED000A542F8D1624963480024346001F074F976
:108EE0000121614801F038FA00287FF460AF09B031
:108EF000BDE8F08F03238DF80C30EB88ADF8183007
:108F00002B89ADF81A30EB680593D9E702238DF869
:108F10000C302B89ADF81830AB88ADF81A30EB68FF
:108F20000593AB7DA3F10603B3FA83F35B098DF8D8
:108F30001C30C5E705238DF80C30C1E701238DF8FF
:108F40000C302B89ADF81830AB88ADF81A30EB68CF
:108F50000593B5E70DF10C080023C8F8083003931A
:108F6000C8E9033301209BE73D493E4801F0FEF884
:108F7000054630601FE74FEA8904DFF8FC8004EB08
:108F8000090108EB8101B1F808A0496801EB8A0AE0
:108F9000062B00F2B682DFE813F0CC019301A501A5
:108FA000B80141016C0186010DF10C082F4A002324
:108FB00053600393C8E90233C8F8103001206FE70B
:108FC000DFF8B4804FEA890443E702232B71CDE92F
:108FD00004440DF10C08EB68039340460DF10A01BF
:108FE000FFF7F4FD002800F0C1810499204A8B8826
:108FF000EB800B882B811F4800940423BDF80A40A6
:1090000001F0CAF9002840F0DE821B4B04EB840417
:1090100003EB84040123237469E701239A001A44B3
:1090200008EB8203002059680090082308F822000A
:10903000124A104801F0B0F900283FF458AF3568E3
:109040000A4A0DF10C08002353600393C8E9023368
:10905000C8F810300E2023E76C2800203C280020A0
:109060006428002024290020342900204C280020D6
:10907000183B0300E8220020702800201C3B03005E
:1090800054280020072B00F28382DFE813F0FA0156
:10909000810281029D01E60178017801C001BF4B88
:1090A0001B78002B00F05381DFF8F4E2BEF8049047
:1090B000B9F1010F15D8DFF80C8309EB890208EB31
:1090C0008202043212F8043C002B00F0088209F1FD
:1090D000010399B201299946AEF8043002F1140255
:1090E000F0D90DF10C0808220021AD4809F084FDEB
:1090F0000020C8F808000390C8E903003568CFE6EF
:10910000DFF8C08298F80030022B00F0688298F8EF
:109110001430022B81D0A14B0DF10C08002001224C
:109120001A7003905860C8E90200C8F81000B7E64A
:109130009C4A9D481168002302242B7194800122CF
:1091400001F05EF978E7974C984A21689648DFF875
:1091500074824FF0000985F804900823CDF8009040
:1091600001F01AF9924B25685B88A18803EB830311
:1091700008EB830208F823905368236002235560AC
:109180001181A38058E7874B8A4A196886480123D2
:109190002B7100230093082301F0FEF84CE7BCF884
:1091A0000230DFF8208203EB830308EB8308D8F852
:1091B0000C30002B00F0DC817A4B7B4819680222CE
:1091C0009A8005228CF800200023012201F018F972
:1091D00000283FF48CAE0DF10C08002341F61D521F
:1091E0003568C8F808300393C8E90333904208BFD4
:1091F000184655E6DCF804206A48538884880168DC
:10920000694801EB84010333002400949BB20324DA
:109210009B008CF8004001F0BFF8D9E7664BAA69C3
:1092200066491A604FF0000B1846C3F804B0FFF708
:10923000CDFC002800F0CA810223AB7504235146FF
:10924000CDF800B0EA18584801F0A6F800283FF41D
:109250004EAEAB7DEA88022B4FF00E0026D84C4470
:1092600008EB8408B8F80A30033B9B1AA8F80A30C8
:10927000B1E7524B504AB3F800A051684A48504AEF
:1092800000234FF0060C85F816C00093042301F06C
:1092900083F80028DDD10AEB8A0A08EB8A0801234B
:1092A00088F8103023E6EA8841F61D5004EB0901E6
:1092B00008EB8101D31C0A8913440B81EA88CEE7AD
:1092C000032A0CBF052306230022AB750AF1040113
:1092D0000092042305F10802334801F05DF80028EC
:1092E000B7D104E62B693048002B14BF03230123B8
:1092F0000022AB750AF108010092042305F10C026B
:1093000001F04AF80028A4D1F1E5EB882A69264843
:109310004FF0010C85F816C04FF0000C0AF10C015B
:109320009B00CDF800C001F037F800283FF4DFAD16
:109330008FE702230022AB75042300925146EA18FE
:10934000194801F029F800283FF4D1AD81E70DF16B
:109350000C0808222146124809F04EFC0394C8E983
:109360000244C8F810403568022099E50A2000231D
:10937000C8E90033C8E90233C8F8103090E5094B5A
:109380000C4A1968084800230093CCF804300723DE
:109390008CF80030082300F0FFFF19E74C2800206C
:1093A0004829002038290020E82200201C3B030027
:1093B00054280020243B03003028002044290020AA
:1093C000183B030070280020884ADCF804109388BA
:1093D000498803330B44022193808CF80010FFF777
:1093E0006FFCF5E6BCF80220DFF81082930013440E
:1093F00008EB830806200023D8F804107C4A009369
:109400008CF8000008237B4800F0C6FFE0E601234B
:109410008CF800309CF80A304BB1DFF8E081D8F8C6
:109420000C3000228CF80A20002B00F0AB809CF856
:109430000B30002B43D0DFF8C481D8F82030002255
:109440008CF80B20002B3AD198F82430BBB30123C1
:10945000ACF80230FFF734FCBAE6BCF80220DFF8C3
:109460009C81624C9300991808EB810120684D683B
:10947000B4F804E0486002202560A1F808E0A0806C
:10948000B5E7DFF87881BCF8081098F8142098F850
:109490000030B2FA82F252090131B3FA83F35B0968
:1094A0008CF80B20ACF80810002201218CF80A304F
:1094B000ACF802208CF80C208CF80010ACE70DF111
:1094C0000C080020C8F808008CF80000ACF8020076
:1094D000CCF804000390C8E903003568E0E41368A1
:1094E000DEF8001003F5805C03F1080A002968D05B
:1094F0004B88033301EB83018C4505D8CEF800403F
:10950000E5E5EA880F20D1E60B680133F6D04B88F9
:10951000033301EB83039C45F0D38888B8421AD00B
:10952000B1F800B0BBF1000F15D0EB88CEF80010F9
:109530008342DBD1002300932F4A2E48042300F0FE
:109540002BFF00284DD109EB890908EB890801237D
:1095500088F81030CBE49C45D0D919680131194600
:10956000CCD05888033003EB80039C45D5D2C5E7A7
:1095700004228CF80020D8F804101E48012200F0C4
:109580003FFF25E698F81020002A3FF450AF5FE730
:10959000013B062B3FF67BAC01A252F823F000BF43
:1095A000BD950200DF930200F59102009F91020039
:1095B0008F8E0200E59302007F9302009CF80A3030
:1095C0002AE7514698E735680E20D0E60DF10C08E1
:1095D0000390C8E90200C8F810000A2060E40023E4
:1095E0001CE535680E200DF10C08C0E63829002076
:1095F0001C3B0300E8220020183B030070280020D9
:109600004068FFF7CDBB00BF38B5084B1A68042A85
:109610000AD01D68064C02460121184644F8252050
:1096200000F08EFE002038BD0C2038BD40290020FF
:109630003C2800202DE9F04FA34C8BB0227800236A
:10964000CDE90533CDE90733099372B19F4C04F19D
:10965000100554F8043B05A803B19847A542F8D17A
:10966000002528460BB0BDE8F08F201D02F0FF0654
:1096700000F07EFE07460028F2D14FF010234FF095
:1096800080525B6911695269DFF86482581C08BF17
:1096900002FB01F3C8F810308D49A3F54053404652
:1096A0000022C8F80C3000F06FFE05460028D8D123
:1096B0001C238C2287498848DFF838A200F0E0FCA0
:1096C000D8F80C90DFF83082029609F540534846EE
:1096D0004FF0030B2A469946002800F09980036852
:1096E0007E498B4240F0948043687D498B4200F074
:1096F000058101318B4240F08B80029B63B102EB0C
:10970000820C08EB8C0102260132DAF8003008F8EE
:109710002C6092B24B600E818168CAF800004FF055
:10972000020C0131AAF804C000F5805300F10806CC
:109730002CD04189033106EB81008342C0F0A58023
:1097400060464FF6FF7E0192B6F804C0F4450FD094
:10975000B6F800C0BCF1000F0AD0624AD6F808C0C3
:109760001268944504D95F4AC2F800C07188033179
:10977000084480B2AAF804007188033106EB810620
:10978000B34277D80228019A40F01F8104210F4389
:1097900099451846A0D1BBF1010F7CD9FFB2022F29
:1097A00079D0062F00F08180002F74D004A94A4898
:1097B00000F0A0FC1C220446002109F01DFA002C38
:1097C00000F001810123013F23700A2F09D8DFE84F
:1097D00007F019081908160816081C061C000223B1
:1097E000237104A93C4800F0B1FC01213E4800F07F
:1097F0009BFD00287FF434AFFFF7D2FA31E7012355
:109800002371EEE700232371EBE703232371E8E7DD
:1098100000F58053014601E08B4214D00E680136FA
:1098200001F10401F8D002EB820108EB81060BF193
:10983000FF3B01324FF0030C1FFA8BFB92B208F88A
:1098400021C07060A4E7DAF8001031B3274E02EBB4
:10985000820108EB810C7280022602F1010E08F8E9
:1098600021601FFA8EF2CCF80400ACF8086047F0D3
:1098700001078DE73168013184D07188033106EB2F
:10988000810C6345BFF460AF019A4FF48061AAF880
:10989000041008217BE70B25E3E60221AAF8041057
:1098A0000121CAF800000291E1E7084D01220023DE
:1098B000227005F11006636055F8043B05A803B15A
:1098C0009847AE42F8D1CBE64C2800203C28002037
:1098D000383B03009828002024290020DEC0ADDE9C
:1098E000FE011EF1682800203429002054280020A1
:1098F000E8220020382900207028002093000393DC
:10990000134408EB830C002108F823104FF00203E6
:10991000ACF80830CCF804008668013600F58053B6
:1099200000F1080140D0408900F1030E01EB8E0EDA
:1099300073452FD302260192E646B1F804C04FF6D4
:10994000FF72944537D0B1F800C0BCF1000F32D09F
:109950001F4AD1F808C01268944505D91C4ABEF8C0
:109960000860C2F800C0488806440336B6B2AEF8B4
:1099700008604888033001EB80018B4219D90868E0
:10998000013016D0488800F1030C01EB8C0C6345C4
:10999000D3D2019A0399114408EB81014FF48060FE
:1099A0004FF001060E740881013292B247F00207AF
:1099B000EEE6019AF8E74FF001028EF81020488891
:1099C000BEF80860D0E708254BE60821DFE600BFB7
:1099D0006828002008B301B370B582B00C460DF1C1
:1099E00006010546FFF7F2F8A0B1BDF806000C4BE2
:1099F0006E6800EB800003EB800001210C3000F06A
:109A00009FFC26606B6801220C3300206360AA7201
:109A100002B070BD0A2002B070BD0520704700BFC3
:109A200070280020E8B110B582B00DF1060104469F
:109A3000FFF7CCF890B1BDF806300C4A03EB830376
:109A400002EB8303DA6872B1A27A62B1DA680021AC
:109A5000013A0846DA60A17202B010BD0A2002B0D5
:109A600010BD05207047062002B010BD70280020F0
:109A7000484B1B78002B32D0002934D00A884FF68F
:109A8000FF739A4229D04B883BB34B689B072CD17C
:109A90002DE9F043B1F8088008F103039BB240F2CE
:109AA000FD32934283B01CD83B4A17783FB95689A0
:109AB000148934441C44A4B2B4F5806F17D3147DC8
:109AC0003CB9D68B948B34441C44A4B2B4F5806F5B
:109AD0005DD3072003B0BDE8F08304207047022067
:109AE00070470920F6E70520704703207047BC4601
:109AF0004FEA8C09E14402EB890933440C460546E0
:109B000001A92648A9F80A3000F0F4FA1C220646FA
:109B1000002109F071F85EB302234FF00009B7820B
:109B2000337086F816906368336101211C4800F099
:109B300007FCF060238833816388B38001A9A6F80D
:109B40000A90A6F80680154800F000FB45B1C5F85C
:109B50000490F268134B2A601B8985F80A902B81C8
:109B60000121114800F0E0FB044660B10020B1E79C
:109B7000B9F80A30C8F57F4808F1FD089844A9F8FB
:109B80000A800820A6E7FFF70BF92046A2E7012785
:109B9000BC46ADE74C280020702800202429002076
:109BA000682800205428002034290020002836D0BE
:109BB000484B1B78002B30D0002930D00A884FF654
:109BC000FF739A422FD04B886BB34B689B0728D109
:109BD0002DE9F043B1F8089009F103039BB240F27C
:109BE000FD32934283B020D83B4A15783DB957895E
:109BF00014893C441C44A4B2B4F5806F17D3147D7F
:109C00003CB9D78B948B3C441C44A4B2B4F5806F10
:109C10005BD3072003B0BDE8F08302207047052026
:109C2000704703207047042070470920F2E7A846D8
:109C3000AC464FEA8C05654402EB85053B4406467D
:109C40000C4626486B8101A900F054FA1C220746F5
:109C5000002108F0D1FF57B300250323A7F8148093
:109C60003B70BD7563683B6101211D4800F068FBD6
:109C7000F86023883B816388BB800423A7F80690A3
:109C8000BB753368BB6101A97D81144800F05EFAA1
:109C90007560FA68134B32601B89B57233810121FC
:109CA000114800F041FB044658B12846B2E76B89E1
:109CB000C9F57F4909F1FD099944A5F80A900820E2
:109CC000A8E7FFF76DF82046A4E74FF00108C44667
:109CD000AFE700BF4C280020702800202429002076
:109CE000682800205428002034290020184B1B78B5
:109CF00023B34FF6FF7398421ED070B582B001A90E
:109D00000446144800F0F6F91C220546002108F02C
:109D100073FFADB105230126EC8001A92B702E71D4
:109D20000C4800F013FA31460B4800F0FDFA0446E7
:109D300048B1002002B070BD042070470220704777
:109D4000082002B070BDFFF72BF8204602B070BDAE
:109D50004C2800202429002034290020194B1B788E
:109D6000EBB110B582B001A9174800F0C3F91C226D
:109D70000446002108F040FF0CB30623237001A91C
:109D8000114800F0E3F9114B1A7852B9012110483B
:109D900000F0CAFA044668B1002002B010BD0220EB
:109DA0007047012201210A481A7300F0BDFA0446E7
:109DB0000028F1D1FEF7F4FF204602B010BD0820C4
:109DC00002B010BD4C280020242900205428002077
:109DD000342900202DE9F043344C2478002C60D045
:109DE0003AB333B39F88012F5ED8314C07EB870C11
:109DF000013704EB8C0CBFB24FF6FF7E4FF000082A
:109E00009CF8004074B91C68DCF8045005F58056D5
:109E1000002C43D06588033504EB8504B4420BD392
:109E2000C3F80080022F9F800CF1140C3CD0022755
:109E3000E6E70520BDE8F08325680135F0D06588A8
:109E4000033504EB8505AE42EAD3B4F80490F1453E
:109E500015D0B4F80090B9F1000F10D01C60A5889F
:109E60008542D1D125888D42CED1A1681160196873
:109E7000104B51601B8913810020BDE8F083AE4276
:109E8000CED92C6801342C46CAD0B5F8029009F11D
:109E9000030905EB8905AE42D7D2C1E705F10804F5
:109EA000BCE70220BDE8F0830A20C3E74C2800206D
:109EB0007028002054280020334B1B78002B5CD0E6
:109EC00051B34AB32DE9F0419588012D5AD82F4F4F
:109ED00005EB850307EB830701353B78ADB24FF601
:109EE000FF7C4FF0000E43B1022D958007F114075F
:109EF00048D03B780225002BF6D113687C6804F526
:109F00008056002B3BD05C88033403EB8403B342C0
:109F100004D3C2F800E0E7E7052070471C6801346D
:109F2000F7D05C88033403EB8404A642F1D3B3F882
:109F30000480E04512D0B3F80080B8F1000F0DD0D6
:109F400013601C888442D9D19B680B601268104B47
:109F50004A601B890B810020BDE8F081A642D8D958
:109F6000236801332346D4D0B4F8028008F10308F3
:109F700004EB8804A642DAD2CBE70220704704F152
:109F80000803C4E70A20E7E74C28002070280020D7
:109F900054280020334B1B78002B5CD051B34AB3BC
:109FA0002DE9F0419588012D5AD82F4F05EB8503F7
:109FB00007EB830701353B78ADB24FF6FF7C4FF0DE
:109FC000000E43B1022D958007F1140748D03B786D
:109FD0000225002BF6D113687C6804F58056002B0F
:109FE0003BD05C88033403EB8403B34204D3C2F850
:109FF00000E0E7E7052070471C680134F7D05C8873
:10A00000033403EB8404A642F1D3B3F80480E045A3
:10A0100012D0B3F80080B8F1000F0DD013609C8807
:10A020008442D9D19B680B601268104B4A601B892F
:10A030000B810020BDE8F081A642D8D92368013306
:10A040002346D4D0B4F8028008F1030804EB880456
:10A05000A642DAD2CBE70220704704F10803C4E736
:10A060000A20E7E74C280020702800205428002010
:10A0700020B119B103680B600020704705207047BC
:10A0800099B110B4B2FBF3F403FB1424A4B244B9A5
:10A09000C0E9001484608281C38120465DF8044BCE
:10A0A000704709205DF8044B70470E20704700BFD1
:10A0B00082B050E8022FC188B2EB324F4FF000035C
:10A0C00017BF92B241EA014142EA014104E042680D
:10A0D000B2EB324F08BF012340E80212002AE8D158
:10A0E0008DF807309DF80730002B0CBF11200020A1
:10A0F00002B0704730B482B050E8013F9DB2C489CD
:10A1000025448489A54228BF2D1B0489A54202BF8E
:10A11000BFF32F8F002207E0C5EA030540E8015492
:10A12000002CE9D14FF001028DF803200193019B2F
:10A130009DF803200B602AB10B880068184402B018
:10A1400030BC704702F0FF031846F8E70A884B88D6
:10A150009A4201D00020704750E8012FC2EA024223
:10A1600040E80123002BF7D10120704730B482B0C2
:10A1700050E8023F1FFAA3F5C488A54202BFBFF30F
:10A180002F8F00220DE0C48925448489A54228BF71
:10A190002D1BC3EA054540E80254002CE8D14FF0DE
:10A1A00001028DF803200193019B9DF803200B60B1
:10A1B0002AB14B880068184402B030BC704702F0E6
:10A1C000FF031846F8E700BF0A884B889A4201D07F
:10A1D0000020704750E8022FC2EA224240E80223E2
:10A1E000002BF7D10120704701F01F024B0901211C
:10A1F00000EB8300914000F07FB800BF10B5012351
:10A2000001F01F04490900EB810003FA04F100F09A
:10A2100067F8E04000F0010010BD00BF01F01F0230
:10A2200001234909934000EB8100D94300F070B845
:10A230004B0901F01F0150F82300C84000F0010055
:10A24000704700BF2DE9F84F01F1FF394FEA59136C
:10A2500000F104090F46064609EB83090446002570
:10A260004FF0010823686FEA030B9BFAABFBBBFAC4
:10A270008BFBBBF1200F20D0AB445F450CD81CE01A
:10A280002368DB4393FAA3F3B3FA83F3202B05EBA4
:10A29000030B12D05F4510D90BF01F0A4FEA5B1079
:10A2A00008FA0AF106EB800000F01AF820FA0AF02A
:10A2B000C307E5D45846BDE8F88F04344C4505F192
:10A2C0002005CFD1BB465846BDE8F88F50E8002F97
:10A2D0000B4640E8003C9CF0000FF7D11046704759
:10A2E00050E8002F42EA010340E8003C9CF0000FD8
:10A2F000F6D11046704700BF50E8003F43EA010224
:10A3000040E8002C9CF0000FF6D11046704700BFCB
:10A3100050E8003F03EA010240E8002C9CF0000FE7
:10A32000F6D11046704700BF50E8002F02EB010342
:10A3300040E8003C9CF0000FF6D11046704700BF8B
:10A3400050E8003F03EB010240E8002C9CF0000FB6
:10A35000F6D11046704700BF50E8003FA3EB010262
:10A3600040E8002C9CF0000FF6D11046704700BF6B
:10A37000012350E800CF4CEA030240E8002191F0AD
:10A38000000FF6D16046704720B119B101600B682B
:10A39000114618470E20704750B32DE9F0414AB3DB
:10A3A000D0F800E0BEF1000F27D01D4673B147681A
:10A3B000D7F80480B3FBF8F708FB173737B942EA40
:10A3C0000104A40705D01020BDE8F0810920BDE8F4
:10A3D000F081C468A142F6D301F1FF3C04696544F1
:10A3E000A542F0D8DEF80C40A446BDE8F041604735
:10A3F0000E2070470E20BDE8F0810820BDE8F081F6
:10A4000000B3F0B5D0F800C0BCF1000F1CD0AAB169
:10A410004768D7F800E00EF1FF370F4210D1C76848
:10A42000B9420DD34D1E04690EFB0255A54207D853
:10A43000DCF81040A446BDE8F04060470920F0BDBC
:10A440001020F0BD0E2070470820F0BD29DF7047B6
:10A4500028DF70470846704700207047024B187A83
:10A46000003018BF01207047EC290020034B187AF8
:10A470000122B0FA80F05A7440097047EC2900209C
:10A4800008B510461A4608F01DFB002008BD00BFA5
:10A4900008B514220021044808F0AEFB0348FFF77A
:10A4A00007FE002008BD00BFEC290020DC290020A9
:10A4B00010B5094C094B43602046FFF759FF40B9DE
:10A4C00008F07CF91C2320748C2205490548FFF70D
:10A4D000D7FD002010BD00BFEC2900202C3B03005D
:10A4E00050290020DC29002030B55E4C237A87B04B
:10A4F000002B3AD05C4B1B68022222721A79002A88
:10A500003ED0012A0CD1D3E903021044FFF7A0FF8B
:10A51000002849D0112803D10123237207B030BD90
:10A5200019688A68C2B1002268460092C0E9022216
:10A530000325026101959A6805921A79002A4BD089
:10A54000012A07D102228DF80020DA681203029254
:10A550005B6904938B6898470023444944482372FD
:10A560006360FFF731FE07B030BD40494048FFF758
:10A57000FDFD3D4A034610600028BDD16060F2E752
:10A58000D3E90525521BB2F5805F28BF4FF48052F6
:10A59000D3E903109208012A38BF01222944284434
:10A5A000FFF754FF0028B5D1227C002ADBD1227AA4
:10A5B000002AD8D0022A0AD1E0601A79DAB1012A39
:10A5C00005D1D3E9042101328A421A611FD0637C8C
:10A5D00073B108F0E3F8C6E701228DF800201A698C
:10A5E0000292DA6803925B6904938B689847B3E739
:10A5F000FFF77AFFB7E7D3E90512881AB0F5805F55
:10A6000094BF121802F5805291429A61DFD1002264
:10A61000227219688868A8B168460092C0E90122D0
:10A62000C0E903229A6805921A7982B1012A07D1FA
:10A6300002228DF80020DA68120302925B6904930B
:10A640008B68984709490A48FFF7BEFDBFE701221A
:10A650008DF800201A690292DA6803925B6904930C
:10A66000EEE700BFEC290020042A0020002A002089
:10A67000DC2900202DE9F04782B082468946174840
:10A6800001A990461F46FFF735FD10B3044600218F
:10A690001C220D46124E08F0AFFA0A9BC4F800A027
:10A6A000A360C4E90389676101A925710B48FFF71D
:10A6B0004DFD301DFFF75CFE38B9747C34B9FFF7EF
:10A6C00013FF204602B0BDE8F087284602B0BDE87F
:10A6D000F087042002B0BDE8F08700BFDC2900202D
:10A6E000EC2900202DE9F04383B081460D46164841
:10A6F00001A917469846FFF7FDFC08B304461C2243
:10A70000002108F079FA114EC4F8009001232D0BB6
:10A71000C4E90285676101A923710B48FFF716FDA3
:10A72000301DFFF725FE38B9747C34B9FFF7DCFE25
:10A73000204603B0BDE8F083002003B0BDE8F083FD
:10A74000042003B0BDE8F083DC290020EC290020C0
:10A7500000F0FD03012B00D0704730B5604CA0F134
:10A760000100B0FA80F0237A4009002287B02074FB
:10A770006274002B3AD05B4B1B68022222721A795A
:10A78000002A3ED0012A0CD1D3E903021044FFF77E
:10A790005FFE002849D0112803D10123237207B09E
:10A7A00030BD19688A68C2B1002268460092C0E9CB
:10A7B00002220325026101959A6805921A79002AFE
:10A7C0004BD0012A07D102228DF80020DA6812034B
:10A7D00002925B6904938B6898470023424943487F
:10A7E00023726360FFF7F0FC07B030BD3E493F487D
:10A7F000FFF7BCFC3B4A034610600028BDD16060F7
:10A80000F2E7D3E90525521BB2F5805F28BF4FF46C
:10A810008052D3E903109208012A38BF012229444B
:10A820002844FFF713FE0028B5D1227C002ADBD193
:10A83000227A002AD8D0022A0AD1E0601A79CAB155
:10A84000012A05D1D3E9042101328A421A611DD0BF
:10A85000637C63B107F0A2FFC6E701228DF80020F8
:10A860001A690292DA6803925B690493B3E7FFF70F
:10A870003BFEB9E7D3E90512881AB0F5805F94BFB3
:10A88000121802F5805291429A61E1D1002222729F
:10A8900019688868A8B168460092C0E90122C0E939
:10A8A00003229A6805921A7982B1012A07D10222FD
:10A8B0008DF80020DA68120302925B6904938B68BA
:10A8C000984709490948FFF77FFCC1E701228DF845
:10A8D00000201A690292DA6803925B690493EEE73A
:10A8E000EC290020042A0020002A0020DC29002076
:10A8F000831E012B00D9704730B58E4C237A87B068
:10A90000002B31D0022B2BD103286BD1E36801330C
:10A91000082B79D9884B00221B68E26022720D2532
:10A9200019688A68C2B1002268460092C0E9022212
:10A93000026101959A6805921A79002A00F0B9809F
:10A94000012A07D102228DF80020DA681203029250
:10A950005B6904938B68984778497948FFF734FC22
:10A96000637C1BB107F01AFF07B030BD237A002BC0
:10A970005BD0714B1B68022222721A79002A5FD0C9
:10A98000012A0BD1D3E903021044FFF761FD00282F
:10A9900069D0112802D101232372E5E719688A687A
:10A9A000C2B1002268460092C0E90222032502617A
:10A9B00001959A6805921A79002A70D0012A07D168
:10A9C00002228DF80020DA68120302925B69049378
:10A9D0008B68984700235949594823726360FFF7F1
:10A9E000F3FBC1E7544B00221B68E2601A796AB19D
:10A9F000012AB5D1D3E9042101328A421A6111D06A
:10AA0000637C002BAED1B4E7E360F9E7D3E905122C
:10AA1000881AB0F5805F94BF121802F580529142F7
:10AA20009A61EDD1002525727AE744494448FFF741
:10AA30009DFB414A0346106000289CD1606093E76B
:10AA4000D3E90525521BB2F5805FD3E9031028BF77
:10AA50004FF480529208012A38BF01222944284429
:10AA6000FFF7F4FC93E7227C002A7FF47DAF227A83
:10AA7000002A3FF479AF022A0AD1E0601A7912B3B2
:10AA8000012A05D1D3E9042101328A421A6126D074
:10AA9000637C002B7FF466AFFFF726FD64E701229D
:10AAA0008DF800201A690292DA6803925B690493B8
:10AAB0008EE701228DF800201A690292DA6803926B
:10AAC0005B69049346E7D3E90512881AB0F5805F05
:10AAD00094BF121802F5805291429A61D8D1002297
:10AAE000227219688868A8B168460092C0E90122FC
:10AAF000C0E903229A6805921A7982B1012A07D126
:10AB000002228DF80020DA68120302925B69049336
:10AB10008B68984709490A48FFF756FBB8E70122B6
:10AB20008DF800201A690292DA6803925B69049337
:10AB3000EEE700BFEC290020042A0020002A0020B4
:10AB4000DC29002041DF7047064A074B10B500247E
:10AB500014701C60BFF35F8F0449054800F032F8A1
:10AB6000204610BD102A0020142A0020583B030064
:10AB7000082A002000B583B002A8002300F8013D98
:10AB8000FDF7E6FFF1EE103A23F09F03E1EE103AF5
:10AB9000BFF35F8F0A4B4022C3F884219DF8070062
:10ABA000FDF7FCFF07F00AFE28B920BF40BF20BF19
:10ABB00003B05DF804FBFFF7C5FF03B05DF804FBCD
:10ABC00000E100E001600B6843604A68934204BF03
:10ABD00000234360704700BF436843B10268916837
:10ABE0000B4443605268934204BF002343607047A4
:10ABF0000A7B10B4D1E90043002A0ABF2346002291
:10AC00000122027103605DF8044B704710B40346E3
:10AC100000791C688A6840B14868011B91420ED9CE
:10AC2000A01818605DF8044B70470868211A91421B
:10AC30000BD8012218601A715DF8044B704700228E
:10AC400018601A715DF8044B7047A01A18605DF81F
:10AC5000044B7047BFF34F8F0549064BCA6802F497
:10AC6000E0621343CB60BFF34F8F00BFFDE700BF2F
:10AC700000ED00E00400FA0538B5B34B1B78062B55
:10AC800024D0B24B1B68062B00F08980B04AD2F862
:10AC9000883043F47003C2F88830BFF34F8FBFF39E
:10ACA0006F8F4FF01023D3F80C22D20700F1B08140
:10ACB000D3F80022002AC0F28581D3F80432002B99
:10ACC000C0F28081A34BA44A1A6038BDA34B1B6815
:10ACD0001B07D6D1A24B1B6803F0F002302A00F00C
:10ACE0009D8003F0E003402B00F098809C4B1B6894
:10ACF00003F0F003302B00F01881994B1B6803F030
:10AD0000F002302A7AD003F0E003402B76D0944B47
:10AD10001B6803F0F003302B00F04481904B1B685C
:10AD200003F0F002302A56D003F0E003402B52D05B
:10AD30008B4B1B6803F0F003302B00F0E880884B4E
:10AD40001B6803F0F003302B00F0CA80844B1B68B3
:10AD500003F0F003502B71D0814B1B6803F0F0021D
:10AD6000302A27D003F0E003402B23D07C4B1B6814
:10AD700003F0F002302A03D003F0E003402B80D12F
:10AD80004FF08043D3F80024D10744BF6FF0010295
:10AD9000C3F800246D4B1B68062B7FF477AF714B13
:10ADA0001B68062B7FF472AF6F4A136843F480630D
:10ADB00013606BE76D4B6E4A1B6803F04F03136023
:10ADC000614B1B78062B7FF45CAF644B1B68180744
:10ADD0007FF457AFCAE74FF080430022C3F80C213D
:10ADE000C3F81021C3F83825574B1B78062BE7D141
:10ADF0005A4B1B681A077FF444AF99E75D4B524AE0
:10AE00001B6812785C49C3F34233062A0B6073D186
:10AE1000524B1B6818077FF434AF78E7574B4A4A08
:10AE20001B6812785649C3F30423062A0B60DBD152
:10AE30004A4B1B681D077FF424AF57E74FF0805340
:10AE4000504AD3F80414C2F82015D3F80814C2F8F5
:10AE50002415D3F80C14C2F82815D3F81014C2F82E
:10AE60002C15D3F81414C2F83015D3F81814C2F8FE
:10AE70003415D3F81C14C2F84015D3F82014C2F8C6
:10AE80004415D3F82414C2F84815D3F82814C2F88E
:10AE90004C15D3F82C14C2F85015D3F83014C2F85E
:10AEA0005415D3F83414C2F86015D3F83814C2F826
:10AEB0006415D3F83C14C2F86815D3F8401422483E
:10AEC000C2F86C15D3F844140378C2F87015062B39
:10AED0007FF4D7AE214B1B681C077FF4D2AE3BE753
:10AEE000294A2A4C2A492B4B0520106001250020B5
:10AEF0003F22256008601A60134B1B78062B7FF4F5
:10AF0000C0AE164B1B681D077FF4BBAE1EE70E4B91
:10AF1000214A1B780321062B11607FF4B2AE0F4B40
:10AF20001B681B077FF4ADAE09E7074B1B4A1B7874
:10AF30001B491160062B7FF4A4AE084B1B681C074D
:10AF40007FF49FAED9E600BFE00F00F030010010A3
:10AF500000ED00E0602200200090D003E40F00F03C
:10AF6000E80F00F0340100103C17004058020010B8
:10AF7000E40E0040440200103C0500402403001091
:10AF80004035014000C00040105600408856004047
:10AF90001856004014560040A005004074C00740F9
:10AFA0000DF0ADBA29492A4BCA681B7822F080728D
:10AFB000062BCA607FF465AE264B1B6819077FF429
:10AFC00060AEABE6244A0123C2F80435D2F800345F
:10AFD000002BFBD04FF0102315211F4AC3F800129D
:10AFE000D2F80034002BFBD04FF0102315211A4A61
:10AFF000C3F80412D2F80034002BFBD0002316490A
:10B00000C2F80435D1F80034002BFBD0FFF722FE44
:10B01000114B0122C3F80425D3F80024002AFBD0E9
:10B020004FF010210C4BD1F80C2222F00102C1F894
:10B030000C22D3F80024002AFBD00021064AC3F8D2
:10B040000415D2F80034002BFBD0DFE7F0ED00E070
:10B05000E00F00F0E40F00F000E00140054A4FF07F
:10B06000A043105CD3F8043523FA00F0C04300F08D
:10B0700001007047683B0300044B195C4FF0A0428D
:10B0800001238B40C2F80C35704700BF683B0300BA
:10B09000044B195C4FF0A04201238B40C2F80835E5
:10B0A000704700BF683B03004FF0A04310B44FF45B
:10B0B00080204FF400344FF400214FF48012C3F885
:10B0C0000845C3F80805C3F80815C3F808255DF856
:10B0D000044B70474FF0A04310B44FF480204FF45E
:10B0E00000344FF400214FF48012C3F80C45C3F82C
:10B0F0000C05C3F80C15C3F80C255DF8044B70471C
:10B10000074B4FF0A041185CD1F804350122824072
:10B1100022EA03001340C1F80805C1F80C35704756
:10B12000683B0300054A4FF0A043105CD3F810358C
:10B1300023FA00F0C04300F001007047643B0300B5
:10B140000D2809D00E2809D00F2809D010280CBFCF
:10B1500003204FF0FF3070470020704701207047F8
:10B1600002207047014B185C704700BF643B03002E
:10B17000C20730B41AD54FF0A0430322C3F84427C6
:10B180004FF40035C3F848274FF48024C3F84C2708
:10B190004FF40021C3F850274FF48012C3F808552C
:10B1A000C3F80845C3F80815C3F8082583070AD56E
:10B1B0004FF0A0430C22C3F83427C3F83827C3F854
:10B1C0003C27C3F8402730BC704700BF10B570B1B2
:10B1D00001280BD10D4C2369A0703BB1D3E90023AA
:10B1E0000120226198472369002BF7D110BD074C3D
:10B1F000A36801226270002BF8D0D3E9002300205D
:10B20000A2609847A368002BF7D1EFE7182A002027
:10B2100070B910B5074CA368012262703BB1D3E945
:10B2200000230020A2609847A368002BF7D110BD2F
:10B23000704700BF182A002030B5012883B01CD009
:10B2400015D3032811D100F0BDF802A800231F4C2C
:10B2500000F8013DFDF77CFCE368013BE360E56835
:10B2600065B39DF80700FDF799FC03B030BD184B9E
:10B270000122C3F8802003B030BD02A80023134C84
:10B2800000F8013DFDF764FC237853B1E3689DF8B5
:10B29000070001330122E360A270FDF77FFC03B0D9
:10B2A00030BD0C486360A3602361E36000F07CF86C
:10B2B00007F084FA30B101232370E7E700F096F835
:10B2C000A570CEE700F07EF8F5E700BF182A002051
:10B2D00000E100E0CDB1020030B587B005784468E8
:10B2E0008DF8045002948568084A094B8DF80C507B
:10B2F000D0E9034053F821308DF81400049452F83B
:10B30000211001A8984707B030BD00BF2C2A0020AB
:10B31000382A00202DE9F04306461F4C16F8047B1E
:10B320001E4844F8273015460C460FC8DFF870E079
:10B33000DFF870C04EF8275085B0002D6D4685E8C7
:10B340000F00237894F8019094F8028094F803E0B9
:10B350008DF8003029463B46257B67798DF80190B2
:10B3600018BF6246304694F804C0A668647B8DF826
:10B37000028008BF00228DF803E08DF805C08DF82B
:10B38000067002968DF80C508DF80D4000F034FDDB
:10B3900005B0BDE8F08300BF2C2A00206C3B030001
:10B3A000382A0020D9B20200054A13792BB90121AD
:10B3B000106053711846117170478520704700BFA7
:10B3C000442A0020084B1A68D20706D40122C02163
:10B3D00083F80013C3F880211A604FF080430122E4
:10B3E000C3F81825704700BF00E100E0044B0122BC
:10B3F0001A604FF08042D2F81834DB03FBD4704758
:10B400000C00004010B5154B1A6882B07AB10021CB
:10B41000134A19601B68507900934FF08041012353
:10B42000009CC1F8083310B91168537188470D4B5F
:10B430001A6882B100221A601B6801934FF08042A3
:10B440000221074B0198C2F808131B68012002B0C3
:10B45000BDE81040184702B010BD00BF0001004019
:10B46000442A00200401004070B51E4C94F8585046
:10B4700082B0A5BB4FF0FF332946042204F15400EB
:10B48000C4E90033C4E90233C4E90433C4E9063330
:10B49000C4E90833C4E90A33C4E90C33C4E90E3300
:10B4A000C4E91033C4E91233236507F0A5FB0E4B42
:10B4B0000E4A0F4E1560C02183F806134021C3F8D1
:10B4C000801119601368019301994FF00043012224
:10B4D000284684F85820C6F8043302B070BD08200E
:10B4E00002B070BD4C2A002000E100E07C61004009
:10B4F00000600040034B93F85800003018BF012053
:10B50000704700BF4C2A0020F0B56C4B1C1894F912
:10B510003050002D68DA8E78C6F340069646002E2D
:10B520005CD11D6A013500F0B58009240C2553F863
:10B53000247001375BD004F1010C53F82C700137F3
:10B5400000F0B380A71CAF4246D253F82720013247
:10B5500000F0AD8004F1030CAC453DD253F82C70E3
:10B56000013700F0A28004F1040CAC4534D253F84A
:10B570002C70013700F0998004F1050CAC452BD2FA
:10B5800053F82C70013700F0908004F1060CAC45A4
:10B5900022D253F82C70013700F0878004F1070C99
:10B5A000AC4519D253F82C7001377ED004F1080C49
:10B5B000AC4511D253F82C70013776D004F1090C48
:10B5C000AC4509D253F82C7001376ED00A34AC4226
:10B5D00002D2DC6A013409D00420F0BD1D680135B7
:10B5E00067D001240825A2E70820F0BD0B241F180E
:10B5F00065B243F824E087F83050002E51D08A78A5
:10B60000540714D4D6073BD44C784FF0A04600F52D
:10B61000E072A40046F82240294EC40800F0070C4E
:10B62000375D012202FA0CF23A4332558A780C78DF
:10B6300012F0020209D1083D2B44104693F8502025
:10B6400042EA841483F85040F0BDAB0003F180431C
:10B6500003F5C0430202D3F8101521F4473121F459
:10B660004071C3F810152404D3F8101504F44034C5
:10B6700002F4F85222430A43C3F810250020F0BD1B
:10B68000820002F1A042D2F8004724F00204C2F87E
:10B690000047C1E7082684F83060C3F820E035464B
:10B6A00034461C4484F84800A9E764469FE73C46BA
:10B6B0009DE700251A6084F83050A0E74C2A00204E
:10B6C000A02A002070B42E4D2E1883B096F9303089
:10B6D000072B1CDD2B4493F848309B09032B41D0EA
:10B6E000012B14BF4FF440314FF40031800000F1C2
:10B6F000A040D0F8002722F44032C0F80027D0F84C
:10B7000000370B43C0F8003703B070BC7047DAB2A3
:10B71000072AF9D8980000F1804000F5C04003F1F5
:10B720004002D0F81045920092B244F0010402F1B8
:10B730008042C0F8104502F5C04200200190019CF3
:10B7400010600029E0D096F9302055F82220002A18
:10B75000DAD001220B4902FA03F3C1F8043303B033
:10B7600070BC70474FF0A043D3F81035C34013F0BE
:10B77000010F0CBF4FF400314FF44031B6E700BF6A
:10B780004C2A002000600040164B034493F93030EF
:10B79000072B18DCDAB2072A14D810B49A0002F189
:10B7A000804202F5C042104CD2F81005012120F071
:10B7B000010001FA03F3C2F81005C4F808335DF87C
:10B7C000044B70477047800000F1A040D0F800376C
:10B7D00023F44033C0F80037D0F80037C0F8003702
:10B7E000704700BF4C2A0020006000404FF0A0438B
:10B7F000D3F8103523FA00F000F00100704700BFC5
:10B800002DE9F04186B00023A14A01931168012976
:10B8100000F054811E469F4B1A68012A00F05E8199
:10B820009D4B1A68012A00F06B819C4B1A68012A13
:10B8300000F078819A4B1A68012A00F08581994BB3
:10B840001A68012A00F09281974B1A68012A00F0C9
:10B850009F81964B1A68012A0CD0954B1B68012BCF
:10B8600000F0A48116F0FF0F15D1002E30DB06B0DA
:10B87000BDE8F0818F4AD2F804231706EDD50022E7
:10B880001A601A6804926033049A1B68012B46F010
:10B89000800600F08B81884F01250024A30003F16E
:10B8A0008043354203F5C0434FEA45050BD0D3F83A
:10B8B000100557F82420D3F81015C0F30420C1F365
:10B8C000014102B190470134082CE7D1002ECEDAB5
:10B8D00000224FF0FF33CDE90223774C012602AF5F
:10B8E00094F950305D1C2CD0DBB223F0C00006AAC6
:10B8F0004FEAD00C02EB0C0E03F007021EF80C1CF2
:10B9000006FA02F211421CD02518990995F9303037
:10B9100054F82330002B00F09781032900F0978121
:10B920004FEA800C0CF1A04C1EF8145CDCF800E728
:10B930001540CEF3014E40F05B81BEF1030F00F0E5
:10B94000DD81002594F95130581C2DD0DBB223F055
:10B95000C00006AA4FEAD00802EB080E03F0070168
:10B960001EF80C2C06FA01FC12EA0C0F1CD022184F
:10B97000990992F9303054F82330002B00F05A81A5
:10B98000032900F05A81820002F1A0421EF8148CB3
:10B99000D2F800E718EA0C0FCEF3014E40F03581E3
:10B9A000BEF1030F00F0A58194F95230591C2DD03F
:10B9B000DBB223F0C00006AA4FEAD00802EB080E63
:10B9C00003F007011EF80C2C06FA01FC12EA0C0F1A
:10B9D0001CD02218990992F9303054F82330002BEA
:10B9E00000F03B81032900F03B81820002F1A0427C
:10B9F0001EF8148CD2F800E718EA0C0FCEF3014EB3
:10BA000040F0E280BEF1030F00F06D8194F95330F5
:10BA10005A1C2DD0DBB223F0C00006AA4FEAD00892
:10BA200002EB080E03F007011EF80C2C06FA01FCCD
:10BA300012EA0C0F1CD02218990992F9303054F8F0
:10BA40002330002B00F0EC80032900F0EC80820012
:10BA500002F1A0421EF8148CD2F800E718EA0C0F8D
:10BA6000CEF3014E40F0BB80BEF1030F00F0FF802B
:10BA7000002D3FF4FCAE4FF0A043019AD3F81035EF
:10BA800093423FF4F4AE029A0193039228E700BF79
:10BA90000061004004610040086100400C6100400A
:10BAA0001061004014610040186100401C610040BA
:10BAB0007C610040006000404C2A00209A49D1F887
:10BAC000046316F001063FF4A6AE136013680493F6
:10BAD000049B964B1A68012A7FF4A2AE924AD2F8D0
