:020000022000DC
:1060000000000120F1850200198602001B860200B3
:106010001D8602001F86020021860200000000008B
:1060200000000000000000000000000023860200C5
:106030002586020000000000278602002986020053
:106040007DCE02002B86020021D40200D1DF0200A7
:106050002B8602002B860200FDD10200E5810200A2
:106060002B8602002B8602002B8602002B86020064
:106070002B8602002B8602002B8602002B86020054
:106080002B860200A99F02002B8602002B860200AD
:10609000D19F02002B860200254303002B860200BD
:1060A0002B8602002B8602002B8602002B86020024
:1060B0002B8602002B86020000000000000000007A
:1060C0002B8602002B8602002B8602002B86020004
:1060D0002B8602002B8602002B86020000000000A7
:1060E00000000000000000000000000000000000B0
:1060F00000000000000000000000000000000000A0
:10610000000000000000000000000000000000008F
:10611000000000000000000000000000000000007F
:10612000000000000000000000000000000000006F
:10613000000000000000000000000000000000005F
:10614000000000000000000000000000000000004F
:10615000000000000000000000000000000000003F
:10616000000000000000000000000000000000002F
:10617000000000000000000000000000000000001F
:10618000000000000000000000000000000000000F
:1061900000000000000000000000000000000000FF
:1061A00000000000000000000000000000000000EF
:1061B00000000000000000000000000000000000DF
:1061C00000000000000000000000000000000000CF
:1061D00000000000000000000000000000000000BF
:1061E00000000000000000000000000000000000AF
:1061F000000000000000000000000000000000009F
:106200000348044B834202D0034B03B11847704745
:10621000082300200823002000000000054806494C
:10622000091A891001EBD171491002D0034B03B157
:1062300018477047082300200823002000000000B2
:1062400010B5064C237843B9FFF7DAFF044B13B1BE
:106250000448AFF300800123237010BD20230020E9
:10626000000000001880030008B5044B1BB104496E
:106270000448AFF30080BDE80840CFE7000000000D
:106280002423002018800300134B002B08BF114B60
:106290009D46A3F5803A00218B460F461148124ACD
:1062A000121A0EF0F1FA0D4B002B00D098470C4B50
:1062B000002B00D098470020002104000D000B485F
:1062C0000EF0A0F90EF0D2F92000290000F036FE01
:1062D0000EF09EF900000800000001200000000000
:1062E0000000000020230020C436002039460300AF
:1062F00076DF704778DF70477ADF70477CDF704762
:106300008FDF7047B1DF704733DF7047014B0122E9
:106310001A70704748230020014B01221A70704701
:10632000A82600200123024A1370024A1370704706
:1063300049230020402300207047000008B5034A8D
:1063400040F2DB1103F0D2FA08BD00BF94580300FD
:1063500008B5034A40F2922103F0C8FA08BD00BF15
:106360009458030008B5037803B108BD3B21064BE0
:106370001888FFF7BDFF0028F7D0044A4FF42271B8
:1063800003F0B4FAF1E700BF302200209458030074
:1063900008B54A880C4B1B889A4200D008BD0A8871
:1063A00040F677239A42F9D18A88033A92B2074895
:1063B000074BC01AC00800041346064940F003000A
:1063C00002F092FDEAE700BF3022002000810300C6
:1063D000C8800300D857030008B54FF400410020DF
:1063E00002F0C8FA10B902F01FFA08BD024A40F2E2
:1063F000CA3103F07BFAF6E79458030008B503F0BE
:10640000EBFD90B9154A0121154803F015FE90B92E
:10641000144A0121144803F00FFE90B9134A0121D8
:10642000134803F009FE90B908BD124A40F2491121
:1064300003F05CFAE6E70F4A40F24F1103F056FA18
:10644000E6E70C4A4FF4AA7103F050FAE6E7094A6E
:1064500040F2591103F04AFAE6E700BF0D6302006B
:10646000F457030019630200FC5703002563020080
:10647000F85703009458030010B582B00446104941
:10648000032008F06DF970B90DF10701002008F044
:1064900061FA70B99DF80730022B14BF0023012365
:1064A000237002B010BD074A40F2BD3103F01EFA5E
:1064B000EAE7044A4FF4707103F018FAEAE700BF04
:1064C000496602009458030008B5002008F00EF950
:1064D00030B908F02AFA48B9FFF716FF60B908BDCD
:1064E000084A4FF42D7103F001FAF2E7054A4FF420
:1064F0002E7103F0FBF9EFE7024A4FF42F7103F01E
:10650000F5F9ECE79458030008B5A8B1032815D1B4
:106510000B480C4BC01AC00800040B4940F00300A4
:1065200002F0D8FB022008F0E1F838B1074A40F247
:10653000CE2103F0DBF901E0FFF7C6FF08BD00BF85
:1065400000810300C8800300A8580300945803008A
:1065500010B504460023037001234370837016496D
:10656000164805F065FFFE232371A060237300EB3E
:10657000C000134BA3FB0030800800F54860206189
:10658000104A04F1140392E8030083E80300042393
:10659000237793791B33DBB293713B2B0AD93C3BB6
:1065A000937153790133DBB253713B2B02D91346FC
:1065B00000225A7110BD00BF502600206026002026
:1065C000CDCCCCCC5822002010B588B0184B1B780D
:1065D0002BB36846FFF7BCFF164C174BE41AE408D0
:1065E000240402980EF054FC0FA3D3E900230EF00C
:1065F000B9FC0EF0F1FE0246104944F0030002F02F
:10660000E5FB69460E4800F0A7FF30B1082804D02A
:106610000C4A4FF4D97103F069F908B010BD68460F
:1066200000F0A2FED8E700BF7B14AE47E17A843FBA
:10663000A026002000810300C8800300E05803006A
:10664000042600209458030008B504380A2809D805
:10665000DFE800F0090808180808060808082B00F9
:10666000FFF732FF08BD1321144B1888FFF740FED7
:106670000828F7D00028F5D0114A40F24D3103F038
:1066800035F9EFE70D4B1A884FF6FF739A42E9D1BF
:106690000C4808F02BFF0828E4D00028E2D0084A74
:1066A00040F2573103F022F9DCE7044B1A884FF629
:1066B000FF739A42D6D0FFF787FFD3E7302200203E
:1066C000945803004C23002008B505F0F5FD00B9EF
:1066D00008BD034A40F2D53103F008F9F8E700BFDE
:1066E0009458030000B583B00DF076FD70B902A98F
:1066F000002341F8043D01200DF05EFE60B901A8C1
:106700000DF014FF70B903B05DF804FB084A40F2C5
:106710002A3103F0EBF8EAE7054A4FF44C7103F035
:10672000E5F8ECE7024A4FF44D7103F0DFF8EAE7D1
:106730009458030008B500224FF48031124803F04A
:1067400091FC70B900224FF48031104803F08AFCAC
:1067500068B900224FF480310D4803F083FC60B922
:1067600008BD0C4A40F25D2103F0C0F8EAE7094A8F
:106770004FF4187103F0BAF8EBE7064A40F26321D0
:1067800003F0B4F8ECE700BFD025002080260020FD
:10679000202600209458030008B50F4803F080FC21
:1067A00040B90E4803F07CFC50B90D4803F078FC6A
:1067B00060B908BD0B4A40F26E2103F097F8F0E78C
:1067C000084A40F2712103F091F8EEE7054A4FF4D0
:1067D0001D7103F08BF8ECE7D02500208026002007
:1067E000202600209458030010B582B00446038888
:1067F000212B5AD011D9522B74D0562B66D03B2B5B
:106800003FD113218088FFF773FD002839D03D4A1E
:1068100040F20A3103F06AF833E0102B12D0112B4A
:106820002FD13948394BC01AC0080004384940F00C
:10683000030002F04FFA374B4FF6FF721A80FFF752
:10684000ABFF1EE03048314BC01AC008000432498B
:1068500040F0030002F03EFA072007F047FF90B92E
:10686000A1882C4B19802D480AF0D6FD88B9002349
:106870001A46194627480088FFF744FD78B9FFF704
:1068800059FF02B010BD1F4A4FF43A7103F02EF8C1
:10689000E6E71C4A40F2EB2103F028F8E7E7194A43
:1068A00040F2ED2103F022F8E9E700238DF80430EF
:1068B0008DF8053001A98088FFF722FD0028E0D07F
:1068C000104A40F2013103F011F8DAE71321808811
:1068D000FFF70EFD0028D4D00A4A40F2123103F02F
:1068E00005F8CEE700231A4619460A480088FFF744
:1068F00009FD0028C5D0034A4FF4467102F0F6FFA7
:10690000BFE700BF9458030000810300C880030064
:10691000AC57030030220020A0570300442600207B
:1069200030B585B09DF80430012262F3030362F3B1
:10693000071304AC04F80C3D1C4D28460EF000F87B
:1069400082B229462046FFF7D9FCE8B94FF44070DF
:10695000FFF7D0FCF0B9082200210DEB02000DF08A
:1069600093FF2823ADF808305023ADF80A300023F8
:10697000ADF80C304FF4C873ADF80E3002A8FFF735
:10698000BBFC68B905B030BD094A4FF4B67102F0DE
:10699000ADFFDBE7064A40F26F1102F0A7FFDAE72E
:1069A000034A40F2791102F0A1FFEBE7CC57030054
:1069B0009458030008B5064906480AF059FC00B986
:1069C00008BD054A4FF4C77102F090FFF8E700BF19
:1069D00091630200F025002094580300000000009D
:1069E00000B59DB01CA9364B41F8543D35480AF01E
:1069F000FFFC002846D11022002118A80DF044FF0A
:106A000001238DF86D308DF86E308DF86F300022D7
:106A100018928DF864301A9264238DF86C3018A99E
:106A200029480DF09CF9002832D14022002108A805
:106A30000DF02AFF254908A809F0E0F824490AA822
:106A400009F0DCF81CA3D3E90023CDE90223214B94
:106A5000049302AB149301238DF85C3008A80DF069
:106A600091FAD8B9042200210DEB02000DF00CFFC1
:106A7000194B019301A9194801F0D8FAA0B91DB02A
:106A80005DF804FB164A40F2012102F02FFFB2E745
:106A9000134A40F21F2102F029FFC6E7104A40F2D4
:106AA0002E2102F023FFDDE70D4A40F2372102F0EC
:106AB0001DFFE4E7AFF300805544332211000000CE
:106AC0003D63020044260020A4250020BC5803009A
:106AD000D058030088776600396302003422002012
:106AE0009458030000B5ADB0AC22002101A80DF010
:106AF000CBFE02238DF8043001238DF806300622E8
:106B00008DF807200322ADF814200E4A06928DF866
:106B100080302823239344F2506324930A4B2A9312
:106B200001A90A4808F066FB30B90121074808F0BE
:106B30005EFB2DB05DF804FB054A40F2AE3102F079
:106B4000D5FEF2E724220020096502004C23002034
:106B50009458030010B5144941F288330B6047F292
:106B600030534B604FF47A738B6001240C730F48E1
:106B700005F032FC0E4951230B6064234B608C609E
:106B80000C730C4805F028FC0B4940F668630B6059
:106B900040F684734B6024238B6000230B730748FB
:106BA00005F01AFC10BD00BF6826002078260020E2
:106BB000B8250020C825002050260020602600208F
:106BC00000B589B01C22002101A80DF05DFE002354
:106BD00001934FF4203202924FF470220392032269
:106BE0008DF81020ADF812308DF81430084B069354
:106BF000084B079301A808F0F3FD10B909B05DF840
:106C000004FB054A4FF42A7102F070FEF6E700BF5C
:106C100065630200516302009458030000B583B01D
:106C20000BF0BEFA80BB0522002168460DF02CFE59
:106C30009DF8003003F0F003032262F306136FF3B4
:106C4000C7138DF8003007238DF8013010238DF81D
:106C500002309DF8033003F0FE036FF341038DF81B
:106C600003309DF8043003F0FE036FF341038DF809
:106C7000043068460BF046FB60B90C480BF028FB6B
:106C800070B903B05DF804FB094A4FF45C7102F07F
:106C90002DFEC8E7064A40F2833102F027FEECE7FA
:106CA000034A40F2863102F021FEEAE7196D020044
:106CB0009458030008B50A480A4BC01AC0080004DB
:106CC000094940F0030002F005F80BF079FB00B928
:106CD00008BD064A40F2923102F008FEF8E700BF14
:106CE00000810300C8800300BC57030094580300D0
:106CF00008B550B90321064808F006FB38B1054A2B
:106D00004FF47C7102F0F2FD01E0FFF7D3FF08BD04
:106D10004C2300209458030010B582B004460CF0B8
:106D20001BF820460BF00AFE2378022B03D00C2B15
:106D300013D002B010BD0DF107010A4800F0E5FBC9
:106D400030B99DF80730002BF3D0FFF73DFCF0E79A
:106D5000054AAA2102F0CAFDF3E70020FFF7C8FFA9
:106D6000E7E700BF042600209458030000B583B075
:106D7000284B1B7853B32849284805F059FBADF838
:106D800006002748274BC01AC0080004BDF906209A
:106D9000254940F0030002F019F8244B1A889DF8A9
:106DA000061023480DF002F868B108280BD013280C
:106DB00009D0112807D043F20142904203D01D4A66
:106DC000FF2102F093FD03B05DF804FB0DF1060115
:106DD000092001F093FBB8B906234FF480624FF409
:106DE0001671BDF9060000F081F980B200F58770D8
:106DF00000B2ADF80600DFED100A9FED100A00F0BA
:106E00007DF9ADF80600BCE70A4AEF2102F06EFDFD
:106E1000E2E700BFA0260020B8250020C8250020FA
:106E200000810300C8800300805703003022002047
:106E3000A42500209458030000803B4500800445B1
:106E400010B584B02F4B1B787BB32F492F4805F02A
:106E5000EFFA0190C2B28DF80820C0F307238DF835
:106E60000930C0F307438DF80A30000E8DF80B008F
:106E700004AC042324F80E3D2548264BC01AC00854
:106E80000004254940F0030001F0A0FF234B1B88BC
:106E9000224602A9224801F043F9082809D040B14E
:106EA000204ACC2102F022FD03E001A800F030FAD4
:106EB00008B104B010BD0823ADF802300A220DEB72
:106EC000030101980DF0F6FB1148124BC01AC008DF
:106ED0000004BDF80230019A134940F0030002F0AB
:106EE00003F80E4B1B880DF1020202A90C4801F0B9
:106EF00017F90828DDD00028DBD00A4ADA2102F091
:106F0000F5FCD6E7A0260020682600207826002081
:106F100000810300C88003003057030030220020A6
:106F200034220020945803005057030008B501F0A4
:106F300097FD00B108BD05F0D5F9FBE700B583B0BA
:106F4000FFF74AFAFFF75AFA0DF10700FFF794FA34
:106F5000FFF7BAFBFFF7C6FBFFF7E2FCFFF72AFDDE
:106F6000FFF73EFDFFF7BEFDFFF7F4FDFFF728FE3C
:106F7000FFF754FE00F094F8192000F0F1F800F04B
:106F8000B9FB344B1B7893B9334B1B78D3B9334CD3
:106F9000334BE41AE408240444F003043149204646
:106FA00001F098FE9DF80700FFF7A2FE35E02B48A0
:106FB0002B4BC01AC00800042B4940F0030001F01D
:106FC00089FEE1E72548264BC01AC008000427497E
:106FD00040F0030001F07EFED9E7FFF7C7FE244B27
:106FE00000221A70234B1A6801321A601A6822496B
:106FF000204601F0EBFE14E0FFF722FF1F4B0022BA
:107000001A701F4B1A6801321A601A681D4920460F
:1070100001F0DCFE09E0FFF789FF154B1B78002B20
:10702000DBD1164B1B78002BE6D1174B1B78002BBE
:10703000F1D01649164800F007FC134B00221A70D5
:10704000144B1A6801321A601A681349204601F07D
:10705000BDFEE0E720220020A026002000810300E2
:10706000C880030034580300005803001858030078
:10707000482300204423002058580300A82600205D
:10708000A42600206C58030040230020302200205A
:10709000342200203C230020805803007047000069
:1070A00000B585B00D490E4801F072F960B90D4A7E
:1070B00001AB07CA03C31A7001A9002001F0BCF993
:1070C00038B905B05DF804FB074A0D2102F00EFC4B
:1070D000EDE7054A122102F009FCF2E79D7002007B
:1070E00028590300045903001059030001FB00F064
:1070F00090FBF2F010FB03F000B2704707EE900A2D
:10710000F8EEE77AF4EEC07AF1EE10FA19D4F4EE64
:10711000E07AF1EE10FA16DC82B0DFED0C6A87EE51
:10712000A67ADFED0B7A67EE277A9FED0A7A77EE83
:10713000C77AFDEEE77ACDED017A9DF9040002B041
:107140007047002070476420704700BF00007A44F9
:107150000000E4420000724320F07F4070470000CE
:1071600000B583B03B4B18704FF0A0430322C3F827
:107170001C278022C3F8082505F030FF00285AD0CC
:107180000023ADF8043002228DF804208DF806208B
:107190004FF0A042C2F814372F4A01A9052005F08C
:1071A00027FF002850D12D4B0122C3F84025102283
:1071B000C3F844252022C3F848250422C3F800223E
:1071C0000022C3F81025234B1A78254BC3F840251D
:1071D0000222C3F80425A3F58043224AC3F81425EC
:1071E00003F5C833204AC3F81025A2F544520C3ADF
:1071F000C3F8142502F544521032C3F81825A2F53D
:107200004352203AC3F81C2502F57E522432C3F8BB
:10721000142902F59C72C3F82025A2F58952103A70
:10722000C3F82425D3F8002542F00702C3F800254F
:1072300003B05DF804FB05F08DFE0028A0D00B4ADA
:10724000422102F053FB9BE7084A482102F04EFB23
:10725000A9E700BFA92600200173020000900040AA
:1072600000A0004003071100409100402C5903008A
:1072700008B50121024B5966052005F025FF08BD20
:107280000060004008B501231A4AD3601A4A002161
:10729000117111605371194A1360172924D8154BC5
:1072A00001225A64D3F84435172B1DD8134BD3F859
:1072B0004031002BF3D0114B0022C3F840214FF096
:1072C000A043D3F81025C2F34012C1F117039A402E
:1072D000094B186802431A601A790132D2B21A7146
:1072E00002225A710131D8E7034B1868FFF734FFC7
:1072F00008BD00BF00A00040AC2600200090004068
:1073000008B5052005F044FFFFF7BCFF08BD0000ED
:1073100038B550B104460F4B5B79DBB2022B10D06D
:107320000824FFF7A5FF204638BD0B480B4BC01AB9
:10733000C00800040A4940F0030001F0CBFC0E2411
:10734000F1E7044D2868FFF707FF206003236B7106
:107350000024E6E7AC26002000810300C88003007B
:10736000445903004CDF704710B582B0044601A8B1
:10737000FFF7F8FFA8B9002323706370A370FE2302
:10738000237101980DF084FD0022084B0DF0EAFDF9
:107390000022074B0DF0E6FD0DF0F6FFA06002B0F5
:1073A00010BD044A092102F0A1FAE4E70000D03F31
:1073B0000000594078590300ADDF7047AEDF7047D9
:1073C0008B88C38270474FF6FF73C3827047CA88A9
:1073D000C3889A420AD100B583B002A9022301F8FA
:1073E000043D0368984703B05DF804FB704710B490
:1073F0000B78002B36D10024487808B144F0020401
:1074000093B344F0010491F90C000B6923F07F431E
:1074100043EA00635370C3F307209070C3F307403F
:10742000D0701B0E13714B7833B344F002048B8A77
:1074300053711B0A93718B7DD371CB7D13720B7EBD
:1074400053724B7E93728B7ED3720C208B782BB150
:1074500044F00404431C097F1154D8B214705DF841
:10746000044B70470124C7E791F904008B6823F0AF
:107470007F4343EA0063CDE70520E7E74B89022B12
:1074800000D070470368002BFBD010B582B00446D3
:1074900001F10C0008F0A4FB40B100238DF804308A
:1074A000236801A92046984702B010BD01238DF83A
:1074B0000430F5E7CA8843899A4200D0704710B576
:1074C0008C1D2146FFF7DAFF10BD08B50A46038878
:1074D000112B10D008D9502B12D0532B0AD10146B2
:1074E0001046FFF774FF05E0102B03D1014610464C
:1074F000FFF766FF08BD01461046FFF764FFF9E796
:1075000001461046FFF7D6FFF4E730B585B00446D4
:107510000D460822002101A80DF0B6F90223ADF8AE
:1075200004300023ADF8063003AB029301AA618951
:10753000E08AFFF741FF044630B143F201439C4229
:1075400007D0204605B030BD03A808F04DFB2870D9
:10755000F3E700242C70F4E7C28A4FF6FF739A42D7
:1075600029D070B58AB0044605AD2A46FFF73FFF23
:1075700086B2ADF802601022002101A80DF084F956
:10758000E388ADF8043001238DF806300023ADF810
:1075900008300DF102030393049501A9E08AFFF777
:1075A0000DFF034620B9BDF80220B24200D00C23E3
:1075B00018460AB070BD082318467047014B0122D7
:1075C0001A707047B426002010B5044638B14FF445
:1075D0007A40034B43F001039847013CF7D110BDBB
:1075E000305A0300B0B584B000AF5D1C03F1080051
:1075F00000F4FC70ADEB000D6C4601F07F018DF8DE
:107600000010012104E0481E105C60540131C9B231
:10761000A942F8DB00220F490A700133DBB23C605B
:107620007B60BA60FA6039460B4806F0DBFD44B275
:107630004CB94FF4C850094B43F00103984720461A
:107640001037BD46B0BD064A4D21204602F04EF926
:10765000EFE700BFB42600203C5A0300305A030075
:10766000085A03002DE9F04186B000AF154661F0DD
:107670007F0107F1180000F8041D591C1C4608334F
:1076800003F4FC73ADEB030D6E460022154B1A702C
:10769000CBB278600121B960C7F80CD03B61391DCD
:1076A000114806F09FFD4FFA80F8B8F1000F07D19E
:1076B0004FF4C8500D4B43F001039847002309E0F5
:1076C0000B4A5C21404602F011F9F1E75A1CB15C0B
:1076D000E9541346A342F9D340461837BD46BDE8E6
:1076E000F08100BFB42600203C5A0300305A03004A
:1076F000085A030010B584B0254B6C460FCB84E8C4
:107700000F0011238DF8033008238DF80230062373
:107710008DF801300F238DF8003003238DF80C30E5
:1077200000231C4A21461C4805F036FBD8B91B48EB
:10773000002343701A4B83601A4BC3601A4B43619A
:1077400000F0FEF8A0B9154B5A78FA2A15D0174860
:10775000174BC01AC0080004164940F0030001F09E
:1077600035FB04B010BD144A2B2102F0BFF8DEE750
:10777000114A312102F0BAF8E5E70C480C4BC01A67
:10778000C00800040D4940F0030001F0A3FAE8E747
:1077900094590300BD750200385A03009C3600203E
:1077A000E575020065760200C975020000810300DC
:1077B000C8800300D8590300085A0300C4590300C5
:1077C0002DE9F04100AF8C461D46BE691C4C238854
:1077D0000733DB08DB00ADEB030D6946ADEB030DB2
:1077E000E846ADEB030DC0F307230B704870CCF3F4
:1077F000072388F8003088F801C0C2F307238DF80A
:1078000000308DF8012033882246284600F088FC9D
:10781000338822464146284600F082FC33882246BF
:107820006946284600F07CFC082800D010B9BD4607
:10783000BDE8F081034A822102F058F8F7E700BF63
:1078400060220020085A0300F0B585B005460E46B8
:107850000020ADF80A0004AF07F8070D00F04AFA5F
:107860000446082000F0AAF90444384600F08AF9DA
:1078700004440DF10E0000F08FF8044403A800F05A
:10788000DDF804440DF10A0000F02AF9044413481D
:10789000134BC01AC0080004BDF90C30BDF90E200E
:1078A0000093104940F0030001F0AEFB032000F00C
:1078B00021FA04190CD1BDF90A20BDF90C10BDF94B
:1078C0000E0000962B46FFF77BFF204605B0F0BD6B
:1078D000054AA721204602F009F8ECE700810300E1
:1078E000C8800300A4590300085A030038B50B4BA5
:1078F0001C687CB113460A460146A5682079A84752
:107900000446064B1B681A7812B15B690120984740
:10791000204638BD6FF07E04FAE700BFB82600208D
:1079200038B5064B1C6834B113460A460146E56873
:107930002079A84738BD6FF07E00FBE7B82600200D
:1079400030B583B000238DF807308DF80630114B29
:107950001860D8B1C46801230DF107020021007935
:10796000A04704460B4D2B689DF807205A70012252
:107970000DF106013E20FFF7D3FF54FA80F040B22C
:107980002B689DF806205A7103B030BD6FF07E0061
:10799000FAE700BFB826002070B582B000238DF84A
:1079A00004308DF80530234B1C68002C3ED0054672
:1079B000214B1B78012B17D023B1022B25D04FF080
:1079C000FF300FE0E668022301AA19462079B0478C
:1079D0009DF905209DF8043003F0F00343EA0223EB
:1079E0001B112B8002B070BDE668022301AA194664
:1079F0002079B0479DF905209DF8043003F0C003BD
:107A000043EA02239B112B80ECE7E668022301AADC
:107A100019462079B0479DF905209DF8043003F000
:107A2000FC0343EA02239B102B80DBE76FF07E0010
:107A3000D8E700BFB82600206222002070B582B0CF
:107A400000238DF804308DF80530234B1C68002C82
:107A50003ED00546214B1B78012B17D023B1022BBA
:107A600025D04FF0FF300FE0E668022301AA042181
:107A70002079B0479DF905209DF8043003F0F0030C
:107A800043EA02231B112B8002B070BDE66802237B
:107A900001AA04212079B0479DF905209DF8043002
:107AA00003F0C00343EA02239B112B80ECE7E66856
:107AB000022301AA04212079B0479DF905209DF8F1
:107AC000043003F0FC0343EA02239B102B80DBE726
:107AD0006FF07E00D8E700BFB826002062220020A9
:107AE00070B582B000238DF804308DF80530234B3B
:107AF0001C68002C3ED00546214B1B78012B17D06B
:107B000023B1022B25D04FF0FF300FE0E6680223AF
:107B100001AA06212079B0479DF905209DF804307F
:107B200003F0F00343EA02231B112B8002B070BD67
:107B3000E668022301AA06212079B0479DF90520B5
:107B40009DF8043003F0C00343EA02239B112B800D
:107B5000ECE7E668022301AA06212079B0479DF9E7
:107B600005209DF8043003F0FC0343EA02239B1038
:107B70002B80DBE76FF07E00D8E700BFB82600203F
:107B80006222002070B582B000238DF807300A4BC6
:107B90001C6874B10546E66801230DF10702102147
:107BA0002079B0479DF8073003F01F032B7002B017
:107BB00070BD6FF07E00FAE7B826002030B583B0C4
:107BC000044600238DF807302F4B1868002851D049
:107BD0004378FB2B25D0A4F10803DBB2072B4FD849
:107BE000A4F10803072B43D8C56801230DF1070250
:107BF00010210079A84705469DF8073023F01F03A0
:107C00005BB204F01F041C438DF8074001220DF104
:107C100007011020FFF76AFE55FA80F040B203B06A
:107C200030BDA4F10803DBB2062B26D8A4F108036B
:107C3000062B1BD8C56801230DF10702102100791E
:107C4000A84705469DF8073023F01F035BB204F0F8
:107C50001F041C438DF8074001220DF1070110207D
:107C6000FFF744FE55FA80F040B2D8E70024E1E780
:107C70000024B9E76FF07E00D1E76FF00100CEE796
:107C80006FF00100CBE700BFB8260020184B1B683F
:107C900033B3052827D8052828D8DFE800F00307E4
:107CA000121D0C1700209870D870704702229A702D
:107CB0000020D870704702229A700122DA700020EA
:107CC000704704229A700020D870704704229A707E
:107CD0000122DA700020704701229A70002070475C
:107CE0006FF07E0070476FF0010070470020704712
:107CF000B82600202DE9F04182B000238DF807302E
:107D00008DF806308DF80530454B1C68002C00F0CE
:107D100084800546E66801230DF1070211212079D0
:107D2000B04704463E4E3068C76801230DF1060295
:107D300012210079B84754FA80F4E4B233685B79D1
:107D400043F00C038DF805302846FFF79FFF54FAE7
:107D500080F4E4B233689F78DB789DF8062022F047
:107D6000400252B29B0103F0400313438DF80630EA
:107D700001220DF106011220FFF7B8FD54FA80F040
:107D80005FFA80F84FFA88F433685B6901209847FE
:107D900033681B78012B24D0042B22D09DF80730A8
:107DA00003F01F0343EA471702A901F8017D0122EE
:107DB0001120FFF79BFD54FA80F4E4B2184E3368AB
:107DC0005B690120984701220DF105013E20FFF774
:107DD0008DFD54FA80F040B233681D7002B0BDE8EA
:107DE000F081002DDAD19DF8073003F01F0343F036
:107DF000800302A901F8013D01221120FFF776FD61
:107E000058FA80F0C4B201220DF105013E20FFF7BF
:107E10006DFD54FA80F464B2C0E76FF07E00DDE7D8
:107E2000B8260020A8DF7047ADDF7047AEDF70478F
:107E300062DF704730B589B005460C4601AA8988D3
:107E4000406900F0A6F920B9019B1B786BB909B015
:107E500030BD0F4B0F48C01AC0080004A2880E495D
:107E600040F0010000F0B2FFF1E71822002102A863
:107E70000CF00AFD01238DF808300395A388ADF8B6
:107E80001030019B0593AB6902A89847DFE700BF5C
:107E9000C880030010810300585A030030B58BB02E
:107EA00004460D460AAA002342F8283D8988406905
:107EB00000F06FF9002830D1082200210DEB0200FC
:107EC0000CF0E2FC01AB03930223ADF80830002371
:107ED000ADF80A3002AA218AA888FFF7A5FFD0B919
:107EE000A369C3B1039807F07BFEA0B1009B0BB15F
:107EF00001221A701822002104A80CF0C5FC0223EC
:107F00008DF810300594AB88ADF81830009B0793BE
:107F1000A36904A898470BB030BD064B0648C01AA9
:107F2000C0080004AA88054940F0010000F04EFF97
:107F3000C2E700BFC880030010810300585A030045
:107F400030B589B005460C4601AA8988406900F021
:107F500020F998B91822002102A80CF095FC03958D
:107F6000A388ADF81030019A0592E38829898B42E5
:107F700010D0AA8993422AD009B030BD1B4B1C48AF
:107F8000C01AC0080004A2881A4940F0010000F09D
:107F90001DFFDFE7218A0229EBD1002AECD004F192
:107FA000120007F01DFE58B1019B01221A70022336
:107FB0008DF80830AB69002BDED002A89847DBE7CC
:107FC000019B00221A7003238DF80830F2E7AB6999
:107FD000002BD1D000228DF8082004F11202069265
:107FE000228AADF81C2002A89847C5E7C880030084
:107FF00010810300585A0300B9B108B50B4638B1D7
:1080000001460288502A08D0572A0AD0102A00D0E8
:1080100008BD1846FFF742FFFAE71846FFF790FF42
:10802000F6E71846FFF706FFF2E7704770B58EB027
:1080300006460D46394B09AC0FCB84E80F00002EE5
:1080400067D0002D67D02B68B36131462046FFF71B
:10805000EFFE034610B118460EB070BD324612F85E
:10806000023B8DF8363001200EA921F8040DFFF7F0
:10807000D9FE03460028EED12022002101A80CF0F1
:1080800003FC0223ADF8043033788DF80630142356
:10809000ADF808300123ADF80A308DF810309DF8A6
:1080A000112042F00C028DF811208DF815308DF85A
:1080B000163006F10C0201A9708807F0A8FD0346EE
:1080C0000028C8D12022002101A80CF0DDFB0323E9
:1080D000ADF80430324612F8043B8DF80630142314
:1080E000ADF808300123ADF80A308DF810309DF856
:1080F000111041F010018DF811108DF815308DF828
:1081000016308DF8173001A9708807F080FD0346FE
:10811000A1E70E239FE70E239DE700BF485A030007
:1081200060B3F0B587B007461C4616460D4601AA57
:108130001946406900F02DF80346E0B94FF6FF7389
:108140009C421ED0019BF3B11B78F3B13388142BF2
:108150001DD81022002102A80CF096FBBB88ADF8B8
:1081600008300595049601238DF80A3002A92046AF
:10817000FFF75CFE0346184607B0F0BD0E23184615
:1081800070470523F7E70523F5E70823F3E70723FF
:10819000F1E7DAB138B5154600222A60C0B10268AD
:1081A000C2B1C28812F0030F16D10446084607F088
:1081B000A5FCC0B2142811D02379834210D92368BA
:1081C000E28802FB00302860002006E00E207047A5
:1081D0000E2002E00E2000E0072038BD0520FCE75D
:1081E0000420FAE710B588B0624B1B68002B2AD038
:1081F000604B00221A601B680093009B5E4B93F853
:108200002E2012B193F82F30EBB100238DF81430EB
:10821000594B596806911989ADF81C10D968002985
:108220007FD0554B188B5883596018810021D96035
:1082300012B9524B01221A604F4C236805A8984787
:10824000002384F82F304C4B93F82E3033B34C4B33
:108250001B681BB34A4B00221A601B680193019BE9
:10826000454A538B92F82D108AB293425CD99B1ADF
:108270009BB24148438342680089C31A02EB43031F
:108280003E4AC2F82C36C2F830163A4B00221A6029
:108290001B680293029B3B4B01221A603A4B1B68FE
:1082A0006BB1394B00221A601B680393039B324B5E
:1082B0001A7408A8022200F80C2D1B689847334B4B
:1082C0001B68002B4BD12C4B5C69002C4FD0B4FAAF
:1082D00084F34FF00042DA4024EA020446339B0064
:1082E00003F1804202F5E04211680029EDD000213F
:1082F000116012680492049A01228DF81420A3F5EB
:108300008C73C3F3C7028DF8182013F0040F0CBF51
:1083100001230B468DF81930174B1B6805A89847A9
:10832000D3E700221A7487E7934208D09342ACD176
:10833000114B012283F82F2000225A83A5E70E4813
:10834000C0680028F2D00C4B012283F82F200022B5
:108350005A830A4BC3F82C06C3F8301695E70B4A2C
:108360000023136012680592059A034A137408B03B
:1083700010BD00BF04710040BC260020007000400A
:108380000071004004700040107100401471004002
:10839000244B93F82C30002B41D110B483B0214BE7
:1083A000196002782049C1F8F0254278C1F8F42517
:1083B000C27883F82E20012283F82C2000221A7420
:1083C00083F82D205A6183F82F206FF00044C1F804
:1083D0000843164C226024680194019C144C2260CE
:1083E00022680092009A82785201D2B2114880F835
:1083F00007238022C0F8802102600222C1F80423F2
:1084000093F82E3013B10122C1F80423064B012248
:10841000C3F80025002003B05DF8044B7047082026
:10842000704700BFBC26002000700040047100406F
:108430000071004000E100E02E4B1B7C002B56D168
:1084400030B40B79012B47D900F10C03294A02EB18
:1084500043031B7923B992F82D30013382F82D3074
:10846000CA7900F10C04234B03EB44031A710A7A16
:108470005A710B7803F003034A78120102F03002BC
:1084800013438A78120202F4E0621343CA7812039B
:1084900002F4805213430A79120402F4E0221343D7
:1084A0004A79120502F4801213438A79120602F007
:1084B00080721343104A02EB0014C4F81835CB79CC
:1084C0000D7A513000011418656013500B79012B9F
:1084D00007D9002030BC7047074B0022C3F80025A5
:1084E000B2E713460122C3F800250020F2E711206D
:1084F000704700BFBC26002000700040384B1B7C3A
:10850000002B6BD130B482B0354A01241474354B42
:108510000325C3F80853C3F82C16C3F8304692F865
:108520002D30A3420CD9002208E0D3B22D4951339B
:108530001B01CD1800246C60CC500132072AF4D9FD
:1085400000F10C02264B03EB42031A795C79254BB0
:108550005130000119184C601A5001221A6004337E
:108560001A6042F21073204A12680AB9013BFAD12C
:108570001E4B00221A601B680193019B1A4B1A6064
:108580001B680093009B164B93F82D30012B12D9DA
:1085900000220EE002F10C01114B03EB41031879AC
:1085A0005D79D3B20F4951331B01CC186560C850B7
:1085B0000132072AEED90A4B93F82E304BB1094B02
:1085C0000322C3F804230020054B187402B030BC0A
:1085D0007047044B0222C3F80423F4E711207047CC
:1085E000BC26002000700040047100400071004073
:1085F0000649074A074B9B1A03DD043BC858D05075
:10860000FBDC04F0A1F8FDF73FFE0000B0810300A1
:108610002022002020230020FEE7FEE7FEE7FEE701
:10862000FEE7FEE7FEE7FEE7FEE7FEE7F0B595B002
:108630000F4615461C46084603F011FE0E950F9492
:10864000002410948DF8444012941A9B13932346EF
:10865000082208A9384603F021FE0A9B0B93BDF8B7
:108660002430ADF83030BDF82630ADF832308DF81A
:1086700035409DF8203003F00303012B06D0022B78
:1086800021D0384603F0F1FD15B0F0BD089DC5F3CB
:1086900095259DF82030C3F3C2038DF83430BDF822
:1086A0002040C4F383140823A2000DEB03013846D5
:1086B00003F0F4FD0EAB00930BAB224602A9284653
:1086C00000F0F2FEDDE7BDF82250AD099DF8203044
:1086D000C3F3C2038DF8343008262C46082D28BF7A
:1086E00008243346224602A9384603F0D7FD264423
:1086F0002D1B0EAB0BAA214602A800F039FF002D5E
:10870000EBD1BEE7014B01221A70704730270020E1
:108710007047000070B588B006466C460E4D0FCD10
:108720000FC495E80F0084E80F001A2300934FF060
:10873000805306934EB1094A6946094804F0CEFABF
:1087400028B9084B1E7008B070BD0022F4E7064A35
:10875000432101F0CBF8F4E7A85A03000587020093
:1087600064220020EC260020D45A030008B5084BF0
:108770001B78084AD35C33B9074805F0B7F80020E6
:10878000FFF7C8FF08BD054805F002FBF7E700BF8B
:1087900064220020C03600207022002068220020C1
:1087A00000B583B0044B00934023044AFFF73EFF1B
:1087B00003B05DF804FB00BFC1870200F026002073
:1087C00008B5D2B20E4B002018700E4B1B780E4825
:1087D000C35C5BB90D4805F0B5F858B90C4B1B7874
:1087E0001BB1074B1B78002BF8D008BD094805F0DA
:1087F00003FBF2E7084A532101F078F8EEE700BFE7
:108800003027002064220020C03600207022002083
:10881000EC26002068220020D45A030008B501206D
:10882000FFF778FF08BD000008B5FFF7F7FF042148
:10883000034800F0A5FD034B01225A7108BD00BF9B
:108840009881030078220020037813F0040F18D0D9
:1088500003F00303012B03D0022B0AD00120704741
:108860000388C3F383130A68134402330B600120A7
:10887000704742880B6803EB921302330B600120B0
:108880007047002070470000002002E001238BB9F0
:10889000013009280CDC084BD3F81034002BF5D03C
:1088A000DB681A79824201D01B68F7E70023EEE704
:1088B0004FF0FF30704700BF0428002030B585B06E
:1088C0002A4C04F5836002F049FE04F2144002F0E1
:1088D00045FE60680390A5682840023004EB8000E4
:1088E000043003A9FFF7B0FF88B303982840831C26
:1088F0001E4800EB83000430F3E7039B591C0391EF
:108900002B400233194901EB83035B684DF8223099
:108910000132012AF1D99DF8003003F00303012B45
:1089200017D0022B1FD1BDF80640BDF802309B09BD
:108930000333039A02EB930303930D4802F013FEF3
:1089400010B10A4B039A5A60204605B030BD002290
:10895000DFE7BDF80640BDF80030C3F38312039B88
:1089600013440393E9E70024E7E700BF042800204D
:10897000182C002010B50B4BFF229A6000221A60C1
:108980005A60C3F81824C3F8142483F82024064836
:1089900003F017FC044608B1204610BD034803F05D
:1089A000C7FCF9E704280020B4800300305B030013
:1089B0000248034BC01AC008704700BF98810300EB
:1089C000C880030099B110B50446FFF7F1FF0023FA
:1089D00083420AD2074A32F823102268914201D01A
:1089E0000133F5E72360002000E0052010BD0020E2
:1089F000704700BF1C23002000B583B002AB43F8D2
:108A0000040D1846FFF7DEFF30B9019A034B53F807
:108A1000320003B05DF804FB0020FAE7C8800300D1
:108A2000094B03EBC0000139032909D8DFE801F045
:108A3000020A0406022070470079704740797047A7
:108A40000020704704207047C8800300034B58681B
:108A50001B68984214BF00200120704704280020A2
:108A60002DE9F04186B0FFF7F1FF002840F02081AA
:108A7000054692480023C0F81834BFF34F8F43686F
:108A8000059384682340023300EB8300043005A97A
:108A9000FFF7DAFE68B3894BD3F818345BBB874B1A
:108AA0001B680598834206D92040831C834800EB4D
:108AB00083000430EBE7814A5360FAE0059B591CC0
:108AC0000591234002337D4901EB8303596802ABD2
:108AD00043F822100132012AF0D99DF8083003F042
:108AE0000303022B09D0012B72D0744BD3F810442E
:108AF000CCE00022EFE70022EDE7BDF80A309F0945
:108B00003E46502F28BF502666F38F13ADF80A302B
:108B100006F108016A4803F06FFB054600283DD0C6
:108B200003F09DFB002308220DEB0201284603F011
:108B3000A9FB059A24EA020301339B009E423AD91D
:108B400033B1224002325D4901EB8202111D00E087
:108B50005C494BB1DCB24BB1DFF868814BB1F6B286
:108B6000DBB2F31ADEB205E0F4B2F4E74FF000082E
:108B7000F4E7002608232246284603F083FB04F18D
:108B80000803B8F1000F04D032464146284603F0EE
:108B900079FB0337059B03EB97070597002DA4D0BE
:108BA000464BD3F81044D3F81834002B48D028464D
:108BB00003F05BFB76E002EA040302333F4901EB7A
:108BC0008301082332460431284603F05BFBE0E7CB
:108BD000BDF80820C2F38313062B28BF062363F3D6
:108BE0008912ADF8082002339900354803F004FBE0
:108BF00005460028D2D003F032FB002308220DEBFB
:108C00000201284603F03EFB002608270FE0059BE3
:108C10005A1C059223400233284901EB83013B464D
:108C200004221144284603F02DFB04370136BDF819
:108C30000830C3F38313B342E9D8AFE7E3681C6895
:108C40004CB1E3685B79002BF8D023681B68294698
:108C500020469847F2E7284603F007FB06A80023C2
:108C600000F8113D01F032FA144BD3F8183413B95F
:108C7000124B059A5A609DF8070001F053FA11E073
:108C800023689B6820469847E3681C68002CF7D14E
:108C90000D4B0E48C01AC00800040D4940F00200F8
:108CA00000F018F8FFF7D2FE80F00100C5B200E036
:108CB0000025284606B0BDE8F08100BF042800204A
:108CC000B480030010280020C88003000081030046
:108CD0003C5B03002DE9F04F83B006468B46DFF87E
:108CE000E880D8F8084002A8002300F8013D01F010
:108CF000EDF9D8F80050D8F80830D8F80420521B05
:108D00001344013312E0304F07F21C490121484659
:108D100002F009FCFFF7D2FD0146484602F003FCD1
:108D2000BB687A683968521A13440133012BEAD9B7
:108D300000224FF0010969F3010242F004026FF3CF
:108D40008912DFF88480D8F80010D8F808300B407A
:108D5000023308EB83035A600231C8F800109DF813
:108D6000070001F0DFF94FEA164A002108F21C4023
:108D700002F098FB80F3100005EB090323404AEA58
:108D80000040023308EB830358602C40023408EBA8
:108D90008404237966F3C5032371A3886FF38913D1
:108DA000A38063686BF39F23636069F301036FF330
:108DB0008203237198F820341BB1FFF751FE00287D
:108DC000FBD103B0BDE8F08F042800202DE9F04767
:108DD00082B006468A460192DFF80881D8F808403A
:108DE00002A8002300F8053D01F070F9D8F8005002
:108DF000D8F80830D8F80420521B1344013312E08D
:108E0000384F07F21C490121484602F08CFBFFF75E
:108E100055FD0146484602F086FBBB687A68396812
:108E2000521A13440133022BEAD90022012363F3BF
:108E3000010242F0040263F389122A4908688B6830
:108E40000340023301EB83035A60033008609DF84E
:108E5000030001F067F9A81C00230DE004EA0002FA
:108E600002A901EB830151F8047C911C1D4A02EB1D
:108E70008102576001330130002BEFD04FEA1649D1
:108E8000DFF86080002108F21C4002F00BFB80F349
:108E900010006B1C234049EA0040023308EB8303B7
:108EA00058602C40023408EB8404237966F3C50330
:108EB0002371A388012262F38913A38063686AF394
:108EC0009F23636062F301036FF38203237198F8B9
:108ED00020341BB1FFF7C4FD0028FBD102B0BDE870
:108EE000F08700BF042800202DE9F04784B0064633
:108EF0008A4602920393DFF80C81D8F8084004A850
:108F0000002300F8093D01F0E1F8D8F80050D8F846
:108F10000830D8F80420521B1344013312E0394FB3
:108F200007F21C490121484602F0FDFAFFF7C6FC92
:108F30000146484602F0F7FABB687A683968521A67
:108F400013440133032BEAD90022012363F3010206
:108F500042F00402022363F389122A4908688B68ED
:108F60000340023301EB83035A60043008609DF82C
:108F7000070001F0D7F8A81C00230DE004EA000266
:108F800004A901EB830151F8087C911C1D4A02EBF6
:108F90008102576001330130012BEFD94FEA1649A6
:108FA000DFF86080002108F21C4002F07BFA80F3B9
:108FB00010006B1C234049EA0040023308EB830396
:108FC00058602C40023408EB8404237966F3C5030F
:108FD0002371A388022262F38913A38063686AF372
:108FE0009F236360012262F301036FF38203237105
:108FF00098F820341BB1FFF733FD0028FBD104B0F3
:10900000BDE8F087042800202DE9F04784B006462B
:109010008A46019202930C9B0393DFF80C81D8F8E7
:10902000084004A8002300F80D3D01F04FF8D8F8DF
:109030000050D8F80830D8F80420521B13440133EC
:1090400012E0394F07F21C490121484602F06BFA41
:10905000FFF734FC0146484602F065FABB687A68BF
:109060003968521A13440133042BEAD90022012330
:1090700063F3010242F00402032363F389122A49D5
:1090800008688B680340023301EB83035A600530A4
:1090900008609DF8030001F045F8A81C00230DE0CE
:1090A00004EA000204A901EB830151F80C7C911C35
:1090B0001D4A02EB8102576001330130022BEFD9C8
:1090C0004FEA1649DFF86080002108F21C4002F0E8
:1090D000E9F980F310006B1C234049EA0040023399
:1090E00008EB830358602C40023408EB8404237996
:1090F00066F3C5032371A388032262F38913A38057
:1091000063686AF39F236360012262F301036FF3D4
:109110008203237198F820341BB1FFF7A1FC0028CB
:10912000FBD104B0BDE8F087042800202DE9F0470A
:1091300086B006468A46029203930E9B04930F9BC9
:109140000593DFF80C81D8F8084006A8002300F842
:10915000113D00F0BBFFD8F80050D8F80830D8F81F
:109160000420521B1344013312E0394F07F21C490B
:109170000121484602F0D7F9FFF7A0FB0146484617
:1091800002F0D1F9BB687A683968521A1344013386
:10919000052BEAD90022012363F3010242F0040205
:1091A000042363F389122A4908688B680340023359
:1091B00001EB83035A60063008609DF8070000F059
:1091C000B1FFA81C00230DE004EA000206A901EB90
:1091D000830151F8107C911C1D4A02EB81025760FB
:1091E00001330130032BEFD94FEA1649DFF86080D5
:1091F000002108F21C4002F055F980F310006B1CAE
:10920000234049EA0040023308EB830358602C40B6
:10921000023408EB8404237966F3C5032371A38821
:10922000042262F38913A38063686AF39F23636057
:10923000012262F301036FF38203237198F8203453
:109240001BB1FFF70DFC0028FBD106B0BDE8F0878D
:10925000042800202DE9F04786B006468A46019290
:1092600002930E9B03930F9B0493109B0593DFF8CF
:109270000C81D8F8084006A8002300F8153D00F03E
:1092800025FFD8F80050D8F80830D8F80420521B31
:109290001344013312E0394F07F21C4901214846BB
:1092A00002F041F9FFF70AFB0146484602F03BF99C
:1092B000BB687A683968521A13440133062BEAD91D
:1092C0000022012363F3010242F00402052363F349
:1092D00089122A4908688B680340023301EB830333
:1092E0005A60073008609DF8030000F01BFFA81CBF
:1092F00000230DE004EA000206A901EB830151F806
:10930000147C911C1D4A02EB81025760013301302D
:10931000042BEFD94FEA1649DFF86080002108F2EC
:109320001C4002F0BFF880F310006B1C234049EA98
:109330000040023308EB830358602C40023408EBF2
:109340008404237966F3C5032371A388052262F39D
:109350008913A38063686AF39F236360012262F329
:1093600001036FF38203237198F820341BB1FFF7D8
:1093700077FB0028FBD106B0BDE8F0870428002069
:1093800010B50446FFF780FAB0F1FF3F0ED0E36856
:1093900018710A4BD3F810344BB1DA68E3681268DD
:1093A0001A60064BD3F81034DB681C6010BD034B09
:1093B000C3F81044E36800221A60F7E7042800208D
:1093C00010B5094BD3F81044012283F8202408E09B
:1093D000E36801225A7123685B6820469847E36876
:1093E0001C68002CF4D110BD0428002070B582B098
:1093F00004460D46C388A3B9217A05290FD0637AA4
:10940000BBB9227A104B53F822600021A088FFF7E5
:10941000F3FA034632460D49284602F01EF902B01F
:1094200070BD0B4A00920B4A0B49284602F015F911
:10943000E2E7A088FFF7F4FA084B53F82020084928
:10944000284602F00AF9DCE7C45B0300B85B0300BE
:10945000B05B0300905B0300985B0300545B030068
:109460006074030010B50C46037A052B0FD0437AC5
:109470003BB90A49204602F0F0F8204602F0E1F834
:1094800010BD074A0749204602F0E7F8F1E7002A35
:10949000F3D00249204602F0E0F8EEE78C5B0300CF
:1094A000B05B0300607403002DE9F04385B0814692
:1094B0000D4617461E460C9C94F80C80002323731F
:1094C00021463046FFF792FF062F09D8DFE807F064
:1094D0000412181F283340004946204602F0BDF808
:1094E000002221463046FFF7BDFF84F80C8005B00E
:1094F000BDE8F0832A684946204602F0AEF8EFE75F
:109500006B682A684946204602F0A7F8E8E76B68CE
:109510002A68A96800914946204602F09EF8DFE7D4
:109520006B682A68E9680191A9680091494620465C
:1095300002F093F8D4E76B682A6829690291E96818
:109540000191A96800914946204602F086F8C7E7D4
:109550006B682A686969039129690291E968019138
:10956000A96800914946204602F077F8B8E7000064
:10957000082900D970472DE9F8431D4690460E464C
:10958000074693F80C9000241C7319461046FFF709
:109590002DFF04E01949284602F05FF80134072C3A
:1095A00007D8B442F6D23A5D1549284602F055F87C
:1095B000F4E71449284602F050F8002404E0124968
:1095C000284602F04AF80134072C0ED8B44207D2DC
:1095D0003A5D0E4BD35C13F0970FF0D12E22EEE7DD
:1095E0000B49284602F039F8EDE7012229464046AA
:1095F000FFF738FF85F80C90BDE8F883805B030027
:10960000785B0300845B0300885B0300E97E030052
:10961000C05B03002DE9F04F85B00024CDE900893F
:1096200001E00134E4B2364B1B78A34264D9354BD8
:109630001D6805EBC403039315F834C00123ACF196
:109640002001CCF1200203FA01F723FA02F21743BA
:1096500003FA0CF62C4BD3E90001804689463040D2
:10966000394050EA0103DCD028EA060229EA070360
:109670002549C1E90023604603F0B6FD15F834C062
:109680000123ACF12001CCF1200203FA01FB23FA03
:1096900002F24BEA020B03FA0CFA1C4BD3E900234B
:1096A00002EA0A0803EA0B09C2B28E46CCF1200195
:1096B000002502FA0EFE45EA0E0522FA01F10D43DD
:1096C000019502FA0CF3009342464B46DDE900890E
:1096D0004B4508BF4245A4D1039B5978012914BFCB
:1096E00000210121814214BF002101215B68002B70
:1096F00097D06046984794E705B0BDE8F08F00BF6B
:10970000C02C0020F82C0020F02C0020E82C002099
:109710002DE9F04106460123A0F12001C0F120020D
:1097200003FA01F823FA02F248EA020803FA00F702
:109730001E4800F0B5FC78B91D4BD3E9002302EABE
:10974000070003EA0801014308D022EA070423EADC
:109750000805174BC3E90045BDE8F081304603F02A
:1097600043FDC0B11349D1E9002342EA070443EAAB
:109770000805C1E900450E49D1E9002347EA020482
:1097800048EA0305C1E9004500220B4B1968074868
:1097900000F068FCE0E70749D1E9002322EA07046A
:1097A00023EA0805C1E90045E5E700BFC82C002011
:1097B000F02C0020E82C0020C42C0020042A3CD9E6
:1097C00070B582B006460D46144603F007FC28B378
:1097D0001B4B1E601B4B1D701B4B1C60002200238B
:1097E0001A49C1E900231A49C1E900236C1EE4B2F9
:1097F000D5B106EBC40300228DF8062003228DF8B4
:1098000004209B788DF80530124A01A916F834001F
:1098100003F0EEFB034668B92546E7E703F09AFB41
:1098200003460028D4D005E00B4A00210B4800F085
:1098300003FC0346184602B070BD07231846704764
:10984000F82C0020C02C0020C42C0020E82C002084
:10985000F02C00201197020015960200305C0300E6
:1098600010B5002407E0074B1B68012113F83400F2
:1098700003F02AFC0134044B1B789C42F3D30020F4
:1098800010BD00BFF82C0020C02C002082B00123A6
:109890008DF807309DF80730134B186059609A60B7
:1098A00044F20103984213D044F20203984207D1D4
:1098B0000D4BDA60DA6812889A61DA685268DA6108
:1098C00072B69DF80730002BFBD162B602B070472C
:1098D000054B1A611A6992685A611A6912689A618D
:1098E0001A695268DA61EBE7FC2C002000B583B0FE
:1098F00002900091019244F2010071466A4600F024
:1099000003F803B000BD00002DE9F04184B0044627
:109910000E46154672B6FFF753FDFFF7A1F8002873
:10992000FBD141F201039C422FD014D944F2010330
:109930009C4235D044F202039C424DD12C482D4B21
:10994000C01AC00800042B886A682B4940F0010047
:10995000FFF7CAFA0BE0012C3ED12548254BC01A6F
:10996000C0080004254940F00100FFF7B3F9244B7B
:109970001B6813F0010F00D000BE2A463146204676
:10998000FFF784FF04B0BDE8F0811948194BC01AF5
:10999000C00800041B4940F00100FFF79BF9E6E70F
:1099A000134F144BFF1AFF083F0447F00107D5F887
:1099B0000880404602F004FD6B682A680296019216
:1099C00000930346424610493846FFF743FC0F49CF
:1099D0003846FFF77FF9CAE70548064BC01AC008AA
:1099E000000432460A4940F00100FFF7EFF9BEE7F4
:1099F00000810300C8800300785C0300345C03002E
:109A0000F0ED00E0545C0300945C0300BC5C0300D8
:109A1000D05C0300034BC3F80805034BC02283F856
:109A2000112370470010014000E100E010B50B4B1E
:109A30004FF48032C3F84423C3F80423084A4FF498
:109A40000031C2F88011116001241C604FF43C60A9
:109A5000044B23439847044B1C7010BD0010014079
:109A600000E100E0F05C0300292E002070B50E4BF1
:109A70004FF40032C3F880200C4D4FF48033C5F80A
:109A80004833C5F8083301266E60094C34434FF45F
:109A90003C60A047AE600025064B1D604FF43C6063
:109AA000A047054B1D7070BD00E100E000100140B3
:109AB000F05C0300382E0020292E002010B4114B3A
:109AC0001C682CB1026823689A4203D923460AE035
:109AD000186013E09A1A2260C4610A4B18600DE006
:109AE000521A1C46DB6913B119689142F8D313B1BD
:109AF0001968891A19600260C361E0615DF8044B5E
:109B0000704700BF3C2E002070B5184B1E683446CD
:109B1000354624B1844202D02546E469F9E714B3FE
:109B2000A5420CD02168E369EB6113B11A680A44BD
:109B30001A600E4B1868801B18BF012070BDF369B6
:109B40000A4A1360002BEDD10123094A9360094AA8
:109B500000211160084A13704FF43C60074B43F03A
:109B600001039847DEE70020E8E700BF3C2E002015
:109B700000100140382E0020282E0020F05C030049
:109B8000024B4FF40032C3F80021704700E100E0BF
:109B9000024B4FF48012C3F80021704700E100E04F
:109BA00008B543698069984708BD00001B4B1868D9
:109BB000002832D070B51A4BD3F80445194B1B68F6
:109BC000E41A24F07F44002504E000230374FFF727
:109BD000E7FF304648B10368A34206D8E41A1D44A3
:109BE000C669037C002BF4D0EFE70F4B1A780F4BBC
:109BF0001B789A4207D00D4B1A780D4B43F8225030
:109C0000FFF7C6FF70BD0133DBB2084A1370022BA9
:109C1000F1D1134600221A70EDE770473C2E002068
:109C200000100140382E0020342E0020352E002058
:109C30002C2E0020104B1B78104A1278934217D01C
:109C40000133DBB20C4A1370022B0DD00A4B1A7889
:109C50000B4B53F8223003600A4A11680B4423F07F
:109C60007F43136001207047134600221A70EDE70E
:109C70000023036018467047342E0020352E002044
:109C80002C2E0020382E002070B400250E4B1B68AF
:109C9000BBB11C68844212D8001B254400241C6000
:109CA000DE69094C2660DC68002CEFD06E1826F0C7
:109CB0007F465E609C601468DC611360E6E7241AEE
:109CC0001C6070BC704700BF3C2E0020F8B50546F4
:109CD000414B1F68002659E0404A11784B1CDBB20B
:109CE00013709278934228D04A000A44D0003B4B2C
:109CF00003449C681B79022B23D0032B30D0012B0B
:109D000044D1237C002B41D1DFF8D0C04A00501849
:109D1000C3006344D86860601869A0605B69E36051
:109D20001144CB009C44DCF81830A3612C4B1B7809
:109D3000002B30D0002363602DE0284B00221A70E6
:109D4000D2E72046FFF7E0FE034600B93346002283
:109D500022741E461AE000221A74DA691E4B1A6039
:109D60001D4B1B68002BF6D110E0521A22F07F42E7
:109D7000A36893421CD99A1A226000236360A360EF
:109D800001222274E3612046FFF798FE9DB1002D69
:109D9000A2D02C46ED696168124B1A688B1A23F029
:109DA0007F4311488342E0D8A26813442360E4E76C
:109DB00000232360E1E7094B1A785B789A42E6D1E9
:109DC0002EB9054B1B68BB4203D0012000E00120E7
:109DD000F8BD0020FCE700BF3C2E00201C2D002019
:109DE000282E0020382E0020FEFF7F00F8B51C4BE7
:109DF0001B688BB31F681B4BD3F804551A4B1C68A8
:109E00002E1B26F07F460336184B1B780BB3B74248
:109E10002CBFE419A41924F07F44124BC3F8404529
:109E2000D3F804355B1B23F07F430333641B24F01A
:109E30007F44A3420CD90B4BD3F80425C3F840252B
:109E40004FF43C600A4B43F001039847FFF798FE3C
:109E5000F8BDFFF7EBFDDAE7FFF708FEF8E700BF14
:109E60003C2E002000100140382E0020292E00201A
:109E7000F05C030070B582B0002301930D4B1E68A7
:109E80000D4B1C686846FFF7D5FE054660B9019882
:109E9000FFF71CFF00B915B12046FFF7A7FF074BDE
:109EA00000221A7002B070BD01AA31460098FFF777
:109EB000EBFEECE7382E00203C2E0020282E002060
:109EC000014B5870704700BF1C2D00200B4A53787F
:109ED0000133DBB292789A420CD0084A12789A4247
:109EE0000AD003700548437803EB4303DA001044BB
:109EF000043070470023F0E7002070471C2D00203D
:109F0000F0B583B007460E4615461C4602A800234E
:109F100000F8023D00F0DAF80DF10700FFF7D6FF78
:109F2000B0B10122027047600C4AD2F80425826069
:109F3000C660056144619DF80700FFF7C1FF00247A
:109F40009DF8060000F0EEF824B1204603B0F0BD05
:109F50000424F5E7FFF71CFEF7E700BF00100140FF
:109F600030B583B004460D4602A8002300F8023D38
:109F700000F0ACF80DF10700FFF7A8FF70B1057015
:109F800044609DF80700FFF79BFF00249DF8060042
:109F900000F0C8F824B1204603B030BD0424F5E732
:109FA000FFF7F6FDF7E7000008B5084B0022C3F8FD
:109FB0004021C3F84421C3F84821C3F84C21C3F819
:109FC0000021C3F80421FFF7F1FD08BD0010014096
:109FD00008B5FFF74FFF08BD10B5FFF747FD0F4B62
:109FE00000241C705C700B229A700D4B1C600D4B92
:109FF0001C700D4B1C700D4B4FF48012C3F8802168
:10A00000C02183F814131A602046FFF703FD084BA4
:10A01000D3F80425074B1A60204610BD1C2D0020E4
:10A020003C2E0020342E0020352E002000E100E0E0
:10A0300000100140382E0020094B9B7843B14AB1F3
:10A0400050B10368187C48B9187459745A61704744
:10A050000820704707207047072070470820704786
:10A060001C2D00200D4B9B7883B188B1042911D998
:10A0700043698BB110B5437C012B05D000241346F6
:10A080002246FFF73DFF10BD0C46F8E70820704759
:10A090000820704707207047082070471C2D0020BB
:10A0A00008B5094B9B7843B148B143694BB10023D4
:10A0B00003740221FFF754FF08BD0820FCE70820C5
:10A0C000FAE70820F8E700BF1C2D0020EFF310820C
:10A0D00072B6114B9B68C3B930B40F4901238B6032
:10A0E0000E4BD3F880400E4D2C400C60C3F88050CE
:10A0F000D3F884404C604FF0FF31C3F88410002344
:10A10000037002B962B630BC7047012303700AB90C
:10A1100062B67047704700BFB436002000E100E02F
:10A12000FC06FFBD084B9B686BB160B9EFF3108173
:10A1300072B6054B1868054A1060586850600022D6
:10A140009A6001B962B67047B436002000E100E0C1
:10A1500038B50546002400E00134032C07D8044B31
:10A1600053F82430002BF7D028469847F4E738BD41
:10A170004C2E00200378013B052B34D8DFE803F098
:10A1800003061120293100230B70704701230B7047
:10A1900003898B818388CB81C3688B6000230B7418
:10A1A000704702230B7003898B818388CB81C3683E
:10A1B0008B60837D062B14BF002301230B74704733
:10A1C00003230B70C3888B810389CB81C3688B60A9
:10A1D000704704230B70C3888B810023CB818B6075
:10A1E000704705230B707047884207D20368B3F1AC
:10A1F000FF3F01D0012070470020704700207047CA
:10A200004388033300EB8300704738B504460D469E
:10A21000FFF7F6FF85420AD3A2884FF6FF739A42F2
:10A2200007D023880BB1002002E0012000E00220CB
:10A2300038BD0120FCE7000070B10A4AD2688242B2
:10A240000CD8084A126982420AD310F0030F01D0D9
:10A2500000207047012070470020704700207047A1
:10A26000002070470823002070B10168094A91421C
:10A270000CD14368084A93420AD00132934201D17B
:10A280000120704703207047032070470320704768
:10A2900000207047DEC0ADDEFE011EF10023B3F5E5
:10A2A000806F06D250F82320B2F1FF3F03D1013373
:10A2B000F5E70120704700207047000030B40A4CD9
:10A2C00082001518AB001D4623441B8919442C44F9
:10A2D000608910FA81F080B2B0F5806F2CBF002049
:10A2E000012030BC704700BF802E00200023012BCE
:10A2F00018D810B403E001339BB2012B0ED803EB46
:10A3000083029400084A224452688A42F3D202F53A
:10A3100080528A42EFD90380002000E00A205DF8D5
:10A32000044B70470A207047802E0020F8B50E4677
:10A33000174600F5805500F1080402230B800DE05C
:10A340000FB101223A70022B1CD06388328813446B
:10A35000033333802046FFF753FF04462946204647
:10A36000FFF742FF88B129462046FFF74EFF03461C
:10A370000028E5D1A368054A12689342E5D9034A4B
:10A380001360E2E74FF480633380F8BD782E00203D
:10A390008B7D022B04D9CB880289134403330381BC
:10A3A000CA8843899B1A033B43817047F8B5033041
:10A3B00085B240F2FD339D4220D80E46002401E0D4
:10A3C0000134A4B2012C17D804EB840293000C4A88
:10A3D000D35C002BF4D129462046FFF76FFF0028FD
:10A3E000EED034800649A300181982000A4453892C
:10A3F0001D445581002000E00720F8BD0920FCE73E
:10A40000802E002030B4054C8B005D18AA00224439
:10A410005389181A0338508130BC7047802E0020B1
:10A42000F8B50F4600EB80008200124B13445C68C5
:10A4300004F58055086898B1FFF7E2FE0446294606
:10A440002046FFF7D1FE064668B129462046FFF7B1
:10A45000DCFE012809D028B10228F0D1002602E054
:10A460000834ECE73C603046F8BD2046FFF7C8FEF4
:10A470000446E4E7802E002070B582B005460C4605
:10A480004068FFF7D9FE20B12A89174B1B899A42F1
:10A4900018D0002323802388012B23D80023019385
:10A4A00001A92088FFF7BCFF0646B8B1019B996857
:10A4B0002A689142F4D16B600B4B1B892B8130468B
:10A4C00002B070BD2A6869688B689A42E1D1204663
:10A4D000FFF70CFFB0FA80F67609F0E72388013326
:10A4E0002380D8E70026EAE7642E0020F8B51E4E48
:10A4F0003678002E33D0002A33D01C4616460F463D
:10A50000054633B9052027E000232360A3880133E3
:10A51000A380A388012B20D803EB83039800134B5F
:10A520001B5C002BF2D12146A088FFF779FF0028A1
:10A53000EAD023681DB199882A889142F3D11FB1CE
:10A5400019883A889142EED19B6833602368736022
:10A55000074B1B8933810020F8BD0A20FCE702204D
:10A56000FAE70520F8E700BF5C2E0020802E0020CF
:10A57000642E00202DE9F0470024A1464FF0030887
:10A58000264627462DE0434A1560022191808146E8
:10A590004FE008F1FF381FFA88F83F49B3009819D7
:10A5A000820010460A44556003230B540136B6B2AC
:10A5B00015E03949B3009819820088184FF0000C53
:10A5C00001F802C045601046103208300A440144C8
:10A5D0002846FFF7ABFE47F002070136B6B201345A
:10A5E000A4B2022C4DD82D4BDD6805EB043528466E
:10A5F000FFF73AFE01281FD00028DAD00328EED159
:10A600002846FFF74BFE0028C3D0224A1268002AD2
:10A61000B9D0214BB2009019810003EB010C02204C
:10A620005854CCF80450ACF808001D4B5E8001363D
:10A63000B6B247F00107D2E7B9F1000F0FD0164BC1
:10A64000B2009019810003EB010C0220585411490B
:10A650000968CCF80410ACF808000136B6B2DFF88F
:10A6600034A0514641F8045B00222846FFF75EFE05
:10A67000BAF80430022B02D008231F43AFE70423AB
:10A68000FBE7B8F1010F02D9F8B2BDE8F087002767
:10A69000FAE700BF482F0020802E0020082300206A
:10A6A000642E00200B4A1389013313810023538049
:10A6B00013730CE003EB83018A0007498A5CB2FA4A
:10A6C00082F25209034919448A7201339BB2012B69
:10A6D000F0D97047642E0020802E00200023012B2B
:10A6E00027D8164A1A44927A32BB01339BB2F6E756
:10A6F00001339BB2012B17D8104A1A44927A002AD0
:10A70000F6D00E4A1A440024947203EB830294009C
:10A710000B4A2244D268002AEAD1094A2244127C18
:10A72000002AE5D0038000E0002210465DF8044BCB
:10A73000704700221046704710B4E2E7642E0020F4
:10A74000802E0020044B5B685B880333034A9188AA
:10A7500011FA83F393807047642E0020482F002065
:10A7600070B40A490E680A4B5C880A48A3001D1998
:10A77000AA00024455680D6056608D8823449A00F3
:10A780001044058102238B8070BC7047482F002045
:10A79000642E0020802E002008B5124B1B78072B5A
:10A7A0000AD8DFE803F00409090A1016161AFFF7A1
:10A7B00079FF0C4B01221A7008BDFFF7C3FF094B4C
:10A7C00002221A70F8E7FFF7CBFF064B06221A7039
:10A7D000F2E7044B07221A70EEE7024B01221A70CF
:10A7E000EAE700BF642E00204FF0102358694FF0B5
:10A7F00080531A695B69B0F1FF3F00D0704703FBDB
:10A8000002F0FBE708B5FFF7EFFF034B1861A0F577
:10A810004050D86008BD00BF0823002008B501469D
:10A82000014800F0CCFD08BD342F002008B5064BD0
:10A8300005221A70054902238B8000230122096832
:10A84000034801F027FA08BD642E0020482F00209D
:10A850000823002008B50D4B5B8803EB83029100B1
:10A860000B4A0A44D26812B1FFF7E0FF08BD074A5D
:10A870000421117003EB83039A000549114400235E
:10A8800001224968034801F005FAEFE7642E002031
:10A89000802E00200823002000B583B0054B1968E6
:10A8A000002300930823044A044801F025F903B06B
:10A8B0005DF804FB482F0020045D030008230020FE
:10A8C00008B5044B07221A7000225A60FFF7E4FF14
:10A8D00008BD00BF642E002000B583B000230093A4
:10A8E0000823044A0146044801F006F903B05DF864
:10A8F00004FB00BFFC5C030008230020F8B530B95E
:10A900000B79032B0ED8DFE803F0071E38432E4BDC
:10A9100000225A600120F8BD01230B71FFF7BCFF34
:10A920000028F8D0284B00225A600E20F3E70A4690
:10A930009B001C18A100002454540A445068FFF7DF
:10A94000CBFF01230FE00023012B0AD8184603EBAD
:10A9500083018A001D498A5C022AE8D001339BB238
:10A96000F2E700230F20002BDAD1174B01221A70D7
:10A9700000225A6041F61D50CDE700230B711449A7
:10A9800002228A8001220968124801F083F9C7E790
:10A9900000250D710E4C2068FFF79EFF0E4B598865
:10A9A000D4F800C0094E8A005718BB0033445F68D2
:10A9B0002760C3F804C0A7881F810223A38053180F
:10A9C0009A00B554ACE700BF5C2E0020802E00201A
:10A9D000482F002008230020642E002008B5064BD5
:10A9E00006221A705B8803EB83039A00034B13441F
:10A9F0005868FFF771FF08BD642E0020802E0020EC
:10AA000000B583B002238375002300930423C2188A
:10AA1000054801F071F8034618B9184603B05DF80F
:10AA200004FB0E23F9E700BF0823002000B583B024
:10AA3000036983B10323837500230093042300F18A
:10AA40000C020831064801F057F8034628B91846A9
:10AA500003B05DF804FB0123EDE70E23F7E700BF29
:10AA60000823002000B583B0012383750269C388E1
:10AA7000002000909B000C31054801F03DF8034692
:10AA800018B9184603B05DF804FB0E23F9E700BFC0
:10AA90000823002000B583B00378032B10D00623D1
:10AAA000837500230093042300F10802194406482B
:10AAB00001F022F8034628B9184603B05DF804FBFC
:10AAC0000523EDE70E23F7E70823002010B582B039
:10AAD0000C46002300930423094A0146094801F06B
:10AAE0000BF850B9024604EB8404A100064B0B445A
:10AAF00001211974104602B010BD0E22FAE700BF02
:10AB0000F85C030008230020802E002070B50C465E
:10AB10008B8A03EB83018A002A4D154498B9294892
:10AB20009A00D618B1000E4601444968304406899F
:10AB300001EB8606A37D062B0BD8DFE803F0152D6D
:10AB400021270C333D0021462846FFF721FC012632
:10AB500014E00F260EE01C4800234360A369036045
:10AB60001A49FFF789FC50B331462046FFF748FFEA
:10AB700006461EB121462846FFF70AFC304670BD46
:10AB800031462046FFF752FF0646F2E7314620469F
:10AB9000FFF768FF0646ECE731462046FFF77AFFED
:10ABA0000646E6E70623A375084B1988064B586846
:10ABB000FFF78CFF0646DCE741F61D56DAE70A266A
:10ABC000DCE700BF802E0020402E0020542F002004
:10ABD00010B584B00446002301930293C368009328
:10ABE0000DF10E016846FFF747FC50B101988388CC
:10ABF000E38003882381BDF80E10FFF767FF04B0E0
:10AC000010BD0A20FBE7000030B583B00948426858
:10AC1000094B19689C88538803339BB20325057040
:10AC2000002000909B0001EB8401044800F064FFC9
:10AC300003B030BD642E0020482F002008230020E0
:10AC400008B5064B191D5888FFF7EAFB10B9FFF746
:10AC500001FE08BDFFF7D8FFFBE700BF642E002010
:10AC600008B50748FFF73AFD10B1FFF7E9FF08BD47
:10AC7000044B00221A705A805A6041F61D50F6E7C4
:10AC8000662E0020642E002030BB08B5144B1B7BC1
:10AC90006BB1134B00221A73114B1B78013B062B2F
:10ACA0001CD8DFE803F0070A0D101B131600FFF78E
:10ACB00073FDF1E7FFF7D4FF08BDFFF7C1FFFBE726
:10ACC000FFF7A2FFF8E7FFF7C5FDF5E7FFF786FE00
:10ACD000F2E7FFF7F5FDEFE7012070470F20EBE704
:10ACE000642E002010B584B00B4B01AA0021063061
:10ACF000FFF7FCFB40B1044608220021064809F09A
:10AD0000C3FD204604B010BD034B99880298FFF79D
:10AD1000DDFE0446F5E700BF582F0020B8B908B59E
:10AD20000B79012B0BD023B1022B12D141F61D5010
:10AD300008BD02230B710846FFF74AFFF8E70846F3
:10AD4000FFF7D0FF0A28F3D141F61D50F0E70120AC
:10AD500070470F20ECE7000008B50146014800F0FD
:10AD60003AFB08BD342F002008B50121034800F04C
:10AD7000E5FB003018BF012008BD00BF442F0020B4
:10AD800010B586B0044625E02848FFF747FD284B5C
:10AD9000186023E02046FFF7B1FD002844D00023CF
:10ADA000019303930493059341F61D53984239D0C0
:10ADB00002901F4C01A92068FFF7DCF901A8FFF7FA
:10ADC000C7F9002323601948FFF7C6FFFFF7CCFF40
:10ADD00050B30024164B1B68002BD5D0144B1968B8
:10ADE0000B78013B052B1BD801A252F823F000BFC2
:10ADF00095AD020009AE020009AE020011AE0200DC
:10AE000011AE020019AE02002046FFF77FFEC4E734
:10AE10002046FFF783FFC0E72046FFF735FFBCE77A
:10AE20000F20BCE70020C3E706B010BD742E002041
:10AE30007C2E002008B54068FFF7A2FF08BD000087
:10AE400008B50121014800F06EFB08BD782E0020F6
:10AE500008B5FFF7D7FC00220249034800F016FEB0
:10AE600008BD00BF185F03000823002008B51C239D
:10AE70008C220249024800F06DFA08BDA82E00207D
:10AE8000342F002010B50146044800F081FA044632
:10AE90001C22002109F0F8FC204610BD342F0020B0
:10AEA00008B50146014800F07FFA08BD342F0020A4
:10AEB00008B50121034800F02BFB00B108BDFFF7E6
:10AEC0005FFFFBE7442F00202DE9F04182B0354CB5
:10AED0002478002C59D000295CD00D884FF6FF74DF
:10AEE000A54259D04C88002C58D04C6814F0030F60
:10AEF00056D11E460C460746002A2FD01388ADF8BF
:10AF00000630B2F802806846FFF7BCFF054600280D
:10AF10002FD0067000238375BDF8063083826368E6
:10AF20000361FFF78DFFE86023882B816388AB8086
:10AF3000A5F80680032E23D000236B816846FFF717
:10AF4000AFFF3FB100237B60EA683A60BB72164BEB
:10AF50001B893B81FFF7ACFF002217E0B1F80880A6
:10AF60000DF106014046FFF721FA02460028CAD03B
:10AF70000CE0BDF806104046FFF744FA082205E051
:10AF80000423AB753B68AB61D6E70222104602B0E2
:10AF9000BDE8F0810522F9E70422F7E70422F5E78E
:10AFA0000322F3E75C2E0020642E002008B5084B36
:10AFB0001B68042B0AD0034605480168054A42F87D
:10AFC0002130012100F0AFFA002008BD0C20FCE781
:10AFD000502F00204C2E002030B587B00023019365
:10AFE0000293039304930593264B1B782BB92648B1
:10AFF00000F0AFFA40B1002403E001A8FFF7A8F881
:10B000000024204607B030BDFFF722FF0446002889
:10B01000F7D1FFF72BFFFFF7ADFA054602282DD039
:10B02000062811D050B36846FFF72CFF40B3012229
:10B030000270013D0A2D12D8DFE805F00F110F1143
:10B040001D111D11171A17000E4B01221A70002234
:10B050005A6001A8FFF77CF8D3E700220271684626
:10B06000FFF71EFFFFF724FFCBE703220271F6E78D
:10B0700002220271F3E701220271F0E70B24C0E71C
:10B080000824BEE75C2E0020602E0020F8B170B5C9
:10B0900082B00446E9B10D460DF10601FFF7ECF967
:10B0A000C8B16668BDF8063003EB8303980008302A
:10B0B0000A4B18440121043000F035FA2E60636811
:10B0C0000C336B600123A372002002B070BD052019
:10B0D00070470520F9E70A20F7E700BF802E00201F
:10B0E00000B330B583B004460DF10601FFF7C4F993
:10B0F000D0B1BDF8063003EB830291000D4A0A443B
:10B10000D2689AB1A27A9AB10A499A00D518A800D1
:10B1100005460844C06801382944C8600020A07270
:10B1200003B030BD052070470A20F9E70620F7E795
:10B130000620F5E7802E002008B502230022FFF745
:10B14000C3FE08BD28B108B503230022FFF7BCFEEB
:10B1500008BD052070470000104B1B78BBB14FF6AF
:10B16000FF73984215D010B582B0044601A8FFF7CE
:10B1700089FE80B10522027001220271C48001A8FB
:10B18000FFF78EFEFFF794FE002002B010BD0220F4
:10B190007047042070470820F7E700BF5C2E0020AE
:10B1A0000E4B1B78B3B100B583B001A8FFF76AFE60
:10B1B00090B10622027001A8FFF772FE084B1B78BF
:10B1C00013B1074B01221A73FFF772FE002003B080
:10B1D0005DF804FB022070470820F8E75C2E002091
:10B1E000642E002000B583B0ADF8060002A820F858
:10B1F000041D01460DF10600FFF778F903B05DF874
:10B2000004FB10B582B002AC24F8020D13460A46C6
:10B2100021460020FFF76AF902B010BD10B582B0D8
:10B2200002AC24F8020D13460A4600212046FFF71F
:10B230005DF902B010BD20B129B103680B60002098
:10B240007047052070470520704710B483B050E860
:10B25000013F9CB2B0F80EC06444B0F80CC0644525
:10B2600028BFA4EB0C04B0F808C0644502BFBFF3CC
:10B270002F8F002208E0C4EA030440E8014CBCF12F
:10B28000000FE4D14FF001028DF807200093009BDE
:10B290000B609DF8070003B05DF8044B704750E861
:10B2A000012FC2EA024240E80123002BF7D1704788
:10B2B00010B483B050E8023F1FFAA3F4B0F806C000
:10B2C000644502BFBFF32F8F002211E0B0F80EC01B
:10B2D0006444B0F80CC0644528BFA4EB0C04C3EA76
:10B2E000044440E8024CBCF1000FE3D14FF00102EE
:10B2F0008DF807200093009B0B609DF8070003B0BA
:10B300005DF8044B704750E8022FC2EA224240E841
:10B310000223002BF7D1704782B050E8022FC1887A
:10B32000B2EB324F4FF0000317BF92B241EA014136
:10B3300042EA014104E04268B2EB324F08BF012308
:10B3400040E80212002AE8D18DF807309DF8070086
:10B3500002B0704781B110B40C46B2FBF3F103FBAD
:10B36000112189B251B90460416081608281C38139
:10B3700008465DF8044B70470E2070470920F8E737
:10B3800008B5FFF7C9FF08B1002008BD1120FCE790
:10B3900038B505460C46FFF758FF18B128682388D2
:10B3A000184438BD0020FCE708B50A884B889A424B
:10B3B00001D0002008BDFFF772FF0120FAE738B581
:10B3C00005460C46FFF774FF18B1286863881844D7
:10B3D00038BD0020FCE708B50A884B889A4201D0A6
:10B3E000002008BDFFF78FFF0120FAE708B54B09E1
:10B3F00001F01F01012202FA01F100EB830000F0CD
:10B4000066F808BD10B54B0901F01F040121A140E9
:10B4100000EB830000F050F8E04000F0010010BDA8
:10B4200008B54A0901F01F01012303FA01F1C943DC
:10B4300000EB820000F061F808BD4B0950F82300D2
:10B4400001F01F01C84000F0010070472DE9F041F4
:10B4500006460F46002500E001357B1E5B090133DF
:10B46000AB421BD906EB850856F82510C94391FA63
:10B47000A1F1B1FA81F11F29EED801EB4514A742E1
:10B48000EAD921463046FFF7BDFF40B1D8F8001099
:10B49000C94391FAA1F1B1FA81F1ECE73C462046AB
:10B4A000BDE8F08150E8002F0B4640E8003C9CF0DE
:10B4B000000FF7D11046704750E8002F42EA010311
:10B4C00040E8003C9CF0000FF6D11046704750E871
:10B4D000003F43EA010240E8002C9CF0000FF6D147
:10B4E0001046704750E8002F02EA010340E8003C94
:10B4F0009CF0000FF6D11046704750E8003F03EA79
:10B50000010240E8002C9CF0000FF6D11046704775
:10B5100050E8002F02EB010340E8003C9CF0000FD4
:10B52000F6D11046704750E8003F03EB010240E8B7
:10B53000002C9CF0000FF6D11046704750E8003FF9
:10B54000A3EB010240E8002C9CF0000FF6D110465E
:10B55000704708B50121FFF7AFFF08BD08B501210D
:10B56000FFF7B5FF08BD08B50021FFF7BBFF08BD19
:10B57000C368008A00FB01307047C368C91A008A9B
:10B58000B1FBF0F0C0B27047C0B110B4044682689D
:10B590004368D21AD2B201680B6005E021680A68DC
:10B5A000501C086013701A46531EDBB2002AF5D1F6
:10B5B0002368002018715DF8044B70470E20704717
:10B5C00030B583B0044602A8002300F8013DFEF721
:10B5D0007DFD2268136861688B4217D9591E11607E
:10B5E00013F8011C2046FFF7C3FF0546A368226835
:10B5F00011685B1ADBB21179994200D213719DF880
:10B600000700FEF78FFD284603B030BD0025F6E7A2
:10B6100070B582B005460E4602A8002300F8013D31
:10B62000FEF754FD2B681C68621C1A6031462846E0
:10B63000FFF7A3FF20709DF80700FEF773FD02B02F
:10B6400070BD826842B110B5044643690168006963
:10B6500098470023A36010BD70470EB400B582B0B8
:10B66000039921B902B05DF804EB03B0704702AA58
:10B6700004AB42F8043D00F008F9F3E710B50268A6
:10B6800083685C1C8460D154826843689A4200D20B
:10B6900010BDFFF7D6FFFBE72DE9F84F82460F46B6
:10B6A00016461D46DDF828900B9A0B464FF0010810
:10B6B00003E0B3FBF6F308F10108B342F9D2A84561
:10B6C00000D2A84612F0010B13D1B9F1000F10D02F
:10B6D00012F0020F0FD085B1202405E009F1FF39E7
:10B6E00021465046FFF7CAFFB9F1000F01D0C1450E
:10B6F000F4D8012409E02024F6E73024F4E7B7FB6E
:10B70000F4F39E4205D806FB04F4012DF7D9013D60
:10B71000F9E7B7FBF4F304FB13770E4AD15C50460C
:10B72000FFF7ACFFB4FBF6F4002CF2D1BBF1000F35
:10B7300002D0B9F1000F07D1BDE8F88F09F1FF3948
:10B7400020215046FFF79AFFB9F1000FF4D0C14510
:10B75000F4D8F1E70C5D03002DE9F04782B0824692
:10B760008846154699460A9E0B9F81EAE173A3EB32
:10B77000E173012402E093FBF5F301349D42FADD0D
:10B780004C4500D24C4636B1B8F1000F02DB17F041
:10B79000040F00D0013E17F0020F02D0B9F1000FE4
:10B7A00003D017F0010F00D1CEB9B8F1000F1BDBA9
:10B7B00017F0040F1FD107F00303022B20D00197CD
:10B7C00000964B462A4641465046FFF765FF02B0B9
:10B7D000BDE8F087013E20215046FFF74FFF002EC5
:10B7E000E3D0A642F6D8E0E7C8F100082D21504684
:10B7F000FFF744FFDFE72B215046FFF73FFFDAE773
:10B80000B9F1000FDBD12EB9D9E7013E3021504606
:10B81000FFF734FF002ED2D0A642F6D8CFE7F8B516
:10B8200006460D46144613F0010F0ED119B3084613
:10B8300009F086F8074619E0013501373046FFF771
:10B840001DFF29780029F7D106E00027F9E7013C20
:10B8500020213046FFF712FFBC4215D9002CF6D14B
:10B8600012E0013C20213046FFF708FFBC4208D916
:10B87000002CF6D105E00027F8E701353046FFF748
:10B88000FDFE29780029F8D1F8BDF0B583B0054652
:10B8900016460C46002940F08480D4E0002701239E
:10B8A00003E047F00107013483B121782D29F8D056
:10B8B000302903D02B2905D00023F5E747F00207F4
:10B8C0000134F1E747F004070134EDE700222A29AB
:10B8D0000CD02178A1F13000C0B209280CD8013475
:10B8E00002EB820250000A18303AF0E73368191D63
:10B8F00031601B681A44013423782E2B02D00023B8
:10B90000217810E0013400232178A1F13000C0B289
:10B910000928F5D8013403EB830043000B44303B86
:10B92000F2E714F8011F6C29FBD06829F9D02539FA
:10B93000532932D8DFE801F08031313131313131F2
:10B9400031313131313131313131313131313131E7
:10B9500031313131313131313131313131313131D7
:10B9600031313131313131313131315631313131A2
:10B970003131313131312A403131313140313131A0
:10B980003131316A313161314B31315633681A1DF1
:10B99000326019782846FFF771FE01342378002BB6
:10B9A0004FD014F8011B00294BD025293FF476AF66
:10B9B0002846FFF763FEF1E73168081D306009682B
:10B9C000019700920A222846FFF7C6FEE5E7316894
:10B9D000081D30600968019700920A222846FFF787
:10B9E0005BFEDAE73168081D306009680197009254
:10B9F00010222846FFF750FECFE731680B1D336059
:10BA00003B4609682846FFF70AFFC6E733681A1D58
:10BA100032601F6830212846FFF730FE7821284623
:10BA2000FFF72CFE002301930823009310223946D0
:10BA30002846FFF731FEB0E725212846FFF71EFE16
:10BA4000ABE72B7B0BB903B0F0BD2846FFF7F9FD40
:10BA5000F9E7C3688B4206D811440139036999425A
:10BA600003D900207047002070470120704710F074
:10BA7000030F0CBF01200020704743681B68013B87
:10BA80000B420CBF012000207047000010B582B0AF
:10BA900030B1A9B101600C681146A04702B010BDD9
:10BAA0000F4B1048C01AC00800040E2400940E4B1F
:10BAB0000E4A0F4940F00100FDF7A6FA2046EDE7D7
:10BAC000074B0848C01AC00800040E240094064B17
:10BAD000084A074940F00100FDF796FA2046DDE7E5
